{
  "_format": "hh-sol-artifact-1",
  "contractName": "PancakeSwapPair",
  "sourceName": "contracts/libs/dexfactory.sol",
  "abi": [
    {
      "inputs": [],
      "stateMutability": "nonpayable",
      "type": "constructor"
    },
    {
      "anonymous": false,
      "inputs": [
        {
          "indexed": true,
          "internalType": "address",
          "name": "owner",
          "type": "address"
        },
        {
          "indexed": true,
          "internalType": "address",
          "name": "spender",
          "type": "address"
        },
        {
          "indexed": false,
          "internalType": "uint256",
          "name": "value",
          "type": "uint256"
        }
      ],
      "name": "Approval",
      "type": "event"
    },
    {
      "anonymous": false,
      "inputs": [
        {
          "indexed": true,
          "internalType": "address",
          "name": "sender",
          "type": "address"
        },
        {
          "indexed": false,
          "internalType": "uint256",
          "name": "amount0",
          "type": "uint256"
        },
        {
          "indexed": false,
          "internalType": "uint256",
          "name": "amount1",
          "type": "uint256"
        },
        {
          "indexed": true,
          "internalType": "address",
          "name": "to",
          "type": "address"
        }
      ],
      "name": "Burn",
      "type": "event"
    },
    {
      "anonymous": false,
      "inputs": [
        {
          "indexed": true,
          "internalType": "address",
          "name": "sender",
          "type": "address"
        },
        {
          "indexed": false,
          "internalType": "uint256",
          "name": "amount0",
          "type": "uint256"
        },
        {
          "indexed": false,
          "internalType": "uint256",
          "name": "amount1",
          "type": "uint256"
        }
      ],
      "name": "Mint",
      "type": "event"
    },
    {
      "anonymous": false,
      "inputs": [
        {
          "indexed": true,
          "internalType": "address",
          "name": "sender",
          "type": "address"
        },
        {
          "indexed": false,
          "internalType": "uint256",
          "name": "amount0In",
          "type": "uint256"
        },
        {
          "indexed": false,
          "internalType": "uint256",
          "name": "amount1In",
          "type": "uint256"
        },
        {
          "indexed": false,
          "internalType": "uint256",
          "name": "amount0Out",
          "type": "uint256"
        },
        {
          "indexed": false,
          "internalType": "uint256",
          "name": "amount1Out",
          "type": "uint256"
        },
        {
          "indexed": true,
          "internalType": "address",
          "name": "to",
          "type": "address"
        }
      ],
      "name": "Swap",
      "type": "event"
    },
    {
      "anonymous": false,
      "inputs": [
        {
          "indexed": false,
          "internalType": "uint112",
          "name": "reserve0",
          "type": "uint112"
        },
        {
          "indexed": false,
          "internalType": "uint112",
          "name": "reserve1",
          "type": "uint112"
        }
      ],
      "name": "Sync",
      "type": "event"
    },
    {
      "anonymous": false,
      "inputs": [
        {
          "indexed": true,
          "internalType": "address",
          "name": "from",
          "type": "address"
        },
        {
          "indexed": true,
          "internalType": "address",
          "name": "to",
          "type": "address"
        },
        {
          "indexed": false,
          "internalType": "uint256",
          "name": "value",
          "type": "uint256"
        }
      ],
      "name": "Transfer",
      "type": "event"
    },
    {
      "inputs": [],
      "name": "DOMAIN_SEPARATOR",
      "outputs": [
        {
          "internalType": "bytes32",
          "name": "",
          "type": "bytes32"
        }
      ],
      "stateMutability": "view",
      "type": "function"
    },
    {
      "inputs": [],
      "name": "MINIMUM_LIQUIDITY",
      "outputs": [
        {
          "internalType": "uint256",
          "name": "",
          "type": "uint256"
        }
      ],
      "stateMutability": "view",
      "type": "function"
    },
    {
      "inputs": [],
      "name": "PERMIT_TYPEHASH",
      "outputs": [
        {
          "internalType": "bytes32",
          "name": "",
          "type": "bytes32"
        }
      ],
      "stateMutability": "pure",
      "type": "function"
    },
    {
      "inputs": [],
      "name": "SELECTOR",
      "outputs": [
        {
          "internalType": "bytes4",
          "name": "",
          "type": "bytes4"
        }
      ],
      "stateMutability": "view",
      "type": "function"
    },
    {
      "inputs": [],
      "name": "_decimals",
      "outputs": [
        {
          "internalType": "uint8",
          "name": "",
          "type": "uint8"
        }
      ],
      "stateMutability": "view",
      "type": "function"
    },
    {
      "inputs": [],
      "name": "_factory",
      "outputs": [
        {
          "internalType": "address",
          "name": "",
          "type": "address"
        }
      ],
      "stateMutability": "view",
      "type": "function"
    },
    {
      "inputs": [],
      "name": "_kLast",
      "outputs": [
        {
          "internalType": "uint256",
          "name": "",
          "type": "uint256"
        }
      ],
      "stateMutability": "view",
      "type": "function"
    },
    {
      "inputs": [],
      "name": "_name",
      "outputs": [
        {
          "internalType": "string",
          "name": "",
          "type": "string"
        }
      ],
      "stateMutability": "view",
      "type": "function"
    },
    {
      "inputs": [],
      "name": "_price0CumulativeLast",
      "outputs": [
        {
          "internalType": "uint256",
          "name": "",
          "type": "uint256"
        }
      ],
      "stateMutability": "view",
      "type": "function"
    },
    {
      "inputs": [],
      "name": "_price1CumulativeLast",
      "outputs": [
        {
          "internalType": "uint256",
          "name": "",
          "type": "uint256"
        }
      ],
      "stateMutability": "view",
      "type": "function"
    },
    {
      "inputs": [],
      "name": "_symbol",
      "outputs": [
        {
          "internalType": "string",
          "name": "",
          "type": "string"
        }
      ],
      "stateMutability": "view",
      "type": "function"
    },
    {
      "inputs": [],
      "name": "_token0",
      "outputs": [
        {
          "internalType": "address",
          "name": "",
          "type": "address"
        }
      ],
      "stateMutability": "view",
      "type": "function"
    },
    {
      "inputs": [],
      "name": "_token1",
      "outputs": [
        {
          "internalType": "address",
          "name": "",
          "type": "address"
        }
      ],
      "stateMutability": "view",
      "type": "function"
    },
    {
      "inputs": [],
      "name": "_totalSupply",
      "outputs": [
        {
          "internalType": "uint256",
          "name": "",
          "type": "uint256"
        }
      ],
      "stateMutability": "view",
      "type": "function"
    },
    {
      "inputs": [
        {
          "internalType": "address",
          "name": "owner",
          "type": "address"
        },
        {
          "internalType": "address",
          "name": "spender",
          "type": "address"
        }
      ],
      "name": "allowance",
      "outputs": [
        {
          "internalType": "uint256",
          "name": "",
          "type": "uint256"
        }
      ],
      "stateMutability": "view",
      "type": "function"
    },
    {
      "inputs": [
        {
          "internalType": "address",
          "name": "spender",
          "type": "address"
        },
        {
          "internalType": "uint256",
          "name": "value",
          "type": "uint256"
        }
      ],
      "name": "approve",
      "outputs": [
        {
          "internalType": "bool",
          "name": "",
          "type": "bool"
        }
      ],
      "stateMutability": "nonpayable",
      "type": "function"
    },
    {
      "inputs": [
        {
          "internalType": "address",
          "name": "owner",
          "type": "address"
        }
      ],
      "name": "balanceOf",
      "outputs": [
        {
          "internalType": "uint256",
          "name": "",
          "type": "uint256"
        }
      ],
      "stateMutability": "view",
      "type": "function"
    },
    {
      "inputs": [
        {
          "internalType": "address",
          "name": "to",
          "type": "address"
        }
      ],
      "name": "burn",
      "outputs": [
        {
          "internalType": "uint256",
          "name": "amount0",
          "type": "uint256"
        },
        {
          "internalType": "uint256",
          "name": "amount1",
          "type": "uint256"
        }
      ],
      "stateMutability": "nonpayable",
      "type": "function"
    },
    {
      "inputs": [],
      "name": "decimals",
      "outputs": [
        {
          "internalType": "uint8",
          "name": "",
          "type": "uint8"
        }
      ],
      "stateMutability": "pure",
      "type": "function"
    },
    {
      "inputs": [],
      "name": "factory",
      "outputs": [
        {
          "internalType": "address",
          "name": "",
          "type": "address"
        }
      ],
      "stateMutability": "view",
      "type": "function"
    },
    {
      "inputs": [],
      "name": "getReserves",
      "outputs": [
        {
          "internalType": "uint112",
          "name": "reserve0",
          "type": "uint112"
        },
        {
          "internalType": "uint112",
          "name": "reserve1",
          "type": "uint112"
        },
        {
          "internalType": "uint32",
          "name": "blockTimestampLast",
          "type": "uint32"
        }
      ],
      "stateMutability": "view",
      "type": "function"
    },
    {
      "inputs": [
        {
          "internalType": "address",
          "name": "token00",
          "type": "address"
        },
        {
          "internalType": "address",
          "name": "token11",
          "type": "address"
        }
      ],
      "name": "initialize",
      "outputs": [],
      "stateMutability": "nonpayable",
      "type": "function"
    },
    {
      "inputs": [],
      "name": "kLast",
      "outputs": [
        {
          "internalType": "uint256",
          "name": "",
          "type": "uint256"
        }
      ],
      "stateMutability": "view",
      "type": "function"
    },
    {
      "inputs": [
        {
          "internalType": "address",
          "name": "to",
          "type": "address"
        }
      ],
      "name": "mint",
      "outputs": [
        {
          "internalType": "uint256",
          "name": "liquidity",
          "type": "uint256"
        }
      ],
      "stateMutability": "nonpayable",
      "type": "function"
    },
    {
      "inputs": [],
      "name": "name",
      "outputs": [
        {
          "internalType": "string",
          "name": "",
          "type": "string"
        }
      ],
      "stateMutability": "pure",
      "type": "function"
    },
    {
      "inputs": [
        {
          "internalType": "address",
          "name": "owner",
          "type": "address"
        }
      ],
      "name": "nonces",
      "outputs": [
        {
          "internalType": "uint256",
          "name": "",
          "type": "uint256"
        }
      ],
      "stateMutability": "view",
      "type": "function"
    },
    {
      "inputs": [
        {
          "internalType": "address",
          "name": "owner",
          "type": "address"
        },
        {
          "internalType": "address",
          "name": "spender",
          "type": "address"
        },
        {
          "internalType": "uint256",
          "name": "value",
          "type": "uint256"
        },
        {
          "internalType": "uint256",
          "name": "deadline",
          "type": "uint256"
        },
        {
          "internalType": "uint8",
          "name": "v",
          "type": "uint8"
        },
        {
          "internalType": "bytes32",
          "name": "r",
          "type": "bytes32"
        },
        {
          "internalType": "bytes32",
          "name": "s",
          "type": "bytes32"
        }
      ],
      "name": "permit",
      "outputs": [],
      "stateMutability": "nonpayable",
      "type": "function"
    },
    {
      "inputs": [],
      "name": "price0CumulativeLast",
      "outputs": [
        {
          "internalType": "uint256",
          "name": "",
          "type": "uint256"
        }
      ],
      "stateMutability": "view",
      "type": "function"
    },
    {
      "inputs": [],
      "name": "price1CumulativeLast",
      "outputs": [
        {
          "internalType": "uint256",
          "name": "",
          "type": "uint256"
        }
      ],
      "stateMutability": "view",
      "type": "function"
    },
    {
      "inputs": [
        {
          "internalType": "address",
          "name": "to",
          "type": "address"
        }
      ],
      "name": "skim",
      "outputs": [],
      "stateMutability": "nonpayable",
      "type": "function"
    },
    {
      "inputs": [
        {
          "internalType": "uint256",
          "name": "amount0Out",
          "type": "uint256"
        },
        {
          "internalType": "uint256",
          "name": "amount1Out",
          "type": "uint256"
        },
        {
          "internalType": "address",
          "name": "to",
          "type": "address"
        },
        {
          "internalType": "bytes",
          "name": "data",
          "type": "bytes"
        }
      ],
      "name": "swap",
      "outputs": [],
      "stateMutability": "nonpayable",
      "type": "function"
    },
    {
      "inputs": [],
      "name": "symbol",
      "outputs": [
        {
          "internalType": "string",
          "name": "",
          "type": "string"
        }
      ],
      "stateMutability": "pure",
      "type": "function"
    },
    {
      "inputs": [],
      "name": "sync",
      "outputs": [],
      "stateMutability": "nonpayable",
      "type": "function"
    },
    {
      "inputs": [],
      "name": "token0",
      "outputs": [
        {
          "internalType": "address",
          "name": "",
          "type": "address"
        }
      ],
      "stateMutability": "view",
      "type": "function"
    },
    {
      "inputs": [],
      "name": "token1",
      "outputs": [
        {
          "internalType": "address",
          "name": "",
          "type": "address"
        }
      ],
      "stateMutability": "view",
      "type": "function"
    },
    {
      "inputs": [],
      "name": "totalSupply",
      "outputs": [
        {
          "internalType": "uint256",
          "name": "",
          "type": "uint256"
        }
      ],
      "stateMutability": "view",
      "type": "function"
    },
    {
      "inputs": [
        {
          "internalType": "address",
          "name": "to",
          "type": "address"
        },
        {
          "internalType": "uint256",
          "name": "value",
          "type": "uint256"
        }
      ],
      "name": "transfer",
      "outputs": [
        {
          "internalType": "bool",
          "name": "",
          "type": "bool"
        }
      ],
      "stateMutability": "nonpayable",
      "type": "function"
    },
    {
      "inputs": [
        {
          "internalType": "address",
          "name": "from",
          "type": "address"
        },
        {
          "internalType": "address",
          "name": "to",
          "type": "address"
        },
        {
          "internalType": "uint256",
          "name": "value",
          "type": "uint256"
        }
      ],
      "name": "transferFrom",
      "outputs": [
        {
          "internalType": "bool",
          "name": "",
          "type": "bool"
        }
      ],
      "stateMutability": "nonpayable",
      "type": "function"
    }
  ],
  "bytecode": "0x60c0604052600c60808190526b02830b731b0b5b2a9bbb0b8160a51b60a09081526200002f916000919062000174565b5060408051808201909152600a80825269050616e63616b652d4c560b41b6020909201918252620000639160019162000174565b506002805460ff191660121790557f6e71edae12b1b97f4d1f60370fef10105fa2faae0126114a169c64845d6126c96007556001601055348015620000a757600080fd5b5060405146907f8b73c3c69bb8fe3d512ecc4cf759cc79239f7b179b0ffacaa9a75d522b39400f90620000dd906000906200021a565b60408051918290038220828201825260018352603160f81b6020938401528151928301939093528101919091527fc89efdaa54c0f20c7adf612882df0950f5a951637e0307cdcb4c672f298b8bc66060820152608081018290523060a082015260c00160408051601f19818403018152919052805160209091012060065550600980546001600160a01b03191633179055620002fa565b8280546200018290620002bd565b90600052602060002090601f016020900481019282620001a65760008555620001f1565b82601f10620001c157805160ff1916838001178555620001f1565b82800160010185558215620001f1579182015b82811115620001f1578251825591602001919060010190620001d4565b50620001ff92915062000203565b5090565b5b80821115620001ff576000815560010162000204565b600080835482600182811c9150808316806200023757607f831692505b60208084108214156200025857634e487b7160e01b87526022600452602487fd5b8180156200026f57600181146200028157620002af565b60ff19861689528489019650620002af565b60008a815260209020885b86811015620002a75781548b8201529085019083016200028c565b505084890196505b509498975050505050505050565b600181811c90821680620002d257607f821691505b60208210811415620002f457634e487b7160e01b600052602260045260246000fd5b50919050565b6124d5806200030a6000396000f3fe608060405234801561001057600080fd5b50600436106101c25760003560e01c8063022c0d9f146101c7578063053c238d146101dc57806306fdde03146102525780630902f1ac14610281578063095ea7b3146102b55780630dfe1681146102d857806318160ddd146102f257806323b872dd1461030457806330adf81f14610317578063313ce5671461033d57806332424aa3146103525780633644e5151461035f5780633eaaf86b14610367578063485cc95514610370578063496b35b9146103835780634ef4ebaf146103965780635909c0d5146103a95780635a3d5493146103b15780636a627842146103b95780636f642e7f146103cc57806370a08231146103d55780637464fc3d146103fe5780637ecebe001461040657806389afcb441461042f57806395d89b4114610457578063a9059cbb1461047c578063b09f12661461048f578063ba9a7a5614610497578063bc25cf77146104a0578063c45a0155146104b3578063c5cc6b6a146104c4578063d21220a7146104d7578063d28d8852146104e8578063d505accf146104f0578063dd62ed3e14610503578063e6a987c61461053c578063e78f81ea14610545578063fff6cae91461054e575b600080fd5b6101da6101d536600461213f565b610556565b005b6040805180820190915260198152787472616e7366657228616464726573732c75696e743235362960381b6020909101526102347fa9059cbb2ab09eb219583f4a59a5d0623ade346d962bcd4e46b11da047c9049b81565b6040516001600160e01b031990911681526020015b60405180910390f35b60408051808201909152600a815269050616e63616b65204c560b41b60208201525b604051610249919061224b565b610289610a7d565b604080516001600160701b03948516815293909216602084015263ffffffff1690820152606001610249565b6102c86102c33660046120dc565b610aa7565b6040519015158152602001610249565b600a546001600160a01b03165b60405161024991906121eb565b6003545b604051908152602001610249565b6102c8610312366004612027565b610abe565b7f6e71edae12b1b97f4d1f60370fef10105fa2faae0126114a169c64845d6126c96102f6565b60125b60405160ff9091168152602001610249565b6002546103409060ff1681565b6006546102f6565b6102f660035481565b6101da61037e366004611fef565b610b5d565b600b546102e5906001600160a01b031681565b600a546102e5906001600160a01b031681565b600d546102f6565b600e546102f6565b6102f66103c7366004611fb7565b610bde565b6102f6600e5481565b6102f66103e3366004611fb7565b6001600160a01b031660009081526004602052604090205490565b600f546102f6565b6102f6610414366004611fb7565b6001600160a01b031660009081526008602052604090205490565b61044261043d366004611fb7565b610ebb565b60408051928352602083019190915201610249565b60408051808201909152600981526813140814de5b589bdb60ba1b6020820152610274565b6102c861048a3660046120dc565b61125f565b61027461126c565b6102f66103e881565b6101da6104ae366004611fb7565b6112fa565b6009546001600160a01b03166102e5565b6009546102e5906001600160a01b031681565b600b546001600160a01b03166102e5565b610274611427565b6101da6104fe366004612067565b611434565b6102f6610511366004611fef565b6001600160a01b03918216600090815260056020908152604080832093909416825291909152205490565b6102f6600f5481565b6102f6600d5481565b6101da61162b565b6010546001146105815760405162461bcd60e51b81526004016105789061227e565b60405180910390fd5b6000601055841515806105945750600084115b6105f05760405162461bcd60e51b815260206004820152602760248201527f50616e63616b65537761703a20494e53554646494349454e545f4f555450555460448201526617d05353d5539560ca1b6064820152608401610578565b6000806105fb610a7d565b5091509150816001600160701b0316871080156106205750806001600160701b031686105b6106665760405162461bcd60e51b8152602060048201526023602482015260008051602061246083398151915260448201526249545960e81b6064820152608401610578565b600a54600b5460009182916001600160a01b039182169190811690891682148015906106a45750806001600160a01b0316896001600160a01b031614155b6106ea5760405162461bcd60e51b815260206004820152601760248201527650616e63616b65537761703a20494e56414c49445f544f60481b6044820152606401610578565b8a156106fb576106fb828a8d611777565b891561070c5761070c818a8c611777565b861561077957604051636d7e4f1360e01b81526001600160a01b038a1690636d7e4f13906107469033908f908f908e908e906004016121ff565b600060405180830381600087803b15801561076057600080fd5b505af1158015610774573d6000803e3d6000fd5b505050505b6040516370a0823160e01b81526001600160a01b038316906370a08231906107a59030906004016121eb565b60206040518083038186803b1580156107bd57600080fd5b505afa1580156107d1573d6000803e3d6000fd5b505050506040513d601f19601f820116820180604052508101906107f59190612127565b6040516370a0823160e01b81529094506001600160a01b038216906370a08231906108249030906004016121eb565b60206040518083038186803b15801561083c57600080fd5b505afa158015610850573d6000803e3d6000fd5b505050506040513d601f19601f820116820180604052508101906108749190612127565b92505050600089856001600160701b031661088f919061234b565b831161089c5760006108b9565b6108af8a6001600160701b03871661234b565b6108b9908461234b565b905060006108d08a6001600160701b03871661234b565b83116108dd5760006108fa565b6108f08a6001600160701b03871661234b565b6108fa908461234b565b9050600082118061090b5750600081115b6109665760405162461bcd60e51b815260206004820152602660248201527f50616e63616b65537761703a20494e53554646494349454e545f494e5055545f604482015265105353d5539560d21b6064820152608401610578565b60006109886109768460036118ca565b610982876103e86118ca565b90611931565b9050600061099a6109768460036118ca565b90506109bf620f42406109b96001600160701b038b8116908b166118ca565b906118ca565b6109c983836118ca565b1015610a085760405162461bcd60e51b815260206004820152600e60248201526d50616e63616b65537761703a204b60901b6044820152606401610578565b5050610a1684848888611987565b60408051838152602081018390529081018c9052606081018b90526001600160a01b038a169033907fd78ad95fa46c994b6551d0da85fc275fe613ce37657fb8d5e3d130840159d8229060800160405180910390a350506001601055505050505050505050565b600c546001600160701b0380821692600160701b830490911691600160e01b900463ffffffff1690565b6000610ab4338484611b74565b5060015b92915050565b6001600160a01b03831660009081526005602090815260408083203384529091528120548190610aef90849061234b565b1115610b48576001600160a01b0384166000908152600560209081526040808320338452909152902054610b239083611931565b6001600160a01b03851660009081526005602090815260408083203384529091529020555b610b53848484611bd6565b5060019392505050565b6009546001600160a01b03163314610bb05760405162461bcd60e51b81526020600482015260166024820152752830b731b0b5b2a9bbb0b81d102327a92124a22222a760511b6044820152606401610578565b600a80546001600160a01b039384166001600160a01b031991821617909155600b8054929093169116179055565b6000601054600114610c025760405162461bcd60e51b81526004016105789061227e565b6000601081905580610c12610a7d565b50600a546040516370a0823160e01b81529294509092506000916001600160a01b03909116906370a0823190610c4c9030906004016121eb565b60206040518083038186803b158015610c6457600080fd5b505afa158015610c78573d6000803e3d6000fd5b505050506040513d601f19601f82011682018060405250810190610c9c9190612127565b600b546040516370a0823160e01b81529192506000916001600160a01b03909116906370a0823190610cd29030906004016121eb565b60206040518083038186803b158015610cea57600080fd5b505afa158015610cfe573d6000803e3d6000fd5b505050506040513d601f19601f82011682018060405250810190610d229190612127565b90506000610d39836001600160701b038716611931565b90506000610d50836001600160701b038716611931565b90506000610d5e8787611c6a565b60035490915080610d9557610d816103e8610982610d7c87876118ca565b611db6565b9850610d9060006103e8611e26565b610ddc565b610dd96001600160701b038916610dac86846118ca565b610db691906122e9565b6001600160701b038916610dca86856118ca565b610dd491906122e9565b611ea4565b98505b60008911610e2d5760405162461bcd60e51b815260206004820152602a602482015260008051602061246083398151915260448201526912551657d3525395115160b21b6064820152608401610578565b610e378a8a611e26565b610e4386868a8a611987565b8115610e6d57600c54610e69906001600160701b0380821691600160701b9004166118ca565b600f555b604080518581526020810185905233917f4c209b5fc8ad50758f13e2e1088ba56a560dff690a1c6fef26394f4c03821c4f910160405180910390a25050600160105550949695505050505050565b600080601054600114610ee05760405162461bcd60e51b81526004016105789061227e565b6000601081905580610ef0610a7d565b50600a54600b546040516370a0823160e01b81529395509193506001600160a01b039081169291169060009083906370a0823190610f329030906004016121eb565b60206040518083038186803b158015610f4a57600080fd5b505afa158015610f5e573d6000803e3d6000fd5b505050506040513d601f19601f82011682018060405250810190610f829190612127565b90506000826001600160a01b03166370a08231306040518263ffffffff1660e01b8152600401610fb291906121eb565b60206040518083038186803b158015610fca57600080fd5b505afa158015610fde573d6000803e3d6000fd5b505050506040513d601f19601f820116820180604052508101906110029190612127565b3060009081526004602052604081205491925061101f8888611c6a565b6003549091508061103084876118ca565b61103a91906122e9565b9a508061104784866118ca565b61105191906122e9565b995060008b118015611063575060008a115b6110b05760405162461bcd60e51b815260206004820152602a602482015260008051602061246083398151915260448201526912551657d0955493915160b21b6064820152608401610578565b6110ba3084611ebc565b6110c5878d8d611777565b6110d0868d8c611777565b6040516370a0823160e01b81526001600160a01b038816906370a08231906110fc9030906004016121eb565b60206040518083038186803b15801561111457600080fd5b505afa158015611128573d6000803e3d6000fd5b505050506040513d601f19601f8201168201806040525081019061114c9190612127565b6040516370a0823160e01b81529095506001600160a01b038716906370a082319061117b9030906004016121eb565b60206040518083038186803b15801561119357600080fd5b505afa1580156111a7573d6000803e3d6000fd5b505050506040513d601f19601f820116820180604052508101906111cb9190612127565b93506111d985858b8b611987565b811561120357600c546111ff906001600160701b0380821691600160701b9004166118ca565b600f555b604080518c8152602081018c90526001600160a01b038e169133917fdccd412f0b1252819cb1fd330b93224ca42612892bb3f4f789976e6d81936496910160405180910390a35050505050505050506001601081905550915091565b6000610ab4338484611bd6565b60018054611279906123b7565b80601f01602080910402602001604051908101604052809291908181526020018280546112a5906123b7565b80156112f25780601f106112c7576101008083540402835291602001916112f2565b820191906000526020600020905b8154815290600101906020018083116112d557829003601f168201915b505050505081565b60105460011461131c5760405162461bcd60e51b81526004016105789061227e565b6000601055600a54600b54600c546040516370a0823160e01b81526001600160a01b0393841693909216916113ca91849186916113c5916001600160701b039091169084906370a08231906113759030906004016121eb565b60206040518083038186803b15801561138d57600080fd5b505afa1580156113a1573d6000803e3d6000fd5b505050506040513d601f19601f820116820180604052508101906109829190612127565b611777565b61141d81846113c5600c600e9054906101000a90046001600160701b03166001600160701b0316856001600160a01b03166370a08231306040518263ffffffff1660e01b815260040161137591906121eb565b5050600160105550565b60008054611279906123b7565b4284101561147b5760405162461bcd60e51b815260206004820152601460248201527314185b98d85ad954ddd85c0e881156141254915160621b6044820152606401610578565b6006546007546001600160a01b03891660009081526008602052604081208054919392918b918b918b91876114af836123ec565b909155506040805160208101969096526001600160a01b0394851690860152929091166060840152608083015260a082015260c0810187905260e0016040516020818303038152906040528051906020012060405160200161152892919061190160f01b81526002810192909252602282015260420190565b60408051601f198184030181528282528051602091820120600080855291840180845281905260ff88169284019290925260608301869052608083018590529092509060019060a0016020604051602081039080840390855afa158015611593573d6000803e3d6000fd5b5050604051601f1901519150506001600160a01b038116158015906115c95750886001600160a01b0316816001600160a01b0316145b6116155760405162461bcd60e51b815260206004820152601e60248201527f50616e63616b65537761703a20494e56414c49445f5349474e415455524500006044820152606401610578565b611620898989611b74565b505050505050505050565b60105460011461164d5760405162461bcd60e51b81526004016105789061227e565b6000601055600a546040516370a0823160e01b8152611770916001600160a01b0316906370a08231906116849030906004016121eb565b60206040518083038186803b15801561169c57600080fd5b505afa1580156116b0573d6000803e3d6000fd5b505050506040513d601f19601f820116820180604052508101906116d49190612127565b600b546040516370a0823160e01b81526001600160a01b03909116906370a08231906117049030906004016121eb565b60206040518083038186803b15801561171c57600080fd5b505afa158015611730573d6000803e3d6000fd5b505050506040513d601f19601f820116820180604052508101906117549190612127565b600c546001600160701b0380821691600160701b900416611987565b6001601055565b60408051808201825260198152787472616e7366657228616464726573732c75696e743235362960381b60209182015281516001600160a01b0385811660248301526044808301869052845180840390910181526064909201845291810180516001600160e01b031663a9059cbb60e01b179052915160009283928716916117ff91906121cf565b6000604051808303816000865af19150503d806000811461183c576040519150601f19603f3d011682016040523d82523d6000602084013e611841565b606091505b509150915081801561186b57508051158061186b57508080602001905181019061186b9190612107565b6118c35760405162461bcd60e51b815260206004820152602360248201527f50616e63616b6553776170466163746f72793a205452414e534645525f46414960448201526213115160ea1b6064820152608401610578565b5050505050565b60008115806118ee575082826118e0818361232c565b92506118ec90836122e9565b145b610ab85760405162461bcd60e51b815260206004820152601460248201527364732d6d6174682d6d756c2d6f766572666c6f7760601b6044820152606401610578565b60008261193e838261234b565b9150811115610ab85760405162461bcd60e51b815260206004820152601560248201527464732d6d6174682d7375622d756e646572666c6f7760581b6044820152606401610578565b6001600160701b0384118015906119a557506001600160701b038311155b6119e95760405162461bcd60e51b815260206004820152601560248201527450616e63616b65537761703a204f564552464c4f5760581b6044820152606401610578565b60006119f9600160201b42612407565b600c54909150600090611a1990600160e01b900463ffffffff1683612362565b905060008163ffffffff16118015611a3957506001600160701b03841615155b8015611a4d57506001600160701b03831615155b15611adc578063ffffffff16611a7585611a6686611f34565b6001600160e01b031690611f4d565b6001600160e01b0316611a88919061232c565b600d6000828254611a9991906122ab565b909155505063ffffffff8116611ab284611a6687611f34565b6001600160e01b0316611ac5919061232c565b600e6000828254611ad691906122ab565b90915550505b600c805463ffffffff8416600160e01b026001600160e01b036001600160701b03898116600160701b9081026001600160e01b03199095168c83161794909417918216831794859055604080519382169282169290921783529290930490911660208201527f1c411e9a96e071241c2f21f7726b17ae89e3cab4c78be50e062b03a9fffbbad1910160405180910390a1505050505050565b6001600160a01b0383811660008181526005602090815260408083209487168084529482529182902085905590518481527f8c5be1e5ebec7d5bd14f71427d1e84f3dd0314c0f7b2291e5b200ac8c7c3b92591015b60405180910390a3505050565b6001600160a01b038316600090815260046020526040902054611bf99082611931565b6001600160a01b038085166000908152600460205260408082209390935590841681522054611c289082611f62565b6001600160a01b03808416600081815260046020526040908190209390935591519085169060008051602061248083398151915290611bc99085815260200190565b600080600960009054906101000a90046001600160a01b03166001600160a01b031663017e7e586040518163ffffffff1660e01b815260040160206040518083038186803b158015611cbb57600080fd5b505afa158015611ccf573d6000803e3d6000fd5b505050506040513d601f19601f82011682018060405250810190611cf39190611fd3565b600f546001600160a01b038216158015945091925090611da2578015611d9d576000611d2e610d7c6001600160701b038881169088166118ca565b90506000611d3b83611db6565b905080821115611d9a576000611d5d611d548484611931565b600354906118ca565b90506000611d7683611d708660056118ca565b90611f62565b90506000611d8482846122e9565b90508015611d9657611d968782611e26565b5050505b50505b611dae565b8015611dae576000600f555b505092915050565b60006003821115611e175750806000611dd06002836122e9565b611ddb9060016122ab565b90505b81811015611e1157905080600281611df681866122e9565b611e0091906122ab565b611e0a91906122e9565b9050611dde565b50919050565b8115611e21575060015b919050565b600354611e339082611f62565b6003556001600160a01b038216600090815260046020526040902054611e599082611f62565b6001600160a01b03831660008181526004602052604080822093909355915190919060008051602061248083398151915290611e989085815260200190565b60405180910390a35050565b6000818310611eb35781611eb5565b825b9392505050565b6001600160a01b038216600090815260046020526040902054611edf9082611931565b6001600160a01b038316600090815260046020526040902055600354611f059082611931565b6003556040518181526000906001600160a01b0384169060008051602061248083398151915290602001611e98565b6000610ab8600160701b6001600160701b0384166122fd565b6000611eb56001600160701b038316846122c3565b600082611f6f83826122ab565b9150811015610ab85760405162461bcd60e51b815260206004820152601460248201527364732d6d6174682d6164642d6f766572666c6f7760601b6044820152606401610578565b600060208284031215611fc8578081fd5b8135611eb581612447565b600060208284031215611fe4578081fd5b8151611eb581612447565b60008060408385031215612001578081fd5b823561200c81612447565b9150602083013561201c81612447565b809150509250929050565b60008060006060848603121561203b578081fd5b833561204681612447565b9250602084013561205681612447565b929592945050506040919091013590565b600080600080600080600060e0888a031215612081578283fd5b873561208c81612447565b9650602088013561209c81612447565b95506040880135945060608801359350608088013560ff811681146120bf578384fd5b9699959850939692959460a0840135945060c09093013592915050565b600080604083850312156120ee578182fd5b82356120f981612447565b946020939093013593505050565b600060208284031215612118578081fd5b81518015158114611eb5578182fd5b600060208284031215612138578081fd5b5051919050565b600080600080600060808688031215612156578081fd5b8535945060208601359350604086013561216f81612447565b925060608601356001600160401b038082111561218a578283fd5b818801915088601f83011261219d578283fd5b8135818111156121ab578384fd5b8960208285010111156121bc578384fd5b9699959850939650602001949392505050565b600082516121e1818460208701612387565b9190910192915050565b6001600160a01b0391909116815260200190565b60018060a01b038616815284602082015283604082015260806060820152816080820152818360a0830137600081830160a090810191909152601f909201601f19160101949350505050565b602081526000825180602084015261226a816040850160208701612387565b601f01601f19169190910160400192915050565b60208082526013908201527214185b98d85ad954ddd85c0e881313d0d2d151606a1b604082015260600190565b600082198211156122be576122be61241b565b500190565b60006001600160e01b03838116806122dd576122dd612431565b92169190910492915050565b6000826122f8576122f8612431565b500490565b60006001600160e01b03828116848216811515828404821116156123235761232361241b565b02949350505050565b60008160001904831182151516156123465761234661241b565b500290565b60008282101561235d5761235d61241b565b500390565b600063ffffffff8381169083168181101561237f5761237f61241b565b039392505050565b60005b838110156123a257818101518382015260200161238a565b838111156123b1576000848401525b50505050565b600181811c908216806123cb57607f821691505b60208210811415611e1157634e487b7160e01b600052602260045260246000fd5b60006000198214156124005761240061241b565b5060010190565b60008261241657612416612431565b500690565b634e487b7160e01b600052601160045260246000fd5b634e487b7160e01b600052601260045260246000fd5b6001600160a01b038116811461245c57600080fd5b5056fe50616e63616b65537761703a20494e53554646494349454e545f4c4951554944ddf252ad1be2c89b69c2b068fc378daa952ba7f163c4a11628f55a4df523b3efa264697066735822122063192e7d7b81ba5578f48d6aaeddecbdade1c2c434e38150c78f8265080c7a8c64736f6c63430008040033",
  "linkReferences": {},
  "deployedLinkReferences": {}
}