{
  "_format": "hh-sol-artifact-1",
  "contractName": "SmartComp",
  "sourceName": "contracts/SmartComp.sol",
  "abi": [
    {
      "anonymous": false,
      "inputs": [
        {
          "indexed": false,
          "internalType": "address",
          "name": "previousAdmin",
          "type": "address"
        },
        {
          "indexed": false,
          "internalType": "address",
          "name": "newAdmin",
          "type": "address"
        }
      ],
      "name": "AdminChanged",
      "type": "event"
    },
    {
      "anonymous": false,
      "inputs": [
        {
          "indexed": true,
          "internalType": "address",
          "name": "beacon",
          "type": "address"
        }
      ],
      "name": "BeaconUpgraded",
      "type": "event"
    },
    {
      "anonymous": false,
      "inputs": [
        {
          "indexed": false,
          "internalType": "contract IGoldenTreePool",
          "name": "oldPool",
          "type": "address"
        },
        {
          "indexed": false,
          "internalType": "contract IGoldenTreePool",
          "name": "newPool",
          "type": "address"
        }
      ],
      "name": "NewGoldenTreePool",
      "type": "event"
    },
    {
      "anonymous": false,
      "inputs": [
        {
          "indexed": false,
          "internalType": "contract ISmartArmy",
          "name": "oldSmartArmy",
          "type": "address"
        },
        {
          "indexed": false,
          "internalType": "contract ISmartArmy",
          "name": "newSmartArmy",
          "type": "address"
        }
      ],
      "name": "NewSmartArmy",
      "type": "event"
    },
    {
      "anonymous": false,
      "inputs": [
        {
          "indexed": false,
          "internalType": "contract ISmartFarm",
          "name": "oldSmartFarm",
          "type": "address"
        },
        {
          "indexed": false,
          "internalType": "contract ISmartFarm",
          "name": "newSmartFarm",
          "type": "address"
        }
      ],
      "name": "NewSmartFarm",
      "type": "event"
    },
    {
      "anonymous": false,
      "inputs": [
        {
          "indexed": false,
          "internalType": "contract ISmartLadder",
          "name": "oldSmartLadder",
          "type": "address"
        },
        {
          "indexed": false,
          "internalType": "contract ISmartLadder",
          "name": "newSmartLadder",
          "type": "address"
        }
      ],
      "name": "NewSmartLadder",
      "type": "event"
    },
    {
      "anonymous": false,
      "inputs": [
        {
          "indexed": true,
          "internalType": "address",
          "name": "previousOwner",
          "type": "address"
        },
        {
          "indexed": true,
          "internalType": "address",
          "name": "newOwner",
          "type": "address"
        }
      ],
      "name": "OwnershipTransferred",
      "type": "event"
    },
    {
      "anonymous": false,
      "inputs": [
        {
          "indexed": true,
          "internalType": "address",
          "name": "implementation",
          "type": "address"
        }
      ],
      "name": "Upgraded",
      "type": "event"
    },
    {
      "inputs": [],
      "name": "busdToken",
      "outputs": [
        {
          "internalType": "contract IERC20",
          "name": "",
          "type": "address"
        }
      ],
      "stateMutability": "view",
      "type": "function"
    },
    {
      "inputs": [],
      "name": "getBUSD",
      "outputs": [
        {
          "internalType": "contract IERC20",
          "name": "",
          "type": "address"
        }
      ],
      "stateMutability": "view",
      "type": "function"
    },
    {
      "inputs": [],
      "name": "getGoldenTreePool",
      "outputs": [
        {
          "internalType": "contract IGoldenTreePool",
          "name": "",
          "type": "address"
        }
      ],
      "stateMutability": "view",
      "type": "function"
    },
    {
      "inputs": [],
      "name": "getSMT",
      "outputs": [
        {
          "internalType": "contract IERC20",
          "name": "",
          "type": "address"
        }
      ],
      "stateMutability": "view",
      "type": "function"
    },
    {
      "inputs": [],
      "name": "getSMTC",
      "outputs": [
        {
          "internalType": "contract ISmartTokenCash",
          "name": "",
          "type": "address"
        }
      ],
      "stateMutability": "view",
      "type": "function"
    },
    {
      "inputs": [],
      "name": "getSmartArmy",
      "outputs": [
        {
          "internalType": "contract ISmartArmy",
          "name": "",
          "type": "address"
        }
      ],
      "stateMutability": "view",
      "type": "function"
    },
    {
      "inputs": [],
      "name": "getSmartBridge",
      "outputs": [
        {
          "internalType": "address",
          "name": "",
          "type": "address"
        }
      ],
      "stateMutability": "view",
      "type": "function"
    },
    {
      "inputs": [],
      "name": "getSmartFarm",
      "outputs": [
        {
          "internalType": "contract ISmartFarm",
          "name": "",
          "type": "address"
        }
      ],
      "stateMutability": "view",
      "type": "function"
    },
    {
      "inputs": [],
      "name": "getSmartLadder",
      "outputs": [
        {
          "internalType": "contract ISmartLadder",
          "name": "",
          "type": "address"
        }
      ],
      "stateMutability": "view",
      "type": "function"
    },
    {
      "inputs": [],
      "name": "getSmartNobilityAchievement",
      "outputs": [
        {
          "internalType": "contract ISmartNobilityAchievement",
          "name": "",
          "type": "address"
        }
      ],
      "stateMutability": "view",
      "type": "function"
    },
    {
      "inputs": [],
      "name": "getSmartOtherAchievement",
      "outputs": [
        {
          "internalType": "contract ISmartOtherAchievement",
          "name": "",
          "type": "address"
        }
      ],
      "stateMutability": "view",
      "type": "function"
    },
    {
      "inputs": [],
      "name": "getUniswapV2Factory",
      "outputs": [
        {
          "internalType": "address",
          "name": "",
          "type": "address"
        }
      ],
      "stateMutability": "view",
      "type": "function"
    },
    {
      "inputs": [],
      "name": "getUniswapV2Router",
      "outputs": [
        {
          "internalType": "contract IUniswapV2Router02",
          "name": "",
          "type": "address"
        }
      ],
      "stateMutability": "view",
      "type": "function"
    },
    {
      "inputs": [],
      "name": "getWBNB",
      "outputs": [
        {
          "internalType": "contract IERC20",
          "name": "",
          "type": "address"
        }
      ],
      "stateMutability": "view",
      "type": "function"
    },
    {
      "inputs": [],
      "name": "goldenTreePool",
      "outputs": [
        {
          "internalType": "contract IGoldenTreePool",
          "name": "",
          "type": "address"
        }
      ],
      "stateMutability": "view",
      "type": "function"
    },
    {
      "inputs": [
        {
          "internalType": "address",
          "name": "_router",
          "type": "address"
        },
        {
          "internalType": "address",
          "name": "_busd",
          "type": "address"
        }
      ],
      "name": "initialize",
      "outputs": [],
      "stateMutability": "nonpayable",
      "type": "function"
    },
    {
      "inputs": [],
      "name": "isComptroller",
      "outputs": [
        {
          "internalType": "bool",
          "name": "",
          "type": "bool"
        }
      ],
      "stateMutability": "pure",
      "type": "function"
    },
    {
      "inputs": [],
      "name": "nobilityAchievement",
      "outputs": [
        {
          "internalType": "contract ISmartNobilityAchievement",
          "name": "",
          "type": "address"
        }
      ],
      "stateMutability": "view",
      "type": "function"
    },
    {
      "inputs": [],
      "name": "otherAchievement",
      "outputs": [
        {
          "internalType": "contract ISmartOtherAchievement",
          "name": "",
          "type": "address"
        }
      ],
      "stateMutability": "view",
      "type": "function"
    },
    {
      "inputs": [],
      "name": "owner",
      "outputs": [
        {
          "internalType": "address",
          "name": "",
          "type": "address"
        }
      ],
      "stateMutability": "view",
      "type": "function"
    },
    {
      "inputs": [],
      "name": "proxiableUUID",
      "outputs": [
        {
          "internalType": "bytes32",
          "name": "",
          "type": "bytes32"
        }
      ],
      "stateMutability": "view",
      "type": "function"
    },
    {
      "inputs": [],
      "name": "renounceOwnership",
      "outputs": [],
      "stateMutability": "nonpayable",
      "type": "function"
    },
    {
      "inputs": [
        {
          "internalType": "address",
          "name": "_address",
          "type": "address"
        }
      ],
      "name": "setBUSD",
      "outputs": [],
      "stateMutability": "nonpayable",
      "type": "function"
    },
    {
      "inputs": [
        {
          "internalType": "address",
          "name": "_address",
          "type": "address"
        }
      ],
      "name": "setGoldenTreePool",
      "outputs": [],
      "stateMutability": "nonpayable",
      "type": "function"
    },
    {
      "inputs": [
        {
          "internalType": "address",
          "name": "_address",
          "type": "address"
        }
      ],
      "name": "setSMT",
      "outputs": [],
      "stateMutability": "nonpayable",
      "type": "function"
    },
    {
      "inputs": [
        {
          "internalType": "address",
          "name": "_address",
          "type": "address"
        }
      ],
      "name": "setSMTC",
      "outputs": [],
      "stateMutability": "nonpayable",
      "type": "function"
    },
    {
      "inputs": [
        {
          "internalType": "address",
          "name": "_address",
          "type": "address"
        }
      ],
      "name": "setSmartArmy",
      "outputs": [],
      "stateMutability": "nonpayable",
      "type": "function"
    },
    {
      "inputs": [
        {
          "internalType": "address",
          "name": "_address",
          "type": "address"
        }
      ],
      "name": "setSmartBridge",
      "outputs": [],
      "stateMutability": "nonpayable",
      "type": "function"
    },
    {
      "inputs": [
        {
          "internalType": "address",
          "name": "_address",
          "type": "address"
        }
      ],
      "name": "setSmartFarm",
      "outputs": [],
      "stateMutability": "nonpayable",
      "type": "function"
    },
    {
      "inputs": [
        {
          "internalType": "address",
          "name": "_address",
          "type": "address"
        }
      ],
      "name": "setSmartLadder",
      "outputs": [],
      "stateMutability": "nonpayable",
      "type": "function"
    },
    {
      "inputs": [
        {
          "internalType": "address",
          "name": "_address",
          "type": "address"
        }
      ],
      "name": "setSmartNobilityAchievement",
      "outputs": [],
      "stateMutability": "nonpayable",
      "type": "function"
    },
    {
      "inputs": [
        {
          "internalType": "address",
          "name": "_address",
          "type": "address"
        }
      ],
      "name": "setSmartOtherAchievement",
      "outputs": [],
      "stateMutability": "nonpayable",
      "type": "function"
    },
    {
      "inputs": [
        {
          "internalType": "address",
          "name": "_address",
          "type": "address"
        }
      ],
      "name": "setUniswapRouter",
      "outputs": [],
      "stateMutability": "nonpayable",
      "type": "function"
    },
    {
      "inputs": [],
      "name": "smartArmy",
      "outputs": [
        {
          "internalType": "contract ISmartArmy",
          "name": "",
          "type": "address"
        }
      ],
      "stateMutability": "view",
      "type": "function"
    },
    {
      "inputs": [],
      "name": "smartBridge",
      "outputs": [
        {
          "internalType": "address",
          "name": "",
          "type": "address"
        }
      ],
      "stateMutability": "view",
      "type": "function"
    },
    {
      "inputs": [],
      "name": "smartFarm",
      "outputs": [
        {
          "internalType": "contract ISmartFarm",
          "name": "",
          "type": "address"
        }
      ],
      "stateMutability": "view",
      "type": "function"
    },
    {
      "inputs": [],
      "name": "smartLadder",
      "outputs": [
        {
          "internalType": "contract ISmartLadder",
          "name": "",
          "type": "address"
        }
      ],
      "stateMutability": "view",
      "type": "function"
    },
    {
      "inputs": [],
      "name": "smtToken",
      "outputs": [
        {
          "internalType": "contract IERC20",
          "name": "",
          "type": "address"
        }
      ],
      "stateMutability": "view",
      "type": "function"
    },
    {
      "inputs": [],
      "name": "smtcToken",
      "outputs": [
        {
          "internalType": "contract ISmartTokenCash",
          "name": "",
          "type": "address"
        }
      ],
      "stateMutability": "view",
      "type": "function"
    },
    {
      "inputs": [
        {
          "internalType": "address",
          "name": "newOwner",
          "type": "address"
        }
      ],
      "name": "transferOwnership",
      "outputs": [],
      "stateMutability": "nonpayable",
      "type": "function"
    },
    {
      "inputs": [],
      "name": "uniswapV2Router",
      "outputs": [
        {
          "internalType": "contract IUniswapV2Router02",
          "name": "",
          "type": "address"
        }
      ],
      "stateMutability": "view",
      "type": "function"
    },
    {
      "inputs": [
        {
          "internalType": "address",
          "name": "newImplementation",
          "type": "address"
        }
      ],
      "name": "upgradeTo",
      "outputs": [],
      "stateMutability": "nonpayable",
      "type": "function"
    },
    {
      "inputs": [
        {
          "internalType": "address",
          "name": "newImplementation",
          "type": "address"
        },
        {
          "internalType": "bytes",
          "name": "data",
          "type": "bytes"
        }
      ],
      "name": "upgradeToAndCall",
      "outputs": [],
      "stateMutability": "payable",
      "type": "function"
    }
  ],
  "bytecode": "0x60a06040523060601b60805234801561001757600080fd5b5060805160601c6119926100526000396000818161090f0152818161094f01528181610c1b01528181610c5b0152610cd701526119926000f3fe6080604052600436106101ea5760003560e01c806271c175146101ef5780627e3dd2146102265780630103982d1461024257806302839c9b146102575780630962348e1461027957806311937dc9146102995780631694505e146102b9578063266eda4a146102d957806326a71379146102f9578063274e16a61461031757806329166e41146103355780632c50b40d146103535780633066ebe6146103735780633659cfe61461039157806338ff4c4c146103b15780634654b7a8146103cf57806347218211146103ef578063485cc9551461040f5780634b3b9cb41461042f5780634f1ef2861461044f57806352d1902d14610462578063615b0840146104855780636ac3861a146104a55780636e0d0753146104ba578063715018a6146104d85780637d627d4c146104ed5780638da5cb5b1461050d57806391a95b2514610522578063967f2c3c146105405780639805f01b1461056057806399bd7d8f14610580578063a108d91f1461059e578063a413b770146105be578063bdbfceca146105de578063bea9849e146105fe578063d39b94641461061e578063dc627a981461063e578063dd445c311461065e578063de0e70141461067c578063ec87185d1461069c578063f2fde38b146106bc578063f40d95d7146106dc578063f58fbba8146106fc575b600080fd5b3480156101fb57600080fd5b5060d1546001600160a01b03165b6040516001600160a01b0390911681526020015b60405180910390f35b34801561023257600080fd5b506040516001815260200161021d565b34801561024e57600080fd5b5061020961071a565b34801561026357600080fd5b506102776102723660046115ad565b61079c565b005b34801561028557600080fd5b5060c954610209906001600160a01b031681565b3480156102a557600080fd5b506102776102b43660046115ad565b6107f6565b3480156102c557600080fd5b5060d154610209906001600160a01b031681565b3480156102e557600080fd5b5060cd54610209906001600160a01b031681565b34801561030557600080fd5b5060ce546001600160a01b0316610209565b34801561032357600080fd5b5060d0546001600160a01b0316610209565b34801561034157600080fd5b5060d3546001600160a01b0316610209565b34801561035f57600080fd5b5061027761036e3660046115ad565b610883565b34801561037f57600080fd5b5060cb546001600160a01b0316610209565b34801561039d57600080fd5b506102776103ac3660046115ad565b610904565b3480156103bd57600080fd5b5060cd546001600160a01b0316610209565b3480156103db57600080fd5b506102776103ea3660046115ad565b6109cd565b3480156103fb57600080fd5b5061027761040a3660046115ad565b610a4e565b34801561041b57600080fd5b5061027761042a3660046115e5565b610b05565b34801561043b57600080fd5b5061027761044a3660046115ad565b610b8f565b61027761045d36600461161d565b610c10565b34801561046e57600080fd5b50610477610cca565b60405190815260200161021d565b34801561049157600080fd5b506102776104a03660046115ad565b610d78565b3480156104b157600080fd5b50610209610dc9565b3480156104c657600080fd5b5060c9546001600160a01b0316610209565b3480156104e457600080fd5b50610277610e0e565b3480156104f957600080fd5b5060cb54610209906001600160a01b031681565b34801561051957600080fd5b50610209610e49565b34801561052e57600080fd5b5060ca546001600160a01b0316610209565b34801561054c57600080fd5b5061027761055b3660046115ad565b610e58565b34801561056c57600080fd5b5061027761057b3660046115ad565b610ea9565b34801561058c57600080fd5b5060cc546001600160a01b0316610209565b3480156105aa57600080fd5b5060cf54610209906001600160a01b031681565b3480156105ca57600080fd5b5060ce54610209906001600160a01b031681565b3480156105ea57600080fd5b5060ca54610209906001600160a01b031681565b34801561060a57600080fd5b506102776106193660046115ad565b610efa565b34801561062a57600080fd5b506102776106393660046115ad565b610f4b565b34801561064a57600080fd5b5060cc54610209906001600160a01b031681565b34801561066a57600080fd5b5060d2546001600160a01b0316610209565b34801561068857600080fd5b5060d354610209906001600160a01b031681565b3480156106a857600080fd5b5060d254610209906001600160a01b031681565b3480156106c857600080fd5b506102776106d73660046115ad565b610f9c565b3480156106e857600080fd5b5060d054610209906001600160a01b031681565b34801561070857600080fd5b5060cf546001600160a01b0316610209565b60d1546040805163c45a015560e01b815290516000926001600160a01b03169163c45a0155916004808301926020929190829003018186803b15801561075f57600080fd5b505afa158015610773573d6000803e3d6000fd5b505050506040513d601f19601f8201168201806040525081019061079791906115c9565b905090565b336107a5610e49565b6001600160a01b0316146107d45760405162461bcd60e51b81526004016107cb9061181e565b60405180910390fd5b60d280546001600160a01b0319166001600160a01b0392909216919091179055565b336107ff610e49565b6001600160a01b0316146108255760405162461bcd60e51b81526004016107cb9061181e565b60cb80546001600160a01b038381166001600160a01b0319831681179093556040519116917f5e60868b67ea71bce4b4a21e8c0f0ac4e6db30249bc6d34f83685ed22c3ccf209161087791849161170f565b60405180910390a15050565b3361088c610e49565b6001600160a01b0316146108b25760405162461bcd60e51b81526004016107cb9061181e565b60ca80546001600160a01b038381166001600160a01b0319831681179093556040519116917f844dcc7bf0c9b2dad005a8fd7a2968bd79511eb65b7f1e51b4dbfc05331776139161087791849161170f565b306001600160a01b037f000000000000000000000000000000000000000000000000000000000000000016141561094d5760405162461bcd60e51b81526004016107cb9061175c565b7f00000000000000000000000000000000000000000000000000000000000000006001600160a01b031661097f611039565b6001600160a01b0316146109a55760405162461bcd60e51b81526004016107cb90611796565b6109ae81611055565b604080516000808252602082019092526109ca91839190611084565b50565b336109d6610e49565b6001600160a01b0316146109fc5760405162461bcd60e51b81526004016107cb9061181e565b60c980546001600160a01b038381166001600160a01b0319831681179093556040519116917fffd3cec1839f24e1c2186c60b798f66cb357faa1380db969b77ee7c3a7c2ebc89161087791849161170f565b33610a57610e49565b6001600160a01b031614610a7d5760405162461bcd60e51b81526004016107cb9061181e565b6001600160a01b038116610ae35760405162461bcd60e51b815260206004820152602760248201527f696e70757420616464726573732063616e2774206265206e6f74207a65726f206044820152666164647265737360c81b60648201526084016107cb565b60d080546001600160a01b0319166001600160a01b0392909216919091179055565b600054610100900460ff16610b205760005460ff1615610b28565b610b286111fe565b610b445760405162461bcd60e51b81526004016107cb906117d0565b600054610100900460ff16158015610b66576000805461ffff19166101011790555b610b6e61120f565b610b78838361123e565b8015610b8a576000805461ff00191690555b505050565b33610b98610e49565b6001600160a01b031614610bbe5760405162461bcd60e51b81526004016107cb9061181e565b60cc80546001600160a01b038381166001600160a01b0319831681179093556040519116917f75d25e61ea407f503bbf05202b7119c3a17f2e07207e0c470a27212d08ddb5e99161087791849161170f565b306001600160a01b037f0000000000000000000000000000000000000000000000000000000000000000161415610c595760405162461bcd60e51b81526004016107cb9061175c565b7f00000000000000000000000000000000000000000000000000000000000000006001600160a01b0316610c8b611039565b6001600160a01b031614610cb15760405162461bcd60e51b81526004016107cb90611796565b610cba82611055565b610cc682826001611084565b5050565b6000306001600160a01b037f00000000000000000000000000000000000000000000000000000000000000001614610d655760405162461bcd60e51b815260206004820152603860248201527f555550535570677261646561626c653a206d757374206e6f742062652063616c6044820152771b1959081d1a1c9bdd59da0819195b1959d85d1958d85b1b60421b60648201526084016107cb565b5060008051602061191683398151915290565b33610d81610e49565b6001600160a01b031614610da75760405162461bcd60e51b81526004016107cb9061181e565b60cd80546001600160a01b0319166001600160a01b0392909216919091179055565b60d154604080516315ab88c960e31b815290516000926001600160a01b03169163ad5c4648916004808301926020929190829003018186803b15801561075f57600080fd5b33610e17610e49565b6001600160a01b031614610e3d5760405162461bcd60e51b81526004016107cb9061181e565b610e4760006112e5565b565b6097546001600160a01b031690565b33610e61610e49565b6001600160a01b031614610e875760405162461bcd60e51b81526004016107cb9061181e565b60ce80546001600160a01b0319166001600160a01b0392909216919091179055565b33610eb2610e49565b6001600160a01b031614610ed85760405162461bcd60e51b81526004016107cb9061181e565b60d380546001600160a01b0319166001600160a01b0392909216919091179055565b33610f03610e49565b6001600160a01b031614610f295760405162461bcd60e51b81526004016107cb9061181e565b60d180546001600160a01b0319166001600160a01b0392909216919091179055565b33610f54610e49565b6001600160a01b031614610f7a5760405162461bcd60e51b81526004016107cb9061181e565b60cf80546001600160a01b0319166001600160a01b0392909216919091179055565b33610fa5610e49565b6001600160a01b031614610fcb5760405162461bcd60e51b81526004016107cb9061181e565b6001600160a01b0381166110305760405162461bcd60e51b815260206004820152602660248201527f4f776e61626c653a206e6577206f776e657220697320746865207a65726f206160448201526564647265737360d01b60648201526084016107cb565b6109ca816112e5565b600080516020611916833981519152546001600160a01b031690565b3361105e610e49565b6001600160a01b0316146109ca5760405162461bcd60e51b81526004016107cb9061181e565b7f4910fdfa16fed3260ed0e7147f7cc6da11a60208b5b9406d12a635614ffd91435460ff16156110b757610b8a83611337565b826001600160a01b03166352d1902d6040518163ffffffff1660e01b815260040160206040518083038186803b1580156110f057600080fd5b505afa925050508015611120575060408051601f3d908101601f1916820190925261111d918101906116db565b60015b6111835760405162461bcd60e51b815260206004820152602e60248201527f45524331393637557067726164653a206e657720696d706c656d656e7461746960448201526d6f6e206973206e6f74205555505360901b60648201526084016107cb565b60008051602061191683398151915281146111f25760405162461bcd60e51b815260206004820152602960248201527f45524331393637557067726164653a20756e737570706f727465642070726f786044820152681a58589b195555525160ba1b60648201526084016107cb565b50610b8a8383836113d1565b6000611209306113fc565b15905090565b600054610100900460ff166112365760405162461bcd60e51b81526004016107cb90611853565b610e4761140b565b600054610100900460ff166112595760005460ff1615611261565b6112616111fe565b61127d5760405162461bcd60e51b81526004016107cb906117d0565b600054610100900460ff1615801561129f576000805461ffff19166101011790555b60d380546001600160a01b038085166001600160a01b03199283161790925560d18054928616929091169190911790558015610b8a576000805461ff0019169055505050565b609780546001600160a01b038381166001600160a01b0319831681179093556040519116919082907f8be0079c531659141344cd1fd0a4f28419497f9722a3daafe3b4186f6b6457e090600090a35050565b611340816113fc565b6113a25760405162461bcd60e51b815260206004820152602d60248201527f455243313936373a206e657720696d706c656d656e746174696f6e206973206e60448201526c1bdd08184818dbdb9d1c9858dd609a1b60648201526084016107cb565b60008051602061191683398151915280546001600160a01b0319166001600160a01b0392909216919091179055565b6113da8361143b565b6000825111806113e75750805b15610b8a576113f6838361147b565b50505050565b6001600160a01b03163b151590565b600054610100900460ff166114325760405162461bcd60e51b81526004016107cb90611853565b610e47336112e5565b61144481611337565b6040516001600160a01b038216907fbc7cd75a20ee27fd9adebab32041f755214dbc6bffa90cc0225b39da2e5c2d3b90600090a250565b6060611486836113fc565b6114e15760405162461bcd60e51b815260206004820152602660248201527f416464726573733a2064656c65676174652063616c6c20746f206e6f6e2d636f6044820152651b9d1c9858dd60d21b60648201526084016107cb565b600080846001600160a01b0316846040516114fc91906116f3565b600060405180830381855af49150503d8060008114611537576040519150601f19603f3d011682016040523d82523d6000602084013e61153c565b606091505b509150915061156482826040518060600160405280602781526020016119366027913961156d565b95945050505050565b6060831561157c5750816115a6565b82511561158c5782518084602001fd5b8160405162461bcd60e51b81526004016107cb9190611729565b9392505050565b6000602082840312156115be578081fd5b81356115a6816118e0565b6000602082840312156115da578081fd5b81516115a6816118e0565b600080604083850312156115f7578081fd5b8235611602816118e0565b91506020830135611612816118e0565b809150509250929050565b6000806040838503121561162f578182fd5b823561163a816118e0565b915060208301356001600160401b0380821115611655578283fd5b818501915085601f830112611668578283fd5b81358181111561167a5761167a6118ca565b604051601f8201601f19908116603f011681019083821181831017156116a2576116a26118ca565b816040528281528860208487010111156116ba578586fd5b82602086016020830137856020848301015280955050505050509250929050565b6000602082840312156116ec578081fd5b5051919050565b6000825161170581846020870161189e565b9190910192915050565b6001600160a01b0392831681529116602082015260400190565b602081526000825180602084015261174881604085016020870161189e565b601f01601f19169190910160400192915050565b6020808252602c908201526000805160206118f683398151915260408201526b19195b1959d85d1958d85b1b60a21b606082015260800190565b6020808252602c908201526000805160206118f683398151915260408201526b6163746976652070726f787960a01b606082015260800190565b6020808252602e908201527f496e697469616c697a61626c653a20636f6e747261637420697320616c72656160408201526d191e481a5b9a5d1a585b1a5e995960921b606082015260800190565b6020808252818101527f4f776e61626c653a2063616c6c6572206973206e6f7420746865206f776e6572604082015260600190565b6020808252602b908201527f496e697469616c697a61626c653a20636f6e7472616374206973206e6f74206960408201526a6e697469616c697a696e6760a81b606082015260800190565b60005b838110156118b95781810151838201526020016118a1565b838111156113f65750506000910152565b634e487b7160e01b600052604160045260246000fd5b6001600160a01b03811681146109ca57600080fdfe46756e6374696f6e206d7573742062652063616c6c6564207468726f75676820360894a13ba1a3210667c828492db98dca3e2076cc3735a920a3ca505d382bbc416464726573733a206c6f772d6c6576656c2064656c65676174652063616c6c206661696c6564a2646970667358221220731ceb6243bf62fd0e3fa432e6933e8dadc076014caadec51f295188f4493f3264736f6c63430008040033",
  "linkReferences": {},
  "deployedLinkReferences": {}
}