{
  "_format": "hh-sol-artifact-1",
  "contractName": "SmartFarm",
  "sourceName": "contracts/SmartFarm.sol",
  "abi": [
    {
      "anonymous": false,
      "inputs": [
        {
          "indexed": false,
          "internalType": "address",
          "name": "previousAdmin",
          "type": "address"
        },
        {
          "indexed": false,
          "internalType": "address",
          "name": "newAdmin",
          "type": "address"
        }
      ],
      "name": "AdminChanged",
      "type": "event"
    },
    {
      "anonymous": false,
      "inputs": [
        {
          "indexed": true,
          "internalType": "address",
          "name": "beacon",
          "type": "address"
        }
      ],
      "name": "BeaconUpgraded",
      "type": "event"
    },
    {
      "anonymous": false,
      "inputs": [
        {
          "indexed": true,
          "internalType": "address",
          "name": "account",
          "type": "address"
        },
        {
          "indexed": false,
          "internalType": "uint256",
          "name": "amount",
          "type": "uint256"
        }
      ],
      "name": "Claimed",
      "type": "event"
    },
    {
      "anonymous": false,
      "inputs": [
        {
          "indexed": true,
          "internalType": "address",
          "name": "previousOwner",
          "type": "address"
        },
        {
          "indexed": true,
          "internalType": "address",
          "name": "newOwner",
          "type": "address"
        }
      ],
      "name": "OwnershipTransferred",
      "type": "event"
    },
    {
      "anonymous": false,
      "inputs": [
        {
          "indexed": false,
          "internalType": "uint256",
          "name": "reward",
          "type": "uint256"
        }
      ],
      "name": "RewardAdded",
      "type": "event"
    },
    {
      "anonymous": false,
      "inputs": [
        {
          "indexed": true,
          "internalType": "address",
          "name": "account",
          "type": "address"
        },
        {
          "indexed": false,
          "internalType": "uint256",
          "name": "amount",
          "type": "uint256"
        },
        {
          "indexed": false,
          "internalType": "uint256",
          "name": "lp",
          "type": "uint256"
        }
      ],
      "name": "Staked",
      "type": "event"
    },
    {
      "anonymous": false,
      "inputs": [
        {
          "indexed": true,
          "internalType": "address",
          "name": "account",
          "type": "address"
        }
      ],
      "name": "UpdatedRewardWallet",
      "type": "event"
    },
    {
      "anonymous": false,
      "inputs": [
        {
          "indexed": true,
          "internalType": "address",
          "name": "implementation",
          "type": "address"
        }
      ],
      "name": "Upgraded",
      "type": "event"
    },
    {
      "anonymous": false,
      "inputs": [
        {
          "indexed": true,
          "internalType": "address",
          "name": "account",
          "type": "address"
        },
        {
          "indexed": false,
          "internalType": "uint256",
          "name": "amount",
          "type": "uint256"
        },
        {
          "indexed": false,
          "internalType": "uint256",
          "name": "lp",
          "type": "uint256"
        }
      ],
      "name": "Withdrawn",
      "type": "event"
    },
    {
      "inputs": [],
      "name": "DURATION",
      "outputs": [
        {
          "internalType": "uint256",
          "name": "",
          "type": "uint256"
        }
      ],
      "stateMutability": "view",
      "type": "function"
    },
    {
      "inputs": [
        {
          "internalType": "address",
          "name": "account",
          "type": "address"
        }
      ],
      "name": "balanceOf",
      "outputs": [
        {
          "internalType": "uint256",
          "name": "",
          "type": "uint256"
        }
      ],
      "stateMutability": "view",
      "type": "function"
    },
    {
      "inputs": [
        {
          "internalType": "uint256",
          "name": "_amount",
          "type": "uint256"
        }
      ],
      "name": "claimReward",
      "outputs": [],
      "stateMutability": "nonpayable",
      "type": "function"
    },
    {
      "inputs": [],
      "name": "comptroller",
      "outputs": [
        {
          "internalType": "contract ISmartComp",
          "name": "",
          "type": "address"
        }
      ],
      "stateMutability": "view",
      "type": "function"
    },
    {
      "inputs": [
        {
          "internalType": "address",
          "name": "account",
          "type": "address"
        }
      ],
      "name": "earned",
      "outputs": [
        {
          "internalType": "uint256",
          "name": "",
          "type": "uint256"
        }
      ],
      "stateMutability": "view",
      "type": "function"
    },
    {
      "inputs": [
        {
          "internalType": "address",
          "name": "_account",
          "type": "address"
        }
      ],
      "name": "earnedPassive",
      "outputs": [
        {
          "internalType": "uint256",
          "name": "",
          "type": "uint256"
        }
      ],
      "stateMutability": "view",
      "type": "function"
    },
    {
      "inputs": [],
      "name": "exit",
      "outputs": [],
      "stateMutability": "nonpayable",
      "type": "function"
    },
    {
      "inputs": [],
      "name": "farmingRewardPercent",
      "outputs": [
        {
          "internalType": "uint256",
          "name": "",
          "type": "uint256"
        }
      ],
      "stateMutability": "view",
      "type": "function"
    },
    {
      "inputs": [],
      "name": "farmingTax_dev",
      "outputs": [
        {
          "internalType": "uint256",
          "name": "",
          "type": "uint256"
        }
      ],
      "stateMutability": "view",
      "type": "function"
    },
    {
      "inputs": [],
      "name": "farmingTax_golden",
      "outputs": [
        {
          "internalType": "uint256",
          "name": "",
          "type": "uint256"
        }
      ],
      "stateMutability": "view",
      "type": "function"
    },
    {
      "inputs": [],
      "name": "farmingTax_passive",
      "outputs": [
        {
          "internalType": "uint256",
          "name": "",
          "type": "uint256"
        }
      ],
      "stateMutability": "view",
      "type": "function"
    },
    {
      "inputs": [],
      "name": "farmingTax_referral",
      "outputs": [
        {
          "internalType": "uint256",
          "name": "",
          "type": "uint256"
        }
      ],
      "stateMutability": "view",
      "type": "function"
    },
    {
      "inputs": [],
      "name": "feeAddress",
      "outputs": [
        {
          "internalType": "address",
          "name": "",
          "type": "address"
        }
      ],
      "stateMutability": "view",
      "type": "function"
    },
    {
      "inputs": [
        {
          "internalType": "address",
          "name": "account",
          "type": "address"
        }
      ],
      "name": "havestOf",
      "outputs": [
        {
          "internalType": "uint256",
          "name": "",
          "type": "uint256"
        }
      ],
      "stateMutability": "view",
      "type": "function"
    },
    {
      "inputs": [
        {
          "internalType": "address",
          "name": "_comp",
          "type": "address"
        }
      ],
      "name": "initialize",
      "outputs": [],
      "stateMutability": "nonpayable",
      "type": "function"
    },
    {
      "inputs": [],
      "name": "lastTimeRewardApplicable",
      "outputs": [
        {
          "internalType": "uint256",
          "name": "",
          "type": "uint256"
        }
      ],
      "stateMutability": "view",
      "type": "function"
    },
    {
      "inputs": [],
      "name": "lastUpdateTime",
      "outputs": [
        {
          "internalType": "uint256",
          "name": "",
          "type": "uint256"
        }
      ],
      "stateMutability": "view",
      "type": "function"
    },
    {
      "inputs": [
        {
          "internalType": "uint256",
          "name": "_reward",
          "type": "uint256"
        }
      ],
      "name": "notifyRewardAmount",
      "outputs": [],
      "stateMutability": "nonpayable",
      "type": "function"
    },
    {
      "inputs": [],
      "name": "owner",
      "outputs": [
        {
          "internalType": "address",
          "name": "",
          "type": "address"
        }
      ],
      "stateMutability": "view",
      "type": "function"
    },
    {
      "inputs": [],
      "name": "periodFinish",
      "outputs": [
        {
          "internalType": "uint256",
          "name": "",
          "type": "uint256"
        }
      ],
      "stateMutability": "view",
      "type": "function"
    },
    {
      "inputs": [],
      "name": "proxiableUUID",
      "outputs": [
        {
          "internalType": "bytes32",
          "name": "",
          "type": "bytes32"
        }
      ],
      "stateMutability": "view",
      "type": "function"
    },
    {
      "inputs": [],
      "name": "renounceOwnership",
      "outputs": [],
      "stateMutability": "nonpayable",
      "type": "function"
    },
    {
      "inputs": [
        {
          "internalType": "address",
          "name": "account",
          "type": "address"
        }
      ],
      "name": "reserveOf",
      "outputs": [
        {
          "internalType": "uint256",
          "name": "",
          "type": "uint256"
        }
      ],
      "stateMutability": "view",
      "type": "function"
    },
    {
      "inputs": [],
      "name": "rewardPerToken",
      "outputs": [
        {
          "internalType": "uint256",
          "name": "",
          "type": "uint256"
        }
      ],
      "stateMutability": "view",
      "type": "function"
    },
    {
      "inputs": [],
      "name": "rewardPerTokenStored",
      "outputs": [
        {
          "internalType": "uint256",
          "name": "",
          "type": "uint256"
        }
      ],
      "stateMutability": "view",
      "type": "function"
    },
    {
      "inputs": [],
      "name": "rewardRate",
      "outputs": [
        {
          "internalType": "uint256",
          "name": "",
          "type": "uint256"
        }
      ],
      "stateMutability": "view",
      "type": "function"
    },
    {
      "inputs": [
        {
          "internalType": "address",
          "name": "account",
          "type": "address"
        }
      ],
      "name": "rewardsOf",
      "outputs": [
        {
          "internalType": "uint256",
          "name": "",
          "type": "uint256"
        }
      ],
      "stateMutability": "view",
      "type": "function"
    },
    {
      "inputs": [
        {
          "internalType": "contract ISmartComp",
          "name": "newComptroller",
          "type": "address"
        }
      ],
      "name": "setComptroller",
      "outputs": [],
      "stateMutability": "nonpayable",
      "type": "function"
    },
    {
      "inputs": [
        {
          "internalType": "address",
          "name": "account",
          "type": "address"
        },
        {
          "internalType": "uint256",
          "name": "amount",
          "type": "uint256"
        }
      ],
      "name": "stakeSMT",
      "outputs": [
        {
          "internalType": "uint256",
          "name": "",
          "type": "uint256"
        }
      ],
      "stateMutability": "nonpayable",
      "type": "function"
    },
    {
      "inputs": [],
      "name": "totalLpStaked",
      "outputs": [
        {
          "internalType": "uint256",
          "name": "",
          "type": "uint256"
        }
      ],
      "stateMutability": "view",
      "type": "function"
    },
    {
      "inputs": [],
      "name": "totalStaked",
      "outputs": [
        {
          "internalType": "uint256",
          "name": "",
          "type": "uint256"
        }
      ],
      "stateMutability": "view",
      "type": "function"
    },
    {
      "inputs": [
        {
          "internalType": "address",
          "name": "newOwner",
          "type": "address"
        }
      ],
      "name": "transferOwnership",
      "outputs": [],
      "stateMutability": "nonpayable",
      "type": "function"
    },
    {
      "inputs": [],
      "name": "unstakingFee",
      "outputs": [
        {
          "internalType": "uint256",
          "name": "",
          "type": "uint256"
        }
      ],
      "stateMutability": "view",
      "type": "function"
    },
    {
      "inputs": [
        {
          "internalType": "uint256",
          "name": "percent",
          "type": "uint256"
        }
      ],
      "name": "updateFarmingRewardParams",
      "outputs": [],
      "stateMutability": "nonpayable",
      "type": "function"
    },
    {
      "inputs": [
        {
          "internalType": "uint256",
          "name": "_farmingTax_referral",
          "type": "uint256"
        },
        {
          "internalType": "uint256",
          "name": "_farmingTax_golden",
          "type": "uint256"
        },
        {
          "internalType": "uint256",
          "name": "_farmingTax_dev",
          "type": "uint256"
        },
        {
          "internalType": "uint256",
          "name": "_farmingTax_passive",
          "type": "uint256"
        },
        {
          "internalType": "uint256",
          "name": "_unstakingFee",
          "type": "uint256"
        },
        {
          "internalType": "address",
          "name": "_feeAddress",
          "type": "address"
        }
      ],
      "name": "updateFeeInfo",
      "outputs": [],
      "stateMutability": "nonpayable",
      "type": "function"
    },
    {
      "inputs": [
        {
          "internalType": "address",
          "name": "newImplementation",
          "type": "address"
        }
      ],
      "name": "upgradeTo",
      "outputs": [],
      "stateMutability": "nonpayable",
      "type": "function"
    },
    {
      "inputs": [
        {
          "internalType": "address",
          "name": "newImplementation",
          "type": "address"
        },
        {
          "internalType": "bytes",
          "name": "data",
          "type": "bytes"
        }
      ],
      "name": "upgradeToAndCall",
      "outputs": [],
      "stateMutability": "payable",
      "type": "function"
    },
    {
      "inputs": [
        {
          "internalType": "address",
          "name": "",
          "type": "address"
        }
      ],
      "name": "userInfo",
      "outputs": [
        {
          "internalType": "uint256",
          "name": "tokenBalance",
          "type": "uint256"
        },
        {
          "internalType": "uint256",
          "name": "balance",
          "type": "uint256"
        },
        {
          "internalType": "uint256",
          "name": "havested",
          "type": "uint256"
        },
        {
          "internalType": "uint256",
          "name": "rewards",
          "type": "uint256"
        },
        {
          "internalType": "uint256",
          "name": "rewardPerTokenPaid",
          "type": "uint256"
        },
        {
          "internalType": "uint256",
          "name": "lastUpdated",
          "type": "uint256"
        }
      ],
      "stateMutability": "view",
      "type": "function"
    },
    {
      "inputs": [
        {
          "internalType": "address",
          "name": "account",
          "type": "address"
        }
      ],
      "name": "userInfoOf",
      "outputs": [
        {
          "components": [
            {
              "internalType": "uint256",
              "name": "tokenBalance",
              "type": "uint256"
            },
            {
              "internalType": "uint256",
              "name": "balance",
              "type": "uint256"
            },
            {
              "internalType": "uint256",
              "name": "havested",
              "type": "uint256"
            },
            {
              "internalType": "uint256",
              "name": "rewards",
              "type": "uint256"
            },
            {
              "internalType": "uint256",
              "name": "rewardPerTokenPaid",
              "type": "uint256"
            },
            {
              "internalType": "uint256",
              "name": "lastUpdated",
              "type": "uint256"
            }
          ],
          "internalType": "struct ISmartFarm.UserInfo",
          "name": "",
          "type": "tuple"
        }
      ],
      "stateMutability": "view",
      "type": "function"
    },
    {
      "inputs": [
        {
          "internalType": "address",
          "name": "account",
          "type": "address"
        },
        {
          "internalType": "uint256",
          "name": "lpAmount",
          "type": "uint256"
        }
      ],
      "name": "withdrawSMT",
      "outputs": [
        {
          "internalType": "uint256",
          "name": "",
          "type": "uint256"
        }
      ],
      "stateMutability": "nonpayable",
      "type": "function"
    }
  ],
  "bytecode": "0x60a06040523060601b60805234801561001757600080fd5b5060805160601c61471d61005260003960008181610cae01528181610cee015281816112a5015281816112e50152611361015261471d6000f3fe6080604052600436106101ca5760003560e01c80628cc262146101cf57806308985729146102025780630a106f50146102185780631959a002146102385780631be05289146102b55780631e40b542146102cc57806320ba5698146102ec578063319186ee146103025780633659cfe6146103185780633c45898a1461033a5780633c6b16ab1461035a578063412753581461037a578063441e6a44146103a7578063479ba7ae146104135780634f1ef2861461043357806351aeec741461044657806352d1902d1461045c5780635a7d3c4f146104715780635fe3b5671461048757806370a08231146104a7578063715018a6146104c75780637b0a47ee146104dc57806380faa57d146104f2578063817b1cd214610507578063876d4ac71461051d5780638bad38dd146105565780638da5cb5b14610576578063983d90b41461058b5780639fa77b20146105a1578063ae169a50146105c1578063c4d66de8146105e1578063c8f33c9114610601578063cd3daf9d14610617578063df136d651461062c578063e5bd3fba14610642578063e9fad8ee14610658578063ebe2b12b1461066d578063f2fde38b14610683578063f557fc91146106a3578063f6ab9bb8146106c3575b600080fd5b3480156101db57600080fd5b506101ef6101ea3660046140e8565b6106e3565b6040519081526020015b60405180910390f35b34801561020e57600080fd5b506101ef60d45481565b34801561022457600080fd5b506101ef6102333660046140e8565b6108cb565b34801561024457600080fd5b506102886102533660046140e8565b60ce60205260009081526040902080546001820154600283015460038401546004850154600590950154939492939192909186565b604080519687526020870195909552938501929092526060840152608083015260a082015260c0016101f9565b3480156102c157600080fd5b506101ef62093a8081565b3480156102d857600080fd5b506101ef6102e73660046141de565b610985565b3480156102f857600080fd5b506101ef60d35481565b34801561030e57600080fd5b506101ef60cf5481565b34801561032457600080fd5b506103386103333660046140e8565b610ca3565b005b34801561034657600080fd5b506103386103553660046142a9565b610d6c565b34801561036657600080fd5b50610338610375366004614241565b611009565b34801561038657600080fd5b5060d55461039a906001600160a01b031681565b6040516101f99190614319565b3480156103b357600080fd5b506103c76103c23660046140e8565b6111e1565b6040516101f99190600060c082019050825182526020830151602083015260408301516040830152606083015160608301526080830151608083015260a083015160a083015292915050565b34801561041f57600080fd5b506101ef61042e3660046140e8565b61127c565b610338610441366004614120565b61129a565b34801561045257600080fd5b506101ef60d15481565b34801561046857600080fd5b506101ef611354565b34801561047d57600080fd5b506101ef60d25481565b34801561049357600080fd5b5060cd5461039a906001600160a01b031681565b3480156104b357600080fd5b506101ef6104c23660046140e8565b611402565b3480156104d357600080fd5b50610338611420565b3480156104e857600080fd5b506101ef60ca5481565b3480156104fe57600080fd5b506101ef61145b565b34801561051357600080fd5b506101ef60d75481565b34801561052957600080fd5b506101ef6105383660046140e8565b6001600160a01b0316600090815260ce602052604090206002015490565b34801561056257600080fd5b506103386105713660046140e8565b611472565b34801561058257600080fd5b5061039a61157e565b34801561059757600080fd5b506101ef60d65481565b3480156105ad57600080fd5b506101ef6105bc3660046140e8565b61158d565b3480156105cd57600080fd5b506103386105dc366004614241565b6115a8565b3480156105ed57600080fd5b506103386105fc3660046140e8565b611714565b34801561060d57600080fd5b506101ef60cb5481565b34801561062357600080fd5b506101ef61179b565b34801561063857600080fd5b506101ef60cc5481565b34801561064e57600080fd5b506101ef60d05481565b34801561066457600080fd5b5061033861182a565b34801561067957600080fd5b506101ef60c95481565b34801561068f57600080fd5b5061033861069e3660046140e8565b611844565b3480156106af57600080fd5b506101ef6106be3660046141de565b6118e1565b3480156106cf57600080fd5b506103386106de366004614241565b611eb3565b6001600160a01b03808216600090815260ce60209081526040808320815160c0810183528154815260018201548185015260028201548184015260038201546060820152600480830154608083015260059092015460a082015260cd548351636e0d075360e01b81529351959642969295889586959390921693636e0d07539383810193829003018186803b15801561077b57600080fd5b505afa15801561078f573d6000803e3d6000fd5b505050506040513d601f19601f820116820180604052508101906107b39190614104565b60a08401516040516343051d3960e01b81526001600160a01b0389811660048301526024820192909252604481018790529116906343051d3990606401604080518083038186803b15801561080757600080fd5b505afa15801561081b573d6000803e3d6000fd5b505050506040513d601f19601f8201168201806040525081019061083f9190614259565b915091508160001480610850575080155b15610862575050606001519392505050565b600061086e838361459c565b905060006127106201518060d4546108858b61158d565b61088f908661457d565b610899919061457d565b6108a3919061455d565b6108ad919061455d565b90508085606001516108bf9190614545565b98975050505050505050565b6001600160a01b038116600090815260ce60209081526040808320815160c081018352815481526001820154938101939093526002810154918301919091526003810154606083015260048101546080830181905260059091015460a0830152829061093561179b565b61093f919061459c565b90506000670de0b6b3a7640000826109568761158d565b610960919061457d565b61096a919061455d565b905080836060015161097c9190614545565b95945050505050565b600032600132600160cd5460408051636e0d075360e01b815290516000926001600160a01b031691636e0d0753916004808301926020929190829003018186803b1580156109d257600080fd5b505afa1580156109e6573d6000803e3d6000fd5b505050506040513d601f19601f82011682018060405250810190610a0a9190614104565b9050336001600160a01b0382161480610a2b5750336001600160a01b038916145b610a885760405162461bcd60e51b815260206004820152602360248201527f536d6172744661726d237374616b65534d543a20696e76616c6964206163636f6044820152621d5b9d60ea1b60648201526084015b60405180910390fd5b600080610a958a8a611fed565b9150915060008211610afd5760405162461bcd60e51b815260206004820152602b60248201527f536d6172744661726d237374616b65534d543a206661696c656420746f20616460448201526a64206c697175696469747960a81b6064820152608401610a7f565b60cd54604080516326a7137960e01b815290516000926001600160a01b0316916326a71379916004808301926020929190829003018186803b158015610b4257600080fd5b505afa158015610b56573d6000803e3d6000fd5b505050506040513d601f19601f82011682018060405250810190610b7a9190614104565b90506064821115610be4576040516305afcb9f60e11b81526001600160a01b03821690630b5f973e90610bb1903290600401614319565b600060405180830381600087803b158015610bcb57600080fd5b505af1158015610bdf573d6000803e3d6000fd5b505050505b32600090815260ce602052604090206001810154610c03908590614545565b60018201558054610c15908490614545565b815560d654610c25908590614545565b60d65560d754610c36908490614545565b60d755604080518c81526020810186905232917f1449c6dd7851abc30abf37f57715f492010519147cc2652fbc38202c18a6ee90910160405180910390a2509197505050508015610c8a57610c8a82611f8f565b50508015610c9b57610c9b82611f50565b505092915050565b306001600160a01b037f0000000000000000000000000000000000000000000000000000000000000000161415610cec5760405162461bcd60e51b8152600401610a7f90614393565b7f00000000000000000000000000000000000000000000000000000000000000006001600160a01b0316610d1e61247e565b6001600160a01b031614610d445760405162461bcd60e51b8152600401610a7f906143cd565b610d4d8161249a565b60408051600080825260208201909252610d69918391906124c9565b50565b33610d7561157e565b6001600160a01b031614610d9b5760405162461bcd60e51b8152600401610a7f90614455565b6113888610610df85760405162461bcd60e51b815260206004820152603560248201526000805160206146818339815191526044820152740819985c9b5a5b99c81d185e081c9959995c9c985b605a1b6064820152608401610a7f565b6113888510610e535760405162461bcd60e51b81526020600482015260336024820152600080516020614681833981519152604482015272103330b936b4b733903a30bc1033b7b63232b760691b6064820152608401610a7f565b6113888410610eab5760405162461bcd60e51b8152602060048201526030602482015260008051602061468183398151915260448201526f103330b936b4b733903a30bc103232bb60811b6064820152608401610a7f565b6113888310610f085760405162461bcd60e51b81526020600482015260356024820152600080516020614681833981519152604482015274206661726d696e672074617820706173737769766560581b6064820152608401610a7f565b6113888210610f5e5760405162461bcd60e51b815260206004820152602e602482015260008051602061468183398151915260448201526d20756e7374616b696e672066656560901b6064820152608401610a7f565b6001600160a01b038116610fd05760405162461bcd60e51b815260206004820152603360248201527f536d6172744661726d23757064617465466565496e666f3a2073686f756c64206044820152726265206e6f74207a65726f206164647265737360681b6064820152608401610a7f565b60cf9590955560d09390935560d19190915560d25560d35560d580546001600160a01b0319166001600160a01b03909216919091179055565b60cd60009054906101000a90046001600160a01b03166001600160a01b031663dd445c316040518163ffffffff1660e01b815260040160206040518083038186803b15801561105757600080fd5b505afa15801561106b573d6000803e3d6000fd5b505050506040513d601f19601f8201168201806040525081019061108f9190614104565b6001600160a01b0316336001600160a01b031614806110c657506110b161157e565b6001600160a01b0316336001600160a01b0316145b61111e5760405162461bcd60e51b815260206004820152602360248201527f536d6172744661726d3a206f6e6c7920726577617264206469737472696275746044820152626f727360e81b6064820152608401610a7f565b6000600160c954429081106111425761113a62093a808561455d565b60ca55611184565b60008160c954611152919061459c565b9050600060ca5482611164919061457d565b905062093a806111748288614545565b61117e919061455d565b60ca5550505b60cb81905561119662093a8082614545565b60c9556040518481527fde88a922e0d3b88b24e9623efeb464919c6bf9f66857a65e2bfcf2ce87a9433d9060200160405180910390a15080156111dc576111dc82611f8f565b505050565b61121a6040518060c001604052806000815260200160008152602001600081526020016000815260200160008152602001600081525090565b506001600160a01b0316600090815260ce6020908152604091829020825160c08101845281548152600182015492810192909252600281015492820192909252600382015460608201526004820154608082015260059091015460a082015290565b6001600160a01b0316600090815260ce602052604090206003015490565b306001600160a01b037f00000000000000000000000000000000000000000000000000000000000000001614156112e35760405162461bcd60e51b8152600401610a7f90614393565b7f00000000000000000000000000000000000000000000000000000000000000006001600160a01b031661131561247e565b6001600160a01b03161461133b5760405162461bcd60e51b8152600401610a7f906143cd565b6113448261249a565b611350828260016124c9565b5050565b6000306001600160a01b037f000000000000000000000000000000000000000000000000000000000000000016146113ef5760405162461bcd60e51b815260206004820152603860248201527f555550535570677261646561626c653a206d757374206e6f742062652063616c6044820152771b1959081d1a1c9bdd59da0819195b1959d85d1958d85b1b60421b6064820152608401610a7f565b5060008051602061466183398151915290565b6001600160a01b0316600090815260ce602052604090206001015490565b3361142961157e565b6001600160a01b03161461144f5760405162461bcd60e51b8152600401610a7f90614455565b6114596000612643565b565b600060c954421061146d575060c95490565b504290565b3361147b61157e565b6001600160a01b0316146114a15760405162461bcd60e51b8152600401610a7f90614455565b806001600160a01b0316627e3dd26040518163ffffffff1660e01b815260040160206040518083038186803b1580156114d957600080fd5b505afa1580156114ed573d6000803e3d6000fd5b505050506040513d601f19601f820116820180604052508101906115119190614209565b61155c5760405162461bcd60e51b815260206004820152601c60248201527b6d61726b6572206d6574686f642072657475726e65642066616c736560201b6044820152606401610a7f565b60cd80546001600160a01b0319166001600160a01b0392909216919091179055565b6097546001600160a01b031690565b6001600160a01b0316600090815260ce602052604090205490565b33600081815260ce60205260408120916115c19061127c565b90506000811161162b5760405162461bcd60e51b815260206004820152602f60248201527f536d6172744661726d237374616b65534d543a204e6f7420656e6f756768207260448201526e65776172647320746f20636c61696d60881b6064820152608401610a7f565b60cd546040805163dd445c3160e01b815290516116b0926001600160a01b03169163dd445c31916004808301926020929190829003018186803b15801561167157600080fd5b505afa158015611685573d6000803e3d6000fd5b505050506040513d601f19601f820116820180604052508101906116a99190614104565b3385612695565b8282600301546116c0919061459c565b600383015560028201546116d5908490614545565b600283015560405181815233907fd8138f8a3f377c5259ca548e70e4c2de94f129f5a11036a15b69513cba2b426a9060200160405180910390a2505050565b600054610100900460ff1661172f5760005460ff1615611737565b6117376127b2565b6117535760405162461bcd60e51b8152600401610a7f90614407565b600054610100900460ff16158015611775576000805461ffff19166101011790555b61177d6127c3565b611786826127f2565b8015611350576000805461ff00191690555050565b60d754600090806117ae57505060cc5490565b600060cb546117bb61145b565b6117c5919061459c565b60ca546117d2919061457d565b90506117e8670de0b6b3a764000060001961455d565b81106117f357600080fd5b60008261180883670de0b6b3a764000061457d565b611812919061455d565b90508060cc546118229190614545565b935050505090565b611837336106be33611402565b506114596105dc3361127c565b3361184d61157e565b6001600160a01b0316146118735760405162461bcd60e51b8152600401610a7f90614455565b6001600160a01b0381166118d85760405162461bcd60e51b815260206004820152602660248201527f4f776e61626c653a206e6577206f776e657220697320746865207a65726f206160448201526564647265737360d01b6064820152608401610a7f565b610d6981612643565b600032816118ee82611f50565b3260006118fa82611f8f565b600086116119495760405162461bcd60e51b815260206004820152602860248201526000805160206146c8833981519152604482015267074686472617720360c41b6064820152608401610a7f565b61195232611402565b8611156119b05760405162461bcd60e51b815260206004820152603860248201526000805160206146c8833981519152604482015277746864726177206d6f7265207468616e2062616c616e636560401b6064820152608401610a7f565b60cd5460408051636e0d075360e01b815290516000926001600160a01b031691636e0d0753916004808301926020929190829003018186803b1580156119f557600080fd5b505afa158015611a09573d6000803e3d6000fd5b505050506040513d601f19601f82011682018060405250810190611a2d9190614104565b90506000816001600160a01b03166380878095326040518263ffffffff1660e01b8152600401611a5d9190614319565b60206040518083038186803b158015611a7557600080fd5b505afa158015611a89573d6000803e3d6000fd5b505050506040513d601f19601f82011682018060405250810190611aad9190614229565b9050336001600160a01b0383161480611ace5750336001600160a01b038a16145b611b295760405162461bcd60e51b815260206004820152602660248201527f536d6172744661726d237769746864726177534d543a20696e76616c6964206160448201526518d8dbdd5b9d60d21b6064820152608401610a7f565b336001600160a01b0383161415611ba457878114611b9f576040805162461bcd60e51b815260206004820152602481019190915260008051602061462183398151915260448201527f616d6f756e742066726f6d20536d61727441726d7920697320696e76616c69646064820152608401610a7f565b611c0d565b611bad32611402565b611bb78983614545565b1115611c0d5760405162461bcd60e51b81526020600482015260316024820152600080516020614621833981519152604482015270185b5bdd5b9d081a5cc81a5b9d985b1a59607a1b6064820152608401610a7f565b60cd54604080516326a7137960e01b815290516000926001600160a01b0316916326a71379916004808301926020929190829003018186803b158015611c5257600080fd5b505afa158015611c66573d6000803e3d6000fd5b505050506040513d601f19601f82011682018060405250810190611c8a9190614104565b60405163b942906960e01b81529091506001600160a01b0382169063b942906990611cb9903290600401614319565b60206040518083038186803b158015611cd157600080fd5b505afa158015611ce5573d6000803e3d6000fd5b505050506040513d601f19601f82011682018060405250810190611d099190614209565b15611d6d57604051636aec08fb60e01b81526001600160a01b03821690636aec08fb90611d3a903290600401614319565b600060405180830381600087803b158015611d5457600080fd5b505af1158015611d68573d6000803e3d6000fd5b505050505b32600090815260ce6020526040812090611d878c8c6128b1565b905060008111611df55760405162461bcd60e51b815260206004820152603360248201527f536d6172744661726d237769746864726177534d543a206661696c656420746f6044820152721039b2b73a1029a6aa103a379039ba30b5b2b960691b6064820152608401610a7f565b8a8260010154611e05919061459c565b60018301558154811115611e1c5760008255611e2c565b8154611e2990829061459c565b82555b8060d7541015611e4057600060d755611e52565b8060d754611e4e919061459c565b60d7555b8a60d654611e60919061459c565b60d65560408051828152602081018d905232917f92ccf450a286a957af52509bc1c9939d1a6a481783e142e41e2499f0bb66ebc6910160405180910390a29850505050508015610c8a57610c8a82611f8f565b33611ebc61157e565b6001600160a01b031614611ee25760405162461bcd60e51b8152600401610a7f90614455565b612710811115611f4b5760405162461bcd60e51b815260206004820152602e60248201527f536d6172744661726d237570646174654661726d696e675265776172643a207460448201526d1bdbc8189a59c81c195c98d95b9d60921b6064820152608401610a7f565b60d455565b6001600160a01b03811615610d69576001600160a01b038116600090815260ce60205260409020611f80826106e3565b60038201554260059091015550565b6000611f9961179b565b905080156113505760cc819055611fae61145b565b60cb556001600160a01b03821615611350576001600160a01b038216600090815260ce60205260409020611fe1836108cb565b60038201556004015550565b600080600060cd60009054906101000a90046001600160a01b03166001600160a01b031663dd445c316040518163ffffffff1660e01b815260040160206040518083038186803b15801561204057600080fd5b505afa158015612054573d6000803e3d6000fd5b505050506040513d601f19601f820116820180604052508101906120789190614104565b9050600060cd60009054906101000a90046001600160a01b03166001600160a01b03166329166e416040518163ffffffff1660e01b815260040160206040518083038186803b1580156120ca57600080fd5b505afa1580156120de573d6000803e3d6000fd5b505050506040513d601f19601f820116820180604052508101906121029190614104565b90506000826001600160a01b03166370a08231306040518263ffffffff1660e01b81526004016121329190614319565b60206040518083038186803b15801561214a57600080fd5b505afa15801561215e573d6000803e3d6000fd5b505050506040513d601f19601f820116820180604052508101906121829190614229565b6040516323b872dd60e01b81526001600160a01b03898116600483015230602483015260448201899052919250908416906323b872dd90606401602060405180830381600087803b1580156121d657600080fd5b505af11580156121ea573d6000803e3d6000fd5b505050506040513d601f19601f8201168201806040525081019061220e9190614209565b50600081846001600160a01b03166370a08231306040518263ffffffff1660e01b815260040161223e9190614319565b60206040518083038186803b15801561225657600080fd5b505afa15801561226a573d6000803e3d6000fd5b505050506040513d601f19601f8201168201806040525081019061228e9190614229565b612298919061459c565b9050600081116123105760405162461bcd60e51b815260206004820152603d60248201527f536d6172744661726d235f7472616e73666572536d74546f436f6e747261637460448201527f3a206661696c6420746f207472616e7366657220534d5420746f6b656e0000006064820152608401610a7f565b600061231c3283612db4565b9050612328818361459c565b91506000905061233960028361455d565b90506000612347828461459c565b90506000856001600160a01b03166370a08231306040518263ffffffff1660e01b81526004016123779190614319565b60206040518083038186803b15801561238f57600080fd5b505afa1580156123a3573d6000803e3d6000fd5b505050506040513d601f19601f820116820180604052508101906123c79190614229565b90506123d2836131ec565b600081876001600160a01b03166370a08231306040518263ffffffff1660e01b81526004016124019190614319565b60206040518083038186803b15801561241957600080fd5b505afa15801561242d573d6000803e3d6000fd5b505050506040513d601f19601f820116820180604052508101906124519190614229565b61245b919061459c565b905060006124698483613504565b9f979e50969c50505050505050505050505050565b600080516020614661833981519152546001600160a01b031690565b336124a361157e565b6001600160a01b031614610d695760405162461bcd60e51b8152600401610a7f90614455565b7f4910fdfa16fed3260ed0e7147f7cc6da11a60208b5b9406d12a635614ffd91435460ff16156124fc576111dc83613864565b826001600160a01b03166352d1902d6040518163ffffffff1660e01b815260040160206040518083038186803b15801561253557600080fd5b505afa925050508015612565575060408051601f3d908101601f1916820190925261256291810190614229565b60015b6125c85760405162461bcd60e51b815260206004820152602e60248201527f45524331393637557067726164653a206e657720696d706c656d656e7461746960448201526d6f6e206973206e6f74205555505360901b6064820152608401610a7f565b60008051602061466183398151915281146126375760405162461bcd60e51b815260206004820152602960248201527f45524331393637557067726164653a20756e737570706f727465642070726f786044820152681a58589b195555525160ba1b6064820152608401610a7f565b506111dc8383836138fe565b609780546001600160a01b038381166001600160a01b0319831681179093556040519116919082907f8be0079c531659141344cd1fd0a4f28419497f9722a3daafe3b4186f6b6457e090600090a35050565b600080846001600160a01b031663a9059cbb85856040516024016126ba929190614347565b6040516020818303038152906040529060e01b6020820180516001600160e01b0383818316178352505050506040516126f391906142fd565b6000604051808303816000865af19150503d8060008114612730576040519150601f19603f3d011682016040523d82523d6000602084013e612735565b606091505b509150915081801561275f57508051158061275f57508080602001905181019061275f9190614209565b6127ab5760405162461bcd60e51b815260206004820152601f60248201527f5472616e7366657248656c7065723a205452414e534645525f4641494c4544006044820152606401610a7f565b5050505050565b60006127bd30613929565b15905090565b600054610100900460ff166127ea5760405162461bcd60e51b8152600401610a7f9061448a565b611459613938565b600054610100900460ff1661280d5760005460ff1615612815565b6128156127b2565b6128315760405162461bcd60e51b8152600401610a7f90614407565b600054610100900460ff16158015612853576000805461ffff19166101011790555b60cd80546001600160a01b0384166001600160a01b0319918216179091556103e860cf5561012c60d055606460d181905560d255600060d355600a60d45560d58054909116331790558015611350576000805461ff00191690555050565b6000816128c057506000612dae565b60cd546040805163dd445c3160e01b815290516000926001600160a01b03169163dd445c31916004808301926020929190829003018186803b15801561290557600080fd5b505afa158015612919573d6000803e3d6000fd5b505050506040513d601f19601f8201168201806040525081019061293d9190614104565b9050600060cd60009054906101000a90046001600160a01b03166001600160a01b03166329166e416040518163ffffffff1660e01b815260040160206040518083038186803b15801561298f57600080fd5b505afa1580156129a3573d6000803e3d6000fd5b505050506040513d601f19601f820116820180604052508101906129c79190614104565b9050600060cd60009054906101000a90046001600160a01b03166001600160a01b03166271c1756040518163ffffffff1660e01b815260040160206040518083038186803b158015612a1857600080fd5b505afa158015612a2c573d6000803e3d6000fd5b505050506040513d601f19601f82011682018060405250810190612a509190614104565b9050600062018a8860d35487612a66919061457d565b612a70919061455d565b90506000826001600160a01b031663c45a01556040518163ffffffff1660e01b815260040160206040518083038186803b158015612aad57600080fd5b505afa158015612ac1573d6000803e3d6000fd5b505050506040513d601f19601f82011682018060405250810190612ae59190614104565b6001600160a01b031663e6a4390586866040518363ffffffff1660e01b8152600401612b1292919061432d565b60206040518083038186803b158015612b2a57600080fd5b505afa158015612b3e573d6000803e3d6000fd5b505050506040513d601f19601f82011682018060405250810190612b629190614104565b60d55460405163a9059cbb60e01b81529192506001600160a01b038084169263a9059cbb92612b979216908690600401614347565b602060405180830381600087803b158015612bb157600080fd5b505af1158015612bc5573d6000803e3d6000fd5b505050506040513d601f19601f82011682018060405250810190612be99190614209565b50600080612bff612bfa858b61459c565b613968565b915091506000876001600160a01b03166370a08231306040518263ffffffff1660e01b8152600401612c319190614319565b60206040518083038186803b158015612c4957600080fd5b505afa158015612c5d573d6000803e3d6000fd5b505050506040513d601f19601f82011682018060405250810190612c819190614229565b9050612c8c82613d2d565b600081896001600160a01b03166370a08231306040518263ffffffff1660e01b8152600401612cbb9190614319565b60206040518083038186803b158015612cd357600080fd5b505afa158015612ce7573d6000803e3d6000fd5b505050506040513d601f19601f82011682018060405250810190612d0b9190614229565b612d159086614545565b612d1f919061459c565b60405163a9059cbb60e01b81529091506001600160a01b038a169063a9059cbb90612d50908f908590600401614347565b602060405180830381600087803b158015612d6a57600080fd5b505af1158015612d7e573d6000803e3d6000fd5b505050506040513d601f19601f82011682018060405250810190612da29190614209565b50985050505050505050505b92915050565b60008060cd60009054906101000a90046001600160a01b03166001600160a01b031663dd445c316040518163ffffffff1660e01b815260040160206040518083038186803b158015612e0557600080fd5b505afa158015612e19573d6000803e3d6000fd5b505050506040513d601f19601f82011682018060405250810190612e3d9190614104565b9050600061271060cf5485612e52919061457d565b612e5c919061455d565b9050600061271060d05486612e71919061457d565b612e7b919061455d565b9050600061271060d15487612e90919061457d565b612e9a919061455d565b9050600061271060d25488612eaf919061457d565b612eb9919061455d565b905060008415612fbb5760cd54604080516391a95b2560e01b815290516000926001600160a01b0316916391a95b25916004808301926020929190829003018186803b158015612f0857600080fd5b505afa158015612f1c573d6000803e3d6000fd5b505050506040513d601f19601f82011682018060405250810190612f409190614104565b9050612f4d878288612695565b6040516386ded73760e01b81526001600160a01b038216906386ded73790612f79908d90600401614319565b600060405180830381600087803b158015612f9357600080fd5b505af1158015612fa7573d6000803e3d6000fd5b505050508582612fb79190614545565b9150505b83156130bd5760cd54604080516399bd7d8f60e01b815290516000926001600160a01b0316916399bd7d8f916004808301926020929190829003018186803b15801561300657600080fd5b505afa15801561301a573d6000803e3d6000fd5b505050506040513d601f19601f8201168201806040525081019061303e9190614104565b905061304b878287612695565b604051631156b33560e31b8152600481018690526001600160a01b038b81166024830152821690638ab599a890604401600060405180830381600087803b15801561309557600080fd5b505af11580156130a9573d6000803e3d6000fd5b5050505084826130b99190614545565b9150505b82156130e85760d5546130db9087906001600160a01b031685612695565b6130e58382614545565b90505b81156108bf5760cd5460408051630e3fd31360e21b815290516000926001600160a01b0316916338ff4c4c916004808301926020929190829003018186803b15801561313357600080fd5b505afa158015613147573d6000803e3d6000fd5b505050506040513d601f19601f8201168201806040525081019061316b9190614104565b9050613178878285612695565b60405163349ecb7f60e01b8152600481018490526001600160a01b0382169063349ecb7f90602401600060405180830381600087803b1580156131ba57600080fd5b505af11580156131ce573d6000803e3d6000fd5b5050505082826131de9190614545565b9a9950505050505050505050565b60cd546040805163dd445c3160e01b815290516000926001600160a01b03169163dd445c31916004808301926020929190829003018186803b15801561323157600080fd5b505afa158015613245573d6000803e3d6000fd5b505050506040513d601f19601f820116820180604052508101906132699190614104565b9050600060cd60009054906101000a90046001600160a01b03166001600160a01b03166329166e416040518163ffffffff1660e01b815260040160206040518083038186803b1580156132bb57600080fd5b505afa1580156132cf573d6000803e3d6000fd5b505050506040513d601f19601f820116820180604052508101906132f39190614104565b9050600060cd60009054906101000a90046001600160a01b03166001600160a01b03166271c1756040518163ffffffff1660e01b815260040160206040518083038186803b15801561334457600080fd5b505afa158015613358573d6000803e3d6000fd5b505050506040513d601f19601f8201168201806040525081019061337c9190614104565b604080516002808252606082018352929350600092909160208301908036833701905050905083816000815181106133c457634e487b7160e01b600052603260045260246000fd5b60200260200101906001600160a01b031690816001600160a01b031681525050828160018151811061340657634e487b7160e01b600052603260045260246000fd5b6001600160a01b03928316602091820292909201015260405163095ea7b360e01b81529085169063095ea7b3906134439085908990600401614347565b602060405180830381600087803b15801561345d57600080fd5b505af1158015613471573d6000803e3d6000fd5b505050506040513d601f19601f820116820180604052508101906134959190614209565b50604051635c11d79560e01b81526001600160a01b03831690635c11d795906134cb9088906000908690309042906004016144d5565b600060405180830381600087803b1580156134e557600080fd5b505af11580156134f9573d6000803e3d6000fd5b505050505050505050565b60008060008060cd60009054906101000a90046001600160a01b03166001600160a01b031663dd445c316040518163ffffffff1660e01b815260040160206040518083038186803b15801561355857600080fd5b505afa15801561356c573d6000803e3d6000fd5b505050506040513d601f19601f820116820180604052508101906135909190614104565b9050600060cd60009054906101000a90046001600160a01b03166001600160a01b03166329166e416040518163ffffffff1660e01b815260040160206040518083038186803b1580156135e257600080fd5b505afa1580156135f6573d6000803e3d6000fd5b505050506040513d601f19601f8201168201806040525081019061361a9190614104565b9050600060cd60009054906101000a90046001600160a01b03166001600160a01b03166271c1756040518163ffffffff1660e01b815260040160206040518083038186803b15801561366b57600080fd5b505afa15801561367f573d6000803e3d6000fd5b505050506040513d601f19601f820116820180604052508101906136a39190614104565b60405163095ea7b360e01b81529091506001600160a01b0384169063095ea7b3906136d49084908c90600401614347565b602060405180830381600087803b1580156136ee57600080fd5b505af1158015613702573d6000803e3d6000fd5b505050506040513d601f19601f820116820180604052508101906137269190614209565b5060405163095ea7b360e01b81526001600160a01b0383169063095ea7b3906137559084908b90600401614347565b602060405180830381600087803b15801561376f57600080fd5b505af1158015613783573d6000803e3d6000fd5b505050506040513d601f19601f820116820180604052508101906137a79190614209565b5060405162e8e33760e81b81526001600160a01b0384811660048301528381166024830152604482018a90526064820189905260006084830181905260a48301523060c48301524260e483015282169063e8e337009061010401606060405180830381600087803b15801561381b57600080fd5b505af115801561382f573d6000803e3d6000fd5b505050506040513d601f19601f82011682018060405250810190613853919061427c565b919a90995090975095505050505050565b61386d81613929565b6138cf5760405162461bcd60e51b815260206004820152602d60248201527f455243313936373a206e657720696d706c656d656e746174696f6e206973206e60448201526c1bdd08184818dbdb9d1c9858dd609a1b6064820152608401610a7f565b60008051602061466183398151915280546001600160a01b0319166001600160a01b0392909216919091179055565b61390783613f84565b6000825111806139145750805b156111dc576139238383613fc4565b50505050565b6001600160a01b03163b151590565b600054610100900460ff1661395f5760405162461bcd60e51b8152600401610a7f9061448a565b61145933612643565b600080600060cd60009054906101000a90046001600160a01b03166001600160a01b031663dd445c316040518163ffffffff1660e01b815260040160206040518083038186803b1580156139bb57600080fd5b505afa1580156139cf573d6000803e3d6000fd5b505050506040513d601f19601f820116820180604052508101906139f39190614104565b9050600060cd60009054906101000a90046001600160a01b03166001600160a01b03166329166e416040518163ffffffff1660e01b815260040160206040518083038186803b158015613a4557600080fd5b505afa158015613a59573d6000803e3d6000fd5b505050506040513d601f19601f82011682018060405250810190613a7d9190614104565b9050600060cd60009054906101000a90046001600160a01b03166001600160a01b03166271c1756040518163ffffffff1660e01b815260040160206040518083038186803b158015613ace57600080fd5b505afa158015613ae2573d6000803e3d6000fd5b505050506040513d601f19601f82011682018060405250810190613b069190614104565b90506000816001600160a01b031663c45a01556040518163ffffffff1660e01b815260040160206040518083038186803b158015613b4357600080fd5b505afa158015613b57573d6000803e3d6000fd5b505050506040513d601f19601f82011682018060405250810190613b7b9190614104565b6001600160a01b031663e6a4390585856040518363ffffffff1660e01b8152600401613ba892919061432d565b60206040518083038186803b158015613bc057600080fd5b505afa158015613bd4573d6000803e3d6000fd5b505050506040513d601f19601f82011682018060405250810190613bf89190614104565b60405163095ea7b360e01b81529091506001600160a01b0382169063095ea7b390613c299085908b90600401614347565b602060405180830381600087803b158015613c4357600080fd5b505af1158015613c57573d6000803e3d6000fd5b505050506040513d601f19601f82011682018060405250810190613c7b9190614209565b50604051635d5155ef60e11b81526001600160a01b03858116600483015284811660248301526044820189905260006064830181905260848301523060a48301524260c483015283169063baa2abde9060e4016040805180830381600087803b158015613ce757600080fd5b505af1158015613cfb573d6000803e3d6000fd5b505050506040513d601f19601f82011682018060405250810190613d1f9190614259565b909890975095505050505050565b60cd546040805163dd445c3160e01b815290516000926001600160a01b03169163dd445c31916004808301926020929190829003018186803b158015613d7257600080fd5b505afa158015613d86573d6000803e3d6000fd5b505050506040513d601f19601f82011682018060405250810190613daa9190614104565b9050600060cd60009054906101000a90046001600160a01b03166001600160a01b03166329166e416040518163ffffffff1660e01b815260040160206040518083038186803b158015613dfc57600080fd5b505afa158015613e10573d6000803e3d6000fd5b505050506040513d601f19601f82011682018060405250810190613e349190614104565b9050600060cd60009054906101000a90046001600160a01b03166001600160a01b03166271c1756040518163ffffffff1660e01b815260040160206040518083038186803b158015613e8557600080fd5b505afa158015613e99573d6000803e3d6000fd5b505050506040513d601f19601f82011682018060405250810190613ebd9190614104565b60408051600280825260608201835292935060009290916020830190803683370190505090508281600081518110613f0557634e487b7160e01b600052603260045260246000fd5b60200260200101906001600160a01b031690816001600160a01b0316815250508381600181518110613f4757634e487b7160e01b600052603260045260246000fd5b6001600160a01b03928316602091820292909201015260405163095ea7b360e01b81529084169063095ea7b3906134439085908990600401614347565b613f8d81613864565b6040516001600160a01b038216907fbc7cd75a20ee27fd9adebab32041f755214dbc6bffa90cc0225b39da2e5c2d3b90600090a250565b6060613fcf83613929565b61402a5760405162461bcd60e51b815260206004820152602660248201527f416464726573733a2064656c65676174652063616c6c20746f206e6f6e2d636f6044820152651b9d1c9858dd60d21b6064820152608401610a7f565b600080846001600160a01b03168460405161404591906142fd565b600060405180830381855af49150503d8060008114614080576040519150601f19603f3d011682016040523d82523d6000602084013e614085565b606091505b509150915061097c82826040518060600160405280602781526020016146a160279139606083156140b75750816140e1565b8251156140c75782518084602001fd5b8160405162461bcd60e51b8152600401610a7f9190614360565b9392505050565b6000602082840312156140f9578081fd5b81356140e18161460b565b600060208284031215614115578081fd5b81516140e18161460b565b60008060408385031215614132578081fd5b823561413d8161460b565b915060208301356001600160401b0380821115614158578283fd5b818501915085601f83011261416b578283fd5b81358181111561417d5761417d6145f5565b604051601f8201601f19908116603f011681019083821181831017156141a5576141a56145f5565b816040528281528860208487010111156141bd578586fd5b82602086016020830137856020848301015280955050505050509250929050565b600080604083850312156141f0578182fd5b82356141fb8161460b565b946020939093013593505050565b60006020828403121561421a578081fd5b815180151581146140e1578182fd5b60006020828403121561423a578081fd5b5051919050565b600060208284031215614252578081fd5b5035919050565b6000806040838503121561426b578182fd5b505080516020909101519092909150565b600080600060608486031215614290578081fd5b8351925060208401519150604084015190509250925092565b60008060008060008060c087890312156142c1578384fd5b863595506020870135945060408701359350606087013592506080870135915060a08701356142ef8161460b565b809150509295509295509295565b6000825161430f8184602087016145b3565b9190910192915050565b6001600160a01b0391909116815260200190565b6001600160a01b0392831681529116602082015260400190565b6001600160a01b03929092168252602082015260400190565b602081526000825180602084015261437f8160408501602087016145b3565b601f01601f19169190910160400192915050565b6020808252602c9082015260008051602061464183398151915260408201526b19195b1959d85d1958d85b1b60a21b606082015260800190565b6020808252602c9082015260008051602061464183398151915260408201526b6163746976652070726f787960a01b606082015260800190565b6020808252602e908201527f496e697469616c697a61626c653a20636f6e747261637420697320616c72656160408201526d191e481a5b9a5d1a585b1a5e995960921b606082015260800190565b6020808252818101527f4f776e61626c653a2063616c6c6572206973206e6f7420746865206f776e6572604082015260600190565b6020808252602b908201527f496e697469616c697a61626c653a20636f6e7472616374206973206e6f74206960408201526a6e697469616c697a696e6760a81b606082015260800190565b600060a082018783526020878185015260a0604085015281875180845260c0860191508289019350845b818110156145245784516001600160a01b0316835293830193918301916001016144ff565b50506001600160a01b03969096166060850152505050608001529392505050565b60008219821115614558576145586145df565b500190565b60008261457857634e487b7160e01b81526012600452602481fd5b500490565b6000816000190483118215151615614597576145976145df565b500290565b6000828210156145ae576145ae6145df565b500390565b60005b838110156145ce5781810151838201526020016145b6565b838111156139235750506000910152565b634e487b7160e01b600052601160045260246000fd5b634e487b7160e01b600052604160045260246000fd5b6001600160a01b0381168114610d6957600080fdfe536d6172744661726d237769746864726177534d543a2077697468647261772046756e6374696f6e206d7573742062652063616c6c6564207468726f75676820360894a13ba1a3210667c828492db98dca3e2076cc3735a920a3ca505d382bbc536d6172744661726d23757064617465466565496e666f3a20546f6f20626967416464726573733a206c6f772d6c6576656c2064656c65676174652063616c6c206661696c6564536d6172744661726d237769746864726177534d543a2043616e6e6f74207769a264697066735822122066d91718315aa77bd5fb4c5f175c1e481ca94681c94507a05f8455cafd69811064736f6c63430008040033",
  "linkReferences": {},
  "deployedLinkReferences": {}
}