{
  "_format": "hh-sol-artifact-1",
  "contractName": "SMTBridge",
  "sourceName": "contracts/SMTBridge.sol",
  "abi": [
    {
      "anonymous": false,
      "inputs": [
        {
          "indexed": false,
          "internalType": "address",
          "name": "previousAdmin",
          "type": "address"
        },
        {
          "indexed": false,
          "internalType": "address",
          "name": "newAdmin",
          "type": "address"
        }
      ],
      "name": "AdminChanged",
      "type": "event"
    },
    {
      "anonymous": false,
      "inputs": [
        {
          "indexed": true,
          "internalType": "address",
          "name": "beacon",
          "type": "address"
        }
      ],
      "name": "BeaconUpgraded",
      "type": "event"
    },
    {
      "anonymous": false,
      "inputs": [
        {
          "indexed": true,
          "internalType": "address",
          "name": "previousOwner",
          "type": "address"
        },
        {
          "indexed": true,
          "internalType": "address",
          "name": "newOwner",
          "type": "address"
        }
      ],
      "name": "OwnershipTransferred",
      "type": "event"
    },
    {
      "anonymous": false,
      "inputs": [
        {
          "indexed": true,
          "internalType": "address",
          "name": "implementation",
          "type": "address"
        }
      ],
      "name": "Upgraded",
      "type": "event"
    },
    {
      "inputs": [],
      "name": "FEE_DENOMINATOR",
      "outputs": [
        {
          "internalType": "uint256",
          "name": "",
          "type": "uint256"
        }
      ],
      "stateMutability": "view",
      "type": "function"
    },
    {
      "inputs": [],
      "name": "WBNB",
      "outputs": [
        {
          "internalType": "address",
          "name": "",
          "type": "address"
        }
      ],
      "stateMutability": "view",
      "type": "function"
    },
    {
      "inputs": [],
      "name": "aggregatorFee",
      "outputs": [
        {
          "internalType": "uint256",
          "name": "",
          "type": "uint256"
        }
      ],
      "stateMutability": "view",
      "type": "function"
    },
    {
      "inputs": [
        {
          "internalType": "address",
          "name": "token",
          "type": "address"
        }
      ],
      "name": "collect",
      "outputs": [],
      "stateMutability": "nonpayable",
      "type": "function"
    },
    {
      "inputs": [],
      "name": "comptroller",
      "outputs": [
        {
          "internalType": "contract ISmartComp",
          "name": "",
          "type": "address"
        }
      ],
      "stateMutability": "view",
      "type": "function"
    },
    {
      "inputs": [
        {
          "internalType": "contract ISmartComp",
          "name": "_comptroller",
          "type": "address"
        }
      ],
      "name": "initialize",
      "outputs": [],
      "stateMutability": "nonpayable",
      "type": "function"
    },
    {
      "inputs": [],
      "name": "owner",
      "outputs": [
        {
          "internalType": "address",
          "name": "",
          "type": "address"
        }
      ],
      "stateMutability": "view",
      "type": "function"
    },
    {
      "inputs": [],
      "name": "pancakeFactory",
      "outputs": [
        {
          "internalType": "address",
          "name": "",
          "type": "address"
        }
      ],
      "stateMutability": "view",
      "type": "function"
    },
    {
      "inputs": [],
      "name": "proxiableUUID",
      "outputs": [
        {
          "internalType": "bytes32",
          "name": "",
          "type": "bytes32"
        }
      ],
      "stateMutability": "view",
      "type": "function"
    },
    {
      "inputs": [],
      "name": "renounceOwnership",
      "outputs": [],
      "stateMutability": "nonpayable",
      "type": "function"
    },
    {
      "inputs": [
        {
          "internalType": "uint256",
          "name": "_fee",
          "type": "uint256"
        }
      ],
      "name": "setAggregatorFee",
      "outputs": [],
      "stateMutability": "nonpayable",
      "type": "function"
    },
    {
      "inputs": [
        {
          "internalType": "address",
          "name": "_factory",
          "type": "address"
        }
      ],
      "name": "setPancakeFactory",
      "outputs": [],
      "stateMutability": "nonpayable",
      "type": "function"
    },
    {
      "inputs": [
        {
          "internalType": "address",
          "name": "_wbnb",
          "type": "address"
        }
      ],
      "name": "setWBNB",
      "outputs": [],
      "stateMutability": "nonpayable",
      "type": "function"
    },
    {
      "inputs": [
        {
          "internalType": "uint256",
          "name": "swapAmountOutMin",
          "type": "uint256"
        },
        {
          "internalType": "address[]",
          "name": "path",
          "type": "address[]"
        },
        {
          "internalType": "address",
          "name": "to",
          "type": "address"
        },
        {
          "internalType": "uint256",
          "name": "deadline",
          "type": "uint256"
        }
      ],
      "name": "swapExactETHForTokensSupportingFeeOnTransferTokens",
      "outputs": [],
      "stateMutability": "payable",
      "type": "function"
    },
    {
      "inputs": [
        {
          "internalType": "uint256",
          "name": "amountIn",
          "type": "uint256"
        },
        {
          "internalType": "uint256",
          "name": "swapAmountOutMin",
          "type": "uint256"
        },
        {
          "internalType": "address[]",
          "name": "path",
          "type": "address[]"
        },
        {
          "internalType": "address",
          "name": "to",
          "type": "address"
        },
        {
          "internalType": "uint256",
          "name": "deadline",
          "type": "uint256"
        }
      ],
      "name": "swapExactTokensForETHSupportingFeeOnTransferTokens",
      "outputs": [],
      "stateMutability": "nonpayable",
      "type": "function"
    },
    {
      "inputs": [
        {
          "internalType": "uint256",
          "name": "amountIn",
          "type": "uint256"
        },
        {
          "internalType": "uint256",
          "name": "swapAmountOutMin",
          "type": "uint256"
        },
        {
          "internalType": "address[]",
          "name": "path",
          "type": "address[]"
        },
        {
          "internalType": "address",
          "name": "to",
          "type": "address"
        },
        {
          "internalType": "uint256",
          "name": "deadline",
          "type": "uint256"
        }
      ],
      "name": "swapExactTokensForTokensSupportingFeeOnTransferTokens",
      "outputs": [],
      "stateMutability": "nonpayable",
      "type": "function"
    },
    {
      "inputs": [
        {
          "internalType": "address",
          "name": "newOwner",
          "type": "address"
        }
      ],
      "name": "transferOwnership",
      "outputs": [],
      "stateMutability": "nonpayable",
      "type": "function"
    },
    {
      "inputs": [
        {
          "internalType": "address",
          "name": "newImplementation",
          "type": "address"
        }
      ],
      "name": "upgradeTo",
      "outputs": [],
      "stateMutability": "nonpayable",
      "type": "function"
    },
    {
      "inputs": [
        {
          "internalType": "address",
          "name": "newImplementation",
          "type": "address"
        },
        {
          "internalType": "bytes",
          "name": "data",
          "type": "bytes"
        }
      ],
      "name": "upgradeToAndCall",
      "outputs": [],
      "stateMutability": "payable",
      "type": "function"
    },
    {
      "stateMutability": "payable",
      "type": "receive"
    }
  ],
  "bytecode": "0x60a06040523060601b60805234801561001757600080fd5b5060805160601c612d286100526000396000818161051001528181610550015281816105d601528181610616015261068e0152612d286000f3fe6080604052600436106100e85760003560e01c806306ec16f8146100f4578063355466c8146101165780633659cfe6146101365780634f1ef2861461015657806352d1902d146101695780635c11d795146101915780635fe3b567146101b1578063715018a6146101de578063791ac947146101f35780638da5cb5b146102135780638dd95002146102285780639ed5b4dd14610248578063a8b13ef31461025e578063b6f9de951461027e578063c4d66de814610291578063cab27a64146102b1578063d73792a9146102d1578063e0f1c9c5146102e7578063f2fde38b1461030757600080fd5b366100ef57005b600080fd5b34801561010057600080fd5b5061011461010f366004612694565b610327565b005b34801561012257600080fd5b50610114610131366004612810565b6104c8565b34801561014257600080fd5b50610114610151366004612694565b610505565b6101146101643660046126cc565b6105cb565b34801561017557600080fd5b5061017e610681565b6040519081526020015b60405180910390f35b34801561019d57600080fd5b506101146101ac36600461288c565b61072f565b3480156101bd57600080fd5b5060cc546101d1906001600160a01b031681565b6040516101889190612944565b3480156101ea57600080fd5b506101146107e8565b3480156101ff57600080fd5b5061011461020e36600461288c565b610823565b34801561021f57600080fd5b506101d16108f1565b34801561023457600080fd5b5060c9546101d1906001600160a01b031681565b34801561025457600080fd5b5061017e60cb5481565b34801561026a57600080fd5b50610114610279366004612694565b610900565b61011461028c366004612828565b610951565b34801561029d57600080fd5b506101146102ac366004612694565b6109cb565b3480156102bd57600080fd5b506101146102cc366004612694565b610a52565b3480156102dd57600080fd5b5061017e61271081565b3480156102f357600080fd5b5060ca546101d1906001600160a01b031681565b34801561031357600080fd5b50610114610322366004612694565b610aa3565b60c9546001600160a01b0382811691161415610438576040516370a0823160e01b81526000906001600160a01b038316906370a082319061036c903090600401612944565b60206040518083038186803b15801561038457600080fd5b505afa158015610398573d6000803e3d6000fd5b505050506040513d601f19601f820116820180604052508101906103bc91906127aa565b905080156104235760c954604051632e1a7d4d60e01b8152600481018390526001600160a01b0390911690632e1a7d4d90602401600060405180830381600087803b15801561040a57600080fd5b505af115801561041e573d6000803e3d6000fd5b505050505b61043461042e6108f1565b47610b40565b5050565b6104c5816104446108f1565b6040516370a0823160e01b81526001600160a01b038516906370a0823190610470903090600401612944565b60206040518083038186803b15801561048857600080fd5b505afa15801561049c573d6000803e3d6000fd5b505050506040513d601f19601f820116820180604052508101906104c091906127aa565b610c0e565b50565b336104d16108f1565b6001600160a01b0316146105005760405162461bcd60e51b81526004016104f790612ae8565b60405180910390fd5b60cb55565b306001600160a01b037f000000000000000000000000000000000000000000000000000000000000000016141561054e5760405162461bcd60e51b81526004016104f7906129b5565b7f00000000000000000000000000000000000000000000000000000000000000006001600160a01b0316610580610d2b565b6001600160a01b0316146105a65760405162461bcd60e51b81526004016104f790612a34565b6105af81610d47565b604080516000808252602082019092526104c591839190610d76565b306001600160a01b037f00000000000000000000000000000000000000000000000000000000000000001614156106145760405162461bcd60e51b81526004016104f7906129b5565b7f00000000000000000000000000000000000000000000000000000000000000006001600160a01b0316610646610d2b565b6001600160a01b03161461066c5760405162461bcd60e51b81526004016104f790612a34565b61067582610d47565b61043482826001610d76565b6000306001600160a01b037f0000000000000000000000000000000000000000000000000000000000000000161461071c5760405162461bcd60e51b815260206004820152603860248201527f555550535570677261646561626c653a206d757374206e6f742062652063616c6044820152771b1959081d1a1c9bdd59da0819195b1959d85d1958d85b1b60421b60648201526084016104f7565b50600080516020612cac83398151915290565b80428110156107505760405162461bcd60e51b81526004016104f790612abc565b600061075e88888888610ef0565b9050600061078361271061077d60cb54856111a090919063ffffffff16565b9061120d565b905060006107918383611220565b90506107dc88886107a3600182612bec565b8181106107c057634e487b7160e01b600052603260045260246000fd5b90506020020160208101906107d59190612694565b8783610c0e565b50505050505050505050565b336107f16108f1565b6001600160a01b0316146108175760405162461bcd60e51b81526004016104f790612ae8565b6108216000611276565b565b80428110156108445760405162461bcd60e51b81526004016104f790612abc565b6000610852888888886112c8565b9050600061087161271061077d60cb54856111a090919063ffffffff16565b60c954604051632e1a7d4d60e01b8152600481018590529192506001600160a01b031690632e1a7d4d90602401600060405180830381600087803b1580156108b857600080fd5b505af11580156108cc573d6000803e3d6000fd5b5050505060006108e5828461122090919063ffffffff16565b90506107dc8682610b40565b6097546001600160a01b031690565b336109096108f1565b6001600160a01b03161461092f5760405162461bcd60e51b81526004016104f790612ae8565b60ca80546001600160a01b0319166001600160a01b0392909216919091179055565b80428110156109725760405162461bcd60e51b81526004016104f790612abc565b60006109818787876000611458565b905060006109a061271061077d60cb54856111a090919063ffffffff16565b905060006109ae8383611220565b90506109c088886107a3600182612bec565b505050505050505050565b600054610100900460ff166109e65760005460ff16156109ee565b6109ee6117cb565b610a0a5760405162461bcd60e51b81526004016104f790612a6e565b600054610100900460ff16158015610a2c576000805461ffff19166101011790555b610a346117dc565b610a3d8261180b565b8015610434576000805461ff00191690555050565b33610a5b6108f1565b6001600160a01b031614610a815760405162461bcd60e51b81526004016104f790612ae8565b60c980546001600160a01b0319166001600160a01b0392909216919091179055565b33610aac6108f1565b6001600160a01b031614610ad25760405162461bcd60e51b81526004016104f790612ae8565b6001600160a01b038116610b375760405162461bcd60e51b815260206004820152602660248201527f4f776e61626c653a206e6577206f776e657220697320746865207a65726f206160448201526564647265737360d01b60648201526084016104f7565b6104c581611276565b604080516000808252602082019092526001600160a01b038416908390604051610b6a9190612928565b60006040518083038185875af1925050503d8060008114610ba7576040519150601f19603f3d011682016040523d82523d6000602084013e610bac565b606091505b5050905080610c095760405162461bcd60e51b815260206004820152602360248201527f5472616e7366657248656c7065723a204554485f5452414e534645525f46414960448201526213115160ea1b60648201526084016104f7565b505050565b600080846001600160a01b031663a9059cbb8585604051602401610c33929190612958565b6040516020818303038152906040529060e01b6020820180516001600160e01b038381831617835250505050604051610c6c9190612928565b6000604051808303816000865af19150503d8060008114610ca9576040519150601f19603f3d011682016040523d82523d6000602084013e610cae565b606091505b5091509150818015610cd8575080511580610cd8575080806020019051810190610cd8919061278a565b610d245760405162461bcd60e51b815260206004820152601f60248201527f5472616e7366657248656c7065723a205452414e534645525f4641494c45440060448201526064016104f7565b5050505050565b600080516020612cac833981519152546001600160a01b031690565b33610d506108f1565b6001600160a01b0316146104c55760405162461bcd60e51b81526004016104f790612ae8565b7f4910fdfa16fed3260ed0e7147f7cc6da11a60208b5b9406d12a635614ffd91435460ff1615610da957610c0983611b06565b826001600160a01b03166352d1902d6040518163ffffffff1660e01b815260040160206040518083038186803b158015610de257600080fd5b505afa925050508015610e12575060408051601f3d908101601f19168201909252610e0f918101906127aa565b60015b610e755760405162461bcd60e51b815260206004820152602e60248201527f45524331393637557067726164653a206e657720696d706c656d656e7461746960448201526d6f6e206973206e6f74205555505360901b60648201526084016104f7565b600080516020612cac8339815191528114610ee45760405162461bcd60e51b815260206004820152602960248201527f45524331393637557067726164653a20756e737570706f727465642070726f786044820152681a58589b195555525160ba1b60648201526084016104f7565b50610c09838383611ba0565b6000610fb283836000818110610f1657634e487b7160e01b600052603260045260246000fd5b9050602002016020810190610f2b9190612694565b60ca543390610fac906001600160a01b03168787600081610f5c57634e487b7160e01b600052603260045260246000fd5b9050602002016020810190610f719190612694565b88886001818110610f9257634e487b7160e01b600052603260045260246000fd5b9050602002016020810190610fa79190612694565b611bcb565b88611c99565b60008383610fc1600182612bec565b818110610fde57634e487b7160e01b600052603260045260246000fd5b9050602002016020810190610ff39190612694565b6001600160a01b03166370a08231306040518263ffffffff1660e01b815260040161101e9190612944565b60206040518083038186803b15801561103657600080fd5b505afa15801561104a573d6000803e3d6000fd5b505050506040513d601f19601f8201168201806040525081019061106e91906127aa565b90506110ae848480806020026020016040519081016040528093929190818152602001838360200280828437600092019190915250309250611d6d915050565b60006111748286866110c1600182612bec565b8181106110de57634e487b7160e01b600052603260045260246000fd5b90506020020160208101906110f39190612694565b6001600160a01b03166370a08231306040518263ffffffff1660e01b815260040161111e9190612944565b60206040518083038186803b15801561113657600080fd5b505afa15801561114a573d6000803e3d6000fd5b505050506040513d601f19601f8201168201806040525081019061116e91906127aa565b90611220565b9050858110156111965760405162461bcd60e51b81526004016104f7906129ef565b9695505050505050565b60008115806111c4575082826111b68183612bcd565b92506111c29083612bad565b145b6112075760405162461bcd60e51b815260206004820152601460248201527364732d6d6174682d6d756c2d6f766572666c6f7760601b60448201526064016104f7565b92915050565b60006112198284612bad565b9392505050565b60008261122d8382612bec565b91508111156112075760405162461bcd60e51b815260206004820152601560248201527464732d6d6174682d7375622d756e646572666c6f7760581b60448201526064016104f7565b609780546001600160a01b038381166001600160a01b0319831681179093556040519116919082907f8be0079c531659141344cd1fd0a4f28419497f9722a3daafe3b4186f6b6457e090600090a35050565b60c9546000906001600160a01b031683836112e4600182612bec565b81811061130157634e487b7160e01b600052603260045260246000fd5b90506020020160208101906113169190612694565b6001600160a01b03161461133c5760405162461bcd60e51b81526004016104f790612984565b61136083836000818110610f1657634e487b7160e01b600052603260045260246000fd5b60c9546040516370a0823160e01b81526000916001600160a01b0316906370a0823190611391903090600401612944565b60206040518083038186803b1580156113a957600080fd5b505afa1580156113bd573d6000803e3d6000fd5b505050506040513d601f19601f820116820180604052508101906113e191906127aa565b9050611421848480806020026020016040519081016040528093929190818152602001838360200280828437600092019190915250309250611d6d915050565b60c9546040516370a0823160e01b81526000916111749184916001600160a01b0316906370a082319061111e903090600401612944565b60c9546000906001600160a01b03168484838161148557634e487b7160e01b600052603260045260246000fd5b905060200201602081019061149a9190612694565b6001600160a01b0316146114c05760405162461bcd60e51b81526004016104f790612984565b60006114cc3484611220565b90506000811161152a5760405162461bcd60e51b8152602060048201526024808201527f534d544272696467653a20494e53554646494349454e545f494e5055545f414d60448201526313d5539560e21b60648201526084016104f7565b60c960009054906101000a90046001600160a01b03166001600160a01b031663d0e30db0826040518263ffffffff1660e01b81526004016000604051808303818588803b15801561157a57600080fd5b505af115801561158e573d6000803e3d6000fd5b505060c95460ca546001600160a01b03918216945063a9059cbb935061160592501688886000816115cf57634e487b7160e01b600052603260045260246000fd5b90506020020160208101906115e49190612694565b89896001818110610f9257634e487b7160e01b600052603260045260246000fd5b836040518363ffffffff1660e01b8152600401611623929190612958565b602060405180830381600087803b15801561163d57600080fd5b505af1158015611651573d6000803e3d6000fd5b505050506040513d601f19601f82011682018060405250810190611675919061278a565b61168f57634e487b7160e01b600052600160045260246000fd5b6000858561169e600182612bec565b8181106116bb57634e487b7160e01b600052603260045260246000fd5b90506020020160208101906116d09190612694565b6001600160a01b03166370a08231306040518263ffffffff1660e01b81526004016116fb9190612944565b60206040518083038186803b15801561171357600080fd5b505afa158015611727573d6000803e3d6000fd5b505050506040513d601f19601f8201168201806040525081019061174b91906127aa565b905061178b868680806020026020016040519081016040528093929190818152602001838360200280828437600092019190915250309250611d6d915050565b600061179e8288886110c1600182612bec565b9050878110156117c05760405162461bcd60e51b81526004016104f7906129ef565b979650505050505050565b60006117d63061210a565b15905090565b600054610100900460ff166118035760405162461bcd60e51b81526004016104f790612b1d565b610821612119565b600054610100900460ff166118265760005460ff161561182e565b61182e6117cb565b61184a5760405162461bcd60e51b81526004016104f790612a6e565b600054610100900460ff1615801561186c576000805461ffff19166101011790555b6001600160a01b0382166118cc5760405162461bcd60e51b815260206004820152602160248201527f534d544272696467653a205a45524f5f534d415254434f4d505f4144445245536044820152605360f81b60648201526084016104f7565b60cc80546001600160a01b0319166001600160a01b038416908117909155604080516271c17560e01b815290516271c17591600480820192602092909190829003018186803b15801561191e57600080fd5b505afa158015611932573d6000803e3d6000fd5b505050506040513d601f19601f8201168201806040525081019061195691906126b0565b6001600160a01b031663ad5c46486040518163ffffffff1660e01b815260040160206040518083038186803b15801561198e57600080fd5b505afa1580156119a2573d6000803e3d6000fd5b505050506040513d601f19601f820116820180604052508101906119c691906126b0565b60c960006101000a8154816001600160a01b0302191690836001600160a01b03160217905550816001600160a01b03166271c1756040518163ffffffff1660e01b815260040160206040518083038186803b158015611a2457600080fd5b505afa158015611a38573d6000803e3d6000fd5b505050506040513d601f19601f82011682018060405250810190611a5c91906126b0565b6001600160a01b031663c45a01556040518163ffffffff1660e01b815260040160206040518083038186803b158015611a9457600080fd5b505afa158015611aa8573d6000803e3d6000fd5b505050506040513d601f19601f82011682018060405250810190611acc91906126b0565b60ca80546001600160a01b0319166001600160a01b0392909216919091179055601160cb558015610434576000805461ff00191690555050565b611b0f8161210a565b611b715760405162461bcd60e51b815260206004820152602d60248201527f455243313936373a206e657720696d706c656d656e746174696f6e206973206e60448201526c1bdd08184818dbdb9d1c9858dd609a1b60648201526084016104f7565b600080516020612cac83398151915280546001600160a01b0319166001600160a01b0392909216919091179055565b611ba983612149565b600082511180611bb65750805b15610c0957611bc58383612189565b50505050565b6000806000611bda858561227b565b6040516001600160601b0319606084811b8216602084015283901b1660348201529193509150869060480160405160208183030381529060405280519060200120604051602001611c779291906001600160f81b0319815260609290921b6001600160601b031916600183015260158201527efb7f630766e6a796048ea87d01acd3068e8ff67d078148a3fa3f4a84f69bd5603582015260550190565b60408051601f1981840301815291905280516020909101209695505050505050565b6040516370a0823160e01b81526000906001600160a01b038616906370a0823190611cc8903090600401612944565b60206040518083038186803b158015611ce057600080fd5b505afa158015611cf4573d6000803e3d6000fd5b505050506040513d601f19601f82011682018060405250810190611d1891906127aa565b9050611d2685853085612370565b6000611d5882876001600160a01b03166370a08231306040518263ffffffff1660e01b815260040161111e9190612944565b9050611d65868583610c0e565b505050505050565b60005b60018351611d7e9190612bec565b811015610c0957600080848381518110611da857634e487b7160e01b600052603260045260246000fd5b602002602001015185846001611dbe9190612b95565b81518110611ddc57634e487b7160e01b600052603260045260246000fd5b6020026020010151915091506000611df4838361227b565b5060ca5460405163e6a4390560e01b81526001600160a01b03868116600483015285811660248301529293506000929091169063e6a439059060440160206040518083038186803b158015611e4857600080fd5b505afa158015611e5c573d6000803e3d6000fd5b505050506040513d601f19601f82011682018060405250810190611e8091906126b0565b6001600160a01b03161415611ed35760405162461bcd60e51b815260206004820152601960248201527814d355109c9a5919d94e881410525497d393d517d1561254d5603a1b60448201526064016104f7565b60ca54600090611eed906001600160a01b03168585611bcb565b9050600080600080846001600160a01b0316630902f1ac6040518163ffffffff1660e01b815260040160606040518083038186803b158015611f2e57600080fd5b505afa158015611f42573d6000803e3d6000fd5b505050506040513d601f19601f82011682018060405250810190611f6691906127c2565b506001600160701b031691506001600160701b03169150600080876001600160a01b03168a6001600160a01b031614611fa0578284611fa3565b83835b91509150611fd7828b6001600160a01b03166370a082318a6040518263ffffffff1660e01b815260040161111e9190612944565b9550611fe4868383612498565b945050505050600080856001600160a01b0316886001600160a01b03161461200e57826000612012565b6000835b91509150600060028c516120269190612bec565b8a10612032578a61207a565b60ca5461207a906001600160a01b0316898e61204f8e6002612b95565b8151811061206d57634e487b7160e01b600052603260045260246000fd5b6020026020010151611bcb565b6040805160008152602081019182905263022c0d9f60e01b9091529091506001600160a01b0387169063022c0d9f906120bc9086908690869060248101612b68565b600060405180830381600087803b1580156120d657600080fd5b505af11580156120ea573d6000803e3d6000fd5b50505050505050505050505050808061210290612c2f565b915050611d70565b6001600160a01b03163b151590565b600054610100900460ff166121405760405162461bcd60e51b81526004016104f790612b1d565b61082133611276565b61215281611b06565b6040516001600160a01b038216907fbc7cd75a20ee27fd9adebab32041f755214dbc6bffa90cc0225b39da2e5c2d3b90600090a250565b60606121948361210a565b6121ef5760405162461bcd60e51b815260206004820152602660248201527f416464726573733a2064656c65676174652063616c6c20746f206e6f6e2d636f6044820152651b9d1c9858dd60d21b60648201526084016104f7565b600080846001600160a01b03168460405161220a9190612928565b600060405180830381855af49150503d8060008114612245576040519150601f19603f3d011682016040523d82523d6000602084013e61224a565b606091505b50915091506122728282604051806060016040528060278152602001612ccc602791396125a8565b95945050505050565b600080826001600160a01b0316846001600160a01b031614156122ec5760405162461bcd60e51b815260206004820152602360248201527f50616e63616b654c6962726172793a204944454e544943414c5f41444452455360448201526253455360e81b60648201526084016104f7565b826001600160a01b0316846001600160a01b03161061230c57828461230f565b83835b90925090506001600160a01b0382166123695760405162461bcd60e51b815260206004820152601c60248201527b50616e63616b654c6962726172793a205a45524f5f4144445245535360201b60448201526064016104f7565b9250929050565b604080516001600160a01b0385811660248301528481166044830152606480830185905283518084039091018152608490920183526020820180516001600160e01b03166323b872dd60e01b17905291516000928392908816916123d49190612928565b6000604051808303816000865af19150503d8060008114612411576040519150601f19603f3d011682016040523d82523d6000602084013e612416565b606091505b5091509150818015612440575080511580612440575080806020019051810190612440919061278a565b611d655760405162461bcd60e51b8152602060048201526024808201527f5472616e7366657248656c7065723a205452414e534645525f46524f4d5f46416044820152631253115160e21b60648201526084016104f7565b60008084116124fb5760405162461bcd60e51b815260206004820152602960248201527f50616e63616b654c6962726172793a20494e53554646494349454e545f494e50604482015268155517d05353d5539560ba1b60648201526084016104f7565b60008311801561250b5750600082115b6125665760405162461bcd60e51b815260206004820152602660248201527f50616e63616b654c6962726172793a20494e53554646494349454e545f4c495160448201526555494449545960d01b60648201526084016104f7565b6000612574856126f76111a0565b9050600061258282856111a0565b9050600061259c83612596886127106111a0565b906125e1565b90506117c08183612bad565b606083156125b7575081611219565b8251156125c75782518084602001fd5b8160405162461bcd60e51b81526004016104f79190612971565b6000826125ee8382612b95565b91508110156112075760405162461bcd60e51b815260206004820152601460248201527364732d6d6174682d6164642d6f766572666c6f7760601b60448201526064016104f7565b60008083601f840112612647578081fd5b5081356001600160401b0381111561265d578182fd5b6020830191508360208260051b850101111561236957600080fd5b80516001600160701b038116811461268f57600080fd5b919050565b6000602082840312156126a5578081fd5b813561121981612c76565b6000602082840312156126c1578081fd5b815161121981612c76565b600080604083850312156126de578081fd5b82356126e981612c76565b915060208301356001600160401b0380821115612704578283fd5b818501915085601f830112612717578283fd5b81358181111561272957612729612c60565b604051601f8201601f19908116603f0116810190838211818310171561275157612751612c60565b81604052828152886020848701011115612769578586fd5b82602086016020830137856020848301015280955050505050509250929050565b60006020828403121561279b578081fd5b81518015158114611219578182fd5b6000602082840312156127bb578081fd5b5051919050565b6000806000606084860312156127d6578081fd5b6127df84612678565b92506127ed60208501612678565b9150604084015163ffffffff81168114612805578182fd5b809150509250925092565b600060208284031215612821578081fd5b5035919050565b60008060008060006080868803121561283f578081fd5b8535945060208601356001600160401b0381111561285b578182fd5b61286788828901612636565b909550935050604086013561287b81612c76565b949793965091946060013592915050565b60008060008060008060a087890312156128a4578081fd5b863595506020870135945060408701356001600160401b038111156128c7578182fd5b6128d389828a01612636565b90955093505060608701356128e781612c76565b80925050608087013590509295509295509295565b60008151808452612914816020860160208601612c03565b601f01601f19169290920160200192915050565b6000825161293a818460208701612c03565b9190910192915050565b6001600160a01b0391909116815260200190565b6001600160a01b03929092168252602082015260400190565b60208152600061121960208301846128fc565b6020808252601790820152760a69aa884e4d2c8ceca7440929cac82989288bea082a89604b1b604082015260600190565b6020808252602c90820152600080516020612c8c83398151915260408201526b19195b1959d85d1958d85b1b60a21b606082015260800190565b60208082526025908201527f534d544272696467653a20494e53554646494349454e545f4f55545055545f416040820152641353d5539560da1b606082015260800190565b6020808252602c90820152600080516020612c8c83398151915260408201526b6163746976652070726f787960a01b606082015260800190565b6020808252602e908201527f496e697469616c697a61626c653a20636f6e747261637420697320616c72656160408201526d191e481a5b9a5d1a585b1a5e995960921b606082015260800190565b60208082526012908201527114d355109c9a5919d94e881156141254915160721b604082015260600190565b6020808252818101527f4f776e61626c653a2063616c6c6572206973206e6f7420746865206f776e6572604082015260600190565b6020808252602b908201527f496e697469616c697a61626c653a20636f6e7472616374206973206e6f74206960408201526a6e697469616c697a696e6760a81b606082015260800190565b84815283602082015260018060a01b038316604082015260806060820152600061119660808301846128fc565b60008219821115612ba857612ba8612c4a565b500190565b600082612bc857634e487b7160e01b81526012600452602481fd5b500490565b6000816000190483118215151615612be757612be7612c4a565b500290565b600082821015612bfe57612bfe612c4a565b500390565b60005b83811015612c1e578181015183820152602001612c06565b83811115611bc55750506000910152565b6000600019821415612c4357612c43612c4a565b5060010190565b634e487b7160e01b600052601160045260246000fd5b634e487b7160e01b600052604160045260246000fd5b6001600160a01b03811681146104c557600080fdfe46756e6374696f6e206d7573742062652063616c6c6564207468726f75676820360894a13ba1a3210667c828492db98dca3e2076cc3735a920a3ca505d382bbc416464726573733a206c6f772d6c6576656c2064656c65676174652063616c6c206661696c6564a26469706673582212203f7737d3ed6bf712c3fbc2b539061d69370f3c55c3e5227ac91a57378f7e8c6d64736f6c63430008040033",
  "linkReferences": {},
  "deployedLinkReferences": {}
}