{
  "_format": "hh-sol-artifact-1",
  "contractName": "PancakeSwapRouter",
  "sourceName": "contracts/libs/dexRouter.sol",
  "abi": [
    {
      "inputs": [
        {
          "internalType": "address",
          "name": "_factory",
          "type": "address"
        },
        {
          "internalType": "address",
          "name": "_WETH",
          "type": "address"
        }
      ],
      "stateMutability": "nonpayable",
      "type": "constructor"
    },
    {
      "inputs": [],
      "name": "WETH",
      "outputs": [
        {
          "internalType": "address",
          "name": "",
          "type": "address"
        }
      ],
      "stateMutability": "view",
      "type": "function"
    },
    {
      "inputs": [],
      "name": "WETHAddr",
      "outputs": [
        {
          "internalType": "address",
          "name": "",
          "type": "address"
        }
      ],
      "stateMutability": "view",
      "type": "function"
    },
    {
      "inputs": [
        {
          "internalType": "address",
          "name": "tokenA",
          "type": "address"
        },
        {
          "internalType": "address",
          "name": "tokenB",
          "type": "address"
        },
        {
          "internalType": "uint256",
          "name": "amountADesired",
          "type": "uint256"
        },
        {
          "internalType": "uint256",
          "name": "amountBDesired",
          "type": "uint256"
        },
        {
          "internalType": "uint256",
          "name": "amountAMin",
          "type": "uint256"
        },
        {
          "internalType": "uint256",
          "name": "amountBMin",
          "type": "uint256"
        },
        {
          "internalType": "address",
          "name": "to",
          "type": "address"
        },
        {
          "internalType": "uint256",
          "name": "deadline",
          "type": "uint256"
        }
      ],
      "name": "addLiquidity",
      "outputs": [
        {
          "internalType": "uint256",
          "name": "amountA",
          "type": "uint256"
        },
        {
          "internalType": "uint256",
          "name": "amountB",
          "type": "uint256"
        },
        {
          "internalType": "uint256",
          "name": "liquidity",
          "type": "uint256"
        }
      ],
      "stateMutability": "nonpayable",
      "type": "function"
    },
    {
      "inputs": [
        {
          "internalType": "address",
          "name": "token",
          "type": "address"
        },
        {
          "internalType": "uint256",
          "name": "amountTokenDesired",
          "type": "uint256"
        },
        {
          "internalType": "uint256",
          "name": "amountTokenMin",
          "type": "uint256"
        },
        {
          "internalType": "uint256",
          "name": "amountETHMin",
          "type": "uint256"
        },
        {
          "internalType": "address",
          "name": "to",
          "type": "address"
        },
        {
          "internalType": "uint256",
          "name": "deadline",
          "type": "uint256"
        }
      ],
      "name": "addLiquidityETH",
      "outputs": [
        {
          "internalType": "uint256",
          "name": "amountToken",
          "type": "uint256"
        },
        {
          "internalType": "uint256",
          "name": "amountETH",
          "type": "uint256"
        },
        {
          "internalType": "uint256",
          "name": "liquidity",
          "type": "uint256"
        }
      ],
      "stateMutability": "payable",
      "type": "function"
    },
    {
      "inputs": [],
      "name": "factory",
      "outputs": [
        {
          "internalType": "address",
          "name": "",
          "type": "address"
        }
      ],
      "stateMutability": "view",
      "type": "function"
    },
    {
      "inputs": [],
      "name": "factoryAddr",
      "outputs": [
        {
          "internalType": "address",
          "name": "",
          "type": "address"
        }
      ],
      "stateMutability": "view",
      "type": "function"
    },
    {
      "inputs": [
        {
          "internalType": "uint256",
          "name": "amountOut",
          "type": "uint256"
        },
        {
          "internalType": "uint256",
          "name": "reserveIn",
          "type": "uint256"
        },
        {
          "internalType": "uint256",
          "name": "reserveOut",
          "type": "uint256"
        }
      ],
      "name": "getAmountIn",
      "outputs": [
        {
          "internalType": "uint256",
          "name": "amountIn",
          "type": "uint256"
        }
      ],
      "stateMutability": "pure",
      "type": "function"
    },
    {
      "inputs": [
        {
          "internalType": "uint256",
          "name": "amountIn",
          "type": "uint256"
        },
        {
          "internalType": "uint256",
          "name": "reserveIn",
          "type": "uint256"
        },
        {
          "internalType": "uint256",
          "name": "reserveOut",
          "type": "uint256"
        }
      ],
      "name": "getAmountOut",
      "outputs": [
        {
          "internalType": "uint256",
          "name": "amountOut",
          "type": "uint256"
        }
      ],
      "stateMutability": "pure",
      "type": "function"
    },
    {
      "inputs": [
        {
          "internalType": "uint256",
          "name": "amountOut",
          "type": "uint256"
        },
        {
          "internalType": "address[]",
          "name": "path",
          "type": "address[]"
        }
      ],
      "name": "getAmountsIn",
      "outputs": [
        {
          "internalType": "uint256[]",
          "name": "amounts",
          "type": "uint256[]"
        }
      ],
      "stateMutability": "view",
      "type": "function"
    },
    {
      "inputs": [
        {
          "internalType": "uint256",
          "name": "amountIn",
          "type": "uint256"
        },
        {
          "internalType": "address[]",
          "name": "path",
          "type": "address[]"
        }
      ],
      "name": "getAmountsOut",
      "outputs": [
        {
          "internalType": "uint256[]",
          "name": "amounts",
          "type": "uint256[]"
        }
      ],
      "stateMutability": "view",
      "type": "function"
    },
    {
      "inputs": [
        {
          "internalType": "uint256",
          "name": "amountA",
          "type": "uint256"
        },
        {
          "internalType": "uint256",
          "name": "reserveA",
          "type": "uint256"
        },
        {
          "internalType": "uint256",
          "name": "reserveB",
          "type": "uint256"
        }
      ],
      "name": "quote",
      "outputs": [
        {
          "internalType": "uint256",
          "name": "amountB",
          "type": "uint256"
        }
      ],
      "stateMutability": "pure",
      "type": "function"
    },
    {
      "inputs": [
        {
          "internalType": "address",
          "name": "tokenA",
          "type": "address"
        },
        {
          "internalType": "address",
          "name": "tokenB",
          "type": "address"
        },
        {
          "internalType": "uint256",
          "name": "liquidity",
          "type": "uint256"
        },
        {
          "internalType": "uint256",
          "name": "amountAMin",
          "type": "uint256"
        },
        {
          "internalType": "uint256",
          "name": "amountBMin",
          "type": "uint256"
        },
        {
          "internalType": "address",
          "name": "to",
          "type": "address"
        },
        {
          "internalType": "uint256",
          "name": "deadline",
          "type": "uint256"
        }
      ],
      "name": "removeLiquidity",
      "outputs": [
        {
          "internalType": "uint256",
          "name": "amountA",
          "type": "uint256"
        },
        {
          "internalType": "uint256",
          "name": "amountB",
          "type": "uint256"
        }
      ],
      "stateMutability": "nonpayable",
      "type": "function"
    },
    {
      "inputs": [
        {
          "internalType": "address",
          "name": "token",
          "type": "address"
        },
        {
          "internalType": "uint256",
          "name": "liquidity",
          "type": "uint256"
        },
        {
          "internalType": "uint256",
          "name": "amountTokenMin",
          "type": "uint256"
        },
        {
          "internalType": "uint256",
          "name": "amountETHMin",
          "type": "uint256"
        },
        {
          "internalType": "address",
          "name": "to",
          "type": "address"
        },
        {
          "internalType": "uint256",
          "name": "deadline",
          "type": "uint256"
        }
      ],
      "name": "removeLiquidityETH",
      "outputs": [
        {
          "internalType": "uint256",
          "name": "amountToken",
          "type": "uint256"
        },
        {
          "internalType": "uint256",
          "name": "amountETH",
          "type": "uint256"
        }
      ],
      "stateMutability": "nonpayable",
      "type": "function"
    },
    {
      "inputs": [
        {
          "internalType": "address",
          "name": "token",
          "type": "address"
        },
        {
          "internalType": "uint256",
          "name": "liquidity",
          "type": "uint256"
        },
        {
          "internalType": "uint256",
          "name": "amountTokenMin",
          "type": "uint256"
        },
        {
          "internalType": "uint256",
          "name": "amountETHMin",
          "type": "uint256"
        },
        {
          "internalType": "address",
          "name": "to",
          "type": "address"
        },
        {
          "internalType": "uint256",
          "name": "deadline",
          "type": "uint256"
        }
      ],
      "name": "removeLiquidityETHSupportingFeeOnTransferTokens",
      "outputs": [
        {
          "internalType": "uint256",
          "name": "amountETH",
          "type": "uint256"
        }
      ],
      "stateMutability": "nonpayable",
      "type": "function"
    },
    {
      "inputs": [
        {
          "internalType": "address",
          "name": "token",
          "type": "address"
        },
        {
          "internalType": "uint256",
          "name": "liquidity",
          "type": "uint256"
        },
        {
          "internalType": "uint256",
          "name": "amountTokenMin",
          "type": "uint256"
        },
        {
          "internalType": "uint256",
          "name": "amountETHMin",
          "type": "uint256"
        },
        {
          "internalType": "address",
          "name": "to",
          "type": "address"
        },
        {
          "internalType": "uint256",
          "name": "deadline",
          "type": "uint256"
        },
        {
          "internalType": "bool",
          "name": "approveMax",
          "type": "bool"
        },
        {
          "internalType": "uint8",
          "name": "v",
          "type": "uint8"
        },
        {
          "internalType": "bytes32",
          "name": "r",
          "type": "bytes32"
        },
        {
          "internalType": "bytes32",
          "name": "s",
          "type": "bytes32"
        }
      ],
      "name": "removeLiquidityETHWithPermit",
      "outputs": [
        {
          "internalType": "uint256",
          "name": "amountToken",
          "type": "uint256"
        },
        {
          "internalType": "uint256",
          "name": "amountETH",
          "type": "uint256"
        }
      ],
      "stateMutability": "nonpayable",
      "type": "function"
    },
    {
      "inputs": [
        {
          "internalType": "address",
          "name": "token",
          "type": "address"
        },
        {
          "internalType": "uint256",
          "name": "liquidity",
          "type": "uint256"
        },
        {
          "internalType": "uint256",
          "name": "amountTokenMin",
          "type": "uint256"
        },
        {
          "internalType": "uint256",
          "name": "amountETHMin",
          "type": "uint256"
        },
        {
          "internalType": "address",
          "name": "to",
          "type": "address"
        },
        {
          "internalType": "uint256",
          "name": "deadline",
          "type": "uint256"
        },
        {
          "internalType": "bool",
          "name": "approveMax",
          "type": "bool"
        },
        {
          "internalType": "uint8",
          "name": "v",
          "type": "uint8"
        },
        {
          "internalType": "bytes32",
          "name": "r",
          "type": "bytes32"
        },
        {
          "internalType": "bytes32",
          "name": "s",
          "type": "bytes32"
        }
      ],
      "name": "removeLiquidityETHWithPermitSupportingFeeOnTransferTokens",
      "outputs": [
        {
          "internalType": "uint256",
          "name": "amountETH",
          "type": "uint256"
        }
      ],
      "stateMutability": "nonpayable",
      "type": "function"
    },
    {
      "inputs": [
        {
          "internalType": "address",
          "name": "tokenA",
          "type": "address"
        },
        {
          "internalType": "address",
          "name": "tokenB",
          "type": "address"
        },
        {
          "internalType": "uint256",
          "name": "liquidity",
          "type": "uint256"
        },
        {
          "internalType": "uint256",
          "name": "amountAMin",
          "type": "uint256"
        },
        {
          "internalType": "uint256",
          "name": "amountBMin",
          "type": "uint256"
        },
        {
          "internalType": "address",
          "name": "to",
          "type": "address"
        },
        {
          "internalType": "uint256",
          "name": "deadline",
          "type": "uint256"
        },
        {
          "internalType": "bool",
          "name": "approveMax",
          "type": "bool"
        },
        {
          "internalType": "uint8",
          "name": "v",
          "type": "uint8"
        },
        {
          "internalType": "bytes32",
          "name": "r",
          "type": "bytes32"
        },
        {
          "internalType": "bytes32",
          "name": "s",
          "type": "bytes32"
        }
      ],
      "name": "removeLiquidityWithPermit",
      "outputs": [
        {
          "internalType": "uint256",
          "name": "amountA",
          "type": "uint256"
        },
        {
          "internalType": "uint256",
          "name": "amountB",
          "type": "uint256"
        }
      ],
      "stateMutability": "nonpayable",
      "type": "function"
    },
    {
      "inputs": [
        {
          "internalType": "uint256",
          "name": "amountOut",
          "type": "uint256"
        },
        {
          "internalType": "address[]",
          "name": "path",
          "type": "address[]"
        },
        {
          "internalType": "address",
          "name": "to",
          "type": "address"
        },
        {
          "internalType": "uint256",
          "name": "deadline",
          "type": "uint256"
        }
      ],
      "name": "swapETHForExactTokens",
      "outputs": [
        {
          "internalType": "uint256[]",
          "name": "amounts",
          "type": "uint256[]"
        }
      ],
      "stateMutability": "payable",
      "type": "function"
    },
    {
      "inputs": [
        {
          "internalType": "uint256",
          "name": "amountOutMin",
          "type": "uint256"
        },
        {
          "internalType": "address[]",
          "name": "path",
          "type": "address[]"
        },
        {
          "internalType": "address",
          "name": "to",
          "type": "address"
        },
        {
          "internalType": "uint256",
          "name": "deadline",
          "type": "uint256"
        }
      ],
      "name": "swapExactETHForTokens",
      "outputs": [
        {
          "internalType": "uint256[]",
          "name": "amounts",
          "type": "uint256[]"
        }
      ],
      "stateMutability": "payable",
      "type": "function"
    },
    {
      "inputs": [
        {
          "internalType": "uint256",
          "name": "amountOutMin",
          "type": "uint256"
        },
        {
          "internalType": "address[]",
          "name": "path",
          "type": "address[]"
        },
        {
          "internalType": "address",
          "name": "to",
          "type": "address"
        },
        {
          "internalType": "uint256",
          "name": "deadline",
          "type": "uint256"
        }
      ],
      "name": "swapExactETHForTokensSupportingFeeOnTransferTokens",
      "outputs": [],
      "stateMutability": "payable",
      "type": "function"
    },
    {
      "inputs": [
        {
          "internalType": "uint256",
          "name": "amountIn",
          "type": "uint256"
        },
        {
          "internalType": "uint256",
          "name": "amountOutMin",
          "type": "uint256"
        },
        {
          "internalType": "address[]",
          "name": "path",
          "type": "address[]"
        },
        {
          "internalType": "address",
          "name": "to",
          "type": "address"
        },
        {
          "internalType": "uint256",
          "name": "deadline",
          "type": "uint256"
        }
      ],
      "name": "swapExactTokensForETH",
      "outputs": [
        {
          "internalType": "uint256[]",
          "name": "amounts",
          "type": "uint256[]"
        }
      ],
      "stateMutability": "nonpayable",
      "type": "function"
    },
    {
      "inputs": [
        {
          "internalType": "uint256",
          "name": "amountIn",
          "type": "uint256"
        },
        {
          "internalType": "uint256",
          "name": "amountOutMin",
          "type": "uint256"
        },
        {
          "internalType": "address[]",
          "name": "path",
          "type": "address[]"
        },
        {
          "internalType": "address",
          "name": "to",
          "type": "address"
        },
        {
          "internalType": "uint256",
          "name": "deadline",
          "type": "uint256"
        }
      ],
      "name": "swapExactTokensForETHSupportingFeeOnTransferTokens",
      "outputs": [],
      "stateMutability": "nonpayable",
      "type": "function"
    },
    {
      "inputs": [
        {
          "internalType": "uint256",
          "name": "amountIn",
          "type": "uint256"
        },
        {
          "internalType": "uint256",
          "name": "amountOutMin",
          "type": "uint256"
        },
        {
          "internalType": "address[]",
          "name": "path",
          "type": "address[]"
        },
        {
          "internalType": "address",
          "name": "to",
          "type": "address"
        },
        {
          "internalType": "uint256",
          "name": "deadline",
          "type": "uint256"
        }
      ],
      "name": "swapExactTokensForTokens",
      "outputs": [
        {
          "internalType": "uint256[]",
          "name": "amounts",
          "type": "uint256[]"
        }
      ],
      "stateMutability": "nonpayable",
      "type": "function"
    },
    {
      "inputs": [
        {
          "internalType": "uint256",
          "name": "amountIn",
          "type": "uint256"
        },
        {
          "internalType": "uint256",
          "name": "amountOutMin",
          "type": "uint256"
        },
        {
          "internalType": "address[]",
          "name": "path",
          "type": "address[]"
        },
        {
          "internalType": "address",
          "name": "to",
          "type": "address"
        },
        {
          "internalType": "uint256",
          "name": "deadline",
          "type": "uint256"
        }
      ],
      "name": "swapExactTokensForTokensSupportingFeeOnTransferTokens",
      "outputs": [],
      "stateMutability": "nonpayable",
      "type": "function"
    },
    {
      "inputs": [
        {
          "internalType": "uint256",
          "name": "amountOut",
          "type": "uint256"
        },
        {
          "internalType": "uint256",
          "name": "amountInMax",
          "type": "uint256"
        },
        {
          "internalType": "address[]",
          "name": "path",
          "type": "address[]"
        },
        {
          "internalType": "address",
          "name": "to",
          "type": "address"
        },
        {
          "internalType": "uint256",
          "name": "deadline",
          "type": "uint256"
        }
      ],
      "name": "swapTokensForExactETH",
      "outputs": [
        {
          "internalType": "uint256[]",
          "name": "amounts",
          "type": "uint256[]"
        }
      ],
      "stateMutability": "nonpayable",
      "type": "function"
    },
    {
      "inputs": [
        {
          "internalType": "uint256",
          "name": "amountOut",
          "type": "uint256"
        },
        {
          "internalType": "uint256",
          "name": "amountInMax",
          "type": "uint256"
        },
        {
          "internalType": "address[]",
          "name": "path",
          "type": "address[]"
        },
        {
          "internalType": "address",
          "name": "to",
          "type": "address"
        },
        {
          "internalType": "uint256",
          "name": "deadline",
          "type": "uint256"
        }
      ],
      "name": "swapTokensForExactTokens",
      "outputs": [
        {
          "internalType": "uint256[]",
          "name": "amounts",
          "type": "uint256[]"
        }
      ],
      "stateMutability": "nonpayable",
      "type": "function"
    },
    {
      "stateMutability": "payable",
      "type": "receive"
    }
  ],
  "bytecode": "0x60806040523480156200001157600080fd5b506040516200413a3803806200413a833981016040819052620000349162000083565b600080546001600160a01b039384166001600160a01b03199182161790915560018054929093169116179055620000ba565b80516001600160a01b03811681146200007e57600080fd5b919050565b6000806040838503121562000096578182fd5b620000a18362000066565b9150620000b16020840162000066565b90509250929050565b61407080620000ca6000396000f3fe6080604052600436106101355760003560e01c806302751cec14610169578063054d50d4146101a357806318cbafe5146101d15780631f00ca74146101fe5780632195995c1461021e57806338ed17391461023e5780634a25d94a1461025e5780635b0d59841461027e5780635c11d7951461029e578063791ac947146102be5780637ff36ab5146102de57806385f8c259146102f15780638803dbee14610311578063963671be14610331578063abdc38081461035e578063ad5c46481461037e578063ad615dec1461039c578063af2979eb146103bc578063b6f9de95146103dc578063baa2abde146103ef578063c45a01551461040f578063d06ca61f1461042d578063ded9382a1461044d578063e8e337001461046d578063f305d719146104a8578063fb3bdb41146104bb57600080fd5b36610164576001546001600160a01b0316331461016257634e487b7160e01b600052600160045260246000fd5b005b600080fd5b34801561017557600080fd5b50610189610184366004613850565b6104ce565b604080519283526020830191909152015b60405180910390f35b3480156101af57600080fd5b506101c36101be366004613b8d565b61059b565b60405190815260200161019a565b3480156101dd57600080fd5b506101f16101ec366004613b1d565b6105b0565b60405161019a9190613c80565b34801561020a57600080fd5b506101f1610219366004613a28565b6108f2565b34801561022a57600080fd5b5061018961023936600461372c565b610915565b34801561024a57600080fd5b506101f1610259366004613b1d565b6109da565b34801561026a57600080fd5b506101f1610279366004613b1d565b610b00565b34801561028a57600080fd5b506101c36102993660046138ad565b610c2b565b3480156102aa57600080fd5b506101626102b9366004613b1d565b610ceb565b3480156102ca57600080fd5b506101626102d9366004613b1d565b610f9d565b6101f16102ec3660046139c4565b61119f565b3480156102fd57600080fd5b506101c361030c366004613b8d565b611485565b34801561031d57600080fd5b506101f161032c366004613b1d565b611492565b34801561033d57600080fd5b50600054610351906001600160a01b031681565b60405161019a9190613bd4565b34801561036a57600080fd5b50600154610351906001600160a01b031681565b34801561038a57600080fd5b506001546001600160a01b0316610351565b3480156103a857600080fd5b506101c36103b7366004613b8d565b611549565b3480156103c857600080fd5b506101c36103d7366004613850565b611556565b6101626103ea3660046139c4565b61168a565b3480156103fb57600080fd5b5061018961040a3660046136bb565b6119a7565b34801561041b57600080fd5b506000546001600160a01b0316610351565b34801561043957600080fd5b506101f1610448366004613a28565b611b75565b34801561045957600080fd5b506101896104683660046138ad565b611b8f565b34801561047957600080fd5b5061048d6104883660046137d5565b611c6a565b6040805193845260208401929092529082015260600161019a565b61048d6104b6366004613850565b611d67565b6101f16104c93660046139c4565b611f8c565b60008082428110156104fb5760405162461bcd60e51b81526004016104f290613cfa565b60405180910390fd5b600154610517908a906001600160a01b03168a8a8a308a6119a7565b90935091506105278986856122c4565b600154604051632e1a7d4d60e01b8152600481018490526001600160a01b0390911690632e1a7d4d90602401600060405180830381600087803b15801561056d57600080fd5b505af1158015610581573d6000803e3d6000fd5b5050505061058f85836123e1565b50965096945050505050565b60006105a88484846124af565b949350505050565b606081428110156105d35760405162461bcd60e51b81526004016104f290613cfa565b600180546001600160a01b031690879087906105ef9082613f33565b81811061060c57634e487b7160e01b600052603260045260246000fd5b9050602002016020810190610621919061367c565b6001600160a01b0316146106475760405162461bcd60e51b81526004016104f290613d2e565b6000546040805160208089028281018201909352888252610691936001600160a01b0316928c92918b918b9182919085019084908082843760009201919091525061257d92505050565b91508682600184516106a39190613f33565b815181106106c157634e487b7160e01b600052603260045260246000fd5b602002602001015110156106e75760405162461bcd60e51b81526004016104f290613e19565b6107d18686600081811061070b57634e487b7160e01b600052603260045260246000fd5b9050602002016020810190610720919061367c565b6000805433916107a3916001600160a01b0316908b908b908161075357634e487b7160e01b600052603260045260246000fd5b9050602002016020810190610768919061367c565b8b8b600181811061078957634e487b7160e01b600052603260045260246000fd5b905060200201602081019061079e919061367c565b61272b565b856000815181106107c457634e487b7160e01b600052603260045260246000fd5b6020026020010151612844565b61081082878780806020026020016040519081016040528093929190818152602001838360200280828437600092019190915250309250612970915050565b6001805483516001600160a01b0390911691632e1a7d4d91859161083391613f33565b8151811061085157634e487b7160e01b600052603260045260246000fd5b60200260200101516040518263ffffffff1660e01b815260040161087791815260200190565b600060405180830381600087803b15801561089157600080fd5b505af11580156108a5573d6000803e3d6000fd5b505050506108e78483600185516108bc9190613f33565b815181106108da57634e487b7160e01b600052603260045260246000fd5b60200260200101516123e1565b509695505050505050565b60005460609061090c906001600160a01b03168484612b89565b90505b92915050565b6000805481908190610931906001600160a01b03168f8f61272b565b9050600087610940578c610944565b6000195b60405163d505accf60e01b81529091506001600160a01b0383169063d505accf9061097f903390309086908f908e908e908e90600401613c26565b600060405180830381600087803b15801561099957600080fd5b505af11580156109ad573d6000803e3d6000fd5b505050506109c08f8f8f8f8f8f8f6119a7565b809450819550505050509b509b9950505050505050505050565b606081428110156109fd5760405162461bcd60e51b81526004016104f290613cfa565b6000546040805160208089028281018201909352888252610a47936001600160a01b0316928c92918b918b9182919085019084908082843760009201919091525061257d92505050565b9150868260018451610a599190613f33565b81518110610a7757634e487b7160e01b600052603260045260246000fd5b60200260200101511015610a9d5760405162461bcd60e51b81526004016104f290613e19565b610ac18686600081811061070b57634e487b7160e01b600052603260045260246000fd5b6108e782878780806020026020016040519081016040528093929190818152602001838360200280828437600092019190915250899250612970915050565b60608142811015610b235760405162461bcd60e51b81526004016104f290613cfa565b600180546001600160a01b03169087908790610b3f9082613f33565b818110610b5c57634e487b7160e01b600052603260045260246000fd5b9050602002016020810190610b71919061367c565b6001600160a01b031614610b975760405162461bcd60e51b81526004016104f290613d2e565b6000546040805160208089028281018201909352888252610be1936001600160a01b0316928c92918b918b91829190850190849080828437600092019190915250612b8992505050565b91508682600081518110610c0557634e487b7160e01b600052603260045260246000fd5b602002602001015111156106e75760405162461bcd60e51b81526004016104f290613dd0565b600080546001548291610c4c916001600160a01b03918216918f911661272b565b9050600086610c5b578b610c5f565b6000195b60405163d505accf60e01b81529091506001600160a01b0383169063d505accf90610c9a903390309086908e908d908d908d90600401613c26565b600060405180830381600087803b158015610cb457600080fd5b505af1158015610cc8573d6000803e3d6000fd5b50505050610cda8d8d8d8d8d8d611556565b9d9c50505050505050505050505050565b8042811015610d0c5760405162461bcd60e51b81526004016104f290613cfa565b610db485856000818110610d3057634e487b7160e01b600052603260045260246000fd5b9050602002016020810190610d45919061367c565b600080543391610dae916001600160a01b0316908a908a9081610d7857634e487b7160e01b600052603260045260246000fd5b9050602002016020810190610d8d919061367c565b8a8a600181811061078957634e487b7160e01b600052603260045260246000fd5b8a612844565b60008585610dc3600182613f33565b818110610de057634e487b7160e01b600052603260045260246000fd5b9050602002016020810190610df5919061367c565b6001600160a01b03166370a08231856040518263ffffffff1660e01b8152600401610e209190613bd4565b60206040518083038186803b158015610e3857600080fd5b505afa158015610e4c573d6000803e3d6000fd5b505050506040513d601f19601f82011682018060405250810190610e70919061395e565b9050610eb0868680806020026020016040519081016040528093929190818152602001838360200280828437600092019190915250889250612d2d915050565b86610f75828888610ec2600182613f33565b818110610edf57634e487b7160e01b600052603260045260246000fd5b9050602002016020810190610ef4919061367c565b6001600160a01b03166370a08231886040518263ffffffff1660e01b8152600401610f1f9190613bd4565b60206040518083038186803b158015610f3757600080fd5b505afa158015610f4b573d6000803e3d6000fd5b505050506040513d601f19601f82011682018060405250810190610f6f919061395e565b90612fc3565b1015610f935760405162461bcd60e51b81526004016104f290613e19565b5050505050505050565b8042811015610fbe5760405162461bcd60e51b81526004016104f290613cfa565b600180546001600160a01b03169086908690610fda9082613f33565b818110610ff757634e487b7160e01b600052603260045260246000fd5b905060200201602081019061100c919061367c565b6001600160a01b0316146110325760405162461bcd60e51b81526004016104f290613d2e565b61105685856000818110610d3057634e487b7160e01b600052603260045260246000fd5b611094858580806020026020016040519081016040528093929190818152602001838360200280828437600092019190915250309250612d2d915050565b6001546040516370a0823160e01b81526000916001600160a01b0316906370a08231906110c5903090600401613bd4565b60206040518083038186803b1580156110dd57600080fd5b505afa1580156110f1573d6000803e3d6000fd5b505050506040513d601f19601f82011682018060405250810190611115919061395e565b9050868110156111375760405162461bcd60e51b81526004016104f290613e19565b600154604051632e1a7d4d60e01b8152600481018390526001600160a01b0390911690632e1a7d4d90602401600060405180830381600087803b15801561117d57600080fd5b505af1158015611191573d6000803e3d6000fd5b50505050610f9384826123e1565b606081428110156111c25760405162461bcd60e51b81526004016104f290613cfa565b6001546001600160a01b031686866000816111ed57634e487b7160e01b600052603260045260246000fd5b9050602002016020810190611202919061367c565b6001600160a01b0316146112285760405162461bcd60e51b81526004016104f290613d2e565b6000546040805160208089028281018201909352888252611272936001600160a01b0316923492918b918b9182919085019084908082843760009201919091525061257d92505050565b91508682600184516112849190613f33565b815181106112a257634e487b7160e01b600052603260045260246000fd5b602002602001015110156112c85760405162461bcd60e51b81526004016104f290613e19565b60015482516001600160a01b039091169063d0e30db09084906000906112fe57634e487b7160e01b600052603260045260246000fd5b60200260200101516040518263ffffffff1660e01b81526004016000604051808303818588803b15801561133157600080fd5b505af1158015611345573d6000803e3d6000fd5b5050600154600080546001600160a01b03928316955063a9059cbb945061138a9350909116908a908a9081610d7857634e487b7160e01b600052603260045260246000fd5b846000815181106113ab57634e487b7160e01b600052603260045260246000fd5b60200260200101516040518363ffffffff1660e01b81526004016113d0929190613c67565b602060405180830381600087803b1580156113ea57600080fd5b505af11580156113fe573d6000803e3d6000fd5b505050506040513d601f19601f820116820180604052508101906114229190613942565b61143c57634e487b7160e01b600052600160045260246000fd5b61147b82878780806020026020016040519081016040528093929190818152602001838360200280828437600092019190915250899250612970915050565b5095945050505050565b60006105a8848484613019565b606081428110156114b55760405162461bcd60e51b81526004016104f290613cfa565b60005460408051602080890282810182019093528882526114ff936001600160a01b0316928c92918b918b91829190850190849080828437600092019190915250612b8992505050565b9150868260008151811061152357634e487b7160e01b600052603260045260246000fd5b60200260200101511115610a9d5760405162461bcd60e51b81526004016104f290613dd0565b60006105a88484846130e2565b600081428110156115795760405162461bcd60e51b81526004016104f290613cfa565b6001546115959089906001600160a01b031689898930896119a7565b6040516370a0823160e01b81529093506116229150899086906001600160a01b038316906370a08231906115cd903090600401613bd4565b60206040518083038186803b1580156115e557600080fd5b505afa1580156115f9573d6000803e3d6000fd5b505050506040513d601f19601f8201168201806040525081019061161d919061395e565b6122c4565b600154604051632e1a7d4d60e01b8152600481018490526001600160a01b0390911690632e1a7d4d90602401600060405180830381600087803b15801561166857600080fd5b505af115801561167c573d6000803e3d6000fd5b505050506108e784836123e1565b80428110156116ab5760405162461bcd60e51b81526004016104f290613cfa565b6001546001600160a01b031685856000816116d657634e487b7160e01b600052603260045260246000fd5b90506020020160208101906116eb919061367c565b6001600160a01b0316146117115760405162461bcd60e51b81526004016104f290613d2e565b60015460408051630d0e30db60e41b8152905134926001600160a01b03169163d0e30db091849160048082019260009290919082900301818588803b15801561175957600080fd5b505af115801561176d573d6000803e3d6000fd5b5050600154600080546001600160a01b03928316955063a9059cbb94506117b29350909116908a908a9081610d7857634e487b7160e01b600052603260045260246000fd5b836040518363ffffffff1660e01b81526004016117d0929190613c67565b602060405180830381600087803b1580156117ea57600080fd5b505af11580156117fe573d6000803e3d6000fd5b505050506040513d601f19601f820116820180604052508101906118229190613942565b61183c57634e487b7160e01b600052600160045260246000fd5b6000868661184b600182613f33565b81811061186857634e487b7160e01b600052603260045260246000fd5b905060200201602081019061187d919061367c565b6001600160a01b03166370a08231866040518263ffffffff1660e01b81526004016118a89190613bd4565b60206040518083038186803b1580156118c057600080fd5b505afa1580156118d4573d6000803e3d6000fd5b505050506040513d601f19601f820116820180604052508101906118f8919061395e565b9050611938878780806020026020016040519081016040528093929190818152602001838360200280828437600092019190915250899250612d2d915050565b87610f7582898961194a600182613f33565b81811061196757634e487b7160e01b600052603260045260246000fd5b905060200201602081019061197c919061367c565b6001600160a01b03166370a08231896040518263ffffffff1660e01b8152600401610f1f9190613bd4565b60008082428110156119cb5760405162461bcd60e51b81526004016104f290613cfa565b600080546119e3906001600160a01b03168c8c61272b565b6040516323b872dd60e01b81529091506001600160a01b038216906323b872dd90611a1690339085908e90600401613c02565b602060405180830381600087803b158015611a3057600080fd5b505af1158015611a44573d6000803e3d6000fd5b505050506040513d601f19601f82011682018060405250810190611a689190613942565b50600080826001600160a01b03166389afcb44896040518263ffffffff1660e01b8152600401611a989190613bd4565b6040805180830381600087803b158015611ab157600080fd5b505af1158015611ac5573d6000803e3d6000fd5b505050506040513d601f19601f82011682018060405250810190611ae99190613afa565b915091506000611af98e8e613172565b509050806001600160a01b03168e6001600160a01b031614611b1c578183611b1f565b82825b90975095508a871015611b445760405162461bcd60e51b81526004016104f290613cc4565b89861015611b645760405162461bcd60e51b81526004016104f290613d65565b505050505097509795505050505050565b60005460609061090c906001600160a01b0316848461257d565b6000806000611bc760008054906101000a90046001600160a01b03168e600160009054906101000a90046001600160a01b031661272b565b9050600087611bd6578c611bda565b6000195b60405163d505accf60e01b81529091506001600160a01b0383169063d505accf90611c15903390309086908f908e908e908e90600401613c26565b600060405180830381600087803b158015611c2f57600080fd5b505af1158015611c43573d6000803e3d6000fd5b50505050611c558e8e8e8e8e8e6104ce565b909f909e509c50505050505050505050505050565b60008060008342811015611c905760405162461bcd60e51b81526004016104f290613cfa565b611c9e8c8c8c8c8c8c61326c565b6000805492965090945090611cbd906001600160a01b03168e8e61272b565b9050611ccb8d338388612844565b611cd78c338387612844565b6040516335313c2160e11b81526001600160a01b03821690636a62784290611d03908a90600401613bd4565b602060405180830381600087803b158015611d1d57600080fd5b505af1158015611d31573d6000803e3d6000fd5b505050506040513d601f19601f82011682018060405250810190611d55919061395e565b92505050985098509895505050505050565b60008060008342811015611d8d5760405162461bcd60e51b81526004016104f290613cfa565b600154611da8908b906001600160a01b03168b348c8c61326c565b6000805460015493975091955091611dce916001600160a01b03908116918e911661272b565b9050611ddc8b338388612844565b600160009054906101000a90046001600160a01b03166001600160a01b031663d0e30db0856040518263ffffffff1660e01b81526004016000604051808303818588803b158015611e2c57600080fd5b505af1158015611e40573d6000803e3d6000fd5b505060015460405163a9059cbb60e01b81526001600160a01b03909116935063a9059cbb9250611e77915084908890600401613c67565b602060405180830381600087803b158015611e9157600080fd5b505af1158015611ea5573d6000803e3d6000fd5b505050506040513d601f19601f82011682018060405250810190611ec99190613942565b611ee357634e487b7160e01b600052600160045260246000fd5b6040516335313c2160e11b81526001600160a01b03821690636a62784290611f0f908a90600401613bd4565b602060405180830381600087803b158015611f2957600080fd5b505af1158015611f3d573d6000803e3d6000fd5b505050506040513d601f19601f82011682018060405250810190611f61919061395e565b925083341115611f7e57611f7e33611f798634613f33565b6123e1565b505096509650969350505050565b60608142811015611faf5760405162461bcd60e51b81526004016104f290613cfa565b6001546001600160a01b03168686600081611fda57634e487b7160e01b600052603260045260246000fd5b9050602002016020810190611fef919061367c565b6001600160a01b0316146120155760405162461bcd60e51b81526004016104f290613d2e565b600054604080516020808902828101820190935288825261205f936001600160a01b0316928b92918b918b91829190850190849080828437600092019190915250612b8992505050565b9150348260008151811061208357634e487b7160e01b600052603260045260246000fd5b602002602001015111156120a95760405162461bcd60e51b81526004016104f290613dd0565b60015482516001600160a01b039091169063d0e30db09084906000906120df57634e487b7160e01b600052603260045260246000fd5b60200260200101516040518263ffffffff1660e01b81526004016000604051808303818588803b15801561211257600080fd5b505af1158015612126573d6000803e3d6000fd5b5050600154600080546001600160a01b03928316955063a9059cbb945061216b9350909116908a908a9081610d7857634e487b7160e01b600052603260045260246000fd5b8460008151811061218c57634e487b7160e01b600052603260045260246000fd5b60200260200101516040518363ffffffff1660e01b81526004016121b1929190613c67565b602060405180830381600087803b1580156121cb57600080fd5b505af11580156121df573d6000803e3d6000fd5b505050506040513d601f19601f820116820180604052508101906122039190613942565b61221d57634e487b7160e01b600052600160045260246000fd5b61225c82878780806020026020016040519081016040528093929190818152602001838360200280828437600092019190915250899250612970915050565b8160008151811061227d57634e487b7160e01b600052603260045260246000fd5b602002602001015134111561147b5761147b33836000815181106122b157634e487b7160e01b600052603260045260246000fd5b602002602001015134611f799190613f33565b600080846001600160a01b031663a9059cbb85856040516024016122e9929190613c67565b6040516020818303038152906040529060e01b6020820180516001600160e01b0383818316178352505050506040516123229190613bb8565b6000604051808303816000865af19150503d806000811461235f576040519150601f19603f3d011682016040523d82523d6000602084013e612364565b606091505b509150915081801561238e57508051158061238e57508080602001905181019061238e9190613942565b6123da5760405162461bcd60e51b815260206004820152601f60248201527f5472616e7366657248656c7065723a205452414e534645525f4641494c45440060448201526064016104f2565b5050505050565b604080516000808252602082019092526001600160a01b03841690839060405161240b9190613bb8565b60006040518083038185875af1925050503d8060008114612448576040519150601f19603f3d011682016040523d82523d6000602084013e61244d565b606091505b50509050806124aa5760405162461bcd60e51b815260206004820152602360248201527f5472616e7366657248656c7065723a204554485f5452414e534645525f46414960448201526213115160ea1b60648201526084016104f2565b505050565b60008084116125045760405162461bcd60e51b815260206004820152602d6024820152600080516020613ffb83398151915260448201526c17d25394155517d05353d55395609a1b60648201526084016104f2565b6000831180156125145750600082115b6125305760405162461bcd60e51b81526004016104f290613e54565b600061253e856103e5613467565b9050600061254c8285613467565b9050600061256683612560886103e8613467565b906134ce565b90506125728183613ef4565b979650505050505050565b60606002825110156125a15760405162461bcd60e51b81526004016104f290613d9b565b81516001600160401b038111156125c857634e487b7160e01b600052604160045260246000fd5b6040519080825280602002602001820160405280156125f1578160200160208202803683370190505b509050828160008151811061261657634e487b7160e01b600052603260045260246000fd5b60200260200101818152505060005b600183516126339190613f33565b811015612723576000806126a28786858151811061266157634e487b7160e01b600052603260045260246000fd5b6020026020010151878660016126779190613edc565b8151811061269557634e487b7160e01b600052603260045260246000fd5b6020026020010151613523565b915091506126d88484815181106126c957634e487b7160e01b600052603260045260246000fd5b602002602001015183836124af565b846126e4856001613edc565b8151811061270257634e487b7160e01b600052603260045260246000fd5b6020026020010181815250505050808061271b90613f8d565b915050612625565b509392505050565b600080600061273a8585613172565b6040516001600160601b0319606084811b8216602084015283901b1660348201529193509150869060480160405160208183030381529060405280519060200120876001600160a01b031663e8ecb23e6040518163ffffffff1660e01b815260040160206040518083038186803b1580156127b457600080fd5b505afa1580156127c8573d6000803e3d6000fd5b505050506040513d601f19601f820116820180604052508101906127ec919061395e565b6040516001600160f81b0319602082015260609390931b6001600160601b03191660218401526035830191909152605582015260750160408051601f1981840301815291905280516020909101209695505050505050565b600080856001600160a01b03166323b872dd86868660405160240161286b93929190613c02565b6040516020818303038152906040529060e01b6020820180516001600160e01b0383818316178352505050506040516128a49190613bb8565b6000604051808303816000865af19150503d80600081146128e1576040519150601f19603f3d011682016040523d82523d6000602084013e6128e6565b606091505b50915091508180156129105750805115806129105750808060200190518101906129109190613942565b6129685760405162461bcd60e51b8152602060048201526024808201527f5472616e7366657248656c7065723a205452414e534645525f46524f4d5f46416044820152631253115160e21b60648201526084016104f2565b505050505050565b60005b600183516129819190613f33565b811015612b83576000808483815181106129ab57634e487b7160e01b600052603260045260246000fd5b6020026020010151858460016129c19190613edc565b815181106129df57634e487b7160e01b600052603260045260246000fd5b60200260200101519150915060006129f78383613172565b509050600087612a08866001613edc565b81518110612a2657634e487b7160e01b600052603260045260246000fd5b60200260200101519050600080836001600160a01b0316866001600160a01b031614612a5457826000612a58565b6000835b91509150600060028a51612a6c9190613f33565b8810612a785788612ac0565b600054612ac0906001600160a01b0316878c612a958c6002613edc565b81518110612ab357634e487b7160e01b600052603260045260246000fd5b602002602001015161272b565b600054909150612ada906001600160a01b0316888861272b565b6001600160a01b031663022c0d9f84848460006040519080825280601f01601f191660200182016040528015612b17576020820181803683370190505b506040518563ffffffff1660e01b8152600401612b379493929190613e8c565b600060405180830381600087803b158015612b5157600080fd5b505af1158015612b65573d6000803e3d6000fd5b50505050505050505050508080612b7b90613f8d565b915050612973565b50505050565b6060600282511015612bad5760405162461bcd60e51b81526004016104f290613d9b565b81516001600160401b03811115612bd457634e487b7160e01b600052604160045260246000fd5b604051908082528060200260200182016040528015612bfd578160200160208202803683370190505b509050828160018351612c109190613f33565b81518110612c2e57634e487b7160e01b600052603260045260246000fd5b602002602001018181525050600060018351612c4a9190613f33565b90505b801561272357600080612cac8786612c66600187613f33565b81518110612c8457634e487b7160e01b600052603260045260246000fd5b602002602001015187868151811061269557634e487b7160e01b600052603260045260246000fd5b91509150612ce2848481518110612cd357634e487b7160e01b600052603260045260246000fd5b60200260200101518383613019565b84612cee600186613f33565b81518110612d0c57634e487b7160e01b600052603260045260246000fd5b60200260200101818152505050508080612d2590613f76565b915050612c4d565b60005b60018351612d3e9190613f33565b8110156124aa57600080848381518110612d6857634e487b7160e01b600052603260045260246000fd5b602002602001015185846001612d7e9190613edc565b81518110612d9c57634e487b7160e01b600052603260045260246000fd5b6020026020010151915091506000612db48383613172565b506000805491925090612dd1906001600160a01b0316858561272b565b9050600080600080846001600160a01b0316630902f1ac6040518163ffffffff1660e01b815260040160606040518083038186803b158015612e1257600080fd5b505afa158015612e26573d6000803e3d6000fd5b505050506040513d601f19601f82011682018060405250810190612e4a9190613976565b506001600160701b031691506001600160701b03169150600080876001600160a01b03168a6001600160a01b031614612e84578284612e87565b83835b91509150612ebb828b6001600160a01b03166370a082318a6040518263ffffffff1660e01b8152600401610f1f9190613bd4565b9550612ec88683836124af565b945050505050600080856001600160a01b0316886001600160a01b031614612ef257826000612ef6565b6000835b91509150600060028c51612f0a9190613f33565b8a10612f16578a612f33565b600054612f33906001600160a01b0316898e612a958e6002613edc565b6040805160008152602081019182905263022c0d9f60e01b9091529091506001600160a01b0387169063022c0d9f90612f759086908690869060248101613e8c565b600060405180830381600087803b158015612f8f57600080fd5b505af1158015612fa3573d6000803e3d6000fd5b505050505050505050505050508080612fbb90613f8d565b915050612d30565b600082612fd08382613f33565b915081111561090f5760405162461bcd60e51b815260206004820152601560248201527464732d6d6174682d7375622d756e646572666c6f7760581b60448201526064016104f2565b600080841161306f5760405162461bcd60e51b815260206004820152602e6024820152600080516020613ffb83398151915260448201526d17d3d55514155517d05353d5539560921b60648201526084016104f2565b60008311801561307f5750600082115b61309b5760405162461bcd60e51b81526004016104f290613e54565b60006130b36103e86130ad8688613467565b90613467565b905060006130c76103e56130ad8689612fc3565b90506130d860016125608385613ef4565b9695505050505050565b60008084116131315760405162461bcd60e51b81526020600482015260276024820152600080516020613ffb83398151915260448201526617d05353d5539560ca1b60648201526084016104f2565b6000831180156131415750600082115b61315d5760405162461bcd60e51b81526004016104f290613e54565b826131688584613467565b6105a89190613ef4565b600080826001600160a01b0316846001600160a01b031614156131e75760405162461bcd60e51b815260206004820152602760248201527f50616e63616b65537761704c6962726172793a204944454e544943414c5f41446044820152664452455353455360c81b60648201526084016104f2565b826001600160a01b0316846001600160a01b03161061320757828461320a565b83835b90925090506001600160a01b0382166132655760405162461bcd60e51b815260206004820181905260248201527f50616e63616b65537761704c6962726172793a205a45524f5f4144445245535360448201526064016104f2565b9250929050565b6000805460405163e6a4390560e01b8152829182916001600160a01b039091169063e6a43905906132a3908c908c90600401613be8565b60206040518083038186803b1580156132bb57600080fd5b505afa1580156132cf573d6000803e3d6000fd5b505050506040513d601f19601f820116820180604052508101906132f3919061369f565b6001600160a01b03161415613388576000546040516364e329cb60e11b81526001600160a01b039091169063c9c6539690613334908b908b90600401613be8565b602060405180830381600087803b15801561334e57600080fd5b505af1158015613362573d6000803e3d6000fd5b505050506040513d601f19601f82011682018060405250810190613386919061369f565b505b6000805481906133a2906001600160a01b03168b8b613523565b915091508160001480156133b4575080155b156133c45787935086925061345a565b60006133d18984846130e2565b905087811161340557858110156133fa5760405162461bcd60e51b81526004016104f290613d65565b889450925082613458565b60006134128984866130e2565b90508981111561343257634e487b7160e01b600052600160045260246000fd5b878110156134525760405162461bcd60e51b81526004016104f290613cc4565b94508793505b505b5050965096945050505050565b600081158061348b5750828261347d8183613f14565b92506134899083613ef4565b145b61090f5760405162461bcd60e51b815260206004820152601460248201527364732d6d6174682d6d756c2d6f766572666c6f7760601b60448201526064016104f2565b6000826134db8382613edc565b915081101561090f5760405162461bcd60e51b815260206004820152601460248201527364732d6d6174682d6164642d6f766572666c6f7760601b60448201526064016104f2565b60008060006135328585613172565b509050600061354287878761272b565b9050600080826001600160a01b0316630902f1ac6040518163ffffffff1660e01b815260040160606040518083038186803b15801561358057600080fd5b505afa158015613594573d6000803e3d6000fd5b505050506040513d601f19601f820116820180604052508101906135b89190613976565b506001600160701b031691506001600160701b03169150836001600160a01b0316886001600160a01b0316146135ef5780826135f2565b81815b909a909950975050505050505050565b803561360d81613fd4565b919050565b60008083601f840112613623578081fd5b5081356001600160401b03811115613639578182fd5b6020830191508360208260051b850101111561326557600080fd5b80516001600160701b038116811461360d57600080fd5b803560ff8116811461360d57600080fd5b60006020828403121561368d578081fd5b813561369881613fd4565b9392505050565b6000602082840312156136b0578081fd5b815161369881613fd4565b600080600080600080600060e0888a0312156136d5578283fd5b87356136e081613fd4565b965060208801356136f081613fd4565b955060408801359450606088013593506080880135925060a088013561371581613fd4565b8092505060c0880135905092959891949750929550565b60008060008060008060008060008060006101608c8e03121561374d578384fd5b8b3561375881613fd4565b9a5060208c013561376881613fd4565b995060408c0135985060608c0135975060808c0135965060a08c013561378d81613fd4565b955060c08c0135945060e08c01356137a481613fec565b93506137b36101008d0161366b565b92506101208c013591506101408c013590509295989b509295989b9093969950565b600080600080600080600080610100898b0312156137f1578384fd5b88356137fc81613fd4565b9750602089013561380c81613fd4565b965060408901359550606089013594506080890135935060a0890135925060c089013561383881613fd4565b8092505060e089013590509295985092959890939650565b60008060008060008060c08789031215613868578182fd5b863561387381613fd4565b9550602087013594506040870135935060608701359250608087013561389881613fd4565b8092505060a087013590509295509295509295565b6000806000806000806000806000806101408b8d0312156138cc578384fd5b8a356138d781613fd4565b995060208b0135985060408b0135975060608b0135965060808b01356138fc81613fd4565b955060a08b0135945060c08b013561391381613fec565b935061392160e08c0161366b565b92506101008b013591506101208b013590509295989b9194979a5092959850565b600060208284031215613953578081fd5b815161369881613fec565b60006020828403121561396f578081fd5b5051919050565b60008060006060848603121561398a578081fd5b61399384613654565b92506139a160208501613654565b9150604084015163ffffffff811681146139b9578182fd5b809150509250925092565b6000806000806000608086880312156139db578283fd5b8535945060208601356001600160401b038111156139f7578384fd5b613a0388828901613612565b9095509350506040860135613a1781613fd4565b949793965091946060013592915050565b60008060408385031215613a3a578182fd5b823591506020808401356001600160401b0380821115613a58578384fd5b818601915086601f830112613a6b578384fd5b813581811115613a7d57613a7d613fbe565b8060051b604051601f19603f83011681018181108582111715613aa257613aa2613fbe565b604052828152858101935084860182860187018b1015613ac0578788fd5b8795505b83861015613ae957613ad581613602565b855260019590950194938601938601613ac4565b508096505050505050509250929050565b60008060408385031215613b0c578182fd5b505080516020909101519092909150565b60008060008060008060a08789031215613b35578384fd5b863595506020870135945060408701356001600160401b03811115613b58578485fd5b613b6489828a01613612565b9095509350506060870135613b7881613fd4565b80925050608087013590509295509295509295565b600080600060608486031215613ba1578081fd5b505081359360208301359350604090920135919050565b60008251613bca818460208701613f4a565b9190910192915050565b6001600160a01b0391909116815260200190565b6001600160a01b0392831681529116602082015260400190565b6001600160a01b039384168152919092166020820152604081019190915260600190565b6001600160a01b0397881681529590961660208601526040850193909352606084019190915260ff16608083015260a082015260c081019190915260e00190565b6001600160a01b03929092168252602082015260400190565b6020808252825182820181905260009190848201906040850190845b81811015613cb857835183529284019291840191600101613c9c565b50909695505050505050565b602080825260289082015260008051602061401b8339815191526040820152671057d05353d5539560c21b606082015260800190565b6020808252601a908201527914185b98d85ad954ddd85c149bdd5d195c8e881156141254915160321b604082015260600190565b6020808252601f908201527f50616e63616b6553776170526f757465723a20494e56414c49445f5041544800604082015260600190565b602080825260289082015260008051602061401b8339815191526040820152671097d05353d5539560c21b606082015260800190565b6020808252818101527f50616e63616b65537761704c6962726172793a20494e56414c49445f50415448604082015260600190565b60208082526029908201527f50616e63616b6553776170526f757465723a204558434553534956455f494e50604082015268155517d05353d5539560ba1b606082015260800190565b6020808252602d9082015260008051602061401b83398151915260408201526c13d55514155517d05353d55395609a1b606082015260800190565b6020808252602a90820152600080516020613ffb8339815191526040820152695f4c495155494449545960b01b606082015260800190565b84815283602082015260018060a01b03831660408201526080606082015260008251806080840152613ec58160a0850160208701613f4a565b601f01601f19169190910160a00195945050505050565b60008219821115613eef57613eef613fa8565b500190565b600082613f0f57634e487b7160e01b81526012600452602481fd5b500490565b6000816000190483118215151615613f2e57613f2e613fa8565b500290565b600082821015613f4557613f45613fa8565b500390565b60005b83811015613f65578181015183820152602001613f4d565b83811115612b835750506000910152565b600081613f8557613f85613fa8565b506000190190565b6000600019821415613fa157613fa1613fa8565b5060010190565b634e487b7160e01b600052601160045260246000fd5b634e487b7160e01b600052604160045260246000fd5b6001600160a01b0381168114613fe957600080fd5b50565b8015158114613fe957600080fdfe50616e63616b65537761704c6962726172793a20494e53554646494349454e5450616e63616b6553776170526f757465723a20494e53554646494349454e545fa2646970667358221220ba5147eb8b74f93ea126b2c84abfabe09390a1bb88ff0515d3bc42956664e2e964736f6c63430008040033",
  "linkReferences": {},
  "deployedLinkReferences": {}
}