{
  "_format": "hh-sol-artifact-1",
  "contractName": "SmartLadder",
  "sourceName": "contracts/SmartLadder.sol",
  "abi": [
    {
      "anonymous": false,
      "inputs": [
        {
          "indexed": false,
          "internalType": "uint256",
          "name": "id",
          "type": "uint256"
        },
        {
          "components": [
            {
              "internalType": "string",
              "name": "name",
              "type": "string"
            },
            {
              "internalType": "uint16[7]",
              "name": "share",
              "type": "uint16[7]"
            },
            {
              "internalType": "address",
              "name": "token",
              "type": "address"
            },
            {
              "internalType": "bool",
              "name": "enabled",
              "type": "bool"
            },
            {
              "internalType": "bool",
              "name": "isValid",
              "type": "bool"
            },
            {
              "internalType": "uint256",
              "name": "totalDistributed",
              "type": "uint256"
            }
          ],
          "indexed": false,
          "internalType": "struct ISmartLadder.Activity",
          "name": "activity",
          "type": "tuple"
        }
      ],
      "name": "ActivityAdded",
      "type": "event"
    },
    {
      "anonymous": false,
      "inputs": [
        {
          "indexed": false,
          "internalType": "uint256",
          "name": "id",
          "type": "uint256"
        },
        {
          "indexed": false,
          "internalType": "bool",
          "name": "enable",
          "type": "bool"
        }
      ],
      "name": "ActivityEnabled",
      "type": "event"
    },
    {
      "anonymous": false,
      "inputs": [
        {
          "indexed": false,
          "internalType": "uint256",
          "name": "id",
          "type": "uint256"
        },
        {
          "components": [
            {
              "internalType": "string",
              "name": "name",
              "type": "string"
            },
            {
              "internalType": "uint16[7]",
              "name": "share",
              "type": "uint16[7]"
            },
            {
              "internalType": "address",
              "name": "token",
              "type": "address"
            },
            {
              "internalType": "bool",
              "name": "enabled",
              "type": "bool"
            },
            {
              "internalType": "bool",
              "name": "isValid",
              "type": "bool"
            },
            {
              "internalType": "uint256",
              "name": "totalDistributed",
              "type": "uint256"
            }
          ],
          "indexed": false,
          "internalType": "struct ISmartLadder.Activity",
          "name": "activity",
          "type": "tuple"
        }
      ],
      "name": "ActivityUpdated",
      "type": "event"
    },
    {
      "anonymous": false,
      "inputs": [
        {
          "indexed": false,
          "internalType": "address",
          "name": "previousAdmin",
          "type": "address"
        },
        {
          "indexed": false,
          "internalType": "address",
          "name": "newAdmin",
          "type": "address"
        }
      ],
      "name": "AdminChanged",
      "type": "event"
    },
    {
      "anonymous": false,
      "inputs": [
        {
          "indexed": false,
          "internalType": "address",
          "name": "from",
          "type": "address"
        },
        {
          "indexed": false,
          "internalType": "address",
          "name": "admin",
          "type": "address"
        },
        {
          "indexed": false,
          "internalType": "address",
          "name": "token",
          "type": "address"
        },
        {
          "indexed": false,
          "internalType": "uint256",
          "name": "amount",
          "type": "uint256"
        }
      ],
      "name": "AdminReferralReward",
      "type": "event"
    },
    {
      "anonymous": false,
      "inputs": [
        {
          "indexed": true,
          "internalType": "address",
          "name": "beacon",
          "type": "address"
        }
      ],
      "name": "BeaconUpgraded",
      "type": "event"
    },
    {
      "anonymous": false,
      "inputs": [
        {
          "indexed": true,
          "internalType": "address",
          "name": "previousOwner",
          "type": "address"
        },
        {
          "indexed": true,
          "internalType": "address",
          "name": "newOwner",
          "type": "address"
        }
      ],
      "name": "OwnershipTransferred",
      "type": "event"
    },
    {
      "anonymous": false,
      "inputs": [
        {
          "indexed": false,
          "internalType": "address",
          "name": "from",
          "type": "address"
        },
        {
          "indexed": false,
          "internalType": "address",
          "name": "sponsor",
          "type": "address"
        },
        {
          "indexed": false,
          "internalType": "address",
          "name": "token",
          "type": "address"
        },
        {
          "indexed": false,
          "internalType": "uint256",
          "name": "amount",
          "type": "uint256"
        },
        {
          "indexed": false,
          "internalType": "uint256",
          "name": "level",
          "type": "uint256"
        }
      ],
      "name": "ReferralReward",
      "type": "event"
    },
    {
      "anonymous": false,
      "inputs": [
        {
          "indexed": true,
          "internalType": "address",
          "name": "implementation",
          "type": "address"
        }
      ],
      "name": "Upgraded",
      "type": "event"
    },
    {
      "inputs": [],
      "name": "PERCENTS_DIVIDER",
      "outputs": [
        {
          "internalType": "uint256",
          "name": "",
          "type": "uint256"
        }
      ],
      "stateMutability": "view",
      "type": "function"
    },
    {
      "inputs": [
        {
          "internalType": "uint256",
          "name": "",
          "type": "uint256"
        }
      ],
      "name": "activities",
      "outputs": [
        {
          "internalType": "string",
          "name": "name",
          "type": "string"
        },
        {
          "internalType": "address",
          "name": "token",
          "type": "address"
        },
        {
          "internalType": "bool",
          "name": "enabled",
          "type": "bool"
        },
        {
          "internalType": "bool",
          "name": "isValid",
          "type": "bool"
        },
        {
          "internalType": "uint256",
          "name": "totalDistributed",
          "type": "uint256"
        }
      ],
      "stateMutability": "view",
      "type": "function"
    },
    {
      "inputs": [
        {
          "internalType": "uint256",
          "name": "id",
          "type": "uint256"
        }
      ],
      "name": "activity",
      "outputs": [
        {
          "components": [
            {
              "internalType": "string",
              "name": "name",
              "type": "string"
            },
            {
              "internalType": "uint16[7]",
              "name": "share",
              "type": "uint16[7]"
            },
            {
              "internalType": "address",
              "name": "token",
              "type": "address"
            },
            {
              "internalType": "bool",
              "name": "enabled",
              "type": "bool"
            },
            {
              "internalType": "bool",
              "name": "isValid",
              "type": "bool"
            },
            {
              "internalType": "uint256",
              "name": "totalDistributed",
              "type": "uint256"
            }
          ],
          "internalType": "struct ISmartLadder.Activity",
          "name": "",
          "type": "tuple"
        }
      ],
      "stateMutability": "view",
      "type": "function"
    },
    {
      "inputs": [
        {
          "internalType": "string",
          "name": "_name",
          "type": "string"
        },
        {
          "internalType": "uint16[7]",
          "name": "_share",
          "type": "uint16[7]"
        },
        {
          "internalType": "address",
          "name": "_token",
          "type": "address"
        }
      ],
      "name": "addActivity",
      "outputs": [],
      "stateMutability": "nonpayable",
      "type": "function"
    },
    {
      "inputs": [],
      "name": "adminWallet",
      "outputs": [
        {
          "internalType": "address",
          "name": "",
          "type": "address"
        }
      ],
      "stateMutability": "view",
      "type": "function"
    },
    {
      "inputs": [],
      "name": "comptroller",
      "outputs": [
        {
          "internalType": "contract ISmartComp",
          "name": "",
          "type": "address"
        }
      ],
      "stateMutability": "view",
      "type": "function"
    },
    {
      "inputs": [
        {
          "internalType": "address",
          "name": "account",
          "type": "address"
        }
      ],
      "name": "distributeBuyTax",
      "outputs": [],
      "stateMutability": "nonpayable",
      "type": "function"
    },
    {
      "inputs": [
        {
          "internalType": "address",
          "name": "account",
          "type": "address"
        }
      ],
      "name": "distributeEcosystemTax",
      "outputs": [],
      "stateMutability": "nonpayable",
      "type": "function"
    },
    {
      "inputs": [
        {
          "internalType": "address",
          "name": "account",
          "type": "address"
        }
      ],
      "name": "distributeFarmingTax",
      "outputs": [],
      "stateMutability": "nonpayable",
      "type": "function"
    },
    {
      "inputs": [
        {
          "internalType": "address",
          "name": "account",
          "type": "address"
        }
      ],
      "name": "distributeSmartLivingTax",
      "outputs": [],
      "stateMutability": "nonpayable",
      "type": "function"
    },
    {
      "inputs": [
        {
          "internalType": "uint256",
          "name": "id",
          "type": "uint256"
        },
        {
          "internalType": "address",
          "name": "account",
          "type": "address"
        }
      ],
      "name": "distributeTax",
      "outputs": [],
      "stateMutability": "nonpayable",
      "type": "function"
    },
    {
      "inputs": [
        {
          "internalType": "uint256",
          "name": "_id",
          "type": "uint256"
        },
        {
          "internalType": "bool",
          "name": "enable",
          "type": "bool"
        }
      ],
      "name": "enableActivity",
      "outputs": [],
      "stateMutability": "nonpayable",
      "type": "function"
    },
    {
      "inputs": [],
      "name": "initActivities",
      "outputs": [],
      "stateMutability": "nonpayable",
      "type": "function"
    },
    {
      "inputs": [
        {
          "internalType": "address",
          "name": "_comp",
          "type": "address"
        },
        {
          "internalType": "address",
          "name": "_admin",
          "type": "address"
        }
      ],
      "name": "initialize",
      "outputs": [],
      "stateMutability": "nonpayable",
      "type": "function"
    },
    {
      "inputs": [
        {
          "internalType": "address",
          "name": "_user",
          "type": "address"
        },
        {
          "internalType": "address",
          "name": "_sponsor",
          "type": "address"
        }
      ],
      "name": "isRegistered",
      "outputs": [
        {
          "internalType": "bool",
          "name": "",
          "type": "bool"
        }
      ],
      "stateMutability": "view",
      "type": "function"
    },
    {
      "inputs": [],
      "name": "owner",
      "outputs": [
        {
          "internalType": "address",
          "name": "",
          "type": "address"
        }
      ],
      "stateMutability": "view",
      "type": "function"
    },
    {
      "inputs": [],
      "name": "proxiableUUID",
      "outputs": [
        {
          "internalType": "bytes32",
          "name": "",
          "type": "bytes32"
        }
      ],
      "stateMutability": "view",
      "type": "function"
    },
    {
      "inputs": [
        {
          "internalType": "address",
          "name": "_user",
          "type": "address"
        },
        {
          "internalType": "address",
          "name": "_sponsor",
          "type": "address"
        }
      ],
      "name": "registerSponsor",
      "outputs": [],
      "stateMutability": "nonpayable",
      "type": "function"
    },
    {
      "inputs": [],
      "name": "renounceOwnership",
      "outputs": [],
      "stateMutability": "nonpayable",
      "type": "function"
    },
    {
      "inputs": [
        {
          "internalType": "contract ISmartComp",
          "name": "newComptroller",
          "type": "address"
        }
      ],
      "name": "setComptroller",
      "outputs": [],
      "stateMutability": "nonpayable",
      "type": "function"
    },
    {
      "inputs": [
        {
          "internalType": "address",
          "name": "",
          "type": "address"
        }
      ],
      "name": "sponsor",
      "outputs": [
        {
          "internalType": "address",
          "name": "",
          "type": "address"
        }
      ],
      "stateMutability": "view",
      "type": "function"
    },
    {
      "inputs": [
        {
          "internalType": "address",
          "name": "_user",
          "type": "address"
        }
      ],
      "name": "sponsorOf",
      "outputs": [
        {
          "internalType": "address",
          "name": "",
          "type": "address"
        }
      ],
      "stateMutability": "view",
      "type": "function"
    },
    {
      "inputs": [
        {
          "internalType": "address",
          "name": "newOwner",
          "type": "address"
        }
      ],
      "name": "transferOwnership",
      "outputs": [],
      "stateMutability": "nonpayable",
      "type": "function"
    },
    {
      "inputs": [
        {
          "internalType": "uint256",
          "name": "_id",
          "type": "uint256"
        },
        {
          "internalType": "uint16[7]",
          "name": "_share",
          "type": "uint16[7]"
        }
      ],
      "name": "updateActivityShare",
      "outputs": [],
      "stateMutability": "nonpayable",
      "type": "function"
    },
    {
      "inputs": [
        {
          "internalType": "address",
          "name": "_address",
          "type": "address"
        }
      ],
      "name": "updateAdminWallet",
      "outputs": [],
      "stateMutability": "nonpayable",
      "type": "function"
    },
    {
      "inputs": [
        {
          "internalType": "address",
          "name": "newImplementation",
          "type": "address"
        }
      ],
      "name": "upgradeTo",
      "outputs": [],
      "stateMutability": "nonpayable",
      "type": "function"
    },
    {
      "inputs": [
        {
          "internalType": "address",
          "name": "newImplementation",
          "type": "address"
        },
        {
          "internalType": "bytes",
          "name": "data",
          "type": "bytes"
        }
      ],
      "name": "upgradeToAndCall",
      "outputs": [],
      "stateMutability": "payable",
      "type": "function"
    },
    {
      "inputs": [
        {
          "internalType": "address",
          "name": "",
          "type": "address"
        },
        {
          "internalType": "uint256",
          "name": "",
          "type": "uint256"
        }
      ],
      "name": "users",
      "outputs": [
        {
          "internalType": "address",
          "name": "",
          "type": "address"
        }
      ],
      "stateMutability": "view",
      "type": "function"
    },
    {
      "inputs": [
        {
          "internalType": "address",
          "name": "_sponsor",
          "type": "address"
        }
      ],
      "name": "usersOf",
      "outputs": [
        {
          "internalType": "address[]",
          "name": "",
          "type": "address[]"
        }
      ],
      "stateMutability": "view",
      "type": "function"
    }
  ],
  "bytecode": "0x60a06040523060601b60805234801561001757600080fd5b5060805160601c6130c56100526000396000818161068d015281816106d6015281816107e90152818161082901526108a501526130c56000f3fe6080604052600436106101525760003560e01c806301c234a81461015757806308031791146101805780630d1657e8146101ad57806334e108a6146101de5780633659cfe61461022457806336b19cd714610246578063485cc955146102665780634f1ef2861461028657806352d1902d1461029957806354a02f9e146102ae57806359fdcc9a146102ce5780635eec0870146102e35780635fe3b56714610303578063715018a61461032357806374bac87614610338578063756a9e1914610358578063766c4f371461037857806380911afd146103ae57806386ded737146103ce57806387b3a478146103ee5780638bad38dd1461040e5780638da5cb5b1461042e5780639c97061714610443578063c16cc78014610463578063ccb9132914610483578063d3da927f146104a3578063f2fde38b146104d3578063f6abd4e9146104f3578063fd77a6dc14610520575b600080fd5b34801561016357600080fd5b5061016d61271081565b6040519081526020015b60405180910390f35b34801561018c57600080fd5b506101a061019b3660046127e1565b610540565b6040516101779190612aa5565b3480156101b957600080fd5b506101cd6101c8366004612985565b6105b6565b604051610177959493929190612b05565b3480156101ea57600080fd5b506102176101f93660046127e1565b6001600160a01b03908116600090815260ce60205260409020541690565b6040516101779190612a67565b34801561023057600080fd5b5061024461023f3660046127e1565b610682565b005b34801561025257600080fd5b5060ca54610217906001600160a01b031681565b34801561027257600080fd5b506102446102813660046127fd565b610754565b610244610294366004612835565b6107de565b3480156102a557600080fd5b5061016d610898565b3480156102ba57600080fd5b506102176102c9366004612895565b610946565b3480156102da57600080fd5b5061024461097e565b3480156102ef57600080fd5b506102446102fe3660046127e1565b610bdf565b34801561030f57600080fd5b5060c954610217906001600160a01b031681565b34801561032f57600080fd5b50610244610c91565b34801561034457600080fd5b506102446103533660046127e1565b610ccc565b34801561036457600080fd5b506102446103733660046129ee565b610cd7565b34801561038457600080fd5b506102176103933660046127e1565b60ce602052600090815260409020546001600160a01b031681565b3480156103ba57600080fd5b506102446103c9366004612910565b610de2565b3480156103da57600080fd5b506102446103e93660046127e1565b610ff3565b3480156103fa57600080fd5b506102446104093660046129c1565b610ffe565b34801561041a57600080fd5b506102446104293660046127e1565b611198565b34801561043a57600080fd5b506102176112a4565b34801561044f57600080fd5b5061024461045e3660046127e1565b6112b3565b34801561046f57600080fd5b5061024461047e3660046127fd565b6112be565b34801561048f57600080fd5b5061024461049e36600461299d565b6114aa565b3480156104af57600080fd5b506104c36104be3660046127fd565b611671565b6040519015158152602001610177565b3480156104df57600080fd5b506102446104ee3660046127e1565b611764565b3480156104ff57600080fd5b5061051361050e366004612985565b611801565b6040516101779190612c87565b34801561052c57600080fd5b5061024461053b3660046127e1565b61195a565b6001600160a01b038116600090815260cd60209081526040918290208054835181840281018401909452808452606093928301828280156105aa57602002820191906000526020600020905b81546001600160a01b0316815260019091019060200180831161058c575b50505050509050919050565b60cb602052600090815260409020805481906105d190612f43565b80601f01602080910402602001604051908101604052809291908181526020018280546105fd90612f43565b801561064a5780601f1061061f5761010080835404028352916020019161064a565b820191906000526020600020905b81548152906001019060200180831161062d57829003601f168201915b505050600284015460039094015492936001600160a01b0381169360ff600160a01b830481169450600160a81b909204909116915085565b306001600160a01b037f00000000000000000000000000000000000000000000000000000000000000001614156106d45760405162461bcd60e51b81526004016106cb90612b45565b60405180910390fd5b7f00000000000000000000000000000000000000000000000000000000000000006001600160a01b0316610706611965565b6001600160a01b03161461072c5760405162461bcd60e51b81526004016106cb90612b7f565b61073581611981565b60408051600080825260208201909252610751918391906119b0565b50565b600054610100900460ff1661076f5760005460ff1615610777565b610777611b2a565b6107935760405162461bcd60e51b81526004016106cb90612bb9565b600054610100900460ff161580156107b5576000805461ffff19166101011790555b6107bd611b3b565b6107c78383611b6a565b80156107d9576000805461ff00191690555b505050565b306001600160a01b037f00000000000000000000000000000000000000000000000000000000000000001614156108275760405162461bcd60e51b81526004016106cb90612b45565b7f00000000000000000000000000000000000000000000000000000000000000006001600160a01b0316610859611965565b6001600160a01b03161461087f5760405162461bcd60e51b81526004016106cb90612b7f565b61088882611981565b610894828260016119b0565b5050565b6000306001600160a01b037f000000000000000000000000000000000000000000000000000000000000000016146109335760405162461bcd60e51b815260206004820152603860248201527f555550535570677261646561626c653a206d757374206e6f742062652063616c6044820152771b1959081d1a1c9bdd59da0819195b1959d85d1958d85b1b60421b60648201526084016106cb565b5060008051602061300983398151915290565b60cd602052816000526040600020818154811061096257600080fd5b6000918252602090912001546001600160a01b03169150829050565b336109876112a4565b6001600160a01b0316146109ad5760405162461bcd60e51b81526004016106cb90612c07565b60c9546040805163dd445c3160e01b815290516000926001600160a01b03169163dd445c31916004808301926020929190829003018186803b1580156109f257600080fd5b505afa158015610a06573d6000803e3d6000fd5b505050506040513d601f19601f82011682018060405250810190610a2a91906128f4565b60408051808201825260068152650c4eaf2e8c2f60d31b602080830191909152825160e08101845261138881526101f4918101829052928301526102ee6060830181905260808301526104e260a0830181905260c0830152919250610a9491600191848380611c11565b60408051808201825260078152660ccc2e4dae8c2f60cb1b602080830191909152825160e08101845261157c815260fa918101829052928301526102ee6060830181905260808301526104e260a0830181905260c0830152610afd916002919084600180611c11565b604080518082018252600b81526a736d6172746c6976696e6760a81b602080830191909152825160e08101845261138881526101f4918101829052928301526102ee6060830181905260808301526104e260a0830181905260c0830152610b6b916003919084600180611c11565b604080518082018252600981526865636f73797374656d60b81b602080830191909152825160e08101845261138881526101f4918101829052928301526102ee6060830181905260808301526104e260a0830181905260c0830152610bd7916004919084600180611c11565b50600460cc55565b33610be86112a4565b6001600160a01b031614610c0e5760405162461bcd60e51b81526004016106cb90612c07565b6001600160a01b038116610c6f5760405162461bcd60e51b815260206004820152602260248201527f61646d696e2077616c6c65742063616e2774206265207a65726f206164647265604482015261737360f01b60648201526084016106cb565b60ca80546001600160a01b0319166001600160a01b0392909216919091179055565b33610c9a6112a4565b6001600160a01b031614610cc05760405162461bcd60e51b81526004016106cb90612c07565b610cca6000611c82565b565b610751600182611cd4565b33610ce06112a4565b6001600160a01b031614610d065760405162461bcd60e51b81526004016106cb90612c07565b600082815260cb602052604090206002810154600160a81b900460ff16610d845760405162461bcd60e51b815260206004820152602c60248201527f536d6172744c616464657223656e61626c6541637469766974793a20696e766160448201526b6c696420616374697669747960a01b60648201526084016106cb565b60028101805460ff60a01b1916600160a01b841515908102919091179091556040805185815260208101929092527f266ba03d32fa8d7461d5410b7889230c9142a9da494f627844dbd5a27b4f4905910160405180910390a1505050565b33610deb6112a4565b6001600160a01b031614610e115760405162461bcd60e51b81526004016106cb90612c07565b600160cc6000828254610e249190612ea9565b909155505060cc54600090815260cb602052604090206002810154600160a81b900460ff1615610ea55760405162461bcd60e51b815260206004820152602660248201527f536d6172744c61646465722361646441637469766974793a20616c726561647960448201526508195e1a5cdd60d21b60648201526084016106cb565b6000805b6007811015610ef557848160078110610ed257634e487b7160e01b600052603260045260246000fd5b6020020151610ee19083612e83565b915080610eed81612f7e565b915050610ea9565b506127108161ffff1614610f5a5760405162461bcd60e51b815260206004820152602660248201527f536d6172744c61646465722361646441637469766974793a20696e76616c696460448201526520736861726560d01b60648201526084016106cb565b8451610f6c9083906020880190612566565b506002820180546001600160a01b0319166001600160a01b038516179055610f99600183018560076125ea565b5060028201805461ffff60a01b191661010160a01b17905560cc546040517fdcea91276910dfa70e1d423f863574d48a12ba6f8b049a73182ff2276e10fbb791610fe4918590612d19565b60405180910390a15050505050565b610751600282611cd4565b336110076112a4565b6001600160a01b03161461102d5760405162461bcd60e51b81526004016106cb90612c07565b600082815260cb602052604090206002810154600160a81b900460ff1661109e5760405162461bcd60e51b8152602060048201526031602482015260008051602061305083398151915260448201527020696e76616c696420616374697669747960781b60648201526084016106cb565b6000805b60078110156110ee578381600781106110cb57634e487b7160e01b600052603260045260246000fd5b60200201516110da9083612e83565b9150806110e681612f7e565b9150506110a2565b506127108161ffff16146111495760405162461bcd60e51b815260206004820152602e602482015260008051602061305083398151915260448201526d20696e76616c696420736861726560901b60648201526084016106cb565b611158600183018460076125ea565b507fcc9e8b2cdc6b12b6f43e4f0496045f20ee879b66d5bc70219047bacae1897083848360405161118a929190612d19565b60405180910390a150505050565b336111a16112a4565b6001600160a01b0316146111c75760405162461bcd60e51b81526004016106cb90612c07565b806001600160a01b0316627e3dd26040518163ffffffff1660e01b815260040160206040518083038186803b1580156111ff57600080fd5b505afa158015611213573d6000803e3d6000fd5b505050506040513d601f19601f8201168201806040525081019061123791906128c0565b6112825760405162461bcd60e51b815260206004820152601c60248201527b6d61726b6572206d6574686f642072657475726e65642066616c736560201b60448201526064016106cb565b60c980546001600160a01b0319166001600160a01b0392909216919091179055565b6097546001600160a01b031690565b610751600482611cd4565b60c960009054906101000a90046001600160a01b03166001600160a01b0316636e0d07536040518163ffffffff1660e01b815260040160206040518083038186803b15801561130c57600080fd5b505afa158015611320573d6000803e3d6000fd5b505050506040513d601f19601f8201168201806040525081019061134491906128f4565b6001600160a01b0316336001600160a01b0316148061137b57506113666112a4565b6001600160a01b0316336001600160a01b0316145b6113e45760405162461bcd60e51b815260206004820152603460248201527f536d6172744c616464657223726567697374657253706f6e736f723a206f6e6c6044820152733c9029b6b0b93a20b936bc9037b91037bbb732b960611b60648201526084016106cb565b6113ee8282611671565b156114535760405162461bcd60e51b815260206004820152602f60248201527f536d6172744c616464657223726567697374657253706f6e736f723a20616c7260448201526e1958591e481c9959da5cdd195c9959608a1b60648201526084016106cb565b6001600160a01b03908116600081815260cd602090815260408083208054600181018255908452828420018054969095166001600160a01b0319968716811790955593825260ce9052919091208054909216179055565b600082815260cb6020526040808220815160c081019092528054829082906114d190612f43565b80601f01602080910402602001604051908101604052809291908181526020018280546114fd90612f43565b801561154a5780601f1061151f5761010080835404028352916020019161154a565b820191906000526020600020905b81548152906001019060200180831161152d57829003601f168201915b50505091835250506040805160e0810191829052602090920191906001840190600790826000855b82829054906101000a900461ffff1661ffff1681526020019060020190602082600101049283019260010382029150808411611572579050505050918352505060028201546001600160a01b038116602083015260ff600160a01b8204811615156040840152600160a81b90910416151560608201526003909101546080918201528101519091508015611607575080606001515b6116675760405162461bcd60e51b815260206004820152602b60248201527f536d6172744c616464657223646973747269627574655461783a20696e76616c60448201526a696420616374697669747960a81b60648201526084016106cb565b6107d98383611cd4565b6001600160a01b038116600090815260cd60209081526040808320805482518185028101850190935280835284938301828280156116d857602002820191906000526020600020905b81546001600160a01b031681526001909101906020018083116116ba575b5050505050905060005b815181101561174357846001600160a01b031682828151811061171557634e487b7160e01b600052603260045260246000fd5b60200260200101516001600160a01b0316141561173157611743565b8061173b81612f7e565b9150506116e2565b81518110156117575760019250505061175e565b6000925050505b92915050565b3361176d6112a4565b6001600160a01b0316146117935760405162461bcd60e51b81526004016106cb90612c07565b6001600160a01b0381166117f85760405162461bcd60e51b815260206004820152602660248201527f4f776e61626c653a206e6577206f776e657220697320746865207a65726f206160448201526564647265737360d01b60648201526084016106cb565b61075181611c82565b61180961267b565b600082815260cb602052604090819020815160c0810190925280548290829061183190612f43565b80601f016020809104026020016040519081016040528092919081815260200182805461185d90612f43565b80156118aa5780601f1061187f576101008083540402835291602001916118aa565b820191906000526020600020905b81548152906001019060200180831161188d57829003601f168201915b50505091835250506040805160e0810191829052602090920191906001840190600790826000855b82829054906101000a900461ffff1661ffff16815260200190600201906020826001010492830192600103820291508084116118d2579050505050918352505060028201546001600160a01b038116602083015260ff600160a01b8204811615156040840152600160a81b909104161515606082015260039091015460809091015292915050565b610751600382611cd4565b600080516020613009833981519152546001600160a01b031690565b3361198a6112a4565b6001600160a01b0316146107515760405162461bcd60e51b81526004016106cb90612c07565b7f4910fdfa16fed3260ed0e7147f7cc6da11a60208b5b9406d12a635614ffd91435460ff16156119e3576107d9836120e8565b826001600160a01b03166352d1902d6040518163ffffffff1660e01b815260040160206040518083038186803b158015611a1c57600080fd5b505afa925050508015611a4c575060408051601f3d908101601f19168201909252611a49918101906128dc565b60015b611aaf5760405162461bcd60e51b815260206004820152602e60248201527f45524331393637557067726164653a206e657720696d706c656d656e7461746960448201526d6f6e206973206e6f74205555505360901b60648201526084016106cb565b6000805160206130098339815191528114611b1e5760405162461bcd60e51b815260206004820152602960248201527f45524331393637557067726164653a20756e737570706f727465642070726f786044820152681a58589b195555525160ba1b60648201526084016106cb565b506107d9838383612182565b6000611b35306121ad565b15905090565b600054610100900460ff16611b625760405162461bcd60e51b81526004016106cb90612c3c565b610cca6121bc565b600054610100900460ff16611b855760005460ff1615611b8d565b611b8d611b2a565b611ba95760405162461bcd60e51b81526004016106cb90612bb9565b600054610100900460ff16158015611bcb576000805461ffff19166101011790555b60c980546001600160a01b038086166001600160a01b03199283161790925560ca80549285169290911691909117905580156107d9576000805461ff0019169055505050565b600086815260cb6020908152604090912086519091611c34918391890190612566565b506002810180546001600160a01b0386166001600160a81b031990911617600160a01b851515021760ff60a81b1916600160a81b84151502179055611c798786610ffe565b50505050505050565b609780546001600160a01b038381166001600160a01b0319831681179093556040519116919082907f8be0079c531659141344cd1fd0a4f28419497f9722a3daafe3b4186f6b6457e090600090a35050565b600082815260cb6020526040808220600281015491516370a0823160e01b815290926001600160a01b03909216919082906370a0823190611d19903090600401612a67565b60206040518083038186803b158015611d3157600080fd5b505afa158015611d45573d6000803e3d6000fd5b505050506040513d601f19601f82011682018060405250810190611d6991906128dc565b905080611d77575050505050565b6002830154600160a81b900460ff161580611d9e57506002830154600160a01b900460ff16155b80611dc157506001600160a01b03848116600090815260ce602052604090205416155b15611e1a5760ca54611dde9083906001600160a01b0316836121ec565b60ca5460405160008051602061307083398151915291611e0d9187916001600160a01b03169086908690612a7b565b60405180910390a16120c9565b600084815b600781101561205d576000866001018260078110611e4d57634e487b7160e01b600052603260045260246000fd5b6010810491909101546001600160a01b03948516600090815260ce602090815260408083205460c9548251636e0d075360e01b81529251918a1699600f9097166002026101000a90950461ffff16965092949390931692636e0d07539260048083019392829003018186803b158015611ec557600080fd5b505afa158015611ed9573d6000803e3d6000fd5b505050506040513d601f19601f82011682018060405250810190611efd91906128f4565b6001600160a01b031663d2ae413d856040518263ffffffff1660e01b8152600401611f289190612a67565b60206040518083038186803b158015611f4057600080fd5b505afa158015611f54573d6000803e3d6000fd5b505050506040513d601f19601f82011682018060405250810190611f7891906128dc565b905060008261ffff16118015611f9657506001600160a01b03841615155b8015611fa25750600081115b15612048576000612710611fba61ffff851689612ee1565b611fc49190612ec1565b9050611fd18886836121ec565b611fdb8187612ea9565b95507f22e691159860d93a0d0d684be7baa2299f009468786a45fb8751a272ae1297fe8a868a8461200d896001612ea9565b604080516001600160a01b039687168152948616602086015292909416838301526060830152608082019290925290519081900360a00190a1505b5050808061205590612f7e565b915050611e1f565b50818311156120c65760006120728385612f00565b60ca5490915061208d9086906001600160a01b0316836121ec565b60ca54604051600080516020613070833981519152916120bc918a916001600160a01b03169089908690612a7b565b60405180910390a1505b50505b8083600301546120d99190612ea9565b83600301819055505050505050565b6120f1816121ad565b6121535760405162461bcd60e51b815260206004820152602d60248201527f455243313936373a206e657720696d706c656d656e746174696f6e206973206e60448201526c1bdd08184818dbdb9d1c9858dd609a1b60648201526084016106cb565b60008051602061300983398151915280546001600160a01b0319166001600160a01b0392909216919091179055565b61218b83612210565b6000825111806121985750805b156107d9576121a78383612250565b50505050565b6001600160a01b03163b151590565b600054610100900460ff166121e35760405162461bcd60e51b81526004016106cb90612c3c565b610cca33611c82565b6001600160a01b03831615612206576107d9838383612342565b6107d9828261245d565b612219816120e8565b6040516001600160a01b038216907fbc7cd75a20ee27fd9adebab32041f755214dbc6bffa90cc0225b39da2e5c2d3b90600090a250565b606061225b836121ad565b6122b65760405162461bcd60e51b815260206004820152602660248201527f416464726573733a2064656c65676174652063616c6c20746f206e6f6e2d636f6044820152651b9d1c9858dd60d21b60648201526084016106cb565b600080846001600160a01b0316846040516122d19190612a4b565b600060405180830381855af49150503d806000811461230c576040519150601f19603f3d011682016040523d82523d6000602084013e612311565b606091505b5091509150612339828260405180606001604052806027815260200161302960279139612526565b95945050505050565b604080516001600160a01b038481166024830152604480830185905283518084039091018152606490920183526020820180516001600160e01b031663a9059cbb60e01b179052915160009283929087169161239e9190612a4b565b6000604051808303816000865af19150503d80600081146123db576040519150601f19603f3d011682016040523d82523d6000602084013e6123e0565b606091505b509150915081801561240a57508051158061240a57508080602001905181019061240a91906128c0565b6124565760405162461bcd60e51b815260206004820152601f60248201527f5472616e7366657248656c7065723a205452414e534645525f4641494c45440060448201526064016106cb565b5050505050565b604080516000808252602082019092526001600160a01b0384169083906040516124879190612a4b565b60006040518083038185875af1925050503d80600081146124c4576040519150601f19603f3d011682016040523d82523d6000602084013e6124c9565b606091505b50509050806107d95760405162461bcd60e51b815260206004820152602360248201527f5472616e7366657248656c7065723a204554485f5452414e534645525f46414960448201526213115160ea1b60648201526084016106cb565b6060831561253557508161255f565b8251156125455782518084602001fd5b8160405162461bcd60e51b81526004016106cb9190612af2565b9392505050565b82805461257290612f43565b90600052602060002090601f01602090048101928261259457600085556125da565b82601f106125ad57805160ff19168380011785556125da565b828001600101855582156125da579182015b828111156125da5782518255916020019190600101906125bf565b506125e69291506126b7565b5090565b6001830191839082156125da5791602002820160005b8382111561264057835183826101000a81548161ffff021916908361ffff1602179055509260200192600201602081600101049283019260010302612600565b801561266e5782816101000a81549061ffff0219169055600201602081600101049283019260010302612640565b50506125e69291506126b7565b6040518060c00160405280606081526020016126956126cc565b8152600060208201819052604082018190526060820181905260809091015290565b5b808211156125e657600081556001016126b8565b6040518060e001604052806007906020820280368337509192915050565b60006001600160401b038084111561270457612704612faf565b604051601f8501601f19908116603f0116810190828211818310171561272c5761272c612faf565b8160405280935085815286868601111561274557600080fd5b858560208301376000602087830101525050509392505050565b600082601f83011261276f578081fd5b60405160e081016001600160401b038111828210171561279157612791612faf565b604052808360e081018610156127a5578384fd5b835b60078110156127d657813561ffff811681146127c1578586fd5b835260209283019291909101906001016127a7565b509195945050505050565b6000602082840312156127f2578081fd5b813561255f81612fc5565b6000806040838503121561280f578081fd5b823561281a81612fc5565b9150602083013561282a81612fc5565b809150509250929050565b60008060408385031215612847578182fd5b823561285281612fc5565b915060208301356001600160401b0381111561286c578182fd5b8301601f8101851361287c578182fd5b61288b858235602084016126ea565b9150509250929050565b600080604083850312156128a7578182fd5b82356128b281612fc5565b946020939093013593505050565b6000602082840312156128d1578081fd5b815161255f81612fda565b6000602082840312156128ed578081fd5b5051919050565b600060208284031215612905578081fd5b815161255f81612fc5565b60008060006101208486031215612925578081fd5b83356001600160401b0381111561293a578182fd5b8401601f8101861361294a578182fd5b612959868235602084016126ea565b935050612969856020860161275f565b915061010084013561297a81612fc5565b809150509250925092565b600060208284031215612996578081fd5b5035919050565b600080604083850312156129af578182fd5b82359150602083013561282a81612fc5565b60008061010083850312156129d4578182fd5b823591506129e5846020850161275f565b90509250929050565b60008060408385031215612a00578182fd5b82359150602083013561282a81612fda565b6001600160a01b03169052565b60008151808452612a37816020860160208601612f17565b601f01601f19169290920160200192915050565b60008251612a5d818460208701612f17565b9190910192915050565b6001600160a01b0391909116815260200190565b6001600160a01b039485168152928416602084015292166040820152606081019190915260800190565b6020808252825182820181905260009190848201906040850190845b81811015612ae65783516001600160a01b031683529284019291840191600101612ac1565b50909695505050505050565b60208152600061255f6020830184612a1f565b60a081526000612b1860a0830188612a1f565b6001600160a01b039690961660208301525092151560408401529015156060830152608090910152919050565b6020808252602c90820152600080516020612fe983398151915260408201526b19195b1959d85d1958d85b1b60a21b606082015260800190565b6020808252602c90820152600080516020612fe983398151915260408201526b6163746976652070726f787960a01b606082015260800190565b6020808252602e908201527f496e697469616c697a61626c653a20636f6e747261637420697320616c72656160408201526d191e481a5b9a5d1a585b1a5e995960921b606082015260800190565b6020808252818101527f4f776e61626c653a2063616c6c6572206973206e6f7420746865206f776e6572604082015260600190565b6020808252602b908201527f496e697469616c697a61626c653a20636f6e7472616374206973206e6f74206960408201526a6e697469616c697a696e6760a81b606082015260800190565b6000602080835283516101808083860152612ca66101a0860183612a1f565b91508286015160408601855b6007811015612cd357825161ffff1682529185019190850190600101612cb2565b50505060408601519250612ceb610120860184612a12565b606086015115156101408601526080860151151561016086015260a090950151949093019390935250919050565b8281526000602060408184015261018080604085015282855484600182811c915080831680612d4957607f831692505b868310811415612d6757634e487b7160e01b88526022600452602488fd5b6101c089018390526101e08901818015612d885760018114612d9957612dc3565b60ff19861682528882019650612dc3565b60008c8152602090208a5b86811015612dbd57815484820152908501908a01612da4565b83019750505b505050612e2260608901828b01805461ffff8082168452808260101c166020850152808260201c166040850152808260301c166060850152808260401c166080850152808260501c1660a0850152808260601c1660c085015250505050565b50505060028601549250612e4361014086016001600160a01b038516612a12565b612e58610160860160ff8560a01c1615159052565b612e6b82860160ff8560a81c1615159052565b60038601546101a08601528093505050509392505050565b600061ffff808316818516808303821115612ea057612ea0612f99565b01949350505050565b60008219821115612ebc57612ebc612f99565b500190565b600082612edc57634e487b7160e01b81526012600452602481fd5b500490565b6000816000190483118215151615612efb57612efb612f99565b500290565b600082821015612f1257612f12612f99565b500390565b60005b83811015612f32578181015183820152602001612f1a565b838111156121a75750506000910152565b600181811c90821680612f5757607f821691505b60208210811415612f7857634e487b7160e01b600052602260045260246000fd5b50919050565b6000600019821415612f9257612f92612f99565b5060010190565b634e487b7160e01b600052601160045260246000fd5b634e487b7160e01b600052604160045260246000fd5b6001600160a01b038116811461075157600080fd5b801515811461075157600080fdfe46756e6374696f6e206d7573742062652063616c6c6564207468726f75676820360894a13ba1a3210667c828492db98dca3e2076cc3735a920a3ca505d382bbc416464726573733a206c6f772d6c6576656c2064656c65676174652063616c6c206661696c6564536d6172744c616464657223757064617465416374697669747953686172653a5867fec71db079734605bcb76fd3d0b2bbb24d77407bd2bffcb2382b167c313ca2646970667358221220cf99152580a6da8e159ab5af97b72280f45eb33b395bb53b91362839c5b708af64736f6c63430008040033",
  "linkReferences": {},
  "deployedLinkReferences": {}
}