{
  "_format": "hh-sol-artifact-1",
  "contractName": "WETH",
  "sourceName": "contracts/libs/weth.sol",
  "abi": [
    {
      "anonymous": false,
      "inputs": [
        {
          "indexed": true,
          "internalType": "address",
          "name": "src",
          "type": "address"
        },
        {
          "indexed": true,
          "internalType": "address",
          "name": "guy",
          "type": "address"
        },
        {
          "indexed": false,
          "internalType": "uint256",
          "name": "wad",
          "type": "uint256"
        }
      ],
      "name": "Approval",
      "type": "event"
    },
    {
      "anonymous": false,
      "inputs": [
        {
          "indexed": true,
          "internalType": "address",
          "name": "dst",
          "type": "address"
        },
        {
          "indexed": false,
          "internalType": "uint256",
          "name": "wad",
          "type": "uint256"
        }
      ],
      "name": "Deposit",
      "type": "event"
    },
    {
      "anonymous": false,
      "inputs": [
        {
          "indexed": true,
          "internalType": "address",
          "name": "src",
          "type": "address"
        },
        {
          "indexed": true,
          "internalType": "address",
          "name": "dst",
          "type": "address"
        },
        {
          "indexed": false,
          "internalType": "uint256",
          "name": "wad",
          "type": "uint256"
        }
      ],
      "name": "Transfer",
      "type": "event"
    },
    {
      "anonymous": false,
      "inputs": [
        {
          "indexed": true,
          "internalType": "address",
          "name": "src",
          "type": "address"
        },
        {
          "indexed": false,
          "internalType": "uint256",
          "name": "wad",
          "type": "uint256"
        }
      ],
      "name": "Withdrawal",
      "type": "event"
    },
    {
      "stateMutability": "payable",
      "type": "fallback"
    },
    {
      "inputs": [
        {
          "internalType": "address",
          "name": "",
          "type": "address"
        },
        {
          "internalType": "address",
          "name": "",
          "type": "address"
        }
      ],
      "name": "allowance",
      "outputs": [
        {
          "internalType": "uint256",
          "name": "",
          "type": "uint256"
        }
      ],
      "stateMutability": "view",
      "type": "function"
    },
    {
      "inputs": [
        {
          "internalType": "address",
          "name": "guy",
          "type": "address"
        },
        {
          "internalType": "uint256",
          "name": "wad",
          "type": "uint256"
        }
      ],
      "name": "approve",
      "outputs": [
        {
          "internalType": "bool",
          "name": "",
          "type": "bool"
        }
      ],
      "stateMutability": "nonpayable",
      "type": "function"
    },
    {
      "inputs": [
        {
          "internalType": "address",
          "name": "",
          "type": "address"
        }
      ],
      "name": "balanceOf",
      "outputs": [
        {
          "internalType": "uint256",
          "name": "",
          "type": "uint256"
        }
      ],
      "stateMutability": "view",
      "type": "function"
    },
    {
      "inputs": [],
      "name": "decimals",
      "outputs": [
        {
          "internalType": "uint8",
          "name": "",
          "type": "uint8"
        }
      ],
      "stateMutability": "view",
      "type": "function"
    },
    {
      "inputs": [],
      "name": "deposit",
      "outputs": [],
      "stateMutability": "payable",
      "type": "function"
    },
    {
      "inputs": [],
      "name": "name",
      "outputs": [
        {
          "internalType": "string",
          "name": "",
          "type": "string"
        }
      ],
      "stateMutability": "view",
      "type": "function"
    },
    {
      "inputs": [],
      "name": "symbol",
      "outputs": [
        {
          "internalType": "string",
          "name": "",
          "type": "string"
        }
      ],
      "stateMutability": "view",
      "type": "function"
    },
    {
      "inputs": [],
      "name": "totalSupply",
      "outputs": [
        {
          "internalType": "uint256",
          "name": "",
          "type": "uint256"
        }
      ],
      "stateMutability": "view",
      "type": "function"
    },
    {
      "inputs": [
        {
          "internalType": "address",
          "name": "dst",
          "type": "address"
        },
        {
          "internalType": "uint256",
          "name": "wad",
          "type": "uint256"
        }
      ],
      "name": "transfer",
      "outputs": [
        {
          "internalType": "bool",
          "name": "",
          "type": "bool"
        }
      ],
      "stateMutability": "nonpayable",
      "type": "function"
    },
    {
      "inputs": [
        {
          "internalType": "address",
          "name": "src",
          "type": "address"
        },
        {
          "internalType": "address",
          "name": "dst",
          "type": "address"
        },
        {
          "internalType": "uint256",
          "name": "wad",
          "type": "uint256"
        }
      ],
      "name": "transferFrom",
      "outputs": [
        {
          "internalType": "bool",
          "name": "",
          "type": "bool"
        }
      ],
      "stateMutability": "nonpayable",
      "type": "function"
    },
    {
      "inputs": [
        {
          "internalType": "uint256",
          "name": "wad",
          "type": "uint256"
        }
      ],
      "name": "withdraw",
      "outputs": [],
      "stateMutability": "nonpayable",
      "type": "function"
    },
    {
      "stateMutability": "payable",
      "type": "receive"
    }
  ],
  "bytecode": "0x60c0604052600b60808190526a0aee4c2e0e0cac8408aa8960ab1b60a090815261002c9160009190610078565b50604080518082019091526004808252630ae8aa8960e31b602090920191825261005891600191610078565b506002805460ff1916601217905534801561007257600080fd5b5061014c565b82805461008490610111565b90600052602060002090601f0160209004810192826100a657600085556100ec565b82601f106100bf57805160ff19168380011785556100ec565b828001600101855582156100ec579182015b828111156100ec5782518255916020019190600101906100d1565b506100f89291506100fc565b5090565b5b808211156100f857600081556001016100fd565b600181811c9082168061012557607f821691505b6020821081141561014657634e487b7160e01b600052602260045260246000fd5b50919050565b6107af8061015b6000396000f3fe6080604052600436106100905760003560e01c806306fdde03146100a7578063095ea7b3146100d257806318160ddd1461010257806323b872dd1461011f5780632e1a7d4d1461013f578063313ce5671461015f57806370a082311461018b57806395d89b41146101b8578063a9059cbb146101cd578063d0e30db01461009f578063dd62ed3e146101ed5761009f565b3661009f5761009d610225565b005b61009d610225565b3480156100b357600080fd5b506100bc610280565b6040516100c991906106a6565b60405180910390f35b3480156100de57600080fd5b506100f26100ed366004610665565b61030e565b60405190151581526020016100c9565b34801561010e57600080fd5b50475b6040519081526020016100c9565b34801561012b57600080fd5b506100f261013a36600461062a565b61037a565b34801561014b57600080fd5b5061009d61015a36600461068e565b6104fb565b34801561016b57600080fd5b506002546101799060ff1681565b60405160ff90911681526020016100c9565b34801561019757600080fd5b506101116101a63660046105de565b60036020526000908152604090205481565b3480156101c457600080fd5b506100bc6105a1565b3480156101d957600080fd5b506100f26101e8366004610665565b6105ae565b3480156101f957600080fd5b506101116102083660046105f8565b600460209081526000928352604080842090915290825290205481565b33600090815260036020526040812080543492906102449084906106f9565b909155505060405134815233907fe1fffcc4923d04b559f4d29a8bfc6cda04eb5b0d3c460751c2402c5c5cc9109c9060200160405180910390a2565b6000805461028d90610728565b80601f01602080910402602001604051908101604052809291908181526020018280546102b990610728565b80156103065780601f106102db57610100808354040283529160200191610306565b820191906000526020600020905b8154815290600101906020018083116102e957829003601f168201915b505050505081565b3360008181526004602090815260408083206001600160a01b038716808552925280832085905551919290917f8c5be1e5ebec7d5bd14f71427d1e84f3dd0314c0f7b2291e5b200ac8c7c3b925906103699086815260200190565b60405180910390a350600192915050565b6001600160a01b03831660009081526003602052604081205482111561039f57600080fd5b6001600160a01b03841633148015906103da57506001600160a01b038416600090815260046020908152604080832033845290915290205415155b15610448576001600160a01b038416600090815260046020908152604080832033845290915290205482111561040f57600080fd5b6001600160a01b038416600090815260046020908152604080832033845290915281208054849290610442908490610711565b90915550505b6001600160a01b03841660009081526003602052604081208054849290610470908490610711565b90915550506001600160a01b0383166000908152600360205260408120805484929061049d9084906106f9565b92505081905550826001600160a01b0316846001600160a01b03167fddf252ad1be2c89b69c2b068fc378daa952ba7f163c4a11628f55a4df523b3ef846040516104e991815260200190565b60405180910390a35060019392505050565b3360009081526003602052604090205481111561051757600080fd5b3360009081526003602052604081208054839290610536908490610711565b9091555050604051339082156108fc029083906000818181858888f19350505050158015610568573d6000803e3d6000fd5b5060405181815233907f7fcf532c15f0a6db0bd6d0e038bea71d30d808c7d98cb3bf7268a95bf5081b659060200160405180910390a250565b6001805461028d90610728565b60006105bb33848461037a565b9392505050565b80356001600160a01b03811681146105d957600080fd5b919050565b6000602082840312156105ef578081fd5b6105bb826105c2565b6000806040838503121561060a578081fd5b610613836105c2565b9150610621602084016105c2565b90509250929050565b60008060006060848603121561063e578081fd5b610647846105c2565b9250610655602085016105c2565b9150604084013590509250925092565b60008060408385031215610677578182fd5b610680836105c2565b946020939093013593505050565b60006020828403121561069f578081fd5b5035919050565b6000602080835283518082850152825b818110156106d2578581018301518582016040015282016106b6565b818111156106e35783604083870101525b50601f01601f1916929092016040019392505050565b6000821982111561070c5761070c610763565b500190565b60008282101561072357610723610763565b500390565b600181811c9082168061073c57607f821691505b6020821081141561075d57634e487b7160e01b600052602260045260246000fd5b50919050565b634e487b7160e01b600052601160045260246000fdfea26469706673582212207bf1617febbedab6a96a49d2dfcf58da5e9243ef377beb9d2d7adb799ab3a67664736f6c63430008040033",
  "linkReferences": {},
  "deployedLinkReferences": {}
}