{
  "_format": "hh-sol-artifact-1",
  "contractName": "GoldenTreePool",
  "sourceName": "contracts/GoldenTreePool.sol",
  "abi": [
    {
      "anonymous": false,
      "inputs": [
        {
          "indexed": false,
          "internalType": "address",
          "name": "previousAdmin",
          "type": "address"
        },
        {
          "indexed": false,
          "internalType": "address",
          "name": "newAdmin",
          "type": "address"
        }
      ],
      "name": "AdminChanged",
      "type": "event"
    },
    {
      "anonymous": false,
      "inputs": [
        {
          "indexed": true,
          "internalType": "address",
          "name": "beacon",
          "type": "address"
        }
      ],
      "name": "BeaconUpgraded",
      "type": "event"
    },
    {
      "anonymous": false,
      "inputs": [
        {
          "indexed": false,
          "internalType": "uint256",
          "name": "amount",
          "type": "uint256"
        },
        {
          "indexed": false,
          "internalType": "address",
          "name": "account",
          "type": "address"
        }
      ],
      "name": "Growth",
      "type": "event"
    },
    {
      "anonymous": false,
      "inputs": [
        {
          "indexed": true,
          "internalType": "address",
          "name": "previousOwner",
          "type": "address"
        },
        {
          "indexed": true,
          "internalType": "address",
          "name": "newOwner",
          "type": "address"
        }
      ],
      "name": "OwnershipTransferred",
      "type": "event"
    },
    {
      "anonymous": false,
      "inputs": [
        {
          "indexed": false,
          "internalType": "uint256",
          "name": "amount",
          "type": "uint256"
        },
        {
          "indexed": false,
          "internalType": "address",
          "name": "account",
          "type": "address"
        },
        {
          "indexed": false,
          "internalType": "address",
          "name": "referral",
          "type": "address"
        },
        {
          "indexed": false,
          "internalType": "uint256",
          "name": "level",
          "type": "uint256"
        }
      ],
      "name": "ReferralGrowth",
      "type": "event"
    },
    {
      "anonymous": false,
      "inputs": [
        {
          "indexed": false,
          "internalType": "uint256",
          "name": "amount",
          "type": "uint256"
        },
        {
          "indexed": false,
          "internalType": "address",
          "name": "account",
          "type": "address"
        }
      ],
      "name": "RewardAdded",
      "type": "event"
    },
    {
      "anonymous": false,
      "inputs": [
        {
          "indexed": false,
          "internalType": "uint256",
          "name": "smtAmount",
          "type": "uint256"
        },
        {
          "indexed": false,
          "internalType": "uint256",
          "name": "busdAmount",
          "type": "uint256"
        }
      ],
      "name": "RewardSwapped",
      "type": "event"
    },
    {
      "anonymous": false,
      "inputs": [
        {
          "indexed": false,
          "internalType": "uint256",
          "name": "phaseNumber",
          "type": "uint256"
        }
      ],
      "name": "UpgradeTreePhase",
      "type": "event"
    },
    {
      "anonymous": false,
      "inputs": [
        {
          "indexed": true,
          "internalType": "address",
          "name": "implementation",
          "type": "address"
        }
      ],
      "name": "Upgraded",
      "type": "event"
    },
    {
      "inputs": [
        {
          "internalType": "address",
          "name": "_address",
          "type": "address"
        }
      ],
      "name": "addDistributor",
      "outputs": [],
      "stateMutability": "nonpayable",
      "type": "function"
    },
    {
      "inputs": [],
      "name": "comptroller",
      "outputs": [
        {
          "internalType": "contract ISmartComp",
          "name": "",
          "type": "address"
        }
      ],
      "stateMutability": "view",
      "type": "function"
    },
    {
      "inputs": [
        {
          "internalType": "address",
          "name": "value",
          "type": "address"
        }
      ],
      "name": "contain",
      "outputs": [
        {
          "internalType": "bool",
          "name": "",
          "type": "bool"
        }
      ],
      "stateMutability": "view",
      "type": "function"
    },
    {
      "inputs": [
        {
          "internalType": "address",
          "name": "account",
          "type": "address"
        }
      ],
      "name": "contributionOf",
      "outputs": [
        {
          "internalType": "uint256",
          "name": "",
          "type": "uint256"
        }
      ],
      "stateMutability": "view",
      "type": "function"
    },
    {
      "inputs": [],
      "name": "currentPhase",
      "outputs": [
        {
          "internalType": "uint256",
          "name": "",
          "type": "uint256"
        }
      ],
      "stateMutability": "view",
      "type": "function"
    },
    {
      "inputs": [],
      "name": "currentPhaseOfGoldenTree",
      "outputs": [
        {
          "internalType": "uint256",
          "name": "",
          "type": "uint256"
        }
      ],
      "stateMutability": "view",
      "type": "function"
    },
    {
      "inputs": [],
      "name": "currentTotalGrowth",
      "outputs": [
        {
          "internalType": "uint256",
          "name": "",
          "type": "uint256"
        }
      ],
      "stateMutability": "view",
      "type": "function"
    },
    {
      "inputs": [],
      "name": "getRewardsDistributor",
      "outputs": [
        {
          "internalType": "address[]",
          "name": "",
          "type": "address[]"
        }
      ],
      "stateMutability": "view",
      "type": "function"
    },
    {
      "inputs": [
        {
          "internalType": "address",
          "name": "account",
          "type": "address"
        }
      ],
      "name": "growthBalanceOf",
      "outputs": [
        {
          "internalType": "uint256",
          "name": "",
          "type": "uint256"
        }
      ],
      "stateMutability": "view",
      "type": "function"
    },
    {
      "inputs": [
        {
          "internalType": "address",
          "name": "",
          "type": "address"
        }
      ],
      "name": "growthBalances",
      "outputs": [
        {
          "internalType": "uint256",
          "name": "",
          "type": "uint256"
        }
      ],
      "stateMutability": "view",
      "type": "function"
    },
    {
      "inputs": [
        {
          "internalType": "uint256",
          "name": "",
          "type": "uint256"
        }
      ],
      "name": "growthShare",
      "outputs": [
        {
          "internalType": "uint16",
          "name": "",
          "type": "uint16"
        }
      ],
      "stateMutability": "view",
      "type": "function"
    },
    {
      "inputs": [
        {
          "internalType": "address",
          "name": "value",
          "type": "address"
        }
      ],
      "name": "indexOf",
      "outputs": [
        {
          "internalType": "uint256",
          "name": "",
          "type": "uint256"
        }
      ],
      "stateMutability": "view",
      "type": "function"
    },
    {
      "inputs": [
        {
          "internalType": "address",
          "name": "_comp",
          "type": "address"
        }
      ],
      "name": "initialize",
      "outputs": [],
      "stateMutability": "nonpayable",
      "type": "function"
    },
    {
      "inputs": [],
      "name": "limitPerSwap",
      "outputs": [
        {
          "internalType": "uint256",
          "name": "",
          "type": "uint256"
        }
      ],
      "stateMutability": "view",
      "type": "function"
    },
    {
      "inputs": [
        {
          "internalType": "uint256",
          "name": "amount",
          "type": "uint256"
        },
        {
          "internalType": "address",
          "name": "account",
          "type": "address"
        }
      ],
      "name": "notifyReward",
      "outputs": [],
      "stateMutability": "nonpayable",
      "type": "function"
    },
    {
      "inputs": [],
      "name": "owner",
      "outputs": [
        {
          "internalType": "address",
          "name": "",
          "type": "address"
        }
      ],
      "stateMutability": "view",
      "type": "function"
    },
    {
      "inputs": [
        {
          "internalType": "uint256",
          "name": "",
          "type": "uint256"
        }
      ],
      "name": "phaseRewards",
      "outputs": [
        {
          "internalType": "uint256",
          "name": "",
          "type": "uint256"
        }
      ],
      "stateMutability": "view",
      "type": "function"
    },
    {
      "inputs": [
        {
          "internalType": "uint256",
          "name": "",
          "type": "uint256"
        }
      ],
      "name": "phaseThresold",
      "outputs": [
        {
          "internalType": "uint256",
          "name": "",
          "type": "uint256"
        }
      ],
      "stateMutability": "view",
      "type": "function"
    },
    {
      "inputs": [],
      "name": "proxiableUUID",
      "outputs": [
        {
          "internalType": "bytes32",
          "name": "",
          "type": "bytes32"
        }
      ],
      "stateMutability": "view",
      "type": "function"
    },
    {
      "inputs": [
        {
          "internalType": "address",
          "name": "_address",
          "type": "address"
        }
      ],
      "name": "removeDistributor",
      "outputs": [],
      "stateMutability": "nonpayable",
      "type": "function"
    },
    {
      "inputs": [],
      "name": "renounceOwnership",
      "outputs": [],
      "stateMutability": "nonpayable",
      "type": "function"
    },
    {
      "inputs": [
        {
          "internalType": "uint256",
          "name": "amount",
          "type": "uint256"
        }
      ],
      "name": "sellSmtc",
      "outputs": [],
      "stateMutability": "nonpayable",
      "type": "function"
    },
    {
      "inputs": [
        {
          "internalType": "contract ISmartComp",
          "name": "newComptroller",
          "type": "address"
        }
      ],
      "name": "setComptroller",
      "outputs": [],
      "stateMutability": "nonpayable",
      "type": "function"
    },
    {
      "inputs": [
        {
          "internalType": "uint256",
          "name": "_amount",
          "type": "uint256"
        }
      ],
      "name": "setLimitPerSwap",
      "outputs": [],
      "stateMutability": "nonpayable",
      "type": "function"
    },
    {
      "inputs": [
        {
          "internalType": "bool",
          "name": "_enabled",
          "type": "bool"
        }
      ],
      "name": "setSwapEnabled",
      "outputs": [],
      "stateMutability": "nonpayable",
      "type": "function"
    },
    {
      "inputs": [],
      "name": "smtcTotalSupply",
      "outputs": [
        {
          "internalType": "uint256",
          "name": "",
          "type": "uint256"
        }
      ],
      "stateMutability": "view",
      "type": "function"
    },
    {
      "inputs": [
        {
          "internalType": "uint256",
          "name": "_amount",
          "type": "uint256"
        }
      ],
      "name": "swapDistribute",
      "outputs": [
        {
          "internalType": "uint256",
          "name": "",
          "type": "uint256"
        }
      ],
      "stateMutability": "nonpayable",
      "type": "function"
    },
    {
      "inputs": [],
      "name": "swapEnabled",
      "outputs": [
        {
          "internalType": "bool",
          "name": "",
          "type": "bool"
        }
      ],
      "stateMutability": "view",
      "type": "function"
    },
    {
      "inputs": [],
      "name": "thresholdPrice",
      "outputs": [
        {
          "internalType": "uint256",
          "name": "",
          "type": "uint256"
        }
      ],
      "stateMutability": "view",
      "type": "function"
    },
    {
      "inputs": [],
      "name": "totalBurned",
      "outputs": [
        {
          "internalType": "uint256",
          "name": "",
          "type": "uint256"
        }
      ],
      "stateMutability": "view",
      "type": "function"
    },
    {
      "inputs": [],
      "name": "totalRevenue",
      "outputs": [
        {
          "internalType": "uint256",
          "name": "",
          "type": "uint256"
        }
      ],
      "stateMutability": "view",
      "type": "function"
    },
    {
      "inputs": [],
      "name": "totalSwapped",
      "outputs": [
        {
          "internalType": "uint256",
          "name": "",
          "type": "uint256"
        }
      ],
      "stateMutability": "view",
      "type": "function"
    },
    {
      "inputs": [
        {
          "internalType": "address",
          "name": "newOwner",
          "type": "address"
        }
      ],
      "name": "transferOwnership",
      "outputs": [],
      "stateMutability": "nonpayable",
      "type": "function"
    },
    {
      "inputs": [
        {
          "internalType": "uint16[8]",
          "name": "_share",
          "type": "uint16[8]"
        }
      ],
      "name": "updateGrowthShare",
      "outputs": [],
      "stateMutability": "nonpayable",
      "type": "function"
    },
    {
      "inputs": [
        {
          "internalType": "address",
          "name": "newImplementation",
          "type": "address"
        }
      ],
      "name": "upgradeTo",
      "outputs": [],
      "stateMutability": "nonpayable",
      "type": "function"
    },
    {
      "inputs": [
        {
          "internalType": "address",
          "name": "newImplementation",
          "type": "address"
        },
        {
          "internalType": "bytes",
          "name": "data",
          "type": "bytes"
        }
      ],
      "name": "upgradeToAndCall",
      "outputs": [],
      "stateMutability": "payable",
      "type": "function"
    }
  ],
  "bytecode": "0x60a06040523060601b60805234801561001757600080fd5b5060805160601c613b75610052600039600081816115e001528181611620015281816118050152818161184501526118c10152613b756000f3fe60806040526004361061019f5760003560e01c806304f73340146101a4578063055ad42e146101cc578063081eae0e146101e25780631028c267146102025780631617b7a01461022457806322df087d146102515780633659cfe6146102715780633bd8c45c1461029157806345cf7f13146102a657806349c045ae146102c65780634f1ef286146102e657806352d1902d146102f957806357c1f9e21461030e5780635fe3b5671461032e578063603e1e751461035b578063638029ee146103705780636ddd171314610385578063715018a6146103b65780637250e224146103cb57806377acb543146103eb5780638ab599a81461040b5780638bad38dd1461042b5780638da5cb5b1461044b5780638e21f01c146104605780638ed5f83d1461048257806397c925f2146104985780639871262b146104b8578063bf2d9e0b146104d8578063c4d66de8146104ee578063c7a5105d1461050e578063d7805ece14610541578063d8501f4f14610561578063d89135cd14610577578063e01af92c1461058d578063f2fde38b146105ad578063fd6aad25146105cd575b600080fd5b3480156101b057600080fd5b506101b96105ed565b6040519081526020015b60405180910390f35b3480156101d857600080fd5b506101b960ce5481565b3480156101ee57600080fd5b506101b96101fd3660046136a6565b61071d565b34801561020e57600080fd5b5061022261021d3660046136a6565b61100e565b005b34801561023057600080fd5b506101b961023f366004613443565b60cf6020526000908152604090205481565b34801561025d57600080fd5b5061022261026c36600461351c565b6114d6565b34801561027d57600080fd5b5061022261028c366004613443565b6115d5565b34801561029d57600080fd5b506101b961169e565b3480156102b257600080fd5b506101b96102c1366004613443565b61179a565b3480156102d257600080fd5b506102226102e13660046136a6565b6117c6565b6102226102f436600461347b565b6117fa565b34801561030557600080fd5b506101b96118b4565b34801561031a57600080fd5b50610222610329366004613443565b611962565b34801561033a57600080fd5b5060c95461034e906001600160a01b031681565b6040516101c3919061374c565b34801561036757600080fd5b506101b961199a565b34801561037c57600080fd5b506101b96119b1565b34801561039157600080fd5b5060c9546103a690600160a01b900460ff1681565b60405190151581526020016101c3565b3480156103c257600080fd5b50610222611a52565b3480156103d757600080fd5b506102226103e6366004613443565b611a8d565b3480156103f757600080fd5b506101b96104063660046136a6565b611ac5565b34801561041757600080fd5b506102226104263660046136be565b611adc565b34801561043757600080fd5b50610222610446366004613443565b61237a565b34801561045757600080fd5b5061034e612486565b34801561046c57600080fd5b50610475612495565b6040516101c39190613779565b34801561048e57600080fd5b506101b960ca5481565b3480156104a457600080fd5b506101b96104b33660046136a6565b6124f7565b3480156104c457600080fd5b506103a66104d3366004613443565b612507565b3480156104e457600080fd5b506101b960cb5481565b3480156104fa57600080fd5b50610222610509366004613443565b61258e565b34801561051a57600080fd5b5061052e6105293660046136a6565b6127ff565b60405161ffff90911681526020016101c3565b34801561054d57600080fd5b506101b961055c366004613443565b61282d565b34801561056d57600080fd5b506101b960cc5481565b34801561058357600080fd5b506101b960cd5481565b34801561059957600080fd5b506102226105a8366004613656565b612855565b3480156105b957600080fd5b506102226105c8366004613443565b6128a2565b3480156105d957600080fd5b506101b96105e8366004613443565b61293f565b60008060c960009054906101000a90046001600160a01b03166001600160a01b03166329166e416040518163ffffffff1660e01b815260040160206040518083038186803b15801561063e57600080fd5b505afa158015610652573d6000803e3d6000fd5b505050506040513d601f19601f82011682018060405250810190610676919061345f565b6001600160a01b03166370a08231306040518263ffffffff1660e01b81526004016106a1919061374c565b60206040518083038186803b1580156106b957600080fd5b505afa1580156106cd573d6000803e3d6000fd5b505050506040513d601f19601f820116820180604052508101906106f1919061368e565b90506106fb61169e565b61070d82670de0b6b3a76400006139ec565b61071791906139cc565b91505090565b60c95460408051636e0d075360e01b815290516000926001600160a01b031691636e0d0753916004808301926020929190829003018186803b15801561076257600080fd5b505afa158015610776573d6000803e3d6000fd5b505050506040513d601f19601f8201168201806040525081019061079a919061345f565b6001600160a01b0316336001600160a01b0316148061084f575060c960009054906101000a90046001600160a01b03166001600160a01b03166391a95b256040518163ffffffff1660e01b815260040160206040518083038186803b15801561080257600080fd5b505afa158015610816573d6000803e3d6000fd5b505050506040513d601f19601f8201168201806040525081019061083a919061345f565b6001600160a01b0316336001600160a01b0316145b806108f0575060c960009054906101000a90046001600160a01b03166001600160a01b0316633066ebe66040518163ffffffff1660e01b815260040160206040518083038186803b1580156108a357600080fd5b505afa1580156108b7573d6000803e3d6000fd5b505050506040513d601f19601f820116820180604052508101906108db919061345f565b6001600160a01b0316336001600160a01b0316145b80610991575060c960009054906101000a90046001600160a01b03166001600160a01b03166399bd7d8f6040518163ffffffff1660e01b815260040160206040518083038186803b15801561094457600080fd5b505afa158015610958573d6000803e3d6000fd5b505050506040513d601f19601f8201168201806040525081019061097c919061345f565b6001600160a01b0316336001600160a01b0316145b80610a32575060c960009054906101000a90046001600160a01b03166001600160a01b031663274e16a66040518163ffffffff1660e01b815260040160206040518083038186803b1580156109e557600080fd5b505afa1580156109f9573d6000803e3d6000fd5b505050506040513d601f19601f82011682018060405250810190610a1d919061345f565b6001600160a01b0316336001600160a01b0316145b80610a555750610a40612486565b6001600160a01b0316336001600160a01b0316145b610abd5760405162461bcd60e51b815260206004820152602e60248201527f6f6e6c7920736d617274206d656d626572732063616e2061636365737320746f60448201526d103a3434b990333ab731ba34b7b760911b60648201526084015b60405180910390fd5b60c954604080516329166e4160e01b815290516000926001600160a01b0316916329166e41916004808301926020929190829003018186803b158015610b0257600080fd5b505afa158015610b16573d6000803e3d6000fd5b505050506040513d601f19601f82011682018060405250810190610b3a919061345f565b9050600060c960009054906101000a90046001600160a01b03166001600160a01b031663dd445c316040518163ffffffff1660e01b815260040160206040518083038186803b158015610b8c57600080fd5b505afa158015610ba0573d6000803e3d6000fd5b505050506040513d601f19601f82011682018060405250810190610bc4919061345f565b90506000816001600160a01b03166370a08231306040518263ffffffff1660e01b8152600401610bf4919061374c565b60206040518083038186803b158015610c0c57600080fd5b505afa158015610c20573d6000803e3d6000fd5b505050506040513d601f19601f82011682018060405250810190610c44919061368e565b905084811015610cb65760405162461bcd60e51b815260206004820152603760248201527f476f6c64656e54726565506f6f6c2373776170446973747269627574653a20696044820152766e73756666696369656e7420534d542062616c616e636560481b6064820152608401610ab4565b6040805160028082526060820183526000926020830190803683370190505090508281600081518110610cf957634e487b7160e01b600052603260045260246000fd5b60200260200101906001600160a01b031690816001600160a01b0316815250508381600181518110610d3b57634e487b7160e01b600052603260045260246000fd5b6001600160a01b0392831660209182029290920181019190915260c954604080516271c17560e01b8152905160009492909216926271c17592600480840193829003018186803b158015610d8e57600080fd5b505afa158015610da2573d6000803e3d6000fd5b505050506040513d601f19601f82011682018060405250810190610dc6919061345f565b60405163095ea7b360e01b81529091506001600160a01b0385169063095ea7b390610df79084908b90600401613760565b602060405180830381600087803b158015610e1157600080fd5b505af1158015610e25573d6000803e3d6000fd5b505050506040513d601f19601f82011682018060405250810190610e499190613672565b506040516370a0823160e01b81526000906001600160a01b038716906370a0823190610e7990309060040161374c565b60206040518083038186803b158015610e9157600080fd5b505afa158015610ea5573d6000803e3d6000fd5b505050506040513d601f19601f82011682018060405250810190610ec9919061368e565b90506001600160a01b038216635c11d7958960008630610eeb42610e106139b4565b6040518663ffffffff1660e01b8152600401610f0b959493929190613922565b600060405180830381600087803b158015610f2557600080fd5b505af1158015610f39573d6000803e3d6000fd5b50505050600081876001600160a01b03166370a08231306040518263ffffffff1660e01b8152600401610f6c919061374c565b60206040518083038186803b158015610f8457600080fd5b505afa158015610f98573d6000803e3d6000fd5b505050506040513d601f19601f82011682018060405250810190610fbc919061368e565b610fc69190613a0b565b60408051878152602081018390529192507f63b0a0ad718a7c8cb64e4057058462c7495069b51821314a190b025aba7d5019910160405180910390a198975050505050505050565b600081116110725760405162461bcd60e51b815260206004820152602b60248201527f476f6c64656e54726565506f6f6c23627579536d74633a20496e76616c69642060448201526a1e995c9bc8185b5bdd5b9d60aa1b6064820152608401610ab4565b60c954604080516329166e4160e01b815290516000926001600160a01b0316916329166e41916004808301926020929190829003018186803b1580156110b757600080fd5b505afa1580156110cb573d6000803e3d6000fd5b505050506040513d601f19601f820116820180604052508101906110ef919061345f565b9050600060c960009054906101000a90046001600160a01b03166001600160a01b031663f58fbba86040518163ffffffff1660e01b815260040160206040518083038186803b15801561114157600080fd5b505afa158015611155573d6000803e3d6000fd5b505050506040513d601f19601f82011682018060405250810190611179919061345f565b90506000816001600160a01b03166370a08231306040518263ffffffff1660e01b81526004016111a9919061374c565b60206040518083038186803b1580156111c157600080fd5b505afa1580156111d5573d6000803e3d6000fd5b505050506040513d601f19601f820116820180604052508101906111f9919061368e565b90506000836001600160a01b03166370a08231306040518263ffffffff1660e01b8152600401611229919061374c565b60206040518083038186803b15801561124157600080fd5b505afa158015611255573d6000803e3d6000fd5b505050506040513d601f19601f82011682018060405250810190611279919061368e565b9050818511156112d35760405162461bcd60e51b81526020600482015260316024820152600080516020613ad983398151915260448201527069656e7420534d54432062616c616e636560781b6064820152608401610ab4565b6000811161132b5760405162461bcd60e51b81526020600482015260316024820152600080516020613ad983398151915260448201527069656e7420425553442062616c616e636560781b6064820152608401610ab4565b6040516323b872dd60e01b8152336004820152306024820152604481018690526001600160a01b038416906323b872dd90606401602060405180830381600087803b15801561137957600080fd5b505af115801561138d573d6000803e3d6000fd5b505050506040513d601f19601f820116820180604052508101906113b19190613672565b50604051630852cd8d60e31b8152600481018690526001600160a01b038416906342966c6890602401600060405180830381600087803b1580156113f457600080fd5b505af1158015611408573d6000803e3d6000fd5b505050506000670de0b6b3a764000061141f6105ed565b61142990886139ec565b61143391906139cc565b60405163a9059cbb60e01b81529091506001600160a01b0386169063a9059cbb906114649033908590600401613760565b602060405180830381600087803b15801561147e57600080fd5b505af1158015611492573d6000803e3d6000fd5b505050506040513d601f19601f820116820180604052508101906114b69190613672565b508060cc60008282546114c991906139b4565b9091555050505050505050565b336114df612486565b6001600160a01b0316146115055760405162461bcd60e51b8152600401610ab49061386a565b6000805b60088110156115555782816008811061153257634e487b7160e01b600052603260045260246000fd5b6020020151611541908361398e565b91508061154d81613a4e565b915050611509565b508061ffff16612710146115c35760405162461bcd60e51b815260206004820152602f60248201527f476f6c64656e54726565506f6f6c2375706461746547726f777468536861726560448201526e3a20696e76616c696420736861726560881b6064820152608401610ab4565b6115d060d083600861336a565b505050565b306001600160a01b037f000000000000000000000000000000000000000000000000000000000000000016141561161e5760405162461bcd60e51b8152600401610ab4906137bf565b7f00000000000000000000000000000000000000000000000000000000000000006001600160a01b031661165061299a565b6001600160a01b0316146116765760405162461bcd60e51b8152600401610ab4906137f9565b61167f816129b6565b6040805160008082526020820190925261169b918391906129e5565b50565b60008060c960009054906101000a90046001600160a01b03166001600160a01b031663f58fbba86040518163ffffffff1660e01b815260040160206040518083038186803b1580156116ef57600080fd5b505afa158015611703573d6000803e3d6000fd5b505050506040513d601f19601f82011682018060405250810190611727919061345f565b9050806001600160a01b03166318160ddd6040518163ffffffff1660e01b815260040160206040518083038186803b15801561176257600080fd5b505afa158015611776573d6000803e3d6000fd5b505050506040513d601f19601f82011682018060405250810190610717919061368e565b6001600160a01b038116600090815260cf60205260408120546117c0906103e8906139cc565b92915050565b336117cf612486565b6001600160a01b0316146117f55760405162461bcd60e51b8152600401610ab49061386a565b60ca55565b306001600160a01b037f00000000000000000000000000000000000000000000000000000000000000001614156118435760405162461bcd60e51b8152600401610ab4906137bf565b7f00000000000000000000000000000000000000000000000000000000000000006001600160a01b031661187561299a565b6001600160a01b03161461189b5760405162461bcd60e51b8152600401610ab4906137f9565b6118a4826129b6565b6118b0828260016129e5565b5050565b6000306001600160a01b037f0000000000000000000000000000000000000000000000000000000000000000161461194f5760405162461bcd60e51b815260206004820152603860248201527f555550535570677261646561626c653a206d757374206e6f742062652063616c6044820152771b1959081d1a1c9bdd59da0819195b1959d85d1958d85b1b60421b6064820152608401610ab4565b50600080516020613af983398151915290565b3361196b612486565b6001600160a01b0316146119915760405162461bcd60e51b8152600401610ab49061386a565b61169b81612b5f565b60006103e860cb546119ac91906139cc565b905090565b600080670de0b6b3a76400006119c561199a565b6119cf91906139cc565b60db549091508110156119e457600091505090565b60005b600a811015611a315760db81600a8110611a1157634e487b7160e01b600052603260045260246000fd5b0154821015611a1f57611a31565b80611a2981613a4e565b9150506119e7565b600a811415611a405792915050565b611a4b8160016139b4565b9250505090565b33611a5b612486565b6001600160a01b031614611a815760405162461bcd60e51b8152600401610ab49061386a565b611a8b6000612b94565b565b33611a96612486565b6001600160a01b031614611abc5760405162461bcd60e51b8152600401610ab49061386a565b61169b81612be6565b60db81600a8110611ad557600080fd5b0154905081565b611ae533612507565b80611b86575060c960009054906101000a90046001600160a01b03166001600160a01b031663dd445c316040518163ffffffff1660e01b815260040160206040518083038186803b158015611b3957600080fd5b505afa158015611b4d573d6000803e3d6000fd5b505050506040513d601f19601f82011682018060405250810190611b71919061345f565b6001600160a01b0316336001600160a01b0316145b80611c27575060c960009054906101000a90046001600160a01b03166001600160a01b0316633066ebe66040518163ffffffff1660e01b815260040160206040518083038186803b158015611bda57600080fd5b505afa158015611bee573d6000803e3d6000fd5b505050506040513d601f19601f82011682018060405250810190611c12919061345f565b6001600160a01b0316336001600160a01b0316145b611c845760405162461bcd60e51b815260206004820152602860248201527f476f6c64656e54726565506f6f6c3a206f6e6c7920726577617264206469737460448201526772696275746f727360c01b6064820152608401610ab4565b81611c8d575050565b60c954604080516329166e4160e01b815290516000926001600160a01b0316916329166e41916004808301926020929190829003018186803b158015611cd257600080fd5b505afa158015611ce6573d6000803e3d6000fd5b505050506040513d601f19601f82011682018060405250810190611d0a919061345f565b9050600060c960009054906101000a90046001600160a01b03166001600160a01b031663dd445c316040518163ffffffff1660e01b815260040160206040518083038186803b158015611d5c57600080fd5b505afa158015611d70573d6000803e3d6000fd5b505050506040513d601f19601f82011682018060405250810190611d94919061345f565b60408051600280825260608201835292935060009290916020830190803683370190505090508181600081518110611ddc57634e487b7160e01b600052603260045260246000fd5b60200260200101906001600160a01b031690816001600160a01b0316815250508281600181518110611e1e57634e487b7160e01b600052603260045260246000fd5b6001600160a01b0392831660209182029290920181019190915260c954604080516271c17560e01b8152905160009492909216926271c17592600480840193829003018186803b158015611e7157600080fd5b505afa158015611e85573d6000803e3d6000fd5b505050506040513d601f19601f82011682018060405250810190611ea9919061345f565b90506000816001600160a01b031663d06ca61f88856040518363ffffffff1660e01b8152600401611edb929190613901565b60006040518083038186803b158015611ef357600080fd5b505afa158015611f07573d6000803e3d6000fd5b505050506040513d6000823e601f3d908101601f19168201604052611f2f91908101906135af565b600181518110611f4f57634e487b7160e01b600052603260045260246000fd5b602002602001015190506000869050600060c960009054906101000a90046001600160a01b03166001600160a01b03166391a95b256040518163ffffffff1660e01b815260040160206040518083038186803b158015611fae57600080fd5b505afa158015611fc2573d6000803e3d6000fd5b505050506040513d601f19601f82011682018060405250810190611fe6919061345f565b9050600060c960009054906101000a90046001600160a01b03166001600160a01b0316636e0d07536040518163ffffffff1660e01b815260040160206040518083038186803b15801561203857600080fd5b505afa15801561204c573d6000803e3d6000fd5b505050506040513d601f19601f82011682018060405250810190612070919061345f565b905060005b60088110156122c357600060d082600881106120a157634e487b7160e01b600052603260045260246000fd5b601091828204019190066002029054906101000a900461ffff16905060008161ffff161180156120d957506001600160a01b03851615155b156122315760006127106120f161ffff8416896139ec565b6120fb91906139cc565b90508261214a5761210c8682612c38565b7f79d4a19ce0eee29303dfd85bafd98b153a977668f08db66db6b50160bdc014a2818760405161213d9291906138ea565b60405180910390a161222f565b60405163d2ae413d60e01b81526000906001600160a01b0386169063d2ae413d90612179908a9060040161374c565b60206040518083038186803b15801561219157600080fd5b505afa1580156121a5573d6000803e3d6000fd5b505050506040513d601f19601f820116820180604052508101906121c9919061368e565b905083811061222d576121dc8783612c38565b604080518381526001600160a01b0389811660208301528f16818301526060810186905290517f9b6eaa6cce558a5008676bd86ec3d9fa13bc6555c18e1247f0be80dd191dfe4d9181900360800190a15b505b505b604051631a70845360e11b81526001600160a01b038516906334e108a69061225d90889060040161374c565b60206040518083038186803b15801561227557600080fd5b505afa158015612289573d6000803e3d6000fd5b505050506040513d601f19601f820116820180604052508101906122ad919061345f565b94505080806122bb90613a4e565b915050612075565b508360cb60008282546122d691906139b4565b90915550600090506122e66119b1565b90508060ce541015612334576122fb81612d9b565b60ce8190556040518181527f05552d6bc0ec6d192bad5dba7ac026d19dc5e2e46ff6919add5e4b160a0566d39060200160405180910390a15b7ffb5edb6eb340a01f6a67189edc978df97841c43752c212fc85995ea2300176358b8b6040516123659291906138ea565b60405180910390a15050505050505050505050565b33612383612486565b6001600160a01b0316146123a95760405162461bcd60e51b8152600401610ab49061386a565b806001600160a01b0316627e3dd26040518163ffffffff1660e01b815260040160206040518083038186803b1580156123e157600080fd5b505afa1580156123f5573d6000803e3d6000fd5b505050506040513d601f19601f820116820180604052508101906124199190613672565b6124645760405162461bcd60e51b815260206004820152601c60248201527b6d61726b6572206d6574686f642072657475726e65642066616c736560201b6044820152606401610ab4565b60c980546001600160a01b0319166001600160a01b0392909216919091179055565b6097546001600160a01b031690565b606060e58054806020026020016040519081016040528092919081815260200182805480156124ed57602002820191906000526020600020905b81546001600160a01b031681526001909101906020018083116124cf575b5050505050905090565b60d181600a8110611ad557600080fd5b6000805b60e55481101561257257826001600160a01b031660e5828154811061254057634e487b7160e01b600052603260045260246000fd5b6000918252602090912001546001600160a01b0316141561256057612572565b8061256a81613a4e565b91505061250b565b60e5548110156125855750600192915050565b50600092915050565b600054610100900460ff166125a95760005460ff16156125b1565b6125b1612f9b565b6126145760405162461bcd60e51b815260206004820152602e60248201527f496e697469616c697a61626c653a20636f6e747261637420697320616c72656160448201526d191e481a5b9a5d1a585b1a5e995960921b6064820152608401610ab4565b600054610100900460ff16158015612636576000805461ffff19166101011790555b61263e612fac565b60c980546001600160a81b0319166001600160a01b03841617600160a01b179055683635c9adc5dea0000060ca55604080516101008101825261196481526101f460208201819052918101829052606081018290526080810182905260a0810182905260c0810182905260e08101919091526126be9060d090600861336a565b5060405180610140016040528060008152602001670de0b6b3a76400008152602001678ac7230489e8000081526020016802b5e3af16b1880000815260200168056bc75e2d631000008152602001681b1ae4d6e2ef5000008152602001683635c9adc5dea00000815260200169010f0cf064dd59200000815260200169021e19e0c9bab240000081526020016911c9a62d04ed0c80000081525060d190600a612768929190613400565b50604051806101400160405280600181526020016013815260200161010f81526020016103e7815260200161169a81526020016196938152602001620bd1678152602001621c50d48152602001630200606981526020016303ccac2681525060db90600a6127d7929190613400565b506127e130612be6565b6127ea33612be6565b80156118b0576000805461ff00191690555050565b60d0816008811061280f57600080fd5b60109182820401919006600202915054906101000a900461ffff1681565b600061283761199a565b6128408361179a565b61284b9060646139ec565b6117c091906139cc565b3361285e612486565b6001600160a01b0316146128845760405162461bcd60e51b8152600401610ab49061386a565b60c98054911515600160a01b0260ff60a01b19909216919091179055565b336128ab612486565b6001600160a01b0316146128d15760405162461bcd60e51b8152600401610ab49061386a565b6001600160a01b0381166129365760405162461bcd60e51b815260206004820152602660248201527f4f776e61626c653a206e6577206f776e657220697320746865207a65726f206160448201526564647265737360d01b6064820152608401610ab4565b61169b81612b94565b6000805b826001600160a01b031660e5828154811061296e57634e487b7160e01b600052603260045260246000fd5b6000918252602090912001546001600160a01b0316146117c0578061299281613a4e565b915050612943565b600080516020613af9833981519152546001600160a01b031690565b336129bf612486565b6001600160a01b03161461169b5760405162461bcd60e51b8152600401610ab49061386a565b7f4910fdfa16fed3260ed0e7147f7cc6da11a60208b5b9406d12a635614ffd91435460ff1615612a18576115d083612fdb565b826001600160a01b03166352d1902d6040518163ffffffff1660e01b815260040160206040518083038186803b158015612a5157600080fd5b505afa925050508015612a81575060408051601f3d908101601f19168201909252612a7e9181019061368e565b60015b612ae45760405162461bcd60e51b815260206004820152602e60248201527f45524331393637557067726164653a206e657720696d706c656d656e7461746960448201526d6f6e206973206e6f74205555505360901b6064820152608401610ab4565b600080516020613af98339815191528114612b535760405162461bcd60e51b815260206004820152602960248201527f45524331393637557067726164653a20756e737570706f727465642070726f786044820152681a58589b195555525160ba1b6064820152608401610ab4565b506115d0838383613075565b60e554612b7e5760405162461bcd60e51b8152600401610ab490613833565b6000612b898261293f565b90506118b0816130a0565b609780546001600160a01b038381166001600160a01b0319831681179093556040519116919082907f8be0079c531659141344cd1fd0a4f28419497f9722a3daafe3b4186f6b6457e090600090a35050565b60e580546001810182556000919091527f5625f7c930b8b40de87dc8e69145d83fd1d81c61b6c31fb7cfe69fac65b286420180546001600160a01b0319166001600160a01b0392909216919091179055565b6000612c438361179a565b6001600160a01b038416600090815260cf6020526040812080549293508492909190612c709084906139b4565b909155505060c95460408051630e3fd31360e21b815290516000926001600160a01b0316916338ff4c4c916004808301926020929190829003018186803b158015612cba57600080fd5b505afa158015612cce573d6000803e3d6000fd5b505050506040513d601f19601f82011682018060405250810190612cf2919061345f565b9050806001600160a01b0316631f888ecc8584612d0e8861179a565b6040516001600160e01b031960e086901b1681526001600160a01b03909316600484015260248301919091526044820152606401602060405180830381600087803b158015612d5c57600080fd5b505af1158015612d70573d6000803e3d6000fd5b505050506040513d601f19601f82011682018060405250810190612d949190613672565b5050505050565b600060d1612daa600184613a0b565b600a8110612dc857634e487b7160e01b600052603260045260246000fd5b01549050600060c960009054906101000a90046001600160a01b03166001600160a01b03166338ff4c4c6040518163ffffffff1660e01b815260040160206040518083038186803b158015612e1c57600080fd5b505afa158015612e30573d6000803e3d6000fd5b505050506040513d601f19601f82011682018060405250810190612e54919061345f565b9050600060c960009054906101000a90046001600160a01b03166001600160a01b03166326a713796040518163ffffffff1660e01b815260040160206040518083038186803b158015612ea657600080fd5b505afa158015612eba573d6000803e3d6000fd5b505050506040513d601f19601f82011682018060405250810190612ede919061345f565b60405163310f2d6160e11b8152600481018590529091506001600160a01b0383169063621e5ac290602401600060405180830381600087803b158015612f2357600080fd5b505af1158015612f37573d6000803e3d6000fd5b5050604051630236668f60e51b8152600481018690526001600160a01b03841692506346ccd1e09150602401600060405180830381600087803b158015612f7d57600080fd5b505af1158015612f91573d6000803e3d6000fd5b5050505050505050565b6000612fa6306131b9565b15905090565b600054610100900460ff16612fd35760405162461bcd60e51b8152600401610ab49061389f565b611a8b6131c8565b612fe4816131b9565b6130465760405162461bcd60e51b815260206004820152602d60248201527f455243313936373a206e657720696d706c656d656e746174696f6e206973206e60448201526c1bdd08184818dbdb9d1c9858dd609a1b6064820152608401610ab4565b600080516020613af983398151915280546001600160a01b0319166001600160a01b0392909216919091179055565b61307e836131f8565b60008251118061308b5750805b156115d05761309a8383613238565b50505050565b60e5546130bf5760405162461bcd60e51b8152600401610ab490613833565b60e5546130ce90600190613a0b565b8110156131755760e56130e28260016139b4565b8154811061310057634e487b7160e01b600052603260045260246000fd5b60009182526020909120015460e580546001600160a01b03909216918390811061313a57634e487b7160e01b600052603260045260246000fd5b600091825260209091200180546001600160a01b0319166001600160a01b03929092169190911790558061316d81613a4e565b9150506130bf565b60e580548061319457634e487b7160e01b600052603160045260246000fd5b600082815260209020810160001990810180546001600160a01b031916905501905550565b6001600160a01b03163b151590565b600054610100900460ff166131ef5760405162461bcd60e51b8152600401610ab49061389f565b611a8b33612b94565b61320181612fdb565b6040516001600160a01b038216907fbc7cd75a20ee27fd9adebab32041f755214dbc6bffa90cc0225b39da2e5c2d3b90600090a250565b6060613243836131b9565b61329e5760405162461bcd60e51b815260206004820152602660248201527f416464726573733a2064656c65676174652063616c6c20746f206e6f6e2d636f6044820152651b9d1c9858dd60d21b6064820152608401610ab4565b600080846001600160a01b0316846040516132b99190613730565b600060405180830381855af49150503d80600081146132f4576040519150601f19603f3d011682016040523d82523d6000602084013e6132f9565b606091505b50915091506133218282604051806060016040528060278152602001613b196027913961332a565b95945050505050565b60608315613339575081613363565b8251156133495782518084602001fd5b8160405162461bcd60e51b8152600401610ab4919061378c565b9392505050565b6001830191839082156133f05791602002820160005b838211156133c057835183826101000a81548161ffff021916908361ffff1602179055509260200192600201602081600101049283019260010302613380565b80156133ee5782816101000a81549061ffff02191690556002016020816001010492830192600103026133c0565b505b506133fc92915061342e565b5090565b82600a81019282156133f0579160200282015b828111156133f0578251825591602001919060010190613413565b5b808211156133fc576000815560010161342f565b600060208284031215613454578081fd5b813561336381613a95565b600060208284031215613470578081fd5b815161336381613a95565b6000806040838503121561348d578081fd5b823561349881613a95565b91506020838101356001600160401b03808211156134b4578384fd5b818601915086601f8301126134c7578384fd5b8135818111156134d9576134d9613a7f565b6134eb601f8201601f1916850161395e565b91508082528784828501011115613500578485fd5b8084840185840137810190920192909252919491935090915050565b600061010080838503121561352f578182fd5b83601f84011261353d578182fd5b6040518181016001600160401b038111828210171561355e5761355e613a7f565b6040528084838101871015613571578485fd5b8493505b60088410156135a457803561ffff8116811461358f578586fd5b82526001939093019260209182019101613575565b509095945050505050565b600060208083850312156135c1578182fd5b82516001600160401b03808211156135d7578384fd5b818501915085601f8301126135ea578384fd5b8151818111156135fc576135fc613a7f565b8060051b915061360d84830161395e565b8181528481019084860184860187018a1015613627578788fd5b8795505b8386101561364957805183526001959095019491860191860161362b565b5098975050505050505050565b600060208284031215613667578081fd5b813561336381613aaa565b600060208284031215613683578081fd5b815161336381613aaa565b60006020828403121561369f578081fd5b5051919050565b6000602082840312156136b7578081fd5b5035919050565b600080604083850312156136d0578182fd5b8235915060208301356136e281613a95565b809150509250929050565b6000815180845260208085019450808401835b838110156137255781516001600160a01b031687529582019590820190600101613700565b509495945050505050565b60008251613742818460208701613a22565b9190910192915050565b6001600160a01b0391909116815260200190565b6001600160a01b03929092168252602082015260400190565b60208152600061336360208301846136ed565b60208152600082518060208401526137ab816040850160208701613a22565b601f01601f19169190910160400192915050565b6020808252602c90820152600080516020613ab983398151915260408201526b19195b1959d85d1958d85b1b60a21b606082015260800190565b6020808252602c90820152600080516020613ab983398151915260408201526b6163746976652070726f787960a01b606082015260800190565b6020808252601d908201527f546865206172726179206c656e677468206973207a65726f206e6f772e000000604082015260600190565b6020808252818101527f4f776e61626c653a2063616c6c6572206973206e6f7420746865206f776e6572604082015260600190565b6020808252602b908201527f496e697469616c697a61626c653a20636f6e7472616374206973206e6f74206960408201526a6e697469616c697a696e6760a81b606082015260800190565b9182526001600160a01b0316602082015260400190565b82815260406020820152600061391a60408301846136ed565b949350505050565b85815284602082015260a06040820152600061394160a08301866136ed565b6001600160a01b0394909416606083015250608001529392505050565b604051601f8201601f191681016001600160401b038111828210171561398657613986613a7f565b604052919050565b600061ffff8083168185168083038211156139ab576139ab613a69565b01949350505050565b600082198211156139c7576139c7613a69565b500190565b6000826139e757634e487b7160e01b81526012600452602481fd5b500490565b6000816000190483118215151615613a0657613a06613a69565b500290565b600082821015613a1d57613a1d613a69565b500390565b60005b83811015613a3d578181015183820152602001613a25565b8381111561309a5750506000910152565b6000600019821415613a6257613a62613a69565b5060010190565b634e487b7160e01b600052601160045260246000fd5b634e487b7160e01b600052604160045260246000fd5b6001600160a01b038116811461169b57600080fd5b801515811461169b57600080fdfe46756e6374696f6e206d7573742062652063616c6c6564207468726f75676820476f6c64656e54726565506f6f6c23627579536d74633a20696e737566666963360894a13ba1a3210667c828492db98dca3e2076cc3735a920a3ca505d382bbc416464726573733a206c6f772d6c6576656c2064656c65676174652063616c6c206661696c6564a2646970667358221220258d569970bad1c99725a4d18232b6752826b66d923505604b0951940ece4d9c64736f6c63430008040033",
  "linkReferences": {},
  "deployedLinkReferences": {}
}