{
  "_format": "hh-sol-artifact-1",
  "contractName": "SmartTokenCash",
  "sourceName": "contracts/SmartTokenCash.sol",
  "abi": [
    {
      "anonymous": false,
      "inputs": [
        {
          "indexed": false,
          "internalType": "address",
          "name": "previousAdmin",
          "type": "address"
        },
        {
          "indexed": false,
          "internalType": "address",
          "name": "newAdmin",
          "type": "address"
        }
      ],
      "name": "AdminChanged",
      "type": "event"
    },
    {
      "anonymous": false,
      "inputs": [
        {
          "indexed": true,
          "internalType": "address",
          "name": "owner",
          "type": "address"
        },
        {
          "indexed": true,
          "internalType": "address",
          "name": "spender",
          "type": "address"
        },
        {
          "indexed": false,
          "internalType": "uint256",
          "name": "value",
          "type": "uint256"
        }
      ],
      "name": "Approval",
      "type": "event"
    },
    {
      "anonymous": false,
      "inputs": [
        {
          "indexed": true,
          "internalType": "address",
          "name": "beacon",
          "type": "address"
        }
      ],
      "name": "BeaconUpgraded",
      "type": "event"
    },
    {
      "anonymous": false,
      "inputs": [
        {
          "indexed": true,
          "internalType": "address",
          "name": "previousOwner",
          "type": "address"
        },
        {
          "indexed": true,
          "internalType": "address",
          "name": "newOwner",
          "type": "address"
        }
      ],
      "name": "OwnershipTransferred",
      "type": "event"
    },
    {
      "anonymous": false,
      "inputs": [
        {
          "indexed": true,
          "internalType": "address",
          "name": "from",
          "type": "address"
        },
        {
          "indexed": true,
          "internalType": "address",
          "name": "to",
          "type": "address"
        },
        {
          "indexed": false,
          "internalType": "uint256",
          "name": "value",
          "type": "uint256"
        }
      ],
      "name": "Transfer",
      "type": "event"
    },
    {
      "anonymous": false,
      "inputs": [
        {
          "indexed": true,
          "internalType": "address",
          "name": "implementation",
          "type": "address"
        }
      ],
      "name": "Upgraded",
      "type": "event"
    },
    {
      "inputs": [],
      "name": "BURN_ADDRESS",
      "outputs": [
        {
          "internalType": "address",
          "name": "",
          "type": "address"
        }
      ],
      "stateMutability": "view",
      "type": "function"
    },
    {
      "inputs": [],
      "name": "_operator",
      "outputs": [
        {
          "internalType": "address",
          "name": "",
          "type": "address"
        }
      ],
      "stateMutability": "view",
      "type": "function"
    },
    {
      "inputs": [],
      "name": "_uniswapV2BUSDPair",
      "outputs": [
        {
          "internalType": "address",
          "name": "",
          "type": "address"
        }
      ],
      "stateMutability": "view",
      "type": "function"
    },
    {
      "inputs": [
        {
          "internalType": "address",
          "name": "owner",
          "type": "address"
        },
        {
          "internalType": "address",
          "name": "spender",
          "type": "address"
        }
      ],
      "name": "allowance",
      "outputs": [
        {
          "internalType": "uint256",
          "name": "",
          "type": "uint256"
        }
      ],
      "stateMutability": "view",
      "type": "function"
    },
    {
      "inputs": [
        {
          "internalType": "address",
          "name": "spender",
          "type": "address"
        },
        {
          "internalType": "uint256",
          "name": "amount",
          "type": "uint256"
        }
      ],
      "name": "approve",
      "outputs": [
        {
          "internalType": "bool",
          "name": "",
          "type": "bool"
        }
      ],
      "stateMutability": "nonpayable",
      "type": "function"
    },
    {
      "inputs": [
        {
          "internalType": "address",
          "name": "account",
          "type": "address"
        }
      ],
      "name": "balanceOf",
      "outputs": [
        {
          "internalType": "uint256",
          "name": "",
          "type": "uint256"
        }
      ],
      "stateMutability": "view",
      "type": "function"
    },
    {
      "inputs": [
        {
          "internalType": "uint256",
          "name": "_amount",
          "type": "uint256"
        }
      ],
      "name": "burn",
      "outputs": [],
      "stateMutability": "nonpayable",
      "type": "function"
    },
    {
      "inputs": [],
      "name": "comptroller",
      "outputs": [
        {
          "internalType": "contract ISmartComp",
          "name": "",
          "type": "address"
        }
      ],
      "stateMutability": "view",
      "type": "function"
    },
    {
      "inputs": [],
      "name": "decimals",
      "outputs": [
        {
          "internalType": "uint8",
          "name": "",
          "type": "uint8"
        }
      ],
      "stateMutability": "view",
      "type": "function"
    },
    {
      "inputs": [
        {
          "internalType": "address",
          "name": "spender",
          "type": "address"
        },
        {
          "internalType": "uint256",
          "name": "subtractedValue",
          "type": "uint256"
        }
      ],
      "name": "decreaseAllowance",
      "outputs": [
        {
          "internalType": "bool",
          "name": "",
          "type": "bool"
        }
      ],
      "stateMutability": "nonpayable",
      "type": "function"
    },
    {
      "inputs": [],
      "name": "getOwner",
      "outputs": [
        {
          "internalType": "address",
          "name": "",
          "type": "address"
        }
      ],
      "stateMutability": "view",
      "type": "function"
    },
    {
      "inputs": [
        {
          "internalType": "address",
          "name": "spender",
          "type": "address"
        },
        {
          "internalType": "uint256",
          "name": "addedValue",
          "type": "uint256"
        }
      ],
      "name": "increaseAllowance",
      "outputs": [
        {
          "internalType": "bool",
          "name": "",
          "type": "bool"
        }
      ],
      "stateMutability": "nonpayable",
      "type": "function"
    },
    {
      "inputs": [
        {
          "internalType": "address",
          "name": "_comp",
          "type": "address"
        },
        {
          "internalType": "address",
          "name": "_questReward",
          "type": "address"
        },
        {
          "internalType": "address",
          "name": "_dev",
          "type": "address"
        },
        {
          "internalType": "address",
          "name": "_airdrop",
          "type": "address"
        }
      ],
      "name": "initialize",
      "outputs": [],
      "stateMutability": "nonpayable",
      "type": "function"
    },
    {
      "inputs": [],
      "name": "name",
      "outputs": [
        {
          "internalType": "string",
          "name": "",
          "type": "string"
        }
      ],
      "stateMutability": "view",
      "type": "function"
    },
    {
      "inputs": [],
      "name": "owner",
      "outputs": [
        {
          "internalType": "address",
          "name": "",
          "type": "address"
        }
      ],
      "stateMutability": "view",
      "type": "function"
    },
    {
      "inputs": [],
      "name": "proxiableUUID",
      "outputs": [
        {
          "internalType": "bytes32",
          "name": "",
          "type": "bytes32"
        }
      ],
      "stateMutability": "view",
      "type": "function"
    },
    {
      "inputs": [],
      "name": "renounceOwnership",
      "outputs": [],
      "stateMutability": "nonpayable",
      "type": "function"
    },
    {
      "inputs": [],
      "name": "symbol",
      "outputs": [
        {
          "internalType": "string",
          "name": "",
          "type": "string"
        }
      ],
      "stateMutability": "view",
      "type": "function"
    },
    {
      "inputs": [],
      "name": "totalSupply",
      "outputs": [
        {
          "internalType": "uint256",
          "name": "",
          "type": "uint256"
        }
      ],
      "stateMutability": "view",
      "type": "function"
    },
    {
      "inputs": [
        {
          "internalType": "address",
          "name": "recipient",
          "type": "address"
        },
        {
          "internalType": "uint256",
          "name": "amount",
          "type": "uint256"
        }
      ],
      "name": "transfer",
      "outputs": [
        {
          "internalType": "bool",
          "name": "",
          "type": "bool"
        }
      ],
      "stateMutability": "nonpayable",
      "type": "function"
    },
    {
      "inputs": [
        {
          "internalType": "address",
          "name": "sender",
          "type": "address"
        },
        {
          "internalType": "address",
          "name": "recipient",
          "type": "address"
        },
        {
          "internalType": "uint256",
          "name": "amount",
          "type": "uint256"
        }
      ],
      "name": "transferFrom",
      "outputs": [
        {
          "internalType": "bool",
          "name": "",
          "type": "bool"
        }
      ],
      "stateMutability": "nonpayable",
      "type": "function"
    },
    {
      "inputs": [
        {
          "internalType": "address",
          "name": "newOwner",
          "type": "address"
        }
      ],
      "name": "transferOwnership",
      "outputs": [],
      "stateMutability": "nonpayable",
      "type": "function"
    },
    {
      "inputs": [
        {
          "internalType": "address",
          "name": "newImplementation",
          "type": "address"
        }
      ],
      "name": "upgradeTo",
      "outputs": [],
      "stateMutability": "nonpayable",
      "type": "function"
    },
    {
      "inputs": [
        {
          "internalType": "address",
          "name": "newImplementation",
          "type": "address"
        },
        {
          "internalType": "bytes",
          "name": "data",
          "type": "bytes"
        }
      ],
      "name": "upgradeToAndCall",
      "outputs": [],
      "stateMutability": "payable",
      "type": "function"
    }
  ],
  "bytecode": "0x60a06040523060601b60805234801561001757600080fd5b5060805160601c611fa46100526000396000818161056a015281816105b30152818161067c015281816106bc01526107380152611fa46000f3fe60806040526004361061011b5760003560e01c806306fdde0314610120578063095ea7b31461014b57806318160ddd1461017b57806323b872dd1461019a578063313ce567146101ba5780633659cfe6146101dc57806339509351146101fe5780633b860c931461021e57806342966c68146102565780634f1ef2861461027657806352d1902d146102895780635fe3b5671461029e57806370a08231146102be57806370b0a843146102f4578063715018a614610314578063893d20e8146103295780638da5cb5b1461034757806395d89b411461035c578063a457c2d714610371578063a9059cbb14610391578063dd62ed3e146103b1578063f2fde38b146103f7578063f8c8765e14610417578063fccc281314610437575b600080fd5b34801561012c57600080fd5b5061013561044d565b6040516101429190611c13565b60405180910390f35b34801561015757600080fd5b5061016b610166366004611b9c565b6104df565b6040519015158152602001610142565b34801561018757600080fd5b5060cf545b604051908152602001610142565b3480156101a657600080fd5b5061016b6101b5366004611a9e565b6104f5565b3480156101c657600080fd5b5060ce5460405160ff9091168152602001610142565b3480156101e857600080fd5b506101fc6101f73660046119d3565b61055f565b005b34801561020a57600080fd5b5061016b610219366004611b9c565b610631565b34801561022a57600080fd5b5060c95461023e906001600160a01b031681565b6040516001600160a01b039091168152602001610142565b34801561026257600080fd5b506101fc610271366004611bdf565b610667565b6101fc610284366004611ade565b610671565b34801561029557600080fd5b5061018c61072b565b3480156102aa57600080fd5b5060cb5461023e906001600160a01b031681565b3480156102ca57600080fd5b5061018c6102d93660046119d3565b6001600160a01b0316600090815260d0602052604090205490565b34801561030057600080fd5b5060ca5461023e906001600160a01b031681565b34801561032057600080fd5b506101fc6107d9565b34801561033557600080fd5b5060ca546001600160a01b031661023e565b34801561035357600080fd5b5061023e610814565b34801561036857600080fd5b50610135610823565b34801561037d57600080fd5b5061016b61038c366004611b9c565b610832565b34801561039d57600080fd5b5061016b6103ac366004611b9c565b610881565b3480156103bd57600080fd5b5061018c6103cc366004611a0b565b6001600160a01b03918216600090815260d16020908152604080832093909416825291909152205490565b34801561040357600080fd5b506101fc6104123660046119d3565b61088e565b34801561042357600080fd5b506101fc610432366004611a43565b61092b565b34801561044357600080fd5b5061023e61dead81565b606060cc805461045c90611e22565b80601f016020809104026020016040519081016040528092919081815260200182805461048890611e22565b80156104d55780601f106104aa576101008083540402835291602001916104d5565b820191906000526020600020905b8154815290600101906020018083116104b857829003601f168201915b5050505050905090565b60006104ec3384846109b9565b50600192915050565b6000610502848484610ad2565b610554843361054f85604051806060016040528060268152602001611ec2602691396001600160a01b038a16600090815260d1602090815260408083203384529091529020549190610c8f565b6109b9565b5060015b9392505050565b306001600160a01b037f00000000000000000000000000000000000000000000000000000000000000001614156105b15760405162461bcd60e51b81526004016105a890611c46565b60405180910390fd5b7f00000000000000000000000000000000000000000000000000000000000000006001600160a01b03166105e3610cbb565b6001600160a01b0316146106095760405162461bcd60e51b81526004016105a890611c80565b61061281610cd7565b6040805160008082526020820190925261062e91839190610d06565b50565b33600081815260d1602090815260408083206001600160a01b038716845290915281205490916104ec91859061054f9086610e85565b61062e3382610e91565b306001600160a01b037f00000000000000000000000000000000000000000000000000000000000000001614156106ba5760405162461bcd60e51b81526004016105a890611c46565b7f00000000000000000000000000000000000000000000000000000000000000006001600160a01b03166106ec610cbb565b6001600160a01b0316146107125760405162461bcd60e51b81526004016105a890611c80565b61071b82610cd7565b61072782826001610d06565b5050565b6000306001600160a01b037f000000000000000000000000000000000000000000000000000000000000000016146107c65760405162461bcd60e51b815260206004820152603860248201527f555550535570677261646561626c653a206d757374206e6f742062652063616c6044820152771b1959081d1a1c9bdd59da0819195b1959d85d1958d85b1b60421b60648201526084016105a8565b50600080516020611f0883398151915290565b336107e2610814565b6001600160a01b0316146108085760405162461bcd60e51b81526004016105a890611d08565b6108126000610fc6565b565b6097546001600160a01b031690565b606060cd805461045c90611e22565b60006104ec338461054f85604051806060016040528060238152602001611e9f6023913933600090815260d1602090815260408083206001600160a01b038d1684529091529020549190610c8f565b60006104ec338484610ad2565b33610897610814565b6001600160a01b0316146108bd5760405162461bcd60e51b81526004016105a890611d08565b6001600160a01b0381166109225760405162461bcd60e51b815260206004820152602660248201527f4f776e61626c653a206e6577206f776e657220697320746865207a65726f206160448201526564647265737360d01b60648201526084016105a8565b61062e81610fc6565b600054610100900460ff166109465760005460ff161561094e565b61094e611018565b61096a5760405162461bcd60e51b81526004016105a890611cba565b600054610100900460ff1615801561098c576000805461ffff19166101011790555b610994611029565b6109a085858585611058565b80156109b2576000805461ff00191690555b5050505050565b6001600160a01b038316610a1a5760405162461bcd60e51b815260206004820152602260248201527f534d543a20617070726f76652066726f6d20746865207a65726f206164647265604482015261737360f01b60648201526084016105a8565b6001600160a01b038216610a705760405162461bcd60e51b815260206004820181905260248201527f534d543a20617070726f766520746f20746865207a65726f206164647265737360448201526064016105a8565b6001600160a01b03838116600081815260d1602090815260408083209487168084529482529182902085905590518481527f8c5be1e5ebec7d5bd14f71427d1e84f3dd0314c0f7b2291e5b200ac8c7c3b92591015b60405180910390a3505050565b6001600160a01b038316610b365760405162461bcd60e51b815260206004820152602560248201527f45524332303a207472616e736665722066726f6d20746865207a65726f206164604482015264647265737360d81b60648201526084016105a8565b6001600160a01b038216610b985760405162461bcd60e51b815260206004820152602360248201527f45524332303a207472616e7366657220746f20746865207a65726f206164647260448201526265737360e81b60648201526084016105a8565b6001600160a01b038316600090815260d0602052604090205481811015610c105760405162461bcd60e51b815260206004820152602660248201527f45524332303a207472616e7366657220616d6f756e7420657863656564732062604482015265616c616e636560d01b60648201526084016105a8565b6001600160a01b03808516600090815260d06020526040808220858503905591851681529081208054849290610c47908490611d88565b92505081905550826001600160a01b0316846001600160a01b0316600080516020611f4f83398151915284604051610c8191815260200190565b60405180910390a350505050565b60008184841115610cb35760405162461bcd60e51b81526004016105a89190611c13565b505050900390565b600080516020611f08833981519152546001600160a01b031690565b33610ce0610814565b6001600160a01b03161461062e5760405162461bcd60e51b81526004016105a890611d08565b7f4910fdfa16fed3260ed0e7147f7cc6da11a60208b5b9406d12a635614ffd91435460ff1615610d3e57610d39836116b3565b505050565b826001600160a01b03166352d1902d6040518163ffffffff1660e01b815260040160206040518083038186803b158015610d7757600080fd5b505afa925050508015610da7575060408051601f3d908101601f19168201909252610da491810190611bc7565b60015b610e0a5760405162461bcd60e51b815260206004820152602e60248201527f45524331393637557067726164653a206e657720696d706c656d656e7461746960448201526d6f6e206973206e6f74205555505360901b60648201526084016105a8565b600080516020611f088339815191528114610e795760405162461bcd60e51b815260206004820152602960248201527f45524331393637557067726164653a20756e737570706f727465642070726f786044820152681a58589b195555525160ba1b60648201526084016105a8565b50610d3983838361174d565b60006105588284611d88565b6001600160a01b038216610ef15760405162461bcd60e51b815260206004820152602160248201527f45524332303a206275726e2066726f6d20746865207a65726f206164647265736044820152607360f81b60648201526084016105a8565b6001600160a01b038216600090815260d0602052604090205481811015610f655760405162461bcd60e51b815260206004820152602260248201527f45524332303a206275726e20616d6f756e7420657863656564732062616c616e604482015261636560f01b60648201526084016105a8565b6001600160a01b038316600090815260d060205260408120838303905560cf8054849290610f94908490611ddf565b909155505060405182815261dead906001600160a01b03851690600080516020611f4f83398151915290602001610ac5565b609780546001600160a01b038381166001600160a01b0319831681179093556040519116919082907f8be0079c531659141344cd1fd0a4f28419497f9722a3daafe3b4186f6b6457e090600090a35050565b600061102330611778565b15905090565b600054610100900460ff166110505760405162461bcd60e51b81526004016105a890611d3d565b610812611787565b600054610100900460ff166110735760005460ff161561107b565b61107b611018565b6110975760405162461bcd60e51b81526004016105a890611cba565b600054610100900460ff161580156110b9576000805461ffff19166101011790555b6040805180820190915260108082526f0a6dac2e4e840a8ded6cadc4086c2e6d60831b60209092019182526110f09160cc9161193a565b5060408051808201909152600480825263534d544360e01b602090920191825261111c9160cd9161193a565b5060ce805460ff1916601217905569d3c21bcecceda100000060cf5560cb80546001600160a01b0387166001600160a01b03199091168117909155604080516399bd7d8f60e01b81529051600092916399bd7d8f916004828101926020929190829003018186803b15801561119057600080fd5b505afa1580156111a4573d6000803e3d6000fd5b505050506040513d601f19601f820116820180604052508101906111c891906119ef565b9050600060cb60009054906101000a90046001600160a01b03166001600160a01b03166338ff4c4c6040518163ffffffff1660e01b815260040160206040518083038186803b15801561121a57600080fd5b505afa15801561122e573d6000803e3d6000fd5b505050506040513d601f19601f8201168201806040525081019061125291906119ef565b9050600060cb60009054906101000a90046001600160a01b03166001600160a01b03166326a713796040518163ffffffff1660e01b815260040160206040518083038186803b1580156112a457600080fd5b505afa1580156112b8573d6000803e3d6000fd5b505050506040513d601f19601f820116820180604052508101906112dc91906119ef565b60ca80546001600160a01b0319163317905560cb54604080516271c17560e01b815290519293506000926001600160a01b0392909216916271c17591600480820192602092909190829003018186803b15801561133857600080fd5b505afa15801561134c573d6000803e3d6000fd5b505050506040513d601f19601f8201168201806040525081019061137091906119ef565b9050600060cb60009054906101000a90046001600160a01b03166001600160a01b03166329166e416040518163ffffffff1660e01b815260040160206040518083038186803b1580156113c257600080fd5b505afa1580156113d6573d6000803e3d6000fd5b505050506040513d601f19601f820116820180604052508101906113fa91906119ef565b9050816001600160a01b031663c45a01556040518163ffffffff1660e01b815260040160206040518083038186803b15801561143557600080fd5b505afa158015611449573d6000803e3d6000fd5b505050506040513d601f19601f8201168201806040525081019061146d91906119ef565b6040516364e329cb60e11b81523060048201526001600160a01b038381166024830152919091169063c9c6539690604401602060405180830381600087803b1580156114b857600080fd5b505af11580156114cc573d6000803e3d6000fd5b505050506040513d601f19601f820116820180604052508101906114f091906119ef565b60c980546001600160a01b0319166001600160a01b039290921691909117905560cf5461152e9061c9789061152890620186a06117b7565b906117c3565b6001600160a01b038a16600090815260d0602052604090205560cf5461155f90614ea49061152890620186a06117b7565b6001600160a01b038616600090815260d0602052604090205560cf5461158690600a6117b7565b6001600160a01b038916600090815260d0602052604090205560cf546115b4906009906115289060646117b7565b6001600160a01b038416600090815260d0602052604090205560cf546115e590611e0c9061152890620186a06117b7565b6001600160a01b038516600090815260d0602052604090205560cf5461160c9060646117b7565b60ca546001600160a01b0316600090815260d0602052604090205560cf5461163d90600590611528906103e86117b7565b6001600160a01b038816600090815260d0602052604090205560cf54611665906103e86117b7565b60ca546001600160a01b0316600090815260d060205260408120805490919061168f908490611d88565b92505081905550505050505080156109b2576000805461ff00191690555050505050565b6116bc81611778565b61171e5760405162461bcd60e51b815260206004820152602d60248201527f455243313936373a206e657720696d706c656d656e746174696f6e206973206e60448201526c1bdd08184818dbdb9d1c9858dd609a1b60648201526084016105a8565b600080516020611f0883398151915280546001600160a01b0319166001600160a01b0392909216919091179055565b611756836117cf565b6000825111806117635750805b15610d3957611772838361180f565b50505050565b6001600160a01b03163b151590565b600054610100900460ff166117ae5760405162461bcd60e51b81526004016105a890611d3d565b61081233610fc6565b60006105588284611da0565b60006105588284611dc0565b6117d8816116b3565b6040516001600160a01b038216907fbc7cd75a20ee27fd9adebab32041f755214dbc6bffa90cc0225b39da2e5c2d3b90600090a250565b606061181a83611778565b6118755760405162461bcd60e51b815260206004820152602660248201527f416464726573733a2064656c65676174652063616c6c20746f206e6f6e2d636f6044820152651b9d1c9858dd60d21b60648201526084016105a8565b600080846001600160a01b0316846040516118909190611bf7565b600060405180830381855af49150503d80600081146118cb576040519150601f19603f3d011682016040523d82523d6000602084013e6118d0565b606091505b50915091506118f88282604051806060016040528060278152602001611f2860279139611901565b95945050505050565b60608315611910575081610558565b8251156119205782518084602001fd5b8160405162461bcd60e51b81526004016105a89190611c13565b82805461194690611e22565b90600052602060002090601f01602090048101928261196857600085556119ae565b82601f1061198157805160ff19168380011785556119ae565b828001600101855582156119ae579182015b828111156119ae578251825591602001919060010190611993565b506119ba9291506119be565b5090565b5b808211156119ba57600081556001016119bf565b6000602082840312156119e4578081fd5b813561055881611e89565b600060208284031215611a00578081fd5b815161055881611e89565b60008060408385031215611a1d578081fd5b8235611a2881611e89565b91506020830135611a3881611e89565b809150509250929050565b60008060008060808587031215611a58578182fd5b8435611a6381611e89565b93506020850135611a7381611e89565b92506040850135611a8381611e89565b91506060850135611a9381611e89565b939692955090935050565b600080600060608486031215611ab2578283fd5b8335611abd81611e89565b92506020840135611acd81611e89565b929592945050506040919091013590565b60008060408385031215611af0578182fd5b8235611afb81611e89565b915060208301356001600160401b0380821115611b16578283fd5b818501915085601f830112611b29578283fd5b813581811115611b3b57611b3b611e73565b604051601f8201601f19908116603f01168101908382118183101715611b6357611b63611e73565b81604052828152886020848701011115611b7b578586fd5b82602086016020830137856020848301015280955050505050509250929050565b60008060408385031215611bae578182fd5b8235611bb981611e89565b946020939093013593505050565b600060208284031215611bd8578081fd5b5051919050565b600060208284031215611bf0578081fd5b5035919050565b60008251611c09818460208701611df6565b9190910192915050565b6020815260008251806020840152611c32816040850160208701611df6565b601f01601f19169190910160400192915050565b6020808252602c90820152600080516020611ee883398151915260408201526b19195b1959d85d1958d85b1b60a21b606082015260800190565b6020808252602c90820152600080516020611ee883398151915260408201526b6163746976652070726f787960a01b606082015260800190565b6020808252602e908201527f496e697469616c697a61626c653a20636f6e747261637420697320616c72656160408201526d191e481a5b9a5d1a585b1a5e995960921b606082015260800190565b6020808252818101527f4f776e61626c653a2063616c6c6572206973206e6f7420746865206f776e6572604082015260600190565b6020808252602b908201527f496e697469616c697a61626c653a20636f6e7472616374206973206e6f74206960408201526a6e697469616c697a696e6760a81b606082015260800190565b60008219821115611d9b57611d9b611e5d565b500190565b600082611dbb57634e487b7160e01b81526012600452602481fd5b500490565b6000816000190483118215151615611dda57611dda611e5d565b500290565b600082821015611df157611df1611e5d565b500390565b60005b83811015611e11578181015183820152602001611df9565b838111156117725750506000910152565b600181811c90821680611e3657607f821691505b60208210811415611e5757634e487b7160e01b600052602260045260246000fd5b50919050565b634e487b7160e01b600052601160045260246000fd5b634e487b7160e01b600052604160045260246000fd5b6001600160a01b038116811461062e57600080fdfe534d543a2064656372656173656420616c6c6f77616e63652062656c6f77207a65726f534d543a207472616e7366657220616d6f756e74206578636565647320616c6c6f77616e636546756e6374696f6e206d7573742062652063616c6c6564207468726f75676820360894a13ba1a3210667c828492db98dca3e2076cc3735a920a3ca505d382bbc416464726573733a206c6f772d6c6576656c2064656c65676174652063616c6c206661696c6564ddf252ad1be2c89b69c2b068fc378daa952ba7f163c4a11628f55a4df523b3efa2646970667358221220ed407c039c5097f5f343fdd239a061d397be5ffc9a265d338a08c5ba0649166b64736f6c63430008040033",
  "linkReferences": {},
  "deployedLinkReferences": {}
}