{
  "_format": "hh-sol-artifact-1",
  "contractName": "SmartNobilityAchievement",
  "sourceName": "contracts/SmartNobilityAchievement.sol",
  "abi": [
    {
      "anonymous": false,
      "inputs": [
        {
          "indexed": false,
          "internalType": "address",
          "name": "previousAdmin",
          "type": "address"
        },
        {
          "indexed": false,
          "internalType": "address",
          "name": "newAdmin",
          "type": "address"
        }
      ],
      "name": "AdminChanged",
      "type": "event"
    },
    {
      "anonymous": false,
      "inputs": [
        {
          "indexed": true,
          "internalType": "address",
          "name": "beacon",
          "type": "address"
        }
      ],
      "name": "BeaconUpgraded",
      "type": "event"
    },
    {
      "anonymous": false,
      "inputs": [
        {
          "indexed": false,
          "internalType": "uint256",
          "name": "id",
          "type": "uint256"
        },
        {
          "components": [
            {
              "internalType": "string",
              "name": "title",
              "type": "string"
            },
            {
              "internalType": "uint256",
              "name": "growthRequried",
              "type": "uint256"
            },
            {
              "internalType": "uint256",
              "name": "goldenTreeRewards",
              "type": "uint256"
            },
            {
              "internalType": "uint256",
              "name": "passiveShare",
              "type": "uint256"
            },
            {
              "internalType": "uint256",
              "name": "availableTitles",
              "type": "uint256"
            },
            {
              "internalType": "uint256[]",
              "name": "chestSMTRewardPool",
              "type": "uint256[]"
            },
            {
              "internalType": "uint256[]",
              "name": "chestSMTCRewardPool",
              "type": "uint256[]"
            }
          ],
          "indexed": false,
          "internalType": "struct ISmartNobilityAchievement.NobilityType",
          "name": "_type",
          "type": "tuple"
        }
      ],
      "name": "NobilityTypeUpdated",
      "type": "event"
    },
    {
      "anonymous": false,
      "inputs": [
        {
          "indexed": true,
          "internalType": "address",
          "name": "previousOwner",
          "type": "address"
        },
        {
          "indexed": true,
          "internalType": "address",
          "name": "newOwner",
          "type": "address"
        }
      ],
      "name": "OwnershipTransferred",
      "type": "event"
    },
    {
      "anonymous": false,
      "inputs": [
        {
          "indexed": false,
          "internalType": "uint256",
          "name": "reward",
          "type": "uint256"
        }
      ],
      "name": "RewardSwapped",
      "type": "event"
    },
    {
      "anonymous": false,
      "inputs": [
        {
          "indexed": true,
          "internalType": "address",
          "name": "implementation",
          "type": "address"
        }
      ],
      "name": "Upgraded",
      "type": "event"
    },
    {
      "anonymous": false,
      "inputs": [
        {
          "indexed": true,
          "internalType": "address",
          "name": "account",
          "type": "address"
        },
        {
          "indexed": false,
          "internalType": "uint256",
          "name": "level",
          "type": "uint256"
        }
      ],
      "name": "UserNobilityUpgraded",
      "type": "event"
    },
    {
      "inputs": [
        {
          "internalType": "uint256",
          "name": "",
          "type": "uint256"
        },
        {
          "internalType": "uint256",
          "name": "",
          "type": "uint256"
        }
      ],
      "name": "_mapChestStmSupply",
      "outputs": [
        {
          "internalType": "uint256",
          "name": "",
          "type": "uint256"
        }
      ],
      "stateMutability": "view",
      "type": "function"
    },
    {
      "inputs": [
        {
          "internalType": "uint256",
          "name": "",
          "type": "uint256"
        },
        {
          "internalType": "uint256",
          "name": "",
          "type": "uint256"
        }
      ],
      "name": "_mapChestStmcSupply",
      "outputs": [
        {
          "internalType": "uint256",
          "name": "",
          "type": "uint256"
        }
      ],
      "stateMutability": "view",
      "type": "function"
    },
    {
      "inputs": [
        {
          "internalType": "address",
          "name": "",
          "type": "address"
        }
      ],
      "name": "_mapRewards",
      "outputs": [
        {
          "internalType": "uint256",
          "name": "checkRewardUpdated",
          "type": "uint256"
        }
      ],
      "stateMutability": "view",
      "type": "function"
    },
    {
      "inputs": [
        {
          "internalType": "uint256",
          "name": "_amount",
          "type": "uint256"
        }
      ],
      "name": "claimChestSMTCReward",
      "outputs": [],
      "stateMutability": "nonpayable",
      "type": "function"
    },
    {
      "inputs": [
        {
          "internalType": "uint256",
          "name": "_amount",
          "type": "uint256"
        }
      ],
      "name": "claimChestSMTReward",
      "outputs": [],
      "stateMutability": "nonpayable",
      "type": "function"
    },
    {
      "inputs": [
        {
          "internalType": "uint256",
          "name": "_amount",
          "type": "uint256"
        }
      ],
      "name": "claimNobleReward",
      "outputs": [],
      "stateMutability": "nonpayable",
      "type": "function"
    },
    {
      "inputs": [
        {
          "internalType": "uint256",
          "name": "_amount",
          "type": "uint256"
        }
      ],
      "name": "claimPassiveShareReward",
      "outputs": [],
      "stateMutability": "nonpayable",
      "type": "function"
    },
    {
      "inputs": [],
      "name": "comptroller",
      "outputs": [
        {
          "internalType": "contract ISmartComp",
          "name": "",
          "type": "address"
        }
      ],
      "stateMutability": "view",
      "type": "function"
    },
    {
      "inputs": [
        {
          "internalType": "address[]",
          "name": "array",
          "type": "address[]"
        },
        {
          "internalType": "address",
          "name": "value",
          "type": "address"
        }
      ],
      "name": "contain",
      "outputs": [
        {
          "internalType": "bool",
          "name": "",
          "type": "bool"
        }
      ],
      "stateMutability": "pure",
      "type": "function"
    },
    {
      "inputs": [
        {
          "internalType": "uint256",
          "name": "_amount",
          "type": "uint256"
        }
      ],
      "name": "distributePassiveShare",
      "outputs": [],
      "stateMutability": "nonpayable",
      "type": "function"
    },
    {
      "inputs": [
        {
          "internalType": "uint256",
          "name": "_amount",
          "type": "uint256"
        }
      ],
      "name": "distributeToNobleLeaders",
      "outputs": [],
      "stateMutability": "nonpayable",
      "type": "function"
    },
    {
      "inputs": [
        {
          "internalType": "address[]",
          "name": "array",
          "type": "address[]"
        },
        {
          "internalType": "address",
          "name": "value",
          "type": "address"
        }
      ],
      "name": "indexOf",
      "outputs": [
        {
          "internalType": "uint256",
          "name": "",
          "type": "uint256"
        }
      ],
      "stateMutability": "pure",
      "type": "function"
    },
    {
      "inputs": [
        {
          "internalType": "address",
          "name": "_comp",
          "type": "address"
        }
      ],
      "name": "initialize",
      "outputs": [],
      "stateMutability": "nonpayable",
      "type": "function"
    },
    {
      "inputs": [
        {
          "internalType": "address",
          "name": "_account",
          "type": "address"
        }
      ],
      "name": "isNobleLeader",
      "outputs": [
        {
          "internalType": "bool",
          "name": "",
          "type": "bool"
        }
      ],
      "stateMutability": "view",
      "type": "function"
    },
    {
      "inputs": [
        {
          "internalType": "address",
          "name": "account",
          "type": "address"
        }
      ],
      "name": "isPossibleNobilityReward",
      "outputs": [
        {
          "internalType": "bool",
          "name": "",
          "type": "bool"
        }
      ],
      "stateMutability": "view",
      "type": "function"
    },
    {
      "inputs": [
        {
          "internalType": "uint256",
          "name": "from",
          "type": "uint256"
        },
        {
          "internalType": "uint256",
          "name": "to",
          "type": "uint256"
        }
      ],
      "name": "isUpgradeable",
      "outputs": [
        {
          "internalType": "bool",
          "name": "",
          "type": "bool"
        },
        {
          "internalType": "uint256",
          "name": "",
          "type": "uint256"
        }
      ],
      "stateMutability": "view",
      "type": "function"
    },
    {
      "inputs": [
        {
          "internalType": "address",
          "name": "account",
          "type": "address"
        }
      ],
      "name": "nobilityOf",
      "outputs": [
        {
          "components": [
            {
              "internalType": "string",
              "name": "title",
              "type": "string"
            },
            {
              "internalType": "uint256",
              "name": "growthRequried",
              "type": "uint256"
            },
            {
              "internalType": "uint256",
              "name": "goldenTreeRewards",
              "type": "uint256"
            },
            {
              "internalType": "uint256",
              "name": "passiveShare",
              "type": "uint256"
            },
            {
              "internalType": "uint256",
              "name": "availableTitles",
              "type": "uint256"
            },
            {
              "internalType": "uint256[]",
              "name": "chestSMTRewardPool",
              "type": "uint256[]"
            },
            {
              "internalType": "uint256[]",
              "name": "chestSMTCRewardPool",
              "type": "uint256[]"
            }
          ],
          "internalType": "struct ISmartNobilityAchievement.NobilityType",
          "name": "",
          "type": "tuple"
        }
      ],
      "stateMutability": "view",
      "type": "function"
    },
    {
      "inputs": [
        {
          "internalType": "address",
          "name": "account",
          "type": "address"
        }
      ],
      "name": "nobilityTitleOf",
      "outputs": [
        {
          "internalType": "string",
          "name": "",
          "type": "string"
        }
      ],
      "stateMutability": "view",
      "type": "function"
    },
    {
      "inputs": [
        {
          "internalType": "uint256",
          "name": "",
          "type": "uint256"
        }
      ],
      "name": "nobilityTypes",
      "outputs": [
        {
          "internalType": "string",
          "name": "title",
          "type": "string"
        },
        {
          "internalType": "uint256",
          "name": "growthRequried",
          "type": "uint256"
        },
        {
          "internalType": "uint256",
          "name": "goldenTreeRewards",
          "type": "uint256"
        },
        {
          "internalType": "uint256",
          "name": "passiveShare",
          "type": "uint256"
        },
        {
          "internalType": "uint256",
          "name": "availableTitles",
          "type": "uint256"
        }
      ],
      "stateMutability": "view",
      "type": "function"
    },
    {
      "inputs": [
        {
          "internalType": "address",
          "name": "account",
          "type": "address"
        },
        {
          "internalType": "uint256",
          "name": "oldBalance",
          "type": "uint256"
        },
        {
          "internalType": "uint256",
          "name": "newBalance",
          "type": "uint256"
        }
      ],
      "name": "notifyGrowth",
      "outputs": [
        {
          "internalType": "bool",
          "name": "",
          "type": "bool"
        }
      ],
      "stateMutability": "nonpayable",
      "type": "function"
    },
    {
      "inputs": [],
      "name": "owner",
      "outputs": [
        {
          "internalType": "address",
          "name": "",
          "type": "address"
        }
      ],
      "stateMutability": "view",
      "type": "function"
    },
    {
      "inputs": [],
      "name": "proxiableUUID",
      "outputs": [
        {
          "internalType": "bytes32",
          "name": "",
          "type": "bytes32"
        }
      ],
      "stateMutability": "view",
      "type": "function"
    },
    {
      "inputs": [],
      "name": "renounceOwnership",
      "outputs": [],
      "stateMutability": "nonpayable",
      "type": "function"
    },
    {
      "inputs": [
        {
          "internalType": "uint256",
          "name": "_amount",
          "type": "uint256"
        }
      ],
      "name": "swapDistribute",
      "outputs": [],
      "stateMutability": "nonpayable",
      "type": "function"
    },
    {
      "inputs": [],
      "name": "totalNobilityTypes",
      "outputs": [
        {
          "internalType": "uint256",
          "name": "",
          "type": "uint256"
        }
      ],
      "stateMutability": "view",
      "type": "function"
    },
    {
      "inputs": [],
      "name": "totalRewardShares",
      "outputs": [
        {
          "internalType": "uint256",
          "name": "",
          "type": "uint256"
        }
      ],
      "stateMutability": "view",
      "type": "function"
    },
    {
      "inputs": [
        {
          "internalType": "address",
          "name": "newOwner",
          "type": "address"
        }
      ],
      "name": "transferOwnership",
      "outputs": [],
      "stateMutability": "nonpayable",
      "type": "function"
    },
    {
      "inputs": [
        {
          "internalType": "uint256",
          "name": "id",
          "type": "uint256"
        },
        {
          "internalType": "string",
          "name": "title",
          "type": "string"
        },
        {
          "internalType": "uint256",
          "name": "growthRequried",
          "type": "uint256"
        },
        {
          "internalType": "uint256",
          "name": "goldenTreeRewards",
          "type": "uint256"
        },
        {
          "internalType": "uint256",
          "name": "passiveShare",
          "type": "uint256"
        },
        {
          "internalType": "uint256",
          "name": "availableTitles",
          "type": "uint256"
        },
        {
          "internalType": "uint256[10]",
          "name": "_chestSMTRewards",
          "type": "uint256[10]"
        },
        {
          "internalType": "uint256[10]",
          "name": "_chestSMTCRewards",
          "type": "uint256[10]"
        }
      ],
      "name": "updateNobilityType",
      "outputs": [],
      "stateMutability": "nonpayable",
      "type": "function"
    },
    {
      "inputs": [
        {
          "internalType": "address",
          "name": "newImplementation",
          "type": "address"
        }
      ],
      "name": "upgradeTo",
      "outputs": [],
      "stateMutability": "nonpayable",
      "type": "function"
    },
    {
      "inputs": [
        {
          "internalType": "address",
          "name": "newImplementation",
          "type": "address"
        },
        {
          "internalType": "bytes",
          "name": "data",
          "type": "bytes"
        }
      ],
      "name": "upgradeToAndCall",
      "outputs": [],
      "stateMutability": "payable",
      "type": "function"
    },
    {
      "inputs": [
        {
          "internalType": "address",
          "name": "",
          "type": "address"
        }
      ],
      "name": "userNobilities",
      "outputs": [
        {
          "internalType": "uint256",
          "name": "",
          "type": "uint256"
        }
      ],
      "stateMutability": "view",
      "type": "function"
    },
    {
      "inputs": [
        {
          "internalType": "uint256",
          "name": "",
          "type": "uint256"
        }
      ],
      "name": "userNobilityCounts",
      "outputs": [
        {
          "internalType": "uint256",
          "name": "",
          "type": "uint256"
        }
      ],
      "stateMutability": "view",
      "type": "function"
    },
    {
      "stateMutability": "payable",
      "type": "receive"
    }
  ],
  "bytecode": "0x60a06040523060601b60805234801561001757600080fd5b5060805160601c61598f620000536000396000818161160b0152818161164b015281816116d4015281816117140152611842015261598f6000f3fe6080604052600436106101775760003560e01c80630277f05f14610183578063081eae0e146101b65780631e6ac498146101d85780631f888ecc146102085780633216cdac14610238578063349ecb7f146102655780633659cfe6146102855780634b8fe29e146102a55780634f1ef286146102d2578063523ee002146102e557806352d1902d146103165780635fe3b5671461032b578063621e5ac21461035857806367aa17e6146103785780636bb009c014610398578063715018a6146103b857806382431ac7146103cd5780638da5cb5b146103ed5780638f5b2672146104025780638f5c17d714610422578063956cd5a4146104595780639fc736a8146104865780639fce5c8e146104a6578063bcc97cef146104c6578063bee23c42146104dc578063c002c497146104fc578063c4d66de81461051c578063cbbdf5ca1461053c578063ce42ef3b14610569578063d0ba1d9214610589578063d7b4ed201461059f578063f2fde38b146105bf57600080fd5b3661017e57005b600080fd5b34801561018f57600080fd5b506101a361019e366004615246565b6105df565b6040519081526020015b60405180910390f35b3480156101c257600080fd5b506101d66101d136600461518c565b610610565b005b3480156101e457600080fd5b506101a36101f3366004614fc3565b60ca6020526000908152604090206001015481565b34801561021457600080fd5b5061022861022336600461503f565b610cdc565b60405190151581526020016101ad565b34801561024457600080fd5b50610258610253366004614fc3565b611079565b6040516101ad91906153e6565b34801561027157600080fd5b506101d661028036600461518c565b61108b565b34801561029157600080fd5b506101d66102a0366004614fc3565b611600565b3480156102b157600080fd5b506101a36102c036600461518c565b60d36020526000908152604090205481565b6101d66102e0366004614fdf565b6116c9565b3480156102f157600080fd5b5061030561030036600461518c565b61177f565b6040516101ad9594939291906153f9565b34801561032257600080fd5b506101a3611835565b34801561033757600080fd5b5060c95461034b906001600160a01b031681565b6040516101ad91906153b9565b34801561036457600080fd5b506101d661037336600461518c565b6118e3565b34801561038457600080fd5b506101d661039336600461518c565b611dda565b3480156103a457600080fd5b506101d66103b336600461518c565b6120d3565b3480156103c457600080fd5b506101d66122ee565b3480156103d957600080fd5b506102286103e8366004614fc3565b612329565b3480156103f957600080fd5b5061034b612395565b34801561040e57600080fd5b506101d661041d36600461518c565b6123a4565b34801561042e57600080fd5b5061044261043d366004615246565b6125fb565b6040805192151583526020830191909152016101ad565b34801561046557600080fd5b50610479610474366004614fc3565b6127d8565b6040516101ad9190615604565b34801561049257600080fd5b506101d66104a136600461518c565b6129b8565b3480156104b257600080fd5b506101a36104c1366004615073565b612bb2565b3480156104d257600080fd5b506101a360d05481565b3480156104e857600080fd5b506102286104f7366004615073565b612c08565b34801561050857600080fd5b50610228610517366004614fc3565b612c8a565b34801561052857600080fd5b506101d6610537366004614fc3565b612e39565b34801561054857600080fd5b506101a3610557366004614fc3565b60d26020526000908152604090205481565b34801561057557600080fd5b506101a3610584366004615246565b612ec0565b34801561059557600080fd5b506101a360cf5481565b3480156105ab57600080fd5b506101d66105ba3660046151a4565b612edc565b3480156105cb57600080fd5b506101d66105da366004614fc3565b613168565b60cc60205281600052604060002081815481106105fb57600080fd5b90600052602060002001600091509150505481565b60c960009054906101000a90046001600160a01b03166001600160a01b0316636e0d07536040518163ffffffff1660e01b815260040160206040518083038186803b15801561065e57600080fd5b505afa158015610672573d6000803e3d6000fd5b505050506040513d601f19601f820116820180604052508101906106969190615170565b6001600160a01b0316336001600160a01b0316148061074b575060c960009054906101000a90046001600160a01b03166001600160a01b03166391a95b256040518163ffffffff1660e01b815260040160206040518083038186803b1580156106fe57600080fd5b505afa158015610712573d6000803e3d6000fd5b505050506040513d601f19601f820116820180604052508101906107369190615170565b6001600160a01b0316336001600160a01b0316145b806107ec575060c960009054906101000a90046001600160a01b03166001600160a01b0316633066ebe66040518163ffffffff1660e01b815260040160206040518083038186803b15801561079f57600080fd5b505afa1580156107b3573d6000803e3d6000fd5b505050506040513d601f19601f820116820180604052508101906107d79190615170565b6001600160a01b0316336001600160a01b0316145b8061088d575060c960009054906101000a90046001600160a01b03166001600160a01b03166399bd7d8f6040518163ffffffff1660e01b815260040160206040518083038186803b15801561084057600080fd5b505afa158015610854573d6000803e3d6000fd5b505050506040513d601f19601f820116820180604052508101906108789190615170565b6001600160a01b0316336001600160a01b0316145b8061092e575060c960009054906101000a90046001600160a01b03166001600160a01b031663dd445c316040518163ffffffff1660e01b815260040160206040518083038186803b1580156108e157600080fd5b505afa1580156108f5573d6000803e3d6000fd5b505050506040513d601f19601f820116820180604052508101906109199190615170565b6001600160a01b0316336001600160a01b0316145b80610951575061093c612395565b6001600160a01b0316336001600160a01b0316145b6109765760405162461bcd60e51b815260040161096d9061555c565b60405180910390fd5b60c9546040805163dd445c3160e01b815290516000926001600160a01b03169163dd445c31916004808301926020929190829003018186803b1580156109bb57600080fd5b505afa1580156109cf573d6000803e3d6000fd5b505050506040513d601f19601f820116820180604052508101906109f39190615170565b9050600060c960009054906101000a90046001600160a01b03166001600160a01b0316636ac3861a6040518163ffffffff1660e01b815260040160206040518083038186803b158015610a4557600080fd5b505afa158015610a59573d6000803e3d6000fd5b505050506040513d601f19601f82011682018060405250810190610a7d9190615170565b60408051600280825260608201835292935060009290916020830190803683370190505090508281600081518110610ac557634e487b7160e01b600052603260045260246000fd5b60200260200101906001600160a01b031690816001600160a01b0316815250508181600181518110610b0757634e487b7160e01b600052603260045260246000fd5b6001600160a01b0392831660209182029290920181019190915260c954604080516271c17560e01b8152905160009492909216926271c17592600480840193829003018186803b158015610b5a57600080fd5b505afa158015610b6e573d6000803e3d6000fd5b505050506040513d601f19601f82011682018060405250810190610b929190615170565b60405163095ea7b360e01b815290915047906001600160a01b0386169063095ea7b390610bc59085908a906004016153cd565b602060405180830381600087803b158015610bdf57600080fd5b505af1158015610bf3573d6000803e3d6000fd5b505050506040513d601f19601f82011682018060405250810190610c179190615138565b506001600160a01b03821663791ac9478760008630610c3842610e106157a3565b6040518663ffffffff1660e01b8152600401610c58959493929190615685565b600060405180830381600087803b158015610c7257600080fd5b505af1158015610c86573d6000803e3d6000fd5b5050505060008147610c9891906157ee565b90507fe63c682ee7ea9ad76c37a44a230957d30864d8454ede7e40edf7d8f9e18e18d081604051610ccb91815260200190565b60405180910390a150505050505050565b60c954604080516399bd7d8f60e01b815290516000926001600160a01b0316916399bd7d8f916004808301926020929190829003018186803b158015610d2157600080fd5b505afa158015610d35573d6000803e3d6000fd5b505050506040513d601f19601f82011682018060405250810190610d599190615170565b6001600160a01b0316336001600160a01b031614610dd65760405162461bcd60e51b815260206004820152603460248201527f536d617274416368696576656d656e74236e6f746966795570646174653a206f6044820152731b9b1e4819dbdb19195b881d1c9959481c1bdbdb60621b606482015260840161096d565b600080610de385856125fb565b91509150811561106b576001600160a01b038616600090815260d26020908152604080832084905583835260d3909152902054610e219060016157a3565b600082815260d3602090815260408083209390935560c9548351636e0d075360e01b8152935192936001600160a01b0390911692636e0d075392600480840193919291829003018186803b158015610e7857600080fd5b505afa158015610e8c573d6000803e3d6000fd5b505050506040513d601f19601f82011682018060405250810190610eb09190615170565b9050816001148015610f395750604051633f030e2360e21b81526001600160a01b0382169063fc0c388c90610ee9908a906004016153b9565b60206040518083038186803b158015610f0157600080fd5b505afa158015610f15573d6000803e3d6000fd5b505050506040513d601f19601f82011682018060405250810190610f399190615138565b15610f8a5760d180546001810182556000919091527f695fb3134ad82c3b8022bc5464edd0bcc9424ef672b52245dcb6ab2374327ce30180546001600160a01b0319166001600160a01b0389161790555b6001821115610fdd57600160d36000610fa383866157ee565b815260200190815260200160002054610fbc91906157ee565b60d36000610fcb6001866157ee565b81526020810191909152604001600020555b816002141561100a576001600160a01b038716600090815260ca602052604090204260019091015561101c565b600282111561101c5761101c87613205565b866001600160a01b03167f56d041dc6116202559bbba103a86ff01f2b70ebd2618686fda52b6ec97fd470e8360405161105791815260200190565b60405180910390a260019350505050611072565b6000925050505b9392505050565b6060611084826127d8565b5192915050565b60c960009054906101000a90046001600160a01b03166001600160a01b0316636e0d07536040518163ffffffff1660e01b815260040160206040518083038186803b1580156110d957600080fd5b505afa1580156110ed573d6000803e3d6000fd5b505050506040513d601f19601f820116820180604052508101906111119190615170565b6001600160a01b0316336001600160a01b031614806111c6575060c960009054906101000a90046001600160a01b03166001600160a01b03166391a95b256040518163ffffffff1660e01b815260040160206040518083038186803b15801561117957600080fd5b505afa15801561118d573d6000803e3d6000fd5b505050506040513d601f19601f820116820180604052508101906111b19190615170565b6001600160a01b0316336001600160a01b0316145b80611267575060c960009054906101000a90046001600160a01b03166001600160a01b0316633066ebe66040518163ffffffff1660e01b815260040160206040518083038186803b15801561121a57600080fd5b505afa15801561122e573d6000803e3d6000fd5b505050506040513d601f19601f820116820180604052508101906112529190615170565b6001600160a01b0316336001600160a01b0316145b80611308575060c960009054906101000a90046001600160a01b03166001600160a01b03166399bd7d8f6040518163ffffffff1660e01b815260040160206040518083038186803b1580156112bb57600080fd5b505afa1580156112cf573d6000803e3d6000fd5b505050506040513d601f19601f820116820180604052508101906112f39190615170565b6001600160a01b0316336001600160a01b0316145b806113a9575060c960009054906101000a90046001600160a01b03166001600160a01b031663dd445c316040518163ffffffff1660e01b815260040160206040518083038186803b15801561135c57600080fd5b505afa158015611370573d6000803e3d6000fd5b505050506040513d601f19601f820116820180604052508101906113949190615170565b6001600160a01b0316336001600160a01b0316145b806113cc57506113b7612395565b6001600160a01b0316336001600160a01b0316145b6113e85760405162461bcd60e51b815260040161096d9061555c565b6000805b60d1548110156114a957600060d2600060d1848154811061141d57634e487b7160e01b600052603260045260246000fd5b60009182526020808320909101546001600160a01b0316835282019290925260400190205411156114975761148660d1828154811061146c57634e487b7160e01b600052603260045260246000fd5b6000918252602090912001546001600160a01b03166127d8565b6060015161149490836157a3565b91505b806114a18161586c565b9150506113ec565b5080156115fc5760006114bc82846157bb565b905060005b60d1548110156115f957600060d182815481106114ee57634e487b7160e01b600052603260045260246000fd5b60009182526020808320909101546001600160a01b031680835260ca90915260409091206003015490915061156d5760408051600280825260608201835290916020830190803683375050506001600160a01b038216600090815260ca60209081526040909120825161156b936003909201929190910190614e13565b505b6000611578826127d8565b60600151905061158884826157cf565b6001600160a01b038316600090815260ca60205260409020600301805460019081106115c457634e487b7160e01b600052603260045260246000fd5b9060005260206000200160008282546115dd91906157a3565b92505081905550505080806115f19061586c565b9150506114c1565b50505b5050565b306001600160a01b037f00000000000000000000000000000000000000000000000000000000000000001614156116495760405162461bcd60e51b815260040161096d90615430565b7f00000000000000000000000000000000000000000000000000000000000000006001600160a01b031661167b613649565b6001600160a01b0316146116a15760405162461bcd60e51b815260040161096d9061546a565b6116aa81613665565b604080516000808252602082019092526116c691839190613694565b50565b306001600160a01b037f00000000000000000000000000000000000000000000000000000000000000001614156117125760405162461bcd60e51b815260040161096d90615430565b7f00000000000000000000000000000000000000000000000000000000000000006001600160a01b0316611744613649565b6001600160a01b03161461176a5760405162461bcd60e51b815260040161096d9061546a565b61177382613665565b6115fc82826001613694565b60ce6020526000908152604090208054819061179a90615831565b80601f01602080910402602001604051908101604052809291908181526020018280546117c690615831565b80156118135780601f106117e857610100808354040283529160200191611813565b820191906000526020600020905b8154815290600101906020018083116117f657829003601f168201915b5050505050908060010154908060020154908060030154908060040154905085565b6000306001600160a01b037f000000000000000000000000000000000000000000000000000000000000000016146118d05760405162461bcd60e51b815260206004820152603860248201527f555550535570677261646561626c653a206d757374206e6f742062652063616c6044820152771b1959081d1a1c9bdd59da0819195b1959d85d1958d85b1b60421b606482015260840161096d565b5060008051602061591383398151915290565b60c960009054906101000a90046001600160a01b03166001600160a01b0316636e0d07536040518163ffffffff1660e01b815260040160206040518083038186803b15801561193157600080fd5b505afa158015611945573d6000803e3d6000fd5b505050506040513d601f19601f820116820180604052508101906119699190615170565b6001600160a01b0316336001600160a01b03161480611a1e575060c960009054906101000a90046001600160a01b03166001600160a01b03166391a95b256040518163ffffffff1660e01b815260040160206040518083038186803b1580156119d157600080fd5b505afa1580156119e5573d6000803e3d6000fd5b505050506040513d601f19601f82011682018060405250810190611a099190615170565b6001600160a01b0316336001600160a01b0316145b80611abf575060c960009054906101000a90046001600160a01b03166001600160a01b0316633066ebe66040518163ffffffff1660e01b815260040160206040518083038186803b158015611a7257600080fd5b505afa158015611a86573d6000803e3d6000fd5b505050506040513d601f19601f82011682018060405250810190611aaa9190615170565b6001600160a01b0316336001600160a01b0316145b80611b60575060c960009054906101000a90046001600160a01b03166001600160a01b03166399bd7d8f6040518163ffffffff1660e01b815260040160206040518083038186803b158015611b1357600080fd5b505afa158015611b27573d6000803e3d6000fd5b505050506040513d601f19601f82011682018060405250810190611b4b9190615170565b6001600160a01b0316336001600160a01b0316145b80611c01575060c960009054906101000a90046001600160a01b03166001600160a01b031663dd445c316040518163ffffffff1660e01b815260040160206040518083038186803b158015611bb457600080fd5b505afa158015611bc8573d6000803e3d6000fd5b505050506040513d601f19601f82011682018060405250810190611bec9190615170565b6001600160a01b0316336001600160a01b0316145b80611c245750611c0f612395565b6001600160a01b0316336001600160a01b0316145b611c405760405162461bcd60e51b815260040161096d9061555c565b600060015b60cf548111611c7b57600081815260d36020526040902054611c6790836157a3565b915080611c738161586c565b915050611c45565b5080611c85575050565b6000611c9182846157bb565b905060005b60d1548110156115f957600060d18281548110611cc357634e487b7160e01b600052603260045260246000fd5b60009182526020808320909101546001600160a01b031680835260ca909152604090912060020154909150611d425760408051600280825260608201835290916020830190803683375050506001600160a01b038216600090815260ca602090815260409091208251611d40936002909201929190910190614e13565b505b6000611d4d826127d8565b604001519050600a611d5f85836157cf565b611d6991906157bb565b6001600160a01b038316600090815260ca6020526040902060020180546001908110611da557634e487b7160e01b600052603260045260246000fd5b906000526020600020016000828254611dbe91906157a3565b9250508190555050508080611dd29061586c565b915050611c96565b33600090815260ca6020526040812060030180546001908110611e0d57634e487b7160e01b600052603260045260246000fd5b600091825260208083209091015460c95460408051631eb1f77560e31b815290519295506001600160a01b039091169263f58fbba892600480840193829003018186803b158015611e5d57600080fd5b505afa158015611e71573d6000803e3d6000fd5b505050506040513d601f19601f82011682018060405250810190611e959190615170565b6001600160a01b03166370a08231306040518263ffffffff1660e01b8152600401611ec091906153b9565b60206040518083038186803b158015611ed857600080fd5b505afa158015611eec573d6000803e3d6000fd5b505050506040513d601f19601f82011682018060405250810190611f109190615158565b90506000611f1e84846157ee565b1015611f7c5760405162461bcd60e51b815260206004820152602760248201527f54686520616d6f756e7420746f20636c61696d2065786365656473207468652060448201526662616c616e636560c81b606482015260840161096d565b6000611f8884836157ee565b1015611fa65760405162461bcd60e51b815260040161096d906154a4565b60c95460408051631eb1f77560e31b8152905161202b926001600160a01b03169163f58fbba8916004808301926020929190829003018186803b158015611fec57600080fd5b505afa158015612000573d6000803e3d6000fd5b505050506040513d601f19601f820116820180604052508101906120249190615170565b3385613813565b33600090815260ca602052604090206003018054849190600190811061206157634e487b7160e01b600052603260045260246000fd5b90600052602060002001600082825461207a91906157ee565b909155505033600090815260ca6020526040812060030180548592906120b057634e487b7160e01b600052603260045260246000fd5b9060005260206000200160008282546120c991906157a3565b9091555050505050565b33600090815260ca602052604081208054600190811061210357634e487b7160e01b600052603260045260246000fd5b600091825260208083209091015460c95460408051631eb1f77560e31b815290519295506001600160a01b039091169263f58fbba892600480840193829003018186803b15801561215357600080fd5b505afa158015612167573d6000803e3d6000fd5b505050506040513d601f19601f8201168201806040525081019061218b9190615170565b6001600160a01b03166370a08231306040518263ffffffff1660e01b81526004016121b691906153b9565b60206040518083038186803b1580156121ce57600080fd5b505afa1580156121e2573d6000803e3d6000fd5b505050506040513d601f19601f820116820180604052508101906122069190615158565b9050600061221484846157ee565b10156122325760405162461bcd60e51b815260040161096d90615588565b600061223e84836157ee565b101561225c5760405162461bcd60e51b815260040161096d906154a4565b60c95460408051631eb1f77560e31b815290516122a2926001600160a01b03169163f58fbba8916004808301926020929190829003018186803b158015611fec57600080fd5b33600090815260ca60205260409020805484919060019081106122d557634e487b7160e01b600052603260045260246000fd5b9060005260206000200160008282546120c991906157ee565b336122f7612395565b6001600160a01b03161461231d5760405162461bcd60e51b815260040161096d90615527565b6123276000613930565b565b600061238f60d180548060200260200160405190810160405280929190818152602001828054801561238457602002820191906000526020600020905b81546001600160a01b03168152600190910190602001808311612366575b505050505083612c08565b92915050565b6097546001600160a01b031690565b33600090815260ca60205260408120600201805460019081106123d757634e487b7160e01b600052603260045260246000fd5b600091825260208083209091015460c95460408051631eb1f77560e31b815290519295506001600160a01b039091169263f58fbba892600480840193829003018186803b15801561242757600080fd5b505afa15801561243b573d6000803e3d6000fd5b505050506040513d601f19601f8201168201806040525081019061245f9190615170565b6001600160a01b03166370a08231306040518263ffffffff1660e01b815260040161248a91906153b9565b60206040518083038186803b1580156124a257600080fd5b505afa1580156124b6573d6000803e3d6000fd5b505050506040513d601f19601f820116820180604052508101906124da9190615158565b905060006124e884846157ee565b10156125065760405162461bcd60e51b815260040161096d90615588565b600061251284836157ee565b10156125305760405162461bcd60e51b815260040161096d906154a4565b60c95460408051631eb1f77560e31b81529051612576926001600160a01b03169163f58fbba8916004808301926020929190829003018186803b158015611fec57600080fd5b33600090815260ca60205260409020600201805484919060019081106125ac57634e487b7160e01b600052603260045260246000fd5b9060005260206000200160008282546125c591906157ee565b909155505033600090815260ca6020526040812060020180548592906120b057634e487b7160e01b600052603260045260246000fd5b60008060015b60cf5481116127c857600081815260ce6020526040808220815160e0810190925280548290829061263190615831565b80601f016020809104026020016040519081016040528092919081815260200182805461265d90615831565b80156126aa5780601f1061267f576101008083540402835291602001916126aa565b820191906000526020600020905b81548152906001019060200180831161268d57829003601f168201915b50505050508152602001600182015481526020016002820154815260200160038201548152602001600482015481526020016005820180548060200260200160405190810160405280929190818152602001828054801561272a57602002820191906000526020600020905b815481526020019060010190808311612716575b505050505081526020016006820180548060200260200160405190810160405280929190818152602001828054801561278257602002820191906000526020600020905b81548152602001906001019080831161276e575b50505050508152505090508060200151861080156127a4575080602001518510155b156127b557506001925090506127d1565b50806127c08161586c565b915050612601565b50600080915091505b9250929050565b6128186040518060e00160405280606081526020016000815260200160008152602001600081526020016000815260200160608152602001606081525090565b6001600160a01b038216600090815260d26020908152604080832054835260ce90915290819020815160e0810190925280548290829061285790615831565b80601f016020809104026020016040519081016040528092919081815260200182805461288390615831565b80156128d05780601f106128a5576101008083540402835291602001916128d0565b820191906000526020600020905b8154815290600101906020018083116128b357829003601f168201915b50505050508152602001600182015481526020016002820154815260200160038201548152602001600482015481526020016005820180548060200260200160405190810160405280929190818152602001828054801561295057602002820191906000526020600020905b81548152602001906001019080831161293c575b50505050508152602001600682018054806020026020016040519081016040528092919081815260200182805480156129a857602002820191906000526020600020905b815481526020019060010190808311612994575b5050505050815250509050919050565b33600090815260ca60205260408120805482906129e557634e487b7160e01b600052603260045260246000fd5b600091825260208083209091015460c9546040805163dd445c3160e01b815290519295506001600160a01b039091169263dd445c3192600480840193829003018186803b158015612a3557600080fd5b505afa158015612a49573d6000803e3d6000fd5b505050506040513d601f19601f82011682018060405250810190612a6d9190615170565b6001600160a01b03166370a08231306040518263ffffffff1660e01b8152600401612a9891906153b9565b60206040518083038186803b158015612ab057600080fd5b505afa158015612ac4573d6000803e3d6000fd5b505050506040513d601f19601f82011682018060405250810190612ae89190615158565b90506000612af684846157ee565b1015612b145760405162461bcd60e51b815260040161096d90615588565b6000612b2084836157ee565b1015612b3e5760405162461bcd60e51b815260040161096d906154a4565b60c9546040805163dd445c3160e01b81529051612b84926001600160a01b03169163dd445c31916004808301926020929190829003018186803b158015611fec57600080fd5b33600090815260ca6020526040812080548592906122d557634e487b7160e01b600052603260045260246000fd5b6000805b826001600160a01b0316848281518110612be057634e487b7160e01b600052603260045260246000fd5b60200260200101516001600160a01b0316146110725780612c008161586c565b915050612bb6565b6000805b8351811015612c6d57826001600160a01b0316848281518110612c3f57634e487b7160e01b600052603260045260246000fd5b60200260200101516001600160a01b03161415612c5b57612c6d565b80612c658161586c565b915050612c0c565b8351811015612c8057600191505061238f565b5060009392505050565b6001600160a01b038116600090815260d26020908152604080832054835260cb825280832080548251818502810185019093528083528493830182828015612cf157602002820191906000526020600020905b815481526020019060010190808311612cdd575b505050506001600160a01b038516600090815260d26020908152604080832054835260cc82528083208054825181850281018501909352808352959650929490935090830182828015612d6357602002820191906000526020600020905b815481526020019060010190808311612d4f575b5050505050905060005b8251811015612dbd576000838281518110612d9857634e487b7160e01b600052603260045260246000fd5b60200260200101511115612dab57612dbd565b80612db58161586c565b915050612d6d565b8251811415612e2e575060005b8151811015612e1a576000828281518110612df557634e487b7160e01b600052603260045260246000fd5b60200260200101511115612e0857612e1a565b80612e128161586c565b915050612dca565b8151811415612e2e57506000949350505050565b506001949350505050565b600054610100900460ff16612e545760005460ff1615612e5c565b612e5c613982565b612e785760405162461bcd60e51b815260040161096d906154d9565b600054610100900460ff16158015612e9a576000805461ffff19166101011790555b612ea2613993565b612eab826139c2565b80156115fc576000805461ff00191690555050565b60cb60205281600052604060002081815481106105fb57600080fd5b33612ee5612395565b6001600160a01b031614612f0b5760405162461bcd60e51b815260040161096d90615527565b60cf548811158015612f1d5750600088115b612f825760405162461bcd60e51b815260206004820152603060248201527f536d617274416368696576656d656e74235f7570646174654e6f62696c69747960448201526f151e5c194e881a5b9d985b1a59081a5960821b606482015260840161096d565b600088815260ce6020908152604090912088519091612fa59183918b0190614e5e565b506001810187905560028101869055600381018590556004810184905560005b600a81101561304f5760008482600a8110612ff057634e487b7160e01b600052603260045260246000fd5b6020020151111561303d57816005018482600a811061301f57634e487b7160e01b600052603260045260246000fd5b60209081029190910151825460018101845560009384529190922001555b806130478161586c565b915050612fc5565b5060005b600a8110156130dd5760008382600a811061307e57634e487b7160e01b600052603260045260246000fd5b602002015111156130cb57816006018382600a81106130ad57634e487b7160e01b600052603260045260246000fd5b60209081029190910151825460018101845560009384529190922001555b806130d58161586c565b915050613053565b50600060015b60cf54811161311c5760008b815260ce602052604090206003015461310890836157a3565b9150806131148161586c565b9150506130e3565b5060d08190556040517faa739918e107d83687a1c21370616596bb9d4d43ce37f41f982a32e2b7415fef90613154908c9085906156f5565b60405180910390a150505050505050505050565b33613171612395565b6001600160a01b0316146131975760405162461bcd60e51b815260040161096d90615527565b6001600160a01b0381166131fc5760405162461bcd60e51b815260206004820152602660248201527f4f776e61626c653a206e6577206f776e657220697320746865207a65726f206160448201526564647265737360d01b606482015260840161096d565b6116c681613930565b6001600160a01b038116600090815260ca6020526040812060010154620151809060079061323390426157ee565b61323d91906157bb565b61324791906157bb565b6001600160a01b038316600090815260ca6020526040902054909150600211156132b75760408051600280825260608201835290916020830190803683375050506001600160a01b038316600090815260ca6020908152604090912082516132b59391929190910190614e13565b505b6001600160a01b038216600090815260d26020908152604080832054835260cb82528083208054825181850281018501909352808352919290919083018282801561332157602002820191906000526020600020905b81548152602001906001019080831161330d575b505050506001600160a01b038516600090815260d26020908152604080832054835260cc8252808320805482518185028101850190935280835295965092949093509083018282801561339357602002820191906000526020600020905b81548152602001906001019080831161337f575b5050505050905060005b838110156135f2575b6133af85612c8a565b156135e05760cd546133c29060016157a3565b60cd8190556001600160a01b038616600090815260d260205260408120549091829182916133ef916148b7565b92509250925082600014801561342c5750600086838151811061342257634e487b7160e01b600052603260045260246000fd5b6020026020010151115b156134fa576001600160a01b038816600090815260ca6020526040902080548291908590811061346c57634e487b7160e01b600052603260045260246000fd5b90600052602060002001600082825461348591906157a3565b90915550506001600160a01b038816600090815260d26020908152604080832054835260cb9091529020805460019190849081106134d357634e487b7160e01b600052603260045260246000fd5b9060005260206000200160008282546134ec91906157ee565b909155506135e09350505050565b8260011480156135315750600085838151811061352757634e487b7160e01b600052603260045260246000fd5b6020026020010151115b156135d8576001600160a01b038816600090815260ca6020526040902080548291908590811061357157634e487b7160e01b600052603260045260246000fd5b90600052602060002001600082825461358a91906157a3565b90915550506001600160a01b038816600090815260d26020908152604080832054835260cc9091529020805460019190849081106134d357634e487b7160e01b600052603260045260246000fd5b5050506133a6565b806135ea8161586c565b91505061339d565b5060006136008460076157cf565b61360d90620151806157cf565b6001600160a01b038616600090815260ca602052604081206001018054929350839290919061363d9084906157a3565b90915550505050505050565b600080516020615913833981519152546001600160a01b031690565b3361366e612395565b6001600160a01b0316146116c65760405162461bcd60e51b815260040161096d90615527565b7f4910fdfa16fed3260ed0e7147f7cc6da11a60208b5b9406d12a635614ffd91435460ff16156136cc576136c783614b33565b505050565b826001600160a01b03166352d1902d6040518163ffffffff1660e01b815260040160206040518083038186803b15801561370557600080fd5b505afa925050508015613735575060408051601f3d908101601f1916820190925261373291810190615158565b60015b6137985760405162461bcd60e51b815260206004820152602e60248201527f45524331393637557067726164653a206e657720696d706c656d656e7461746960448201526d6f6e206973206e6f74205555505360901b606482015260840161096d565b60008051602061591383398151915281146138075760405162461bcd60e51b815260206004820152602960248201527f45524331393637557067726164653a20756e737570706f727465642070726f786044820152681a58589b195555525160ba1b606482015260840161096d565b506136c7838383614bcd565b600080846001600160a01b031663a9059cbb85856040516024016138389291906153cd565b6040516020818303038152906040529060e01b6020820180516001600160e01b038381831617835250505050604051613871919061539d565b6000604051808303816000865af19150503d80600081146138ae576040519150601f19603f3d011682016040523d82523d6000602084013e6138b3565b606091505b50915091508180156138dd5750805115806138dd5750808060200190518101906138dd9190615138565b6139295760405162461bcd60e51b815260206004820152601f60248201527f5472616e7366657248656c7065723a205452414e534645525f4641494c454400604482015260640161096d565b5050505050565b609780546001600160a01b038381166001600160a01b0319831681179093556040519116919082907f8be0079c531659141344cd1fd0a4f28419497f9722a3daafe3b4186f6b6457e090600090a35050565b600061398d30614bf2565b15905090565b600054610100900460ff166139ba5760405162461bcd60e51b815260040161096d906155b9565b612327614c01565b600054610100900460ff166139dd5760005460ff16156139e5565b6139e5613982565b613a015760405162461bcd60e51b815260040161096d906154d9565b600054610100900460ff16158015613a23576000805461ffff19166101011790555b8160c960006101000a8154816001600160a01b0302191690836001600160a01b03160217905550600860cf81905550613b2c600160405180604001604052806005815260200164466f6c6b7360d81b815250670de0b6b3a7640000600a60026310bfb84060405180610140016040528060008152602001600081526020016000815260200160008152602001600081526020016000815260200160008152602001600081526020016000815260200160008152506040518061014001604052806000815260200160008152602001600081526020016000815260200160008152602001600081526020016000815260200160008152602001600081526020016000815250612edc565b6040805160e08101825260008082526020808301829052928201819052606082018190526080820181905260a0820181905260c082018190526001905260cb909152613b9b907fb3c459fcfa972435363277a54960f9947fdf75faf912b521fbcc6cd1c34ddc33906007614e13565b506040805160808101825260008082526020808301829052928201819052606082018190526001905260cc909152613bf6907fe7bf1de387f1223f0fc355696e043550abf1cecefa85fce0e824dbbcb1125e72906004614e13565b50613d106002604051806040016040528060058152602001642130b937b760d91b815250678ac7230489e80000600f60056302719c406040518061014001604052806509184e72a0008152602001655af3107a4000815260200166038d7ea4c680008152602001662386f26fc10000815260200167016345785d8a00008152602001670de0b6b3a76400008152602001678ac7230489e80000815260200160008152602001600081526020016000815250604051806101400160405280662386f26fc10000815260200167016345785d8a00008152602001670de0b6b3a764000081526020016000815260200160008152602001600081526020016000815260200160008152602001600081526020016000815250612edc565b6040805160e081018252637735940081526305f5e1006020808301919091526298968092820192909252620f42406060820152620186a0608082015261271060a08201526103e860c0820152600260005260cb909152613d93907f2c278fda8778553b7b7a8cff03a9beadbef1773abb49c1f69c87347759480d59906007614e13565b506040518060800160405280620186a0815260200161271081526020016103e88152602001600081525060cc600060028152602001908152602001600020906004613ddf929190614e13565b50613efa60036040518060400160405280600581526020016410dbdd5b9d60da1b8152506802b5e3af16b18800006014600a623e8fa06040518061014001604052806516bcc41e9000815260200165e35fa931a00081526020016608e1bc9bf0400081526020016658d15e1762800081526020016703782dace9d9000081526020016722b1c8c1227a0000815260200168015af1d78b58c400008152602001600081526020016000815260200160008152506040518061014001604052806658d15e1762800081526020016703782dace9d9000081526020016722b1c8c1227a000081526020016000815260200160008152602001600081526020016000815260200160008152602001600081526020016000815250612edc565b6040805160e0810182526305f5e1008082526020808301919091526298968092820192909252620f42406060820152620186a0608082015261271060a08201526103e860c0820152600360005260cb909152613f79907f3f771ad337758d100996e4f4ea4b0371b93c9bfb5e077c0267534f8d2606ee40906007614e13565b506040518060800160405280620186a0815260200161271081526020016103e88152602001600081525060cc600060038152602001908152602001600020906004613fc5929190614e13565b506140df600460405180604001604052806008815260200167159a5cd8dbdd5b9d60c21b81525068056bc75e2d6310000060196014620186a06040518061014001604052806601c6bf5263400081526020016611c37937e08000815260200166b1a2bc2ec5000081526020016706f05b59d3b200008152602001674563918244f4000081526020016802b5e3af16b18800008152602001600081526020016000815260200160008152602001600081525060405180610140016040528066b1a2bc2ec5000081526020016706f05b59d3b200008152602001674563918244f4000081526020016000815260200160008152602001600081526020016000815260200160008152602001600081526020016000815250612edc565b6040518060e001604052806302719c408152602001629896808152602001620f42408152602001620186a0815260200161271081526020016103e88152602001600081525060cb600060048152602001908152602001600020906007614146929190614e13565b506040518060800160405280620186a0815260200161271081526020016103e88152602001600081525060cc600060048152602001908152602001600020906004614192929190614e13565b506142a360056040518060400160405280600481526020016311585c9b60e21b815250680ad78ebc5ac6200000601e6028612710604051806101400160405280661e32b478974000815260200167012dfb0cb5e880008152602001670bcbce7f1b15000081526020016775f610f70ed20000815260200168049b9ca9a694340000815260200160008152602001600081526020016000815260200160008152602001600081525060405180610140016040528067012dfb0cb5e880008152602001670bcbce7f1b15000081526020016775f610f70ed2000081526020016000815260200160008152602001600081526020016000815260200160008152602001600081526020016000815250612edc565b6040518060e00160405280623e8fa08152602001620f42408152602001620186a0815260200161271081526020016103e8815260200160008152602001600081525060cb600060058152602001908152602001600020906007614307929190614e13565b506040518060800160405280620186a0815260200161271081526020016103e88152602001600081525060cc600060058152602001908152602001600020906004614353929190614e13565b5061446660066040518060400160405280600481526020016344756b6560e01b815250681b1ae4d6e2ef500000602360646103e86040518061014001604052806658d15e1762800081526020016703782dace9d9000081526020016722b1c8c1227a0000815260200168015af1d78b58c400008152602001680d8d726b7177a8000081526020016000815260200160008152602001600081526020016000815260200160008152506040518061014001604052806703782dace9d9000081526020016722b1c8c1227a0000815260200168015af1d78b58c4000081526020016000815260200160008152602001600081526020016000815260200160008152602001600081526020016000815250612edc565b6040518060e00160405280620641908152602001620186a0815260200161271081526020016103e881526020016064815260200160008152602001600081525060cb6000600681526020019081526020016000209060076144c8929190614e13565b50604051806080016040528061271081526020016103e8815260200160648152602001600081525060cc600060068152602001908152602001600020906004614512929190614e13565b506146216007604051806040016040528060068152602001655072696e636560d01b815250683635c9adc5dea00000602861012c60646040518061014001604052806706f05b59d3b200008152602001674563918244f4000081526020016802b5e3af16b18800008152602001681b1ae4d6e2ef5000008152602001600081526020016000815260200160008152602001600081526020016000815260200160008152506040518061014001604052806706f05b59d3b200008152602001674563918244f4000081526020016802b5e3af16b188000081526020016000815260200160008152602001600081526020016000815260200160008152602001600081526020016000815250612edc565b6040518060e0016040528061a028815260200161271081526020016103e88152602001606481526020016000815260200160008152602001600081525060cb600060078152602001908152602001600020906007614680929190614e13565b50604051806080016040528061271081526020016103e8815260200160648152602001600081525060cc6000600781526020019081526020016000209060046146ca929190614e13565b506147e06008604051806040016040528060048152602001634b696e6760e01b815250686c6b935b8bbd40000060326102bc600a604051806101400160405280674563918244f4000081526020016802b5e3af16b18800008152602001681b1ae4d6e2ef500000815260200169010f0cf064dd59200000815260200160008152602001600081526020016000815260200160008152602001600081526020016000815250604051806101400160405280670de0b6b3a76400008152602001670de0b6b3a76400008152602001678ac7230489e80000815260200168056bc75e2d63100000815260200160008152602001600081526020016000815260200160008152602001600081526020016000815250612edc565b6040518060e0016040528061106881526020016103e8815260200160648152602001600a81526020016000815260200160008152602001600081525060cb60006008815260200190815260200160002090600761483e929190614e13565b506040805160808101825261106881526103e8602080830191909152606492820192909252600a6060820152600860005260cc9091526148a1907f0a68722cfe5e4bb6d6065f2d988b2999eaa5afa7c96890bbbd774e09fd7d89a3906004614e13565b5080156115fc576000805461ff00191690555050565b600081815260ce6020526040808220815160e081019092528054839283928392829082906148e490615831565b80601f016020809104026020016040519081016040528092919081815260200182805461491090615831565b801561495d5780601f106149325761010080835404028352916020019161495d565b820191906000526020600020905b81548152906001019060200180831161494057829003601f168201915b5050505050815260200160018201548152602001600282015481526020016003820154815260200160048201548152602001600582018054806020026020016040519081016040528092919081815260200182805480156149dd57602002820191906000526020600020905b8154815260200190600101908083116149c9575b5050505050815260200160068201805480602002602001604051908101604052809291908181526020018280548015614a3557602002820191906000526020600020905b815481526020019060010190808311614a21575b5050509190925250506040805160208082018b9052338284015242606080840191909152835180840390910181526080909201909252805191012091925060009050614a82826002614c31565b905060008082614ada57614aa5614a9a8560076157cf565b8660a0015151614c31565b90508460a001518181518110614acb57634e487b7160e01b600052603260045260246000fd5b60200260200101519150614b24565b614af3614ae88560076157cf565b8660c0015151614c31565b90508460c001518181518110614b1957634e487b7160e01b600052603260045260246000fd5b602002602001015191505b91999198509650945050505050565b614b3c81614bf2565b614b9e5760405162461bcd60e51b815260206004820152602d60248201527f455243313936373a206e657720696d706c656d656e746174696f6e206973206e60448201526c1bdd08184818dbdb9d1c9858dd609a1b606482015260840161096d565b60008051602061591383398151915280546001600160a01b0319166001600160a01b0392909216919091179055565b614bd683614ca8565b600082511180614be35750805b156136c7576115f98383614ce8565b6001600160a01b03163b151590565b600054610100900460ff16614c285760405162461bcd60e51b815260040161096d906155b9565b61232733613930565b600081614c405750600061238f565b81424441614c4f4360016157a3565b6040805160208101959095528401929092526001600160a01b0316606083015240608082015260a081018590524360c082015260e0016040516020818303038152906040528051906020012060001c6110729190615887565b614cb181614b33565b6040516001600160a01b038216907fbc7cd75a20ee27fd9adebab32041f755214dbc6bffa90cc0225b39da2e5c2d3b90600090a250565b6060614cf383614bf2565b614d4e5760405162461bcd60e51b815260206004820152602660248201527f416464726573733a2064656c65676174652063616c6c20746f206e6f6e2d636f6044820152651b9d1c9858dd60d21b606482015260840161096d565b600080846001600160a01b031684604051614d69919061539d565b600060405180830381855af49150503d8060008114614da4576040519150601f19603f3d011682016040523d82523d6000602084013e614da9565b606091505b5091509150614dd1828260405180606001604052806027815260200161593360279139614dda565b95945050505050565b60608315614de9575081611072565b825115614df95782518084602001fd5b8160405162461bcd60e51b815260040161096d91906153e6565b828054828255906000526020600020908101928215614e4e579160200282015b82811115614e4e578251825591602001919060010190614e33565b50614e5a929150614ed1565b5090565b828054614e6a90615831565b90600052602060002090601f016020900481019282614e8c5760008555614e4e565b82601f10614ea557805160ff1916838001178555614e4e565b82800160010185558215614e4e5791820182811115614e4e578251825591602001919060010190614e33565b5b80821115614e5a5760008155600101614ed2565b60006001600160401b03831115614eff57614eff6158c7565b614f12601f8401601f1916602001615773565b9050828152838383011115614f2657600080fd5b828260208301376000602084830101529392505050565b8035614f48816158dd565b919050565b600082601f830112614f5d578081fd5b6040516101408082016001600160401b0381118382101715614f8157614f816158c7565b6040528184828101871015614f94578485fd5b8492505b600a831015614fb857803582526001929092019160209182019101614f98565b509195945050505050565b600060208284031215614fd4578081fd5b8135611072816158dd565b60008060408385031215614ff1578081fd5b8235614ffc816158dd565b915060208301356001600160401b03811115615016578182fd5b8301601f81018513615026578182fd5b61503585823560208401614ee6565b9150509250929050565b600080600060608486031215615053578081fd5b833561505e816158dd565b95602085013595506040909401359392505050565b60008060408385031215615085578182fd5b82356001600160401b038082111561509b578384fd5b818501915085601f8301126150ae578384fd5b81356020828211156150c2576150c26158c7565b8160051b92506150d3818401615773565b8281528181019085830185870184018b10156150ed578889fd5b8896505b8487101561511b5780359550615106866158dd565b858352600196909601959183019183016150f1565b50965061512b9050878201614f3d565b9450505050509250929050565b600060208284031215615149578081fd5b81518015158114611072578182fd5b600060208284031215615169578081fd5b5051919050565b600060208284031215615181578081fd5b8151611072816158dd565b60006020828403121561519d578081fd5b5035919050565b600080600080600080600080610340898b0312156151c0578586fd5b8835975060208901356001600160401b038111156151dc578687fd5b8901601f81018b136151ec578687fd5b6151fb8b823560208401614ee6565b97505060408901359550606089013594506080890135935060a089013592506152278a60c08b01614f4d565b91506152378a6102008b01614f4d565b90509295985092959890939650565b60008060408385031215615258578182fd5b50508035926020909101359150565b6000815180845260208085019450808401835b838110156152965781518752958201959082019060010161527a565b509495945050505050565b6000815480845260208085019450838352808320835b83811015615296578154875295820195600191820191016152b7565b600081518084526152eb816020860160208601615805565b601f01601f19169290920160200192915050565b8054600090600181811c908083168061531957607f831692505b602080841082141561533957634e487b7160e01b86526022600452602486fd5b83885260208801828015615354576001811461536557615390565b60ff19871682528282019750615390565b60008981526020902060005b8781101561538a57815484820152908601908401615371565b83019850505b5050505050505092915050565b600082516153af818460208701615805565b9190910192915050565b6001600160a01b0391909116815260200190565b6001600160a01b03929092168252602082015260400190565b60208152600061107260208301846152d3565b60a08152600061540c60a08301886152d3565b90508560208301528460408301528360608301528260808301529695505050505050565b6020808252602c908201526000805160206158f383398151915260408201526b19195b1959d85d1958d85b1b60a21b606082015260800190565b6020808252602c908201526000805160206158f383398151915260408201526b6163746976652070726f787960a01b606082015260800190565b6020808252818101527f6e6f62696c69747920706f6f6c27732062616c616e6365206f766572666c6f77604082015260600190565b6020808252602e908201527f496e697469616c697a61626c653a20636f6e747261637420697320616c72656160408201526d191e481a5b9a5d1a585b1a5e995960921b606082015260800190565b6020808252818101527f4f776e61626c653a2063616c6c6572206973206e6f7420746865206f776e6572604082015260600190565b6020808252601290820152716f6e6c7920736d617274206d656d6265727360701b604082015260600190565b6020808252601790820152767573657227732062616c616e6365206f766572666c6f7760481b604082015260600190565b6020808252602b908201527f496e697469616c697a61626c653a20636f6e7472616374206973206e6f74206960408201526a6e697469616c697a696e6760a81b606082015260800190565b602081526000825160e060208401526156216101008401826152d3565b9050602084015160408401526040840151606084015260608401516080840152608084015160a084015260a0840151601f19808584030160c08601526156678383615267565b925060c08601519150808584030160e086015250614dd18282615267565b600060a082018783526020878185015260a0604085015281875180845260c0860191508289019350845b818110156156d45784516001600160a01b0316835293830193918301916001016156af565b50506001600160a01b03969096166060850152505050608001529392505050565b8281526040602082015260e0604082015260006157166101208301846152ff565b6001840154606084015260028401546080840152600384015460a0840152600484015460c0840152603f19808483030160e085015261575882600587016152a1565b9150808483030161010085015250614dd181600686016152a1565b604051601f8201601f191681016001600160401b038111828210171561579b5761579b6158c7565b604052919050565b600082198211156157b6576157b661589b565b500190565b6000826157ca576157ca6158b1565b500490565b60008160001904831182151516156157e9576157e961589b565b500290565b6000828210156158005761580061589b565b500390565b60005b83811015615820578181015183820152602001615808565b838111156115f95750506000910152565b600181811c9082168061584557607f821691505b6020821081141561586657634e487b7160e01b600052602260045260246000fd5b50919050565b60006000198214156158805761588061589b565b5060010190565b600082615896576158966158b1565b500690565b634e487b7160e01b600052601160045260246000fd5b634e487b7160e01b600052601260045260246000fd5b634e487b7160e01b600052604160045260246000fd5b6001600160a01b03811681146116c657600080fdfe46756e6374696f6e206d7573742062652063616c6c6564207468726f75676820360894a13ba1a3210667c828492db98dca3e2076cc3735a920a3ca505d382bbc416464726573733a206c6f772d6c6576656c2064656c65676174652063616c6c206661696c6564a2646970667358221220418684c0025ce79a5bf4a514c6292cc819930b08f62ba6ab1545049f749a1f7864736f6c63430008040033",
  "linkReferences": {},
  "deployedLinkReferences": {}
}