{
  "_format": "hh-sol-artifact-1",
  "contractName": "SmartToken",
  "sourceName": "contracts/SmartToken.sol",
  "abi": [
    {
      "anonymous": false,
      "inputs": [
        {
          "indexed": false,
          "internalType": "uint256",
          "name": "lengthOfWhitelist",
          "type": "uint256"
        }
      ],
      "name": "AddedWhitelist",
      "type": "event"
    },
    {
      "anonymous": false,
      "inputs": [
        {
          "indexed": false,
          "internalType": "address",
          "name": "previousAdmin",
          "type": "address"
        },
        {
          "indexed": false,
          "internalType": "address",
          "name": "newAdmin",
          "type": "address"
        }
      ],
      "name": "AdminChanged",
      "type": "event"
    },
    {
      "anonymous": false,
      "inputs": [
        {
          "indexed": true,
          "internalType": "address",
          "name": "owner",
          "type": "address"
        },
        {
          "indexed": true,
          "internalType": "address",
          "name": "spender",
          "type": "address"
        },
        {
          "indexed": false,
          "internalType": "uint256",
          "name": "value",
          "type": "uint256"
        }
      ],
      "name": "Approval",
      "type": "event"
    },
    {
      "anonymous": false,
      "inputs": [
        {
          "indexed": true,
          "internalType": "address",
          "name": "beacon",
          "type": "address"
        }
      ],
      "name": "BeaconUpgraded",
      "type": "event"
    },
    {
      "anonymous": false,
      "inputs": [
        {
          "indexed": true,
          "internalType": "address",
          "name": "_selfToken",
          "type": "address"
        }
      ],
      "name": "CreatedBNBPair",
      "type": "event"
    },
    {
      "anonymous": false,
      "inputs": [
        {
          "indexed": true,
          "internalType": "address",
          "name": "tokenA",
          "type": "address"
        },
        {
          "indexed": true,
          "internalType": "address",
          "name": "tokenB",
          "type": "address"
        }
      ],
      "name": "CreatedPair",
      "type": "event"
    },
    {
      "anonymous": false,
      "inputs": [
        {
          "indexed": true,
          "internalType": "address",
          "name": "account",
          "type": "address"
        },
        {
          "indexed": false,
          "internalType": "bool",
          "name": "excluded",
          "type": "bool"
        }
      ],
      "name": "ExcludeFromFee",
      "type": "event"
    },
    {
      "anonymous": false,
      "inputs": [
        {
          "indexed": true,
          "internalType": "address",
          "name": "previousOwner",
          "type": "address"
        },
        {
          "indexed": true,
          "internalType": "address",
          "name": "newOwner",
          "type": "address"
        }
      ],
      "name": "OwnershipTransferred",
      "type": "event"
    },
    {
      "anonymous": false,
      "inputs": [
        {
          "indexed": false,
          "internalType": "uint256",
          "name": "start_timestamp",
          "type": "uint256"
        }
      ],
      "name": "ResetedTimestamp",
      "type": "event"
    },
    {
      "anonymous": false,
      "inputs": [
        {
          "indexed": true,
          "internalType": "address",
          "name": "referral",
          "type": "address"
        },
        {
          "indexed": true,
          "internalType": "address",
          "name": "goldenTree",
          "type": "address"
        },
        {
          "indexed": true,
          "internalType": "address",
          "name": "dev",
          "type": "address"
        },
        {
          "indexed": false,
          "internalType": "address",
          "name": "achievement",
          "type": "address"
        },
        {
          "indexed": false,
          "internalType": "address",
          "name": "farming",
          "type": "address"
        }
      ],
      "name": "TaxAddressesUpdated",
      "type": "event"
    },
    {
      "anonymous": false,
      "inputs": [
        {
          "indexed": true,
          "internalType": "address",
          "name": "from",
          "type": "address"
        },
        {
          "indexed": true,
          "internalType": "address",
          "name": "to",
          "type": "address"
        },
        {
          "indexed": false,
          "internalType": "uint256",
          "name": "value",
          "type": "uint256"
        }
      ],
      "name": "Transfer",
      "type": "event"
    },
    {
      "anonymous": false,
      "inputs": [
        {
          "indexed": false,
          "internalType": "uint256",
          "name": "_price",
          "type": "uint256"
        },
        {
          "indexed": false,
          "internalType": "uint256",
          "name": "_decimal",
          "type": "uint256"
        }
      ],
      "name": "UpdatedBNBInfo",
      "type": "event"
    },
    {
      "anonymous": false,
      "inputs": [
        {
          "indexed": false,
          "internalType": "uint256",
          "name": "buyTaxFee",
          "type": "uint256"
        }
      ],
      "name": "UpdatedBuyFee",
      "type": "event"
    },
    {
      "anonymous": false,
      "inputs": [
        {
          "indexed": false,
          "internalType": "uint256",
          "name": "referralFee",
          "type": "uint256"
        },
        {
          "indexed": false,
          "internalType": "uint256",
          "name": "goldenPoolFee",
          "type": "uint256"
        },
        {
          "indexed": false,
          "internalType": "uint256",
          "name": "devFee",
          "type": "uint256"
        },
        {
          "indexed": false,
          "internalType": "uint256",
          "name": "achievementFee",
          "type": "uint256"
        }
      ],
      "name": "UpdatedBuyTaxFees",
      "type": "event"
    },
    {
      "anonymous": false,
      "inputs": [
        {
          "indexed": false,
          "internalType": "address",
          "name": "_assetToken",
          "type": "address"
        },
        {
          "indexed": false,
          "internalType": "uint256",
          "name": "_price",
          "type": "uint256"
        },
        {
          "indexed": false,
          "internalType": "uint256",
          "name": "_decimal",
          "type": "uint256"
        }
      ],
      "name": "UpdatedBuyingTokenInfo",
      "type": "event"
    },
    {
      "anonymous": false,
      "inputs": [
        {
          "indexed": true,
          "internalType": "address",
          "name": "_router",
          "type": "address"
        }
      ],
      "name": "UpdatedExchangeRouter",
      "type": "event"
    },
    {
      "anonymous": false,
      "inputs": [
        {
          "indexed": true,
          "internalType": "address",
          "name": "_address",
          "type": "address"
        }
      ],
      "name": "UpdatedGoldenTree",
      "type": "event"
    },
    {
      "anonymous": false,
      "inputs": [
        {
          "indexed": false,
          "internalType": "uint256",
          "name": "sellTaxFee",
          "type": "uint256"
        }
      ],
      "name": "UpdatedSellFee",
      "type": "event"
    },
    {
      "anonymous": false,
      "inputs": [
        {
          "indexed": false,
          "internalType": "uint256",
          "name": "devFee",
          "type": "uint256"
        },
        {
          "indexed": false,
          "internalType": "uint256",
          "name": "goldenPoolFee",
          "type": "uint256"
        },
        {
          "indexed": false,
          "internalType": "uint256",
          "name": "farmingFee",
          "type": "uint256"
        },
        {
          "indexed": false,
          "internalType": "uint256",
          "name": "burnFee",
          "type": "uint256"
        },
        {
          "indexed": false,
          "internalType": "uint256",
          "name": "achievementFee",
          "type": "uint256"
        }
      ],
      "name": "UpdatedSellTaxFees",
      "type": "event"
    },
    {
      "anonymous": false,
      "inputs": [
        {
          "indexed": true,
          "internalType": "address",
          "name": "_address",
          "type": "address"
        }
      ],
      "name": "UpdatedSmartArmy",
      "type": "event"
    },
    {
      "anonymous": false,
      "inputs": [
        {
          "indexed": false,
          "internalType": "bool",
          "name": "lockDevTax",
          "type": "bool"
        },
        {
          "indexed": false,
          "internalType": "bool",
          "name": "lockGoldenTreeTax",
          "type": "bool"
        },
        {
          "indexed": false,
          "internalType": "bool",
          "name": "lockFarmingTax",
          "type": "bool"
        },
        {
          "indexed": false,
          "internalType": "bool",
          "name": "lockBurnTax",
          "type": "bool"
        },
        {
          "indexed": false,
          "internalType": "bool",
          "name": "lockAchievementTax",
          "type": "bool"
        },
        {
          "indexed": false,
          "internalType": "bool",
          "name": "lockReferralTax",
          "type": "bool"
        }
      ],
      "name": "UpdatedTaxLockStatus",
      "type": "event"
    },
    {
      "anonymous": false,
      "inputs": [
        {
          "indexed": false,
          "internalType": "uint256",
          "name": "buyNormalTax",
          "type": "uint256"
        },
        {
          "indexed": false,
          "internalType": "uint256",
          "name": "sellNormalTax",
          "type": "uint256"
        },
        {
          "indexed": false,
          "internalType": "uint256",
          "name": "transferNormalTax",
          "type": "uint256"
        },
        {
          "indexed": false,
          "internalType": "uint256",
          "name": "buyIntermediaryTax",
          "type": "uint256"
        },
        {
          "indexed": false,
          "internalType": "uint256",
          "name": "sellIntermediaryTax",
          "type": "uint256"
        },
        {
          "indexed": false,
          "internalType": "uint256",
          "name": "transferIntermediaryTax",
          "type": "uint256"
        }
      ],
      "name": "UpdatedTaxes",
      "type": "event"
    },
    {
      "anonymous": false,
      "inputs": [
        {
          "indexed": false,
          "internalType": "uint256",
          "name": "transferTaxFee",
          "type": "uint256"
        }
      ],
      "name": "UpdatedTransferFee",
      "type": "event"
    },
    {
      "anonymous": false,
      "inputs": [
        {
          "indexed": false,
          "internalType": "uint256",
          "name": "devFee",
          "type": "uint256"
        },
        {
          "indexed": false,
          "internalType": "uint256",
          "name": "achievementFee",
          "type": "uint256"
        },
        {
          "indexed": false,
          "internalType": "uint256",
          "name": "goldenPoolFee",
          "type": "uint256"
        },
        {
          "indexed": false,
          "internalType": "uint256",
          "name": "farmingFee",
          "type": "uint256"
        }
      ],
      "name": "UpdatedTransferTaxFees",
      "type": "event"
    },
    {
      "anonymous": false,
      "inputs": [
        {
          "indexed": false,
          "internalType": "address",
          "name": "account",
          "type": "address"
        },
        {
          "indexed": false,
          "internalType": "bool",
          "name": "enable",
          "type": "bool"
        }
      ],
      "name": "UpdatedWhitelistAccount",
      "type": "event"
    },
    {
      "anonymous": false,
      "inputs": [
        {
          "indexed": true,
          "internalType": "address",
          "name": "implementation",
          "type": "address"
        }
      ],
      "name": "Upgraded",
      "type": "event"
    },
    {
      "inputs": [],
      "name": "BURN_ADDRESS",
      "outputs": [
        {
          "internalType": "address",
          "name": "",
          "type": "address"
        }
      ],
      "stateMutability": "view",
      "type": "function"
    },
    {
      "inputs": [],
      "name": "_buyAchievementFee",
      "outputs": [
        {
          "internalType": "uint256",
          "name": "",
          "type": "uint256"
        }
      ],
      "stateMutability": "view",
      "type": "function"
    },
    {
      "inputs": [],
      "name": "_buyDevFee",
      "outputs": [
        {
          "internalType": "uint256",
          "name": "",
          "type": "uint256"
        }
      ],
      "stateMutability": "view",
      "type": "function"
    },
    {
      "inputs": [],
      "name": "_buyGoldenPoolFee",
      "outputs": [
        {
          "internalType": "uint256",
          "name": "",
          "type": "uint256"
        }
      ],
      "stateMutability": "view",
      "type": "function"
    },
    {
      "inputs": [],
      "name": "_buyIntermediaryTaxFee",
      "outputs": [
        {
          "internalType": "uint256",
          "name": "",
          "type": "uint256"
        }
      ],
      "stateMutability": "view",
      "type": "function"
    },
    {
      "inputs": [],
      "name": "_buyNormalTaxFee",
      "outputs": [
        {
          "internalType": "uint256",
          "name": "",
          "type": "uint256"
        }
      ],
      "stateMutability": "view",
      "type": "function"
    },
    {
      "inputs": [],
      "name": "_buyReferralFee",
      "outputs": [
        {
          "internalType": "uint256",
          "name": "",
          "type": "uint256"
        }
      ],
      "stateMutability": "view",
      "type": "function"
    },
    {
      "inputs": [],
      "name": "_sellAchievementFee",
      "outputs": [
        {
          "internalType": "uint256",
          "name": "",
          "type": "uint256"
        }
      ],
      "stateMutability": "view",
      "type": "function"
    },
    {
      "inputs": [],
      "name": "_sellBurnFee",
      "outputs": [
        {
          "internalType": "uint256",
          "name": "",
          "type": "uint256"
        }
      ],
      "stateMutability": "view",
      "type": "function"
    },
    {
      "inputs": [],
      "name": "_sellDevFee",
      "outputs": [
        {
          "internalType": "uint256",
          "name": "",
          "type": "uint256"
        }
      ],
      "stateMutability": "view",
      "type": "function"
    },
    {
      "inputs": [],
      "name": "_sellFarmingFee",
      "outputs": [
        {
          "internalType": "uint256",
          "name": "",
          "type": "uint256"
        }
      ],
      "stateMutability": "view",
      "type": "function"
    },
    {
      "inputs": [],
      "name": "_sellGoldenPoolFee",
      "outputs": [
        {
          "internalType": "uint256",
          "name": "",
          "type": "uint256"
        }
      ],
      "stateMutability": "view",
      "type": "function"
    },
    {
      "inputs": [],
      "name": "_sellIntermediaryTaxFee",
      "outputs": [
        {
          "internalType": "uint256",
          "name": "",
          "type": "uint256"
        }
      ],
      "stateMutability": "view",
      "type": "function"
    },
    {
      "inputs": [],
      "name": "_sellNormalTaxFee",
      "outputs": [
        {
          "internalType": "uint256",
          "name": "",
          "type": "uint256"
        }
      ],
      "stateMutability": "view",
      "type": "function"
    },
    {
      "inputs": [],
      "name": "_transferAchievementFee",
      "outputs": [
        {
          "internalType": "uint256",
          "name": "",
          "type": "uint256"
        }
      ],
      "stateMutability": "view",
      "type": "function"
    },
    {
      "inputs": [],
      "name": "_transferDevFee",
      "outputs": [
        {
          "internalType": "uint256",
          "name": "",
          "type": "uint256"
        }
      ],
      "stateMutability": "view",
      "type": "function"
    },
    {
      "inputs": [],
      "name": "_transferFarmingFee",
      "outputs": [
        {
          "internalType": "uint256",
          "name": "",
          "type": "uint256"
        }
      ],
      "stateMutability": "view",
      "type": "function"
    },
    {
      "inputs": [],
      "name": "_transferGoldenFee",
      "outputs": [
        {
          "internalType": "uint256",
          "name": "",
          "type": "uint256"
        }
      ],
      "stateMutability": "view",
      "type": "function"
    },
    {
      "inputs": [],
      "name": "_transferIntermediaryTaxFee",
      "outputs": [
        {
          "internalType": "uint256",
          "name": "",
          "type": "uint256"
        }
      ],
      "stateMutability": "view",
      "type": "function"
    },
    {
      "inputs": [],
      "name": "_transferNormalTaxFee",
      "outputs": [
        {
          "internalType": "uint256",
          "name": "",
          "type": "uint256"
        }
      ],
      "stateMutability": "view",
      "type": "function"
    },
    {
      "inputs": [],
      "name": "_uniswapV2BUSDPair",
      "outputs": [
        {
          "internalType": "address",
          "name": "",
          "type": "address"
        }
      ],
      "stateMutability": "view",
      "type": "function"
    },
    {
      "inputs": [],
      "name": "_uniswapV2ETHPair",
      "outputs": [
        {
          "internalType": "address",
          "name": "",
          "type": "address"
        }
      ],
      "stateMutability": "view",
      "type": "function"
    },
    {
      "inputs": [
        {
          "internalType": "address",
          "name": "owner",
          "type": "address"
        },
        {
          "internalType": "address",
          "name": "spender",
          "type": "address"
        }
      ],
      "name": "allowance",
      "outputs": [
        {
          "internalType": "uint256",
          "name": "",
          "type": "uint256"
        }
      ],
      "stateMutability": "view",
      "type": "function"
    },
    {
      "inputs": [
        {
          "internalType": "address",
          "name": "spender",
          "type": "address"
        },
        {
          "internalType": "uint256",
          "name": "amount",
          "type": "uint256"
        }
      ],
      "name": "approve",
      "outputs": [
        {
          "internalType": "bool",
          "name": "",
          "type": "bool"
        }
      ],
      "stateMutability": "nonpayable",
      "type": "function"
    },
    {
      "inputs": [
        {
          "internalType": "address",
          "name": "account",
          "type": "address"
        }
      ],
      "name": "balanceOf",
      "outputs": [
        {
          "internalType": "uint256",
          "name": "",
          "type": "uint256"
        }
      ],
      "stateMutability": "view",
      "type": "function"
    },
    {
      "inputs": [],
      "name": "comptroller",
      "outputs": [
        {
          "internalType": "contract ISmartComp",
          "name": "",
          "type": "address"
        }
      ],
      "stateMutability": "view",
      "type": "function"
    },
    {
      "inputs": [],
      "name": "createBNBPair",
      "outputs": [],
      "stateMutability": "nonpayable",
      "type": "function"
    },
    {
      "inputs": [
        {
          "internalType": "address",
          "name": "_busdToken",
          "type": "address"
        }
      ],
      "name": "createBUSDPair",
      "outputs": [],
      "stateMutability": "nonpayable",
      "type": "function"
    },
    {
      "inputs": [
        {
          "internalType": "address",
          "name": "_assetToken",
          "type": "address"
        }
      ],
      "name": "createPair",
      "outputs": [],
      "stateMutability": "nonpayable",
      "type": "function"
    },
    {
      "inputs": [],
      "name": "decimals",
      "outputs": [
        {
          "internalType": "uint8",
          "name": "",
          "type": "uint8"
        }
      ],
      "stateMutability": "view",
      "type": "function"
    },
    {
      "inputs": [
        {
          "internalType": "address",
          "name": "spender",
          "type": "address"
        },
        {
          "internalType": "uint256",
          "name": "subtractedValue",
          "type": "uint256"
        }
      ],
      "name": "decreaseAllowance",
      "outputs": [
        {
          "internalType": "bool",
          "name": "",
          "type": "bool"
        }
      ],
      "stateMutability": "nonpayable",
      "type": "function"
    },
    {
      "inputs": [
        {
          "internalType": "address",
          "name": "account",
          "type": "address"
        }
      ],
      "name": "enabledIntermediary",
      "outputs": [
        {
          "internalType": "bool",
          "name": "",
          "type": "bool"
        }
      ],
      "stateMutability": "view",
      "type": "function"
    },
    {
      "inputs": [
        {
          "internalType": "address",
          "name": "account",
          "type": "address"
        },
        {
          "internalType": "bool",
          "name": "excluded",
          "type": "bool"
        }
      ],
      "name": "excludeFromFee",
      "outputs": [],
      "stateMutability": "nonpayable",
      "type": "function"
    },
    {
      "inputs": [],
      "name": "getETHPair",
      "outputs": [
        {
          "internalType": "address",
          "name": "",
          "type": "address"
        }
      ],
      "stateMutability": "view",
      "type": "function"
    },
    {
      "inputs": [],
      "name": "getOwner",
      "outputs": [
        {
          "internalType": "address",
          "name": "",
          "type": "address"
        }
      ],
      "stateMutability": "view",
      "type": "function"
    },
    {
      "inputs": [
        {
          "internalType": "address",
          "name": "_assetToken",
          "type": "address"
        }
      ],
      "name": "getPair",
      "outputs": [
        {
          "internalType": "address",
          "name": "",
          "type": "address"
        }
      ],
      "stateMutability": "view",
      "type": "function"
    },
    {
      "inputs": [
        {
          "internalType": "address",
          "name": "spender",
          "type": "address"
        },
        {
          "internalType": "uint256",
          "name": "addedValue",
          "type": "uint256"
        }
      ],
      "name": "increaseAllowance",
      "outputs": [
        {
          "internalType": "bool",
          "name": "",
          "type": "bool"
        }
      ],
      "stateMutability": "nonpayable",
      "type": "function"
    },
    {
      "inputs": [
        {
          "internalType": "address",
          "name": "_comp",
          "type": "address"
        },
        {
          "internalType": "address",
          "name": "_dev",
          "type": "address"
        },
        {
          "internalType": "address",
          "name": "_airdrop",
          "type": "address"
        }
      ],
      "name": "initialize",
      "outputs": [],
      "stateMutability": "nonpayable",
      "type": "function"
    },
    {
      "inputs": [
        {
          "internalType": "address",
          "name": "account",
          "type": "address"
        }
      ],
      "name": "isExcludedFromFee",
      "outputs": [
        {
          "internalType": "bool",
          "name": "",
          "type": "bool"
        }
      ],
      "stateMutability": "view",
      "type": "function"
    },
    {
      "inputs": [],
      "name": "name",
      "outputs": [
        {
          "internalType": "string",
          "name": "",
          "type": "string"
        }
      ],
      "stateMutability": "view",
      "type": "function"
    },
    {
      "inputs": [],
      "name": "owner",
      "outputs": [
        {
          "internalType": "address",
          "name": "",
          "type": "address"
        }
      ],
      "stateMutability": "view",
      "type": "function"
    },
    {
      "inputs": [],
      "name": "proxiableUUID",
      "outputs": [
        {
          "internalType": "bytes32",
          "name": "",
          "type": "bytes32"
        }
      ],
      "stateMutability": "view",
      "type": "function"
    },
    {
      "inputs": [],
      "name": "renounceOwnership",
      "outputs": [],
      "stateMutability": "nonpayable",
      "type": "function"
    },
    {
      "inputs": [
        {
          "internalType": "uint256",
          "name": "buyTaxFee",
          "type": "uint256"
        }
      ],
      "name": "setBuyFee",
      "outputs": [],
      "stateMutability": "nonpayable",
      "type": "function"
    },
    {
      "inputs": [
        {
          "internalType": "uint256",
          "name": "referralFee",
          "type": "uint256"
        },
        {
          "internalType": "uint256",
          "name": "goldenPoolFee",
          "type": "uint256"
        },
        {
          "internalType": "uint256",
          "name": "devFee",
          "type": "uint256"
        },
        {
          "internalType": "uint256",
          "name": "achievementFee",
          "type": "uint256"
        }
      ],
      "name": "setBuyTaxFees",
      "outputs": [],
      "stateMutability": "nonpayable",
      "type": "function"
    },
    {
      "inputs": [
        {
          "internalType": "address",
          "name": "_address",
          "type": "address"
        }
      ],
      "name": "setGoldenTreeAddress",
      "outputs": [],
      "stateMutability": "nonpayable",
      "type": "function"
    },
    {
      "inputs": [
        {
          "internalType": "uint256",
          "name": "sellTaxFee",
          "type": "uint256"
        }
      ],
      "name": "setSellFee",
      "outputs": [],
      "stateMutability": "nonpayable",
      "type": "function"
    },
    {
      "inputs": [
        {
          "internalType": "uint256",
          "name": "devFee",
          "type": "uint256"
        },
        {
          "internalType": "uint256",
          "name": "goldenPoolFee",
          "type": "uint256"
        },
        {
          "internalType": "uint256",
          "name": "farmingFee",
          "type": "uint256"
        },
        {
          "internalType": "uint256",
          "name": "burnFee",
          "type": "uint256"
        },
        {
          "internalType": "uint256",
          "name": "achievementFee",
          "type": "uint256"
        }
      ],
      "name": "setSellTaxFees",
      "outputs": [],
      "stateMutability": "nonpayable",
      "type": "function"
    },
    {
      "inputs": [
        {
          "internalType": "address",
          "name": "_address",
          "type": "address"
        }
      ],
      "name": "setSmartArmyAddress",
      "outputs": [],
      "stateMutability": "nonpayable",
      "type": "function"
    },
    {
      "inputs": [
        {
          "internalType": "address",
          "name": "_smartComp",
          "type": "address"
        }
      ],
      "name": "setSmartComp",
      "outputs": [],
      "stateMutability": "nonpayable",
      "type": "function"
    },
    {
      "inputs": [
        {
          "internalType": "address",
          "name": "referral",
          "type": "address"
        },
        {
          "internalType": "address",
          "name": "goldenTree",
          "type": "address"
        },
        {
          "internalType": "address",
          "name": "achievement",
          "type": "address"
        },
        {
          "internalType": "address",
          "name": "farming",
          "type": "address"
        },
        {
          "internalType": "address",
          "name": "intermediary",
          "type": "address"
        },
        {
          "internalType": "address",
          "name": "dev",
          "type": "address"
        },
        {
          "internalType": "address",
          "name": "airdrop",
          "type": "address"
        }
      ],
      "name": "setTaxAddresses",
      "outputs": [],
      "stateMutability": "nonpayable",
      "type": "function"
    },
    {
      "inputs": [
        {
          "internalType": "uint256",
          "name": "buyNormalTax",
          "type": "uint256"
        },
        {
          "internalType": "uint256",
          "name": "sellNormalTax",
          "type": "uint256"
        },
        {
          "internalType": "uint256",
          "name": "transferNormalTax",
          "type": "uint256"
        },
        {
          "internalType": "uint256",
          "name": "buyIntermediaryTax",
          "type": "uint256"
        },
        {
          "internalType": "uint256",
          "name": "sellIntermediaryTax",
          "type": "uint256"
        },
        {
          "internalType": "uint256",
          "name": "transferIntermediaryTax",
          "type": "uint256"
        }
      ],
      "name": "setTaxFees",
      "outputs": [],
      "stateMutability": "nonpayable",
      "type": "function"
    },
    {
      "inputs": [
        {
          "internalType": "bool",
          "name": "lockDevTax",
          "type": "bool"
        },
        {
          "internalType": "bool",
          "name": "lockGoldenTreeTax",
          "type": "bool"
        },
        {
          "internalType": "bool",
          "name": "lockFarmingTax",
          "type": "bool"
        },
        {
          "internalType": "bool",
          "name": "lockBurnTax",
          "type": "bool"
        },
        {
          "internalType": "bool",
          "name": "lockAchievementTax",
          "type": "bool"
        },
        {
          "internalType": "bool",
          "name": "lockReferralTax",
          "type": "bool"
        }
      ],
      "name": "setTaxLockStatus",
      "outputs": [],
      "stateMutability": "nonpayable",
      "type": "function"
    },
    {
      "inputs": [
        {
          "internalType": "uint256",
          "name": "transferTaxFee",
          "type": "uint256"
        }
      ],
      "name": "setTransferFee",
      "outputs": [],
      "stateMutability": "nonpayable",
      "type": "function"
    },
    {
      "inputs": [
        {
          "internalType": "uint256",
          "name": "devFee",
          "type": "uint256"
        },
        {
          "internalType": "uint256",
          "name": "achievementFee",
          "type": "uint256"
        },
        {
          "internalType": "uint256",
          "name": "goldenPoolFee",
          "type": "uint256"
        },
        {
          "internalType": "uint256",
          "name": "farmingFee",
          "type": "uint256"
        }
      ],
      "name": "setTransferTaxFees",
      "outputs": [],
      "stateMutability": "nonpayable",
      "type": "function"
    },
    {
      "inputs": [],
      "name": "symbol",
      "outputs": [
        {
          "internalType": "string",
          "name": "",
          "type": "string"
        }
      ],
      "stateMutability": "view",
      "type": "function"
    },
    {
      "inputs": [],
      "name": "totalSupply",
      "outputs": [
        {
          "internalType": "uint256",
          "name": "",
          "type": "uint256"
        }
      ],
      "stateMutability": "view",
      "type": "function"
    },
    {
      "inputs": [
        {
          "internalType": "address",
          "name": "recipient",
          "type": "address"
        },
        {
          "internalType": "uint256",
          "name": "amount",
          "type": "uint256"
        }
      ],
      "name": "transfer",
      "outputs": [
        {
          "internalType": "bool",
          "name": "",
          "type": "bool"
        }
      ],
      "stateMutability": "nonpayable",
      "type": "function"
    },
    {
      "inputs": [
        {
          "internalType": "address",
          "name": "sender",
          "type": "address"
        },
        {
          "internalType": "address",
          "name": "recipient",
          "type": "address"
        },
        {
          "internalType": "uint256",
          "name": "amount",
          "type": "uint256"
        }
      ],
      "name": "transferFrom",
      "outputs": [
        {
          "internalType": "bool",
          "name": "",
          "type": "bool"
        }
      ],
      "stateMutability": "nonpayable",
      "type": "function"
    },
    {
      "inputs": [
        {
          "internalType": "address",
          "name": "newOwner",
          "type": "address"
        }
      ],
      "name": "transferOwnership",
      "outputs": [],
      "stateMutability": "nonpayable",
      "type": "function"
    },
    {
      "inputs": [
        {
          "internalType": "address",
          "name": "newImplementation",
          "type": "address"
        }
      ],
      "name": "upgradeTo",
      "outputs": [],
      "stateMutability": "nonpayable",
      "type": "function"
    },
    {
      "inputs": [
        {
          "internalType": "address",
          "name": "newImplementation",
          "type": "address"
        },
        {
          "internalType": "bytes",
          "name": "data",
          "type": "bytes"
        }
      ],
      "name": "upgradeToAndCall",
      "outputs": [],
      "stateMutability": "payable",
      "type": "function"
    }
  ],
  "bytecode": "0x60a06040523060601b60805234801561001757600080fd5b5060805160601c614de261005260003960008181610c5601528181610c9601528181610e7e01528181610ebe0152610fdb0152614de26000f3fe6080604052600436106102bd5760003560e01c806306fdde03146102c2578063095ea7b3146102ed5780630cc835a31461031d5780631194d0641461033f57806318160ddd146103635780631a788a021461037857806323b872dd146103a557806324cae07f146103c557806325572828146103db578063313ce567146103f15780633659cfe61461041357806339509351146104335780633b860c931461045357806341009e5f146104735780634842fcef146104895780634f1ef286146104a957806350f36c30146104bc578063515b94fb146104d257806352d1902d146104f257806353048640146105075780635342acb41461051d578063587cf213146105565780635ca3f8db146105765780635fe3b5671461059657806362015852146105b657806370a08231146105cc578063715018a6146106025780637abdc1ca146106175780637e80b9d21461062d578063827a324014610652578063893d20e8146106725780638b4cee08146106875780638da5cb5b146106a75780638f02bb5b146106bc578063956fef8b146106dc57806395d89b41146106fc5780639ccb0744146107115780639f611b0814610731578063a1c1757c14610747578063a1d9508314610767578063a457c2d71461077d578063a9059cbb1461079d578063a95bada5146107bd578063a981139d146107d3578063b661ef78146107f3578063b7fb98ef14610809578063c0c53b8b1461081f578063c0f8c9b91461083f578063c1e34efa14610855578063c7256da41461086a578063c9cf778914610880578063cb9cecdd14610896578063cbe0e3ed146108b6578063d821d979146108d6578063dd2f1471146108f6578063dd62ed3e1461090c578063df8408fe14610952578063e39b377714610972578063f2fde38b14610988578063f40cf331146109a8578063fc177803146109be578063fccc2813146109e1575b600080fd5b3480156102ce57600080fd5b506102d76109f7565b6040516102e491906149bc565b60405180910390f35b3480156102f957600080fd5b5061030d6103083660046147cd565b610a89565b60405190151581526020016102e4565b34801561032957600080fd5b5061033d6103383660046148ad565b610a9f565b005b34801561034b57600080fd5b5061035560eb5481565b6040519081526020016102e4565b34801561036f57600080fd5b5060c954610355565b34801561038457600080fd5b50610398610393366004614553565b610b8d565b6040516102e4919061498e565b3480156103b157600080fd5b5061030d6103c03660046146a2565b610bab565b3480156103d157600080fd5b5061035560e55481565b3480156103e757600080fd5b5061035560da5481565b3480156103fd57600080fd5b5060cc5460405160ff90911681526020016102e4565b34801561041f57600080fd5b5061033d61042e366004614553565b610c4b565b34801561043f57600080fd5b5061030d61044e3660046147cd565b610d14565b34801561045f57600080fd5b5060cd54610398906001600160a01b031681565b34801561047f57600080fd5b5061035560ea5481565b34801561049557600080fd5b5061033d6104a4366004614814565b610d4a565b61033d6104b736600461470f565b610e73565b3480156104c857600080fd5b5061035560d95481565b3480156104de57600080fd5b5061030d6104ed366004614553565b610f2d565b3480156104fe57600080fd5b50610355610fce565b34801561051357600080fd5b5061035560e95481565b34801561052957600080fd5b5061030d610538366004614553565b6001600160a01b0316600090815260f7602052604090205460ff1690565b34801561056257600080fd5b5061033d610571366004614553565b61107c565b34801561058257600080fd5b5061033d610591366004614553565b6110fe565b3480156105a257600080fd5b5060cf54610398906001600160a01b031681565b3480156105c257600080fd5b5061035560dd5481565b3480156105d857600080fd5b506103556105e7366004614553565b6001600160a01b0316600090815260f5602052604090205490565b34801561060e57600080fd5b5061033d6111bb565b34801561062357600080fd5b5061035560e45481565b34801561063957600080fd5b5060cc546103989061010090046001600160a01b031681565b34801561065e57600080fd5b5061033d61066d36600461460d565b6111f6565b34801561067e57600080fd5b506103986115ba565b34801561069357600080fd5b5061033d6106a23660046148ad565b6115c9565b3480156106b357600080fd5b506103986116a9565b3480156106c857600080fd5b5061033d6106d73660046148ad565b6116b8565b3480156106e857600080fd5b5061033d6106f7366004614553565b61179c565b34801561070857600080fd5b506102d7611859565b34801561071d57600080fd5b5061033d61072c366004614553565b611868565b34801561073d57600080fd5b5061035560db5481565b34801561075357600080fd5b5061033d6107623660046148c5565b611b44565b34801561077357600080fd5b5061035560e85481565b34801561078957600080fd5b5061030d6107983660046147cd565b611be9565b3480156107a957600080fd5b5061030d6107b83660046147cd565b611c38565b3480156107c957600080fd5b5061035560e35481565b3480156107df57600080fd5b5061033d6107ee366004614553565b611c45565b3480156107ff57600080fd5b5061035560e25481565b34801561081557600080fd5b5061035560e05481565b34801561082b57600080fd5b5061033d61083a3660046145c3565b611d1b565b34801561084b57600080fd5b5061035560dc5481565b34801561086157600080fd5b5061033d611da7565b34801561087657600080fd5b5061035560e75481565b34801561088c57600080fd5b5061035560e15481565b3480156108a257600080fd5b5061033d6108b13660046148f6565b61208e565b3480156108c257600080fd5b5061033d6108d13660046148c5565b61214a565b3480156108e257600080fd5b5061033d6108f1366004614930565b6121e1565b34801561090257600080fd5b5061035560de5481565b34801561091857600080fd5b5061035561092736600461458b565b6001600160a01b03918216600090815260f66020908152604080832093909416825291909152205490565b34801561095e57600080fd5b5061033d61096d3660046146e2565b61229f565b34801561097e57600080fd5b5061035560df5481565b34801561099457600080fd5b5061033d6109a3366004614553565b6123c4565b3480156109b457600080fd5b5061035560ec5481565b3480156109ca57600080fd5b5060cc5461010090046001600160a01b0316610398565b3480156109ed57600080fd5b5061039861dead81565b606060ca8054610a0690614c48565b80601f0160208091040260200160405190810160405280929190818152602001828054610a3290614c48565b8015610a7f5780601f10610a5457610100808354040283529160200191610a7f565b820191906000526020600020905b815481529060010190602001808311610a6257829003601f168201915b5050505050905090565b6000610a96338484612461565b50600192915050565b60ce546001600160a01b0316331480610ad05750610abb6116a9565b6001600160a01b0316336001600160a01b0316145b610af55760405162461bcd60e51b8152600401610aec906149ef565b60405180910390fd5b60648110610b515760405162461bcd60e51b8152602060048201526024808201527f534d543a206275795461784665652065786365656473206d6178696d756d2076604482015263616c756560e01b6064820152608401610aec565b60da8190556040518181527f03cd3090e7c409e4a7ffd2d90ff610979f4a94a87a512188b7b615671bfb772f906020015b60405180910390a150565b6001600160a01b03908116600090815260f860205260409020541690565b6000610bb884848461257a565b336001600160a01b038416141580610be957506001600160a01b038316600090815260f7602052604090205460ff16155b15610c4057610c408433610c3b85604051806060016040528060268152602001614d20602691396001600160a01b038a16600090815260f66020908152604080832033845290915290205491906128d0565b612461565b5060015b9392505050565b306001600160a01b037f0000000000000000000000000000000000000000000000000000000000000000161415610c945760405162461bcd60e51b8152600401610aec90614a26565b7f00000000000000000000000000000000000000000000000000000000000000006001600160a01b0316610cc66128fc565b6001600160a01b031614610cec5760405162461bcd60e51b8152600401610aec90614a60565b610cf581612918565b60408051600080825260208201909252610d1191839190612947565b50565b33600081815260f6602090815260408083206001600160a01b03871684529091528120549091610a96918590610c3b9086612ac1565b60ce546001600160a01b0316331480610d7b5750610d666116a9565b6001600160a01b0316336001600160a01b0316145b610d975760405162461bcd60e51b8152600401610aec906149ef565b60e6805461ffff191687151561ff00198116919091176101008815159081029190911763ffff000019166201000088151590810263ff00000019169190911763010000008815159081029190911761ffff60201b1916600160201b88151590810260ff60281b191691909117600160281b88151590810291909117909655604080519586526020860194909452928401919091526060830152608082015260a08101919091527fcf0c9ecef91cf28874baba63ed5bf68132a37e02dcc145cad33d8a02d36466ae9060c0015b60405180910390a1505050505050565b306001600160a01b037f0000000000000000000000000000000000000000000000000000000000000000161415610ebc5760405162461bcd60e51b8152600401610aec90614a26565b7f00000000000000000000000000000000000000000000000000000000000000006001600160a01b0316610eee6128fc565b6001600160a01b031614610f145760405162461bcd60e51b8152600401610aec90614a60565b610f1d82612918565b610f2982826001612947565b5050565b60d8546000906001600160a01b0316610f4857506000919050565b60d8546040516371cff44760e11b81526001600160a01b039091169063e39fe88e90610f7890859060040161498e565b60206040518083038186803b158015610f9057600080fd5b505afa158015610fa4573d6000803e3d6000fd5b505050506040513d601f19601f82011682018060405250810190610fc891906147f8565b92915050565b6000306001600160a01b037f000000000000000000000000000000000000000000000000000000000000000016146110695760405162461bcd60e51b815260206004820152603860248201527f555550535570677261646561626c653a206d757374206e6f742062652063616c6044820152771b1959081d1a1c9bdd59da0819195b1959d85d1958d85b1b60421b6064820152608401610aec565b50600080516020614d6683398151915290565b60ce546001600160a01b03163314806110ad57506110986116a9565b6001600160a01b0316336001600160a01b0316145b6110c95760405162461bcd60e51b8152600401610aec906149ef565b6110d281611868565b6110db81610b8d565b60cd80546001600160a01b0319166001600160a01b039290921691909117905550565b60ce546001600160a01b031633148061112f575061111a6116a9565b6001600160a01b0316336001600160a01b0316145b61114b5760405162461bcd60e51b8152600401610aec906149ef565b6001600160a01b0381166111715760405162461bcd60e51b8152600401610aec90614b1d565b60d880546001600160a01b0319166001600160a01b0383169081179091556040517fc9dab044ef39a4c54ae3e0e5cb2fa573d051392d2ba745976e7077566ec0ca3890600090a250565b336111c46116a9565b6001600160a01b0316146111ea5760405162461bcd60e51b8152600401610aec90614ae8565b6111f46000612acd565b565b60ce546001600160a01b031633148061122757506112126116a9565b6001600160a01b0316336001600160a01b0316145b6112435760405162461bcd60e51b8152600401610aec906149ef565b60d0546001600160a01b0388811691161480159061126957506001600160a01b03871615155b156112bb5760d080546001600160a01b03908116600090815260f76020526040808220805460ff1990811690915584546001600160a01b031916938c1693841790945591815220805490911660011790555b60d1546001600160a01b038781169116148015906112e157506001600160a01b03861615155b156113335760d180546001600160a01b03908116600090815260f76020526040808220805460ff1990811690915584546001600160a01b031916938b1693841790945591815220805490911660011790555b60d2546001600160a01b0383811691161480159061135957506001600160a01b03821615155b156113ab5760d280546001600160a01b03908116600090815260f76020526040808220805460ff1990811690915584546001600160a01b03191693871693841790945591815220805490911660011790555b60d4546001600160a01b038681169116148015906113d157506001600160a01b03851615155b156114235760d480546001600160a01b03908116600090815260f76020526040808220805460ff1990811690915584546001600160a01b031916938a1693841790945591815220805490911660011790555b60d5546001600160a01b0385811691161480159061144957506001600160a01b03841615155b1561149b5760d580546001600160a01b03908116600090815260f76020526040808220805460ff1990811690915584546001600160a01b03191693891693841790945591815220805490911660011790555b60d7546001600160a01b038281169116148015906114c157506001600160a01b03811615155b156115135760d780546001600160a01b03908116600090815260f76020526040808220805460ff1990811690915584546001600160a01b03191693861693841790945591815220805490911660011790555b60d6546001600160a01b0384811691161480159061153957506001600160a01b03831615155b1561155a5760d680546001600160a01b0319166001600160a01b0385161790555b816001600160a01b0316866001600160a01b0316886001600160a01b03167fea39236f613486e3c3a28ea53cb64489dabe5c6b3a3d59cfed61a147f196613388886040516115a99291906149a2565b60405180910390a450505050505050565b60006115c46116a9565b905090565b60ce546001600160a01b03163314806115fa57506115e56116a9565b6001600160a01b0316336001600160a01b0316145b6116165760405162461bcd60e51b8152600401610aec906149ef565b606481106116745760405162461bcd60e51b815260206004820152602560248201527f534d543a2073656c6c5461784665652065786365656473206d6178696d756d2060448201526476616c756560d81b6064820152608401610aec565b60e08190556040518181527f274faecd49018fb411281f27986b6b4acc86e5db4100735531acd18b7b6d5f9390602001610b82565b6097546001600160a01b031690565b60ce546001600160a01b03163314806116e957506116d46116a9565b6001600160a01b0316336001600160a01b0316145b6117055760405162461bcd60e51b8152600401610aec906149ef565b606481106117675760405162461bcd60e51b815260206004820152602960248201527f534d543a207472616e736665725461784665652065786365656473206d6178696044820152686d756d2076616c756560b81b6064820152608401610aec565b60e88190556040518181527f066ec06a21c2e65d6e69290f91b812f9171e098dfef39c8837c4ed6c57bd02ec90602001610b82565b60ce546001600160a01b03163314806117cd57506117b86116a9565b6001600160a01b0316336001600160a01b0316145b6117e95760405162461bcd60e51b8152600401610aec906149ef565b6001600160a01b03811661180f5760405162461bcd60e51b8152600401610aec90614b1d565b60d180546001600160a01b0319166001600160a01b0383169081179091556040517f83ab943c0896225bd8b132456a8e2a247848ba8d8524da9fe44cbcb907b4571490600090a250565b606060cb8054610a0690614c48565b60ce546001600160a01b031633148061189957506118846116a9565b6001600160a01b0316336001600160a01b0316145b6118b55760405162461bcd60e51b8152600401610aec906149ef565b60cf546001600160a01b031661190d5760405162461bcd60e51b815260206004820152601f60248201527f536d617274436f6d702063616e2774206265207a65726f2061646472657373006044820152606401610aec565b6001600160a01b0381166119755760405162461bcd60e51b815260206004820152602960248201527f417373657420746f6b656e20616464726573732063616e2774206265207a65726044820152686f206164647265737360b81b6064820152608401610aec565b60cf54604080516271c17560e01b815290516000926001600160a01b0316916271c175916004808301926020929190829003018186803b1580156119b857600080fd5b505afa1580156119cc573d6000803e3d6000fd5b505050506040513d601f19601f820116820180604052508101906119f0919061456f565b90506000816001600160a01b031663c45a01556040518163ffffffff1660e01b815260040160206040518083038186803b158015611a2d57600080fd5b505afa158015611a41573d6000803e3d6000fd5b505050506040513d601f19601f82011682018060405250810190611a65919061456f565b6001600160a01b031663c9c6539630856040518363ffffffff1660e01b8152600401611a929291906149a2565b602060405180830381600087803b158015611aac57600080fd5b505af1158015611ac0573d6000803e3d6000fd5b505050506040513d601f19601f82011682018060405250810190611ae4919061456f565b6001600160a01b03848116600081815260f8602052604080822080546001600160a01b0319169486169490941790935591519293509130917ffc6c72632a5143529080f7bba58edb1ad8f0556353bf3b06cab50512bde5f1a791a3505050565b60ce546001600160a01b0316331480611b755750611b606116a9565b6001600160a01b0316336001600160a01b0316145b611b915760405162461bcd60e51b8152600401610aec906149ef565b60db84905560dc83905560dd82905560de8190556040517fdabbdd7e45811850a1d2f628e202253f234812ba7768c53f23229e50803350d190611bdb908690869086908690614b9f565b60405180910390a150505050565b6000610a963384610c3b85604051806060016040528060238152602001614cfd6023913933600090815260f6602090815260408083206001600160a01b038d16845290915290205491906128d0565b6000610a9633848461257a565b60ce546001600160a01b0316331480611c765750611c616116a9565b6001600160a01b0316336001600160a01b0316145b611c925760405162461bcd60e51b8152600401610aec906149ef565b6001600160a01b038116611cf95760405162461bcd60e51b815260206004820152602860248201527f536d61727420436f6d7020616464726573732063616e2774206265207a65726f604482015267206164647265737360c01b6064820152608401610aec565b60cf80546001600160a01b0319166001600160a01b0392909216919091179055565b600054610100900460ff16611d365760005460ff1615611d3e565b611d3e612b1f565b611d5a5760405162461bcd60e51b8152600401610aec90614a9a565b600054610100900460ff16158015611d7c576000805461ffff19166101011790555b611d84612b30565b611d8f848484612b5f565b8015611da1576000805461ff00191690555b50505050565b60ce546001600160a01b0316331480611dd85750611dc36116a9565b6001600160a01b0316336001600160a01b0316145b611df45760405162461bcd60e51b8152600401610aec906149ef565b60cf546001600160a01b0316611e5c5760405162461bcd60e51b815260206004820152602760248201527f536d617274436f6d7020616464726573732063616e2774206265207a65726f206044820152666164647265737360c81b6064820152608401610aec565b60cf54604080516271c17560e01b815290516000926001600160a01b0316916271c175916004808301926020929190829003018186803b158015611e9f57600080fd5b505afa158015611eb3573d6000803e3d6000fd5b505050506040513d601f19601f82011682018060405250810190611ed7919061456f565b9050806001600160a01b031663c45a01556040518163ffffffff1660e01b815260040160206040518083038186803b158015611f1257600080fd5b505afa158015611f26573d6000803e3d6000fd5b505050506040513d601f19601f82011682018060405250810190611f4a919061456f565b6001600160a01b031663c9c6539630836001600160a01b031663ad5c46486040518163ffffffff1660e01b815260040160206040518083038186803b158015611f9257600080fd5b505afa158015611fa6573d6000803e3d6000fd5b505050506040513d601f19601f82011682018060405250810190611fca919061456f565b6040518363ffffffff1660e01b8152600401611fe79291906149a2565b602060405180830381600087803b15801561200157600080fd5b505af1158015612015573d6000803e3d6000fd5b505050506040513d601f19601f82011682018060405250810190612039919061456f565b60cc80546001600160a01b039290921661010002610100600160a81b031990921691909117905560405130907fa01e4e6af627ac53d34b6289a64c5985321a0036b9b510c463184cf57063bf5c90600090a250565b60ce546001600160a01b03163314806120bf57506120aa6116a9565b6001600160a01b0316336001600160a01b0316145b6120db5760405162461bcd60e51b8152600401610aec906149ef565b60e185905560e284905560e383905560e482905560e5819055604080518681526020810186905290810184905260608101839052608081018290527fed3c6a03d28d3cbb601cf4e05eed412c0e4df1fac68b43758c84200edcb750329060a00160405180910390a15050505050565b60ce546001600160a01b031633148061217b57506121666116a9565b6001600160a01b0316336001600160a01b0316145b6121975760405162461bcd60e51b8152600401610aec906149ef565b60e984905560ea83905560eb82905560ec8190556040517fa1b517484aabc470f36b8b4d5ad20eba494f25defdb1d863dcfd6f9d89e959a490611bdb908690869086908690614b9f565b60ce546001600160a01b031633148061221257506121fd6116a9565b6001600160a01b0316336001600160a01b0316145b61222e5760405162461bcd60e51b8152600401610aec906149ef565b60da86905560e085905560e884905560d983905560df82905560e78190556040805187815260208101879052908101859052606081018490526080810183905260a081018290527fed23d3435fe9dd8095a4cfa8614c5d9df0fecc3d3cdf416cfd79dd6c601c4a0d9060c001610e63565b60ce546001600160a01b03163314806122d057506122bb6116a9565b6001600160a01b0316336001600160a01b0316145b6122ec5760405162461bcd60e51b8152600401610aec906149ef565b6001600160a01b038216600090815260f7602052604090205460ff16151581151514156123655760405162461bcd60e51b815260206004820152602160248201527f534d543a20616c7265616479206578636c75646564206f7220696e636c7564656044820152601960fa1b6064820152608401610aec565b6001600160a01b038216600081815260f76020908152604091829020805460ff191685151590811790915591519182527fd5144d2a6c8ff9b87b7a40852df5102cab2ce561c06b56cc6fe7ccf1fa7f8c2d910160405180910390a25050565b336123cd6116a9565b6001600160a01b0316146123f35760405162461bcd60e51b8152600401610aec90614ae8565b6001600160a01b0381166124585760405162461bcd60e51b815260206004820152602660248201527f4f776e61626c653a206e6577206f776e657220697320746865207a65726f206160448201526564647265737360d01b6064820152608401610aec565b610d1181612acd565b6001600160a01b0383166124c25760405162461bcd60e51b815260206004820152602260248201527f534d543a20617070726f76652066726f6d20746865207a65726f206164647265604482015261737360f01b6064820152608401610aec565b6001600160a01b0382166125185760405162461bcd60e51b815260206004820181905260248201527f534d543a20617070726f766520746f20746865207a65726f20616464726573736044820152606401610aec565b6001600160a01b03838116600081815260f6602090815260408083209487168084529482529182902085905590518481527f8c5be1e5ebec7d5bd14f71427d1e84f3dd0314c0f7b2291e5b200ac8c7c3b92591015b60405180910390a3505050565b6001600160a01b0383166125dc5760405162461bcd60e51b815260206004820152602360248201527f534d543a207472616e736665722066726f6d20746865207a65726f206164647260448201526265737360e81b6064820152608401610aec565b6001600160a01b03821661263c5760405162461bcd60e51b815260206004820152602160248201527f534d543a207472616e7366657220746f20746865207a65726f206164647265736044820152607360f81b6064820152608401610aec565b6001600160a01b038316600090815260f560205260409020548111156126b05760405162461bcd60e51b8152602060048201526024808201527f534d543a2062616c616e6365206f662073656e64657220697320746f6f20736d60448201526330b6361760e11b6064820152608401610aec565b60f381905560f45460ff16806126de57506001600160a01b038316600090815260f7602052604090205460ff165b8061270157506001600160a01b038216600090815260f7602052604090205460ff165b1561271657612711838383613707565b505050565b60cc546000906001600160a01b03848116610100909204161480612747575060cd546001600160a01b038481169116145b60cc549091506000906001600160a01b0386811661010090920416148061277b575060cd546001600160a01b038681169116145b60d6549091506001600160a01b0386811691161480156127985750815b156127eb5760006127bf60646127b960df548761381a90919063ffffffff16565b90613826565b905060006127cd8583613832565b90506127d9878361383e565b6127e4878783613707565b50506128c9565b808015612805575060d6546001600160a01b038581169116145b1561284157600061282660646127b960d9548761381a90919063ffffffff16565b905060006128348583613832565b90506127d98787846139b4565b801561286357600061282660646127b960da548761381a90919063ffffffff16565b81156128855760006127bf60646127b960e0548761381a90919063ffffffff16565b60006128a160646127b960e8548761381a90919063ffffffff16565b905060006128af8583613832565b90506128bb8783613af5565b6128c6878783613707565b50505b5050505050565b600081848411156128f45760405162461bcd60e51b8152600401610aec91906149bc565b505050900390565b600080516020614d66833981519152546001600160a01b031690565b336129216116a9565b6001600160a01b031614610d115760405162461bcd60e51b8152600401610aec90614ae8565b7f4910fdfa16fed3260ed0e7147f7cc6da11a60208b5b9406d12a635614ffd91435460ff161561297a5761271183613c1b565b826001600160a01b03166352d1902d6040518163ffffffff1660e01b815260040160206040518083038186803b1580156129b357600080fd5b505afa9250505080156129e3575060408051601f3d908101601f191682019092526129e091810190614895565b60015b612a465760405162461bcd60e51b815260206004820152602e60248201527f45524331393637557067726164653a206e657720696d706c656d656e7461746960448201526d6f6e206973206e6f74205555505360901b6064820152608401610aec565b600080516020614d668339815191528114612ab55760405162461bcd60e51b815260206004820152602960248201527f45524331393637557067726164653a20756e737570706f727465642070726f786044820152681a58589b195555525160ba1b6064820152608401610aec565b50612711838383613cb5565b6000610c448284614bba565b609780546001600160a01b038381166001600160a01b0319831681179093556040519116919082907f8be0079c531659141344cd1fd0a4f28419497f9722a3daafe3b4186f6b6457e090600090a35050565b6000612b2a30613cda565b15905090565b600054610100900460ff16612b575760405162461bcd60e51b8152600401610aec90614b54565b6111f4613ce9565b600054610100900460ff16612b7a5760005460ff1615612b82565b612b82612b1f565b612b9e5760405162461bcd60e51b8152600401610aec90614a9a565b600054610100900460ff16158015612bc0576000805461ffff19166101011790555b60408051808201909152600b8082526a29b6b0b93a102a37b5b2b760a91b6020909201918252612bf29160ca916144ba565b506040805180820190915260038082526214d35560ea1b6020909201918252612c1d9160cb916144ba565b5060cc805460ff191660121790556a0c685fa11e01ec6f00000060c95560cf80546001600160a01b0386166001600160a01b03199091168117909155604080516391a95b2560e01b815290516391a95b2591600480820192602092909190829003018186803b158015612c8f57600080fd5b505afa158015612ca3573d6000803e3d6000fd5b505050506040513d601f19601f82011682018060405250810190612cc7919061456f565b60d080546001600160a01b0319166001600160a01b0392831617905560cf54604080516399bd7d8f60e01b8152905191909216916399bd7d8f916004808301926020929190829003018186803b158015612d2057600080fd5b505afa158015612d34573d6000803e3d6000fd5b505050506040513d601f19601f82011682018060405250810190612d58919061456f565b60d180546001600160a01b0319166001600160a01b0392831617905560cf5460408051630e3fd31360e21b8152905191909216916338ff4c4c916004808301926020929190829003018186803b158015612db157600080fd5b505afa158015612dc5573d6000803e3d6000fd5b505050506040513d601f19601f82011682018060405250810190612de9919061456f565b60d380546001600160a01b0319166001600160a01b0392831617905560cf54604080516326a7137960e01b8152905191909216916326a71379916004808301926020929190829003018186803b158015612e4257600080fd5b505afa158015612e56573d6000803e3d6000fd5b505050506040513d601f19601f82011682018060405250810190612e7a919061456f565b60d480546001600160a01b0319166001600160a01b0392831617905560cf546040805163183375f360e11b815290519190921691633066ebe6916004808301926020929190829003018186803b158015612ed357600080fd5b505afa158015612ee7573d6000803e3d6000fd5b505050506040513d601f19601f82011682018060405250810190612f0b919061456f565b60d580546001600160a01b0319166001600160a01b0392831617905560cf54604080516313a70b5360e11b81529051919092169163274e16a6916004808301926020929190829003018186803b158015612f6457600080fd5b505afa158015612f78573d6000803e3d6000fd5b505050506040513d601f19601f82011682018060405250810190612f9c919061456f565b60d680546001600160a01b0319166001600160a01b0392831617905560cf5460408051636e0d075360e01b815290519190921691636e0d0753916004808301926020929190829003018186803b158015612ff557600080fd5b505afa158015613009573d6000803e3d6000fd5b505050506040513d601f19601f8201168201806040525081019061302d919061456f565b60d880546001600160a01b039283166001600160a01b031991821617825560d2805487851690831617815560d7805487861690841617815560ce80549093163317835560d0548516600090815260f760209081526040808320805460ff19908116600190811790925560d1548a168552828520805482168317905560d3548a168552828520805482168317905560d4548a168552828520805482168317905560d5548a1685528285208054821683179055955489168452818420805487168217905593548816835280832080548616851790558b88168352808320805486168517905595548716825285822080548516841790559354861681528481208054841683179055308152848120805490931690911790915560cf5483516271c17560e01b81529351919416926271c175926004828101939192829003018186803b15801561317857600080fd5b505afa15801561318c573d6000803e3d6000fd5b505050506040513d601f19601f820116820180604052508101906131b0919061456f565b9050600060cf60009054906101000a90046001600160a01b03166001600160a01b03166329166e416040518163ffffffff1660e01b815260040160206040518083038186803b15801561320257600080fd5b505afa158015613216573d6000803e3d6000fd5b505050506040513d601f19601f8201168201806040525081019061323a919061456f565b9050816001600160a01b031663c45a01556040518163ffffffff1660e01b815260040160206040518083038186803b15801561327557600080fd5b505afa158015613289573d6000803e3d6000fd5b505050506040513d601f19601f820116820180604052508101906132ad919061456f565b6001600160a01b031663c9c6539630846001600160a01b031663ad5c46486040518163ffffffff1660e01b815260040160206040518083038186803b1580156132f557600080fd5b505afa158015613309573d6000803e3d6000fd5b505050506040513d601f19601f8201168201806040525081019061332d919061456f565b6040518363ffffffff1660e01b815260040161334a9291906149a2565b602060405180830381600087803b15801561336457600080fd5b505af1158015613378573d6000803e3d6000fd5b505050506040513d601f19601f8201168201806040525081019061339c919061456f565b60cc60016101000a8154816001600160a01b0302191690836001600160a01b03160217905550816001600160a01b031663c45a01556040518163ffffffff1660e01b815260040160206040518083038186803b1580156133fb57600080fd5b505afa15801561340f573d6000803e3d6000fd5b505050506040513d601f19601f82011682018060405250810190613433919061456f565b6001600160a01b031663c9c6539630836040518363ffffffff1660e01b81526004016134609291906149a2565b602060405180830381600087803b15801561347a57600080fd5b505af115801561348e573d6000803e3d6000fd5b505050506040513d601f19601f820116820180604052508101906134b2919061456f565b60cd80546001600160a01b0319166001600160a01b03928316179055600a60d9819055600f60da819055603260db819055601e60dc81905560dd84905560de84905560df84905560e083905560e184905560e2819055601460e35560e481905560e584905560e784905560e89290925560e983905560ea9290925560eb9190915560ec5560f4805460ff191690556a08c5c7e2d1269cf660000060ed81905560d554909116600090815260f5602052604090205461356f91612ac1565b60d5546001600160a01b03908116600090815260f560205260408082209390935566d3c21bcecceda160191b60ee81905560ce54909216815291909120546135b691612ac1565b60ce546001600160a01b03908116600090815260f56020526040808220939093556a01198dc2ab55490f00000060f181905560d354909216815291909120546135fe91612ac1565b60d3546001600160a01b03908116600090815260f560205260408082209390935569be951906eba2aa80000060f081905560d4549092168152919091205461364591612ac1565b60d4546001600160a01b03908116600090815260f5602052604080822093909355691fc3842bd1f071c0000060ef81905560d7549092168152919091205461368c91612ac1565b60d7546001600160a01b03908116600090815260f560205260408082209390935569032d26d12e980b60000060f281905560d254909216815291909120546136d391612ac1565b60d2546001600160a01b0316600090815260f5602052604090205550508015611da1576000805461ff001916905550505050565b6001600160a01b038316600090815260f5602052604081205461372b908390614c05565b10156137795760405162461bcd60e51b815260206004820152601e60248201527f616d6f756e7420657863656564732063757272656e742062616c616e636500006044820152606401610aec565b6001600160a01b038216600090815260f56020526040812080548392906137a1908490614bba565b90915550506001600160a01b038316600090815260f56020526040812080548392906137ce908490614c05565b92505081905550816001600160a01b0316836001600160a01b03167fddf252ad1be2c89b69c2b068fc378daa952ba7f163c4a11628f55a4df523b3ef8360405161256d91815260200190565b6000610c448284614be6565b6000610c448284614bd2565b6000610c448284614c05565b60e65460ff1661388157600061386460646127b960e1548561381a90919063ffffffff16565b60d25490915061387f9084906001600160a01b031683613707565b505b60e654610100900460ff166138d35760006138ac60646127b960e2548561381a90919063ffffffff16565b60d1549091506138c79084906001600160a01b031683613707565b6138d18382613d19565b505b60e65462010000900460ff166139255760006138ff60646127b960e3548561381a90919063ffffffff16565b60d55490915061391a9084906001600160a01b031683613707565b61392381613de8565b505b60e6546301000000900460ff1661396357600061395260646127b960e4548561381a90919063ffffffff16565b90506139618361dead83613707565b505b60e654600160201b900460ff16610f2957600061399060646127b960e5548561381a90919063ffffffff16565b60d4549091506139ab9084906001600160a01b031683613707565b61271181613f56565b60e654600160281b900460ff16613a075760006139e160646127b960db548561381a90919063ffffffff16565b60d0549091506139fc9085906001600160a01b031683613707565b613a0583614020565b505b60e654610100900460ff16613a59576000613a3260646127b960dc548561381a90919063ffffffff16565b60d154909150613a4d9085906001600160a01b031683613707565b613a578382613d19565b505b60e65460ff16613a9c576000613a7f60646127b960dd548561381a90919063ffffffff16565b60d254909150613a9a9085906001600160a01b031683613707565b505b60e654600160201b900460ff16612711576000613ac960646127b960de548561381a90919063ffffffff16565b60d454909150613ae49085906001600160a01b031683613707565b613aec6140b2565b611da181613f56565b60e654610100900460ff16613b47576000613b2060646127b960eb548561381a90919063ffffffff16565b60d154909150613b3b9084906001600160a01b031683613707565b613b458382613d19565b505b60e65460ff16613b8a576000613b6d60646127b960e9548561381a90919063ffffffff16565b60d254909150613b889084906001600160a01b031683613707565b505b60e65462010000900460ff16613bd3576000613bb660646127b960ec548561381a90919063ffffffff16565b60d554909150613bd19084906001600160a01b031683613707565b505b60e654600160201b900460ff16610f29576000613c0060646127b960ea548561381a90919063ffffffff16565b60d3549091506139ab9084906001600160a01b031683613707565b613c2481613cda565b613c865760405162461bcd60e51b815260206004820152602d60248201527f455243313936373a206e657720696d706c656d656e746174696f6e206973206e60448201526c1bdd08184818dbdb9d1c9858dd609a1b6064820152608401610aec565b600080516020614d6683398151915280546001600160a01b0319166001600160a01b0392909216919091179055565b613cbe8361434f565b600082511180613ccb5750805b1561271157611da1838361438f565b6001600160a01b03163b151590565b600054610100900460ff16613d105760405162461bcd60e51b8152600401610aec90614b54565b6111f433612acd565b60d1546001600160a01b0316613d7d5760405162461bcd60e51b8152602060048201526024808201527f476f6c64656e54726565506f6f6c2063616e2774206265207a65726f206164646044820152637265737360e01b6064820152608401610aec565b60d154604051631156b33560e31b8152600481018390526001600160a01b03848116602483015290911690638ab599a8906044015b600060405180830381600087803b158015613dcc57600080fd5b505af1158015613de0573d6000803e3d6000fd5b505050505050565b60d5546001600160a01b0316613e405760405162461bcd60e51b815260206004820152601f60248201527f536d6172744661726d2063616e2774206265207a65726f2061646472657373006044820152606401610aec565b60d554604051633c6b16ab60e01b8152600481018390526001600160a01b0390911690633c6b16ab90602401600060405180830381600087803b158015613e8657600080fd5b505af1158015613e9a573d6000803e3d6000fd5b50505050600060cf60009054906101000a90046001600160a01b03166001600160a01b03166326a713796040518163ffffffff1660e01b815260040160206040518083038186803b158015613eee57600080fd5b505afa158015613f02573d6000803e3d6000fd5b505050506040513d601f19601f82011682018060405250810190613f26919061456f565b604051633d317e3360e21b8152600481018490529091506001600160a01b0382169063f4c5f8cc90602401613db2565b60d3546001600160a01b0316613fc55760405162461bcd60e51b815260206004820152602e60248201527f4e6f62696c697479416368696576656d656e7420506f6f6c2063616e2774206260448201526d65207a65726f206164647265737360901b6064820152608401610aec565b60d35460405163349ecb7f60e01b8152600481018390526001600160a01b039091169063349ecb7f906024015b600060405180830381600087803b15801561400c57600080fd5b505af11580156128c9573d6000803e3d6000fd5b60d0546001600160a01b03166140825760405162461bcd60e51b815260206004820152602160248201527f536d6172744c61646465722063616e2774206265207a65726f206164647265736044820152607360f81b6064820152608401610aec565b60d054604051633a5d643b60e11b81526001600160a01b03909116906374bac87690613ff290849060040161498e565b60cf5460408051636e0d075360e01b815290516000926001600160a01b031691636e0d0753916004808301926020929190829003018186803b1580156140f757600080fd5b505afa15801561410b573d6000803e3d6000fd5b505050506040513d601f19601f8201168201806040525081019061412f919061456f565b60f35432600081815260f96020526040812080549495509193614153908490614bba565b90915550506001600160a01b03808216600090815260f9602052604090819020549051633f030e2360e21b8152909184169063fc0c388c9061419990859060040161498e565b60206040518083038186803b1580156141b157600080fd5b505afa1580156141c5573d6000803e3d6000fd5b505050506040513d601f19601f820116820180604052508101906141e991906147f8565b80156141fe5750683635c9adc5dea000008110155b156127115760cf54604080516326a7137960e01b815290516000926001600160a01b0316916326a71379916004808301926020929190829003018186803b15801561424857600080fd5b505afa15801561425c573d6000803e3d6000fd5b505050506040513d601f19601f82011682018060405250810190614280919061456f565b90506001600160a01b03811663b1d01498846142a5683635c9adc5dea0000086614bd2565b6040516001600160e01b031960e085901b1681526001600160a01b0390921660048301526024820152604401600060405180830381600087803b1580156142eb57600080fd5b505af11580156142ff573d6000803e3d6000fd5b5050506001600160a01b038416600090815260f960205260409020546143309150683635c9adc5dea0000090614c83565b6001600160a01b038416600090815260f9602052604090205550505050565b61435881613c1b565b6040516001600160a01b038216907fbc7cd75a20ee27fd9adebab32041f755214dbc6bffa90cc0225b39da2e5c2d3b90600090a250565b606061439a83613cda565b6143f55760405162461bcd60e51b815260206004820152602660248201527f416464726573733a2064656c65676174652063616c6c20746f206e6f6e2d636f6044820152651b9d1c9858dd60d21b6064820152608401610aec565b600080846001600160a01b0316846040516144109190614972565b600060405180830381855af49150503d806000811461444b576040519150601f19603f3d011682016040523d82523d6000602084013e614450565b606091505b50915091506144788282604051806060016040528060278152602001614d8660279139614481565b95945050505050565b60608315614490575081610c44565b8251156144a05782518084602001fd5b8160405162461bcd60e51b8152600401610aec91906149bc565b8280546144c690614c48565b90600052602060002090601f0160209004810192826144e8576000855561452e565b82601f1061450157805160ff191683800117855561452e565b8280016001018555821561452e579182015b8281111561452e578251825591602001919060010190614513565b5061453a92915061453e565b5090565b5b8082111561453a576000815560010161453f565b600060208284031215614564578081fd5b8135610c4481614cd9565b600060208284031215614580578081fd5b8151610c4481614cd9565b6000806040838503121561459d578081fd5b82356145a881614cd9565b915060208301356145b881614cd9565b809150509250929050565b6000806000606084860312156145d7578081fd5b83356145e281614cd9565b925060208401356145f281614cd9565b9150604084013561460281614cd9565b809150509250925092565b600080600080600080600060e0888a031215614627578283fd5b873561463281614cd9565b9650602088013561464281614cd9565b9550604088013561465281614cd9565b9450606088013561466281614cd9565b9350608088013561467281614cd9565b925060a088013561468281614cd9565b915060c088013561469281614cd9565b8091505092959891949750929550565b6000806000606084860312156146b6578283fd5b83356146c181614cd9565b925060208401356146d181614cd9565b929592945050506040919091013590565b600080604083850312156146f4578182fd5b82356146ff81614cd9565b915060208301356145b881614cee565b60008060408385031215614721578182fd5b823561472c81614cd9565b915060208301356001600160401b0380821115614747578283fd5b818501915085601f83011261475a578283fd5b81358181111561476c5761476c614cc3565b604051601f8201601f19908116603f0116810190838211818310171561479457614794614cc3565b816040528281528860208487010111156147ac578586fd5b82602086016020830137856020848301015280955050505050509250929050565b600080604083850312156147df578182fd5b82356147ea81614cd9565b946020939093013593505050565b600060208284031215614809578081fd5b8151610c4481614cee565b60008060008060008060c0878903121561482c578384fd5b863561483781614cee565b9550602087013561484781614cee565b9450604087013561485781614cee565b9350606087013561486781614cee565b9250608087013561487781614cee565b915060a087013561488781614cee565b809150509295509295509295565b6000602082840312156148a6578081fd5b5051919050565b6000602082840312156148be578081fd5b5035919050565b600080600080608085870312156148da578182fd5b5050823594602084013594506040840135936060013592509050565b600080600080600060a0868803121561490d578283fd5b505083359560208501359550604085013594606081013594506080013592509050565b60008060008060008060c08789031215614948578384fd5b505084359660208601359650604086013595606081013595506080810135945060a0013592509050565b60008251614984818460208701614c1c565b9190910192915050565b6001600160a01b0391909116815260200190565b6001600160a01b0392831681529116602082015260400190565b60208152600082518060208401526149db816040850160208701614c1c565b601f01601f19169190910160400192915050565b6020808252601f908201527f534d543a2063616c6c6572206973206e6f7420746865206f70657261746f7200604082015260600190565b6020808252602c90820152600080516020614d4683398151915260408201526b19195b1959d85d1958d85b1b60a21b606082015260800190565b6020808252602c90820152600080516020614d4683398151915260408201526b6163746976652070726f787960a01b606082015260800190565b6020808252602e908201527f496e697469616c697a61626c653a20636f6e747261637420697320616c72656160408201526d191e481a5b9a5d1a585b1a5e995960921b606082015260800190565b6020808252818101527f4f776e61626c653a2063616c6c6572206973206e6f7420746865206f776e6572604082015260600190565b6020808252601d908201527f534d543a206e6f7420616c6c6f776564207a65726f2061646472657373000000604082015260600190565b6020808252602b908201527f496e697469616c697a61626c653a20636f6e7472616374206973206e6f74206960408201526a6e697469616c697a696e6760a81b606082015260800190565b93845260208401929092526040830152606082015260800190565b60008219821115614bcd57614bcd614c97565b500190565b600082614be157614be1614cad565b500490565b6000816000190483118215151615614c0057614c00614c97565b500290565b600082821015614c1757614c17614c97565b500390565b60005b83811015614c37578181015183820152602001614c1f565b83811115611da15750506000910152565b600181811c90821680614c5c57607f821691505b60208210811415614c7d57634e487b7160e01b600052602260045260246000fd5b50919050565b600082614c9257614c92614cad565b500690565b634e487b7160e01b600052601160045260246000fd5b634e487b7160e01b600052601260045260246000fd5b634e487b7160e01b600052604160045260246000fd5b6001600160a01b0381168114610d1157600080fd5b8015158114610d1157600080fdfe534d543a2064656372656173656420616c6c6f77616e63652062656c6f77207a65726f534d543a207472616e7366657220616d6f756e74206578636565647320616c6c6f77616e636546756e6374696f6e206d7573742062652063616c6c6564207468726f75676820360894a13ba1a3210667c828492db98dca3e2076cc3735a920a3ca505d382bbc416464726573733a206c6f772d6c6576656c2064656c65676174652063616c6c206661696c6564a264697066735822122002b1106304fd8d33fe60076a57b2efd4035ca737c640e5c0c48625baf04f6b7d64736f6c63430008040033",
  "linkReferences": {},
  "deployedLinkReferences": {}
}