{
  "_format": "hh-sol-artifact-1",
  "contractName": "SmartOtherAchievement",
  "sourceName": "contracts/SmartOtherAchievement.sol",
  "abi": [
    {
      "anonymous": false,
      "inputs": [
        {
          "indexed": false,
          "internalType": "address",
          "name": "previousAdmin",
          "type": "address"
        },
        {
          "indexed": false,
          "internalType": "address",
          "name": "newAdmin",
          "type": "address"
        }
      ],
      "name": "AdminChanged",
      "type": "event"
    },
    {
      "anonymous": false,
      "inputs": [
        {
          "indexed": true,
          "internalType": "address",
          "name": "beacon",
          "type": "address"
        }
      ],
      "name": "BeaconUpgraded",
      "type": "event"
    },
    {
      "anonymous": false,
      "inputs": [
        {
          "indexed": true,
          "internalType": "address",
          "name": "previousOwner",
          "type": "address"
        },
        {
          "indexed": true,
          "internalType": "address",
          "name": "newOwner",
          "type": "address"
        }
      ],
      "name": "OwnershipTransferred",
      "type": "event"
    },
    {
      "anonymous": false,
      "inputs": [
        {
          "indexed": false,
          "internalType": "uint256",
          "name": "reward",
          "type": "uint256"
        }
      ],
      "name": "RewardSwapped",
      "type": "event"
    },
    {
      "anonymous": false,
      "inputs": [
        {
          "indexed": true,
          "internalType": "address",
          "name": "implementation",
          "type": "address"
        }
      ],
      "name": "Upgraded",
      "type": "event"
    },
    {
      "inputs": [
        {
          "internalType": "address",
          "name": "_account",
          "type": "address"
        }
      ],
      "name": "addFarmDistributor",
      "outputs": [],
      "stateMutability": "nonpayable",
      "type": "function"
    },
    {
      "inputs": [
        {
          "internalType": "uint256",
          "name": "_amount",
          "type": "uint256"
        }
      ],
      "name": "claimFarmReward",
      "outputs": [],
      "stateMutability": "nonpayable",
      "type": "function"
    },
    {
      "inputs": [
        {
          "internalType": "uint256",
          "name": "_amount",
          "type": "uint256"
        }
      ],
      "name": "claimSellTaxReward",
      "outputs": [],
      "stateMutability": "nonpayable",
      "type": "function"
    },
    {
      "inputs": [
        {
          "internalType": "uint256",
          "name": "_amount",
          "type": "uint256"
        }
      ],
      "name": "claimSurprizeSMTCReward",
      "outputs": [],
      "stateMutability": "nonpayable",
      "type": "function"
    },
    {
      "inputs": [
        {
          "internalType": "uint256",
          "name": "_amount",
          "type": "uint256"
        }
      ],
      "name": "claimSurprizeSMTReward",
      "outputs": [],
      "stateMutability": "nonpayable",
      "type": "function"
    },
    {
      "inputs": [],
      "name": "comptroller",
      "outputs": [
        {
          "internalType": "contract ISmartComp",
          "name": "",
          "type": "address"
        }
      ],
      "stateMutability": "view",
      "type": "function"
    },
    {
      "inputs": [
        {
          "internalType": "address[]",
          "name": "array",
          "type": "address[]"
        },
        {
          "internalType": "address",
          "name": "value",
          "type": "address"
        }
      ],
      "name": "contain",
      "outputs": [
        {
          "internalType": "bool",
          "name": "",
          "type": "bool"
        }
      ],
      "stateMutability": "pure",
      "type": "function"
    },
    {
      "inputs": [
        {
          "internalType": "uint256",
          "name": "_amount",
          "type": "uint256"
        }
      ],
      "name": "distributeSellTax",
      "outputs": [],
      "stateMutability": "nonpayable",
      "type": "function"
    },
    {
      "inputs": [
        {
          "internalType": "address",
          "name": "_account",
          "type": "address"
        },
        {
          "internalType": "uint256",
          "name": "_claims",
          "type": "uint256"
        }
      ],
      "name": "distributeSurprizeReward",
      "outputs": [],
      "stateMutability": "nonpayable",
      "type": "function"
    },
    {
      "inputs": [
        {
          "internalType": "uint256",
          "name": "_amount",
          "type": "uint256"
        }
      ],
      "name": "distributeToFarmers",
      "outputs": [],
      "stateMutability": "nonpayable",
      "type": "function"
    },
    {
      "inputs": [
        {
          "internalType": "address[]",
          "name": "array",
          "type": "address[]"
        },
        {
          "internalType": "address",
          "name": "value",
          "type": "address"
        }
      ],
      "name": "indexOf",
      "outputs": [
        {
          "internalType": "uint256",
          "name": "",
          "type": "uint256"
        }
      ],
      "stateMutability": "pure",
      "type": "function"
    },
    {
      "inputs": [
        {
          "internalType": "address",
          "name": "_comp",
          "type": "address"
        }
      ],
      "name": "initialize",
      "outputs": [],
      "stateMutability": "nonpayable",
      "type": "function"
    },
    {
      "inputs": [
        {
          "internalType": "address",
          "name": "_account",
          "type": "address"
        }
      ],
      "name": "isFarmer",
      "outputs": [
        {
          "internalType": "bool",
          "name": "",
          "type": "bool"
        }
      ],
      "stateMutability": "view",
      "type": "function"
    },
    {
      "inputs": [],
      "name": "owner",
      "outputs": [
        {
          "internalType": "address",
          "name": "",
          "type": "address"
        }
      ],
      "stateMutability": "view",
      "type": "function"
    },
    {
      "inputs": [],
      "name": "proxiableUUID",
      "outputs": [
        {
          "internalType": "bytes32",
          "name": "",
          "type": "bytes32"
        }
      ],
      "stateMutability": "view",
      "type": "function"
    },
    {
      "inputs": [
        {
          "internalType": "address",
          "name": "_account",
          "type": "address"
        }
      ],
      "name": "removeFarmDistributor",
      "outputs": [],
      "stateMutability": "nonpayable",
      "type": "function"
    },
    {
      "inputs": [],
      "name": "renounceOwnership",
      "outputs": [],
      "stateMutability": "nonpayable",
      "type": "function"
    },
    {
      "inputs": [
        {
          "internalType": "address",
          "name": "_account",
          "type": "address"
        }
      ],
      "name": "rewardsInfoOf",
      "outputs": [
        {
          "components": [
            {
              "internalType": "uint256[]",
              "name": "surprizeRewards",
              "type": "uint256[]"
            },
            {
              "internalType": "uint256[]",
              "name": "farmRewards",
              "type": "uint256[]"
            },
            {
              "internalType": "uint256[]",
              "name": "sellTaxRewards",
              "type": "uint256[]"
            }
          ],
          "internalType": "struct ISmartOtherAchievement.UserInfo",
          "name": "",
          "type": "tuple"
        }
      ],
      "stateMutability": "view",
      "type": "function"
    },
    {
      "inputs": [
        {
          "internalType": "uint256",
          "name": "_amount",
          "type": "uint256"
        }
      ],
      "name": "swapDistribute",
      "outputs": [],
      "stateMutability": "nonpayable",
      "type": "function"
    },
    {
      "inputs": [
        {
          "internalType": "address",
          "name": "newOwner",
          "type": "address"
        }
      ],
      "name": "transferOwnership",
      "outputs": [],
      "stateMutability": "nonpayable",
      "type": "function"
    },
    {
      "inputs": [
        {
          "internalType": "address",
          "name": "newImplementation",
          "type": "address"
        }
      ],
      "name": "upgradeTo",
      "outputs": [],
      "stateMutability": "nonpayable",
      "type": "function"
    },
    {
      "inputs": [
        {
          "internalType": "address",
          "name": "newImplementation",
          "type": "address"
        },
        {
          "internalType": "bytes",
          "name": "data",
          "type": "bytes"
        }
      ],
      "name": "upgradeToAndCall",
      "outputs": [],
      "stateMutability": "payable",
      "type": "function"
    },
    {
      "stateMutability": "payable",
      "type": "receive"
    }
  ],
  "bytecode": "0x60a06040523060601b60805234801561001757600080fd5b5060805160601c614b456100526000396000818161114101528181611181015281816116a5015281816116e501526117610152614b456000f3fe6080604052600436106101095760003560e01c8063081eae0e146101155780630b5f973e146101375780630b6b509c146101575780633659cfe61461017757806346ccd1e0146101975780634f1ef286146101b757806352d1902d146101ca5780635fe3b567146101f25780636aec08fb1461021f5780636fdffb761461023f578063715018a61461025f5780638da5cb5b14610274578063978cac4e146102895780639fce5c8e146102a9578063a1b1467c146102c9578063b1d01498146102f6578063b942906914610316578063bee23c4214610346578063c4d66de814610366578063f2fde38b14610386578063f36ad332146103a6578063f4c5f8cc146103c657600080fd5b3661011057005b600080fd5b34801561012157600080fd5b50610135610130366004614545565b6103e6565b005b34801561014357600080fd5b506101356101523660046142bc565b610b06565b34801561016357600080fd5b50610135610172366004614545565b610eda565b34801561018357600080fd5b506101356101923660046142bc565b611136565b3480156101a357600080fd5b506101356101b2366004614545565b6111fc565b6101356101c53660046142d8565b61169a565b3480156101d657600080fd5b506101df611754565b6040519081526020015b60405180910390f35b3480156101fe57600080fd5b5060c954610212906001600160a01b031681565b6040516101e991906145b3565b34801561022b57600080fd5b5061013561023a3660046142bc565b611802565b34801561024b57600080fd5b5061013561025a366004614545565b611b8e565b34801561026b57600080fd5b50610135611dfe565b34801561028057600080fd5b50610212611e39565b34801561029557600080fd5b506101356102a4366004614545565b611e48565b3480156102b557600080fd5b506101df6102c4366004614444565b61204a565b3480156102d557600080fd5b506102e96102e43660046142bc565b6120a9565b6040516101e99190614879565b34801561030257600080fd5b50610135610311366004614379565b6121f7565b34801561032257600080fd5b506103366103313660046142bc565b6128e6565b60405190151581526020016101e9565b34801561035257600080fd5b50610336610361366004614444565b612948565b34801561037257600080fd5b506101356103813660046142bc565b6129ca565b34801561039257600080fd5b506101356103a13660046142bc565b612a51565b3480156103b257600080fd5b506101356103c1366004614545565b612aee565b3480156103d257600080fd5b506101356103e1366004614545565b612d70565b60c960009054906101000a90046001600160a01b03166001600160a01b0316636e0d07536040518163ffffffff1660e01b815260040160206040518083038186803b15801561043457600080fd5b505afa158015610448573d6000803e3d6000fd5b505050506040513d601f19601f8201168201806040525081019061046c9190614529565b6001600160a01b0316336001600160a01b03161480610521575060c960009054906101000a90046001600160a01b03166001600160a01b03166391a95b256040518163ffffffff1660e01b815260040160206040518083038186803b1580156104d457600080fd5b505afa1580156104e8573d6000803e3d6000fd5b505050506040513d601f19601f8201168201806040525081019061050c9190614529565b6001600160a01b0316336001600160a01b0316145b806105c2575060c960009054906101000a90046001600160a01b03166001600160a01b0316633066ebe66040518163ffffffff1660e01b815260040160206040518083038186803b15801561057557600080fd5b505afa158015610589573d6000803e3d6000fd5b505050506040513d601f19601f820116820180604052508101906105ad9190614529565b6001600160a01b0316336001600160a01b0316145b80610663575060c960009054906101000a90046001600160a01b03166001600160a01b03166399bd7d8f6040518163ffffffff1660e01b815260040160206040518083038186803b15801561061657600080fd5b505afa15801561062a573d6000803e3d6000fd5b505050506040513d601f19601f8201168201806040525081019061064e9190614529565b6001600160a01b0316336001600160a01b0316145b80610704575060c960009054906101000a90046001600160a01b03166001600160a01b031663dd445c316040518163ffffffff1660e01b815260040160206040518083038186803b1580156106b757600080fd5b505afa1580156106cb573d6000803e3d6000fd5b505050506040513d601f19601f820116820180604052508101906106ef9190614529565b6001600160a01b0316336001600160a01b0316145b806107275750610712611e39565b6001600160a01b0316336001600160a01b0316145b61074c5760405162461bcd60e51b8152600401610743906147bd565b60405180910390fd5b60c9546040805163dd445c3160e01b815290516000926001600160a01b03169163dd445c31916004808301926020929190829003018186803b15801561079157600080fd5b505afa1580156107a5573d6000803e3d6000fd5b505050506040513d601f19601f820116820180604052508101906107c99190614529565b9050600060c960009054906101000a90046001600160a01b03166001600160a01b0316636ac3861a6040518163ffffffff1660e01b815260040160206040518083038186803b15801561081b57600080fd5b505afa15801561082f573d6000803e3d6000fd5b505050506040513d601f19601f820116820180604052508101906108539190614529565b6040805160028082526060820183529293506000929091602083019080368337019050509050828160008151811061089b57634e487b7160e01b600052603260045260246000fd5b60200260200101906001600160a01b031690816001600160a01b03168152505081816001815181106108dd57634e487b7160e01b600052603260045260246000fd5b6001600160a01b0392831660209182029290920181019190915260c954604080516271c17560e01b8152905160009492909216926271c17592600480840193829003018186803b15801561093057600080fd5b505afa158015610944573d6000803e3d6000fd5b505050506040513d601f19601f820116820180604052508101906109689190614529565b60405163095ea7b360e01b815290915047906001600160a01b0386169063095ea7b39061099b9085908a906004016145c7565b602060405180830381600087803b1580156109b557600080fd5b505af11580156109c9573d6000803e3d6000fd5b505050506040513d601f19601f820116820180604052508101906109ed91906144f1565b506001600160a01b03821663791ac9478760008630610a0e42610e10614994565b6040518663ffffffff1660e01b8152600401610a2e9594939291906148d1565b600060405180830381600087803b158015610a4857600080fd5b505af1158015610a5c573d6000803e3d6000fd5b5050505060008147610a6e91906149df565b9050846001600160a01b031663d0e30db0826040518263ffffffff1660e01b81526004016000604051808303818588803b158015610aab57600080fd5b505af1158015610abf573d6000803e3d6000fd5b50505050507fe63c682ee7ea9ad76c37a44a230957d30864d8454ede7e40edf7d8f9e18e18d081604051610af591815260200190565b60405180910390a150505050505050565b60c960009054906101000a90046001600160a01b03166001600160a01b0316636e0d07536040518163ffffffff1660e01b815260040160206040518083038186803b158015610b5457600080fd5b505afa158015610b68573d6000803e3d6000fd5b505050506040513d601f19601f82011682018060405250810190610b8c9190614529565b6001600160a01b0316336001600160a01b03161480610c41575060c960009054906101000a90046001600160a01b03166001600160a01b03166391a95b256040518163ffffffff1660e01b815260040160206040518083038186803b158015610bf457600080fd5b505afa158015610c08573d6000803e3d6000fd5b505050506040513d601f19601f82011682018060405250810190610c2c9190614529565b6001600160a01b0316336001600160a01b0316145b80610ce2575060c960009054906101000a90046001600160a01b03166001600160a01b0316633066ebe66040518163ffffffff1660e01b815260040160206040518083038186803b158015610c9557600080fd5b505afa158015610ca9573d6000803e3d6000fd5b505050506040513d601f19601f82011682018060405250810190610ccd9190614529565b6001600160a01b0316336001600160a01b0316145b80610d83575060c960009054906101000a90046001600160a01b03166001600160a01b03166399bd7d8f6040518163ffffffff1660e01b815260040160206040518083038186803b158015610d3657600080fd5b505afa158015610d4a573d6000803e3d6000fd5b505050506040513d601f19601f82011682018060405250810190610d6e9190614529565b6001600160a01b0316336001600160a01b0316145b80610e24575060c960009054906101000a90046001600160a01b03166001600160a01b031663dd445c316040518163ffffffff1660e01b815260040160206040518083038186803b158015610dd757600080fd5b505afa158015610deb573d6000803e3d6000fd5b505050506040513d601f19601f82011682018060405250810190610e0f9190614529565b6001600160a01b0316336001600160a01b0316145b80610e475750610e32611e39565b6001600160a01b0316336001600160a01b0316145b610e635760405162461bcd60e51b8152600401610743906147bd565b6001600160a01b038116610e895760405162461bcd60e51b815260040161074390614834565b60ca80546001810182556000919091527f42d72674974f694b5f5159593243114d38a5c39c89d6b62fee061ff523240ee10180546001600160a01b0319166001600160a01b03831617905550565b50565b33600090815260cf6020526040812080548290610f0757634e487b7160e01b600052603260045260246000fd5b600091825260208083209091015460c9546040805163dd445c3160e01b815290519295506001600160a01b039091169263dd445c3192600480840193829003018186803b158015610f5757600080fd5b505afa158015610f6b573d6000803e3d6000fd5b505050506040513d601f19601f82011682018060405250810190610f8f9190614529565b6001600160a01b03166370a08231306040518263ffffffff1660e01b8152600401610fba91906145b3565b60206040518083038186803b158015610fd257600080fd5b505afa158015610fe6573d6000803e3d6000fd5b505050506040513d601f19601f8201168201806040525081019061100a9190614511565b9050600061101884846149df565b10156110365760405162461bcd60e51b81526004016107439061464d565b600061104284836149df565b10156110605760405162461bcd60e51b8152600401610743906146ce565b60c9546040805163dd445c3160e01b815290516110e5926001600160a01b03169163dd445c31916004808301926020929190829003018186803b1580156110a657600080fd5b505afa1580156110ba573d6000803e3d6000fd5b505050506040513d601f19601f820116820180604052508101906110de9190614529565b33856134f7565b33600090815260cf60205260408120805485929061111357634e487b7160e01b600052603260045260246000fd5b90600052602060002001600082825461112c91906149df565b9091555050505050565b306001600160a01b037f000000000000000000000000000000000000000000000000000000000000000016141561117f5760405162461bcd60e51b815260040161074390614613565b7f00000000000000000000000000000000000000000000000000000000000000006001600160a01b03166111b161360d565b6001600160a01b0316146111d75760405162461bcd60e51b815260040161074390614694565b6111e081613629565b60408051600080825260208201909252610ed791839190613658565b60c960009054906101000a90046001600160a01b03166001600160a01b0316636e0d07536040518163ffffffff1660e01b815260040160206040518083038186803b15801561124a57600080fd5b505afa15801561125e573d6000803e3d6000fd5b505050506040513d601f19601f820116820180604052508101906112829190614529565b6001600160a01b0316336001600160a01b03161480611337575060c960009054906101000a90046001600160a01b03166001600160a01b03166391a95b256040518163ffffffff1660e01b815260040160206040518083038186803b1580156112ea57600080fd5b505afa1580156112fe573d6000803e3d6000fd5b505050506040513d601f19601f820116820180604052508101906113229190614529565b6001600160a01b0316336001600160a01b0316145b806113d8575060c960009054906101000a90046001600160a01b03166001600160a01b0316633066ebe66040518163ffffffff1660e01b815260040160206040518083038186803b15801561138b57600080fd5b505afa15801561139f573d6000803e3d6000fd5b505050506040513d601f19601f820116820180604052508101906113c39190614529565b6001600160a01b0316336001600160a01b0316145b80611479575060c960009054906101000a90046001600160a01b03166001600160a01b03166399bd7d8f6040518163ffffffff1660e01b815260040160206040518083038186803b15801561142c57600080fd5b505afa158015611440573d6000803e3d6000fd5b505050506040513d601f19601f820116820180604052508101906114649190614529565b6001600160a01b0316336001600160a01b0316145b8061151a575060c960009054906101000a90046001600160a01b03166001600160a01b031663dd445c316040518163ffffffff1660e01b815260040160206040518083038186803b1580156114cd57600080fd5b505afa1580156114e1573d6000803e3d6000fd5b505050506040513d601f19601f820116820180604052508101906115059190614529565b6001600160a01b0316336001600160a01b0316145b8061153d5750611528611e39565b6001600160a01b0316336001600160a01b0316145b6115595760405162461bcd60e51b8152600401610743906147bd565b60ca546115635750565b60ca5460009061157390836149ac565b905060005b60ca5481101561169557600060ca82815481106115a557634e487b7160e01b600052603260045260246000fd5b60009182526020808320909101546001600160a01b031680835260cf9091526040909120600101549091506116245760408051600280825260608201835290916020830190803683375050506001600160a01b038216600090815260cf6020908152604090912082516116229360019092019291909101906141be565b505b6001600160a01b038116600090815260cf6020526040902060019081018054859290811061166257634e487b7160e01b600052603260045260246000fd5b90600052602060002001600082825461167b9190614994565b9091555082915061168d905081614a22565b915050611578565b505050565b306001600160a01b037f00000000000000000000000000000000000000000000000000000000000000001614156116e35760405162461bcd60e51b815260040161074390614613565b7f00000000000000000000000000000000000000000000000000000000000000006001600160a01b031661171561360d565b6001600160a01b03161461173b5760405162461bcd60e51b815260040161074390614694565b61174482613629565b61175082826001613658565b5050565b6000306001600160a01b037f000000000000000000000000000000000000000000000000000000000000000016146117ef5760405162461bcd60e51b815260206004820152603860248201527f555550535570677261646561626c653a206d757374206e6f742062652063616c6044820152771b1959081d1a1c9bdd59da0819195b1959d85d1958d85b1b60421b6064820152608401610743565b50600080516020614ac983398151915290565b60c960009054906101000a90046001600160a01b03166001600160a01b0316636e0d07536040518163ffffffff1660e01b815260040160206040518083038186803b15801561185057600080fd5b505afa158015611864573d6000803e3d6000fd5b505050506040513d601f19601f820116820180604052508101906118889190614529565b6001600160a01b0316336001600160a01b0316148061193d575060c960009054906101000a90046001600160a01b03166001600160a01b03166391a95b256040518163ffffffff1660e01b815260040160206040518083038186803b1580156118f057600080fd5b505afa158015611904573d6000803e3d6000fd5b505050506040513d601f19601f820116820180604052508101906119289190614529565b6001600160a01b0316336001600160a01b0316145b806119de575060c960009054906101000a90046001600160a01b03166001600160a01b0316633066ebe66040518163ffffffff1660e01b815260040160206040518083038186803b15801561199157600080fd5b505afa1580156119a5573d6000803e3d6000fd5b505050506040513d601f19601f820116820180604052508101906119c99190614529565b6001600160a01b0316336001600160a01b0316145b80611a7f575060c960009054906101000a90046001600160a01b03166001600160a01b03166399bd7d8f6040518163ffffffff1660e01b815260040160206040518083038186803b158015611a3257600080fd5b505afa158015611a46573d6000803e3d6000fd5b505050506040513d601f19601f82011682018060405250810190611a6a9190614529565b6001600160a01b0316336001600160a01b0316145b80611b20575060c960009054906101000a90046001600160a01b03166001600160a01b031663dd445c316040518163ffffffff1660e01b815260040160206040518083038186803b158015611ad357600080fd5b505afa158015611ae7573d6000803e3d6000fd5b505050506040513d601f19601f82011682018060405250810190611b0b9190614529565b6001600160a01b0316336001600160a01b0316145b80611b435750611b2e611e39565b6001600160a01b0316336001600160a01b0316145b611b5f5760405162461bcd60e51b8152600401610743906147bd565b6001600160a01b038116611b855760405162461bcd60e51b815260040161074390614834565b610ed7816137d2565b33600090815260cf6020526040812060020180546001908110611bc157634e487b7160e01b600052603260045260246000fd5b600091825260208083209091015460c95460408051631eb1f77560e31b815290519295506001600160a01b039091169263f58fbba892600480840193829003018186803b158015611c1157600080fd5b505afa158015611c25573d6000803e3d6000fd5b505050506040513d601f19601f82011682018060405250810190611c499190614529565b6001600160a01b03166370a08231306040518263ffffffff1660e01b8152600401611c7491906145b3565b60206040518083038186803b158015611c8c57600080fd5b505afa158015611ca0573d6000803e3d6000fd5b505050506040513d601f19601f82011682018060405250810190611cc49190614511565b90506000611cd284846149df565b1015611cf05760405162461bcd60e51b81526004016107439061464d565b6000611cfc84836149df565b1015611d1a5760405162461bcd60e51b8152600401610743906146ce565b60c95460408051631eb1f77560e31b81529051611d60926001600160a01b03169163f58fbba8916004808301926020929190829003018186803b1580156110a657600080fd5b33600090815260cf6020526040902060020180548491906001908110611d9657634e487b7160e01b600052603260045260246000fd5b906000526020600020016000828254611daf91906149df565b909155505033600090815260cf602052604081206002018054859290611de557634e487b7160e01b600052603260045260246000fd5b90600052602060002001600082825461112c9190614994565b33611e07611e39565b6001600160a01b031614611e2d5760405162461bcd60e51b815260040161074390614788565b611e376000613862565b565b6097546001600160a01b031690565b33600090815260cf6020526040812080546001908110611e7857634e487b7160e01b600052603260045260246000fd5b600091825260208083209091015460c95460408051631eb1f77560e31b815290519295506001600160a01b039091169263f58fbba892600480840193829003018186803b158015611ec857600080fd5b505afa158015611edc573d6000803e3d6000fd5b505050506040513d601f19601f82011682018060405250810190611f009190614529565b6001600160a01b03166370a08231306040518263ffffffff1660e01b8152600401611f2b91906145b3565b60206040518083038186803b158015611f4357600080fd5b505afa158015611f57573d6000803e3d6000fd5b505050506040513d601f19601f82011682018060405250810190611f7b9190614511565b90506000611f8984846149df565b1015611fa75760405162461bcd60e51b81526004016107439061464d565b6000611fb384836149df565b1015611fd15760405162461bcd60e51b8152600401610743906146ce565b60c95460408051631eb1f77560e31b81529051612017926001600160a01b03169163f58fbba8916004808301926020929190829003018186803b1580156110a657600080fd5b33600090815260cf602052604090208054849190600190811061111357634e487b7160e01b600052603260045260246000fd5b6000805b826001600160a01b031684828151811061207857634e487b7160e01b600052603260045260246000fd5b60200260200101516001600160a01b0316146120a0578061209881614a22565b91505061204e565b90505b92915050565b6120cd60405180606001604052806060815260200160608152602001606081525090565b6001600160a01b038216600090815260cf60209081526040918290208251815460809381028201840190945260608101848152909391928492849184018282801561213757602002820191906000526020600020905b815481526020019060010190808311612123575b505050505081526020016001820180548060200260200160405190810160405280929190818152602001828054801561218f57602002820191906000526020600020905b81548152602001906001019080831161217b575b50505050508152602001600282018054806020026020016040519081016040528092919081815260200182805480156121e757602002820191906000526020600020905b8154815260200190600101908083116121d3575b5050505050815250509050919050565b60c960009054906101000a90046001600160a01b03166001600160a01b0316636e0d07536040518163ffffffff1660e01b815260040160206040518083038186803b15801561224557600080fd5b505afa158015612259573d6000803e3d6000fd5b505050506040513d601f19601f8201168201806040525081019061227d9190614529565b6001600160a01b0316336001600160a01b03161480612332575060c960009054906101000a90046001600160a01b03166001600160a01b03166391a95b256040518163ffffffff1660e01b815260040160206040518083038186803b1580156122e557600080fd5b505afa1580156122f9573d6000803e3d6000fd5b505050506040513d601f19601f8201168201806040525081019061231d9190614529565b6001600160a01b0316336001600160a01b0316145b806123d3575060c960009054906101000a90046001600160a01b03166001600160a01b0316633066ebe66040518163ffffffff1660e01b815260040160206040518083038186803b15801561238657600080fd5b505afa15801561239a573d6000803e3d6000fd5b505050506040513d601f19601f820116820180604052508101906123be9190614529565b6001600160a01b0316336001600160a01b0316145b80612474575060c960009054906101000a90046001600160a01b03166001600160a01b03166399bd7d8f6040518163ffffffff1660e01b815260040160206040518083038186803b15801561242757600080fd5b505afa15801561243b573d6000803e3d6000fd5b505050506040513d601f19601f8201168201806040525081019061245f9190614529565b6001600160a01b0316336001600160a01b0316145b80612515575060c960009054906101000a90046001600160a01b03166001600160a01b031663dd445c316040518163ffffffff1660e01b815260040160206040518083038186803b1580156124c857600080fd5b505afa1580156124dc573d6000803e3d6000fd5b505050506040513d601f19601f820116820180604052508101906125009190614529565b6001600160a01b0316336001600160a01b0316145b806125385750612523611e39565b6001600160a01b0316336001600160a01b0316145b6125545760405162461bcd60e51b8152600401610743906147bd565b6001600160a01b038216600090815260cf6020526040902054600211156125c15760408051600280825260608201835290916020830190803683375050506001600160a01b038316600090815260cf6020908152604090912082516125bf93919291909101906141be565b505b60408051436020820152339181019190915242606082015260009060800160408051601f198184030181529190528051602090910120905061260b670de0b6b3a7640000826149ac565b905060005b828110156128e057600061262e61262783856149c0565b60026138b4565b9050600061265361263f84866149c0565b600084815260ce60205260409020546138b4565b600083815260ce602052604090205490915061269d576002612676836001614994565b6126809190614a3d565b600081815260ce602052604090205490925061269d5750506128e0565b600082815260ce602052604081208054839081106126cb57634e487b7160e01b600052603260045260246000fd5b90600052602060002001549050600060cc84815481106126fb57634e487b7160e01b600052603260045260246000fd5b90600052602060002001828154811061272457634e487b7160e01b600052603260045260246000fd5b906000526020600020015411156128ca57600060cb848154811061275857634e487b7160e01b600052603260045260246000fd5b90600052602060002001828154811061278157634e487b7160e01b600052603260045260246000fd5b906000526020600020015490508060cf60008a6001600160a01b03166001600160a01b0316815260200190815260200160002060000185815481106127d657634e487b7160e01b600052603260045260246000fd5b9060005260206000200160008282546127ef9190614994565b92505081905550600160cc858154811061281957634e487b7160e01b600052603260045260246000fd5b90600052602060002001838154811061284257634e487b7160e01b600052603260045260246000fd5b90600052602060002001600082825461285b91906149df565b909155505060cc80548590811061288257634e487b7160e01b600052603260045260246000fd5b9060005260206000200182815481106128ab57634e487b7160e01b600052603260045260246000fd5b9060005260206000200154600014156128c8576128c8848361392b565b505b50505080806128d890614a22565b915050612610565b50505050565b60006120a360ca80548060200260200160405190810160405280929190818152602001828054801561294157602002820191906000526020600020905b81546001600160a01b03168152600190910190602001808311612923575b5050505050835b6000805b83518110156129ad57826001600160a01b031684828151811061297f57634e487b7160e01b600052603260045260246000fd5b60200260200101516001600160a01b0316141561299b576129ad565b806129a581614a22565b91505061294c565b83518110156129c05760019150506120a3565b5060009392505050565b600054610100900460ff166129e55760005460ff16156129ed565b6129ed613a4f565b612a095760405162461bcd60e51b815260040161074390614703565b600054610100900460ff16158015612a2b576000805461ffff19166101011790555b612a33613a60565b612a3c82613a8f565b8015611750576000805461ff00191690555050565b33612a5a611e39565b6001600160a01b031614612a805760405162461bcd60e51b815260040161074390614788565b6001600160a01b038116612ae55760405162461bcd60e51b815260206004820152602660248201527f4f776e61626c653a206e6577206f776e657220697320746865207a65726f206160448201526564647265737360d01b6064820152608401610743565b610ed781613862565b33600090815260cf60205260408120600190810180549091908110612b2357634e487b7160e01b600052603260045260246000fd5b600091825260208083209091015460c95460408051631eb1f77560e31b815290519295506001600160a01b039091169263f58fbba892600480840193829003018186803b158015612b7357600080fd5b505afa158015612b87573d6000803e3d6000fd5b505050506040513d601f19601f82011682018060405250810190612bab9190614529565b6001600160a01b03166370a08231306040518263ffffffff1660e01b8152600401612bd691906145b3565b60206040518083038186803b158015612bee57600080fd5b505afa158015612c02573d6000803e3d6000fd5b505050506040513d601f19601f82011682018060405250810190612c269190614511565b90506000612c3484846149df565b1015612c7c5760405162461bcd60e51b81526020600482015260176024820152767573657227732062616c616e6365206f766572666c6f7760481b6044820152606401610743565b6000612c8884836149df565b1015612ca65760405162461bcd60e51b8152600401610743906146ce565b60c95460408051631eb1f77560e31b81529051612cec926001600160a01b03169163f58fbba8916004808301926020929190829003018186803b1580156110a657600080fd5b33600090815260cf60205260409020600190810180548592908110612d2157634e487b7160e01b600052603260045260246000fd5b906000526020600020016000828254612d3a91906149df565b909155505033600090815260cf602052604081206001018054859290611de557634e487b7160e01b600052603260045260246000fd5b60c960009054906101000a90046001600160a01b03166001600160a01b0316636e0d07536040518163ffffffff1660e01b815260040160206040518083038186803b158015612dbe57600080fd5b505afa158015612dd2573d6000803e3d6000fd5b505050506040513d601f19601f82011682018060405250810190612df69190614529565b6001600160a01b0316336001600160a01b03161480612eab575060c960009054906101000a90046001600160a01b03166001600160a01b03166391a95b256040518163ffffffff1660e01b815260040160206040518083038186803b158015612e5e57600080fd5b505afa158015612e72573d6000803e3d6000fd5b505050506040513d601f19601f82011682018060405250810190612e969190614529565b6001600160a01b0316336001600160a01b0316145b80612f4c575060c960009054906101000a90046001600160a01b03166001600160a01b0316633066ebe66040518163ffffffff1660e01b815260040160206040518083038186803b158015612eff57600080fd5b505afa158015612f13573d6000803e3d6000fd5b505050506040513d601f19601f82011682018060405250810190612f379190614529565b6001600160a01b0316336001600160a01b0316145b80612fed575060c960009054906101000a90046001600160a01b03166001600160a01b03166399bd7d8f6040518163ffffffff1660e01b815260040160206040518083038186803b158015612fa057600080fd5b505afa158015612fb4573d6000803e3d6000fd5b505050506040513d601f19601f82011682018060405250810190612fd89190614529565b6001600160a01b0316336001600160a01b0316145b8061308e575060c960009054906101000a90046001600160a01b03166001600160a01b031663dd445c316040518163ffffffff1660e01b815260040160206040518083038186803b15801561304157600080fd5b505afa158015613055573d6000803e3d6000fd5b505050506040513d601f19601f820116820180604052508101906130799190614529565b6001600160a01b0316336001600160a01b0316145b806130b1575061309c611e39565b6001600160a01b0316336001600160a01b0316145b6130cd5760405162461bcd60e51b8152600401610743906147bd565b60c95460408051636e0d075360e01b815290516000926001600160a01b031691636e0d0753916004808301926020929190829003018186803b15801561311257600080fd5b505afa158015613126573d6000803e3d6000fd5b505050506040513d601f19601f8201168201806040525081019061314a9190614529565b90506000816001600160a01b031663c202779e6040518163ffffffff1660e01b815260040160006040518083038186803b15801561318757600080fd5b505afa15801561319b573d6000803e3d6000fd5b505050506040513d6000823e601f3d908101601f191682016040526131c391908101906143a4565b90506000805b825181101561329357836001600160a01b03166312e4207e84838151811061320157634e487b7160e01b600052603260045260246000fd5b60200260200101516040518263ffffffff1660e01b815260040161322591906145b3565b60206040518083038186803b15801561323d57600080fd5b505afa158015613251573d6000803e3d6000fd5b505050506040513d601f19601f820116820180604052508101906132759190614511565b61327f9083614994565b91508061328b81614a22565b9150506131c9565b508061329f5750505050565b60005b82518110156134f05760cf60008483815181106132cf57634e487b7160e01b600052603260045260246000fd5b60200260200101516001600160a01b03166001600160a01b0316815260200190815260200160002060020180549050600014156133885760408051600280825260608201835290916020830190803683370190505060cf600085848151811061334857634e487b7160e01b600052603260045260246000fd5b60200260200101516001600160a01b03166001600160a01b0316815260200190815260200160002060020190805190602001906133869291906141be565b505b6000846001600160a01b03166312e4207e8584815181106133b957634e487b7160e01b600052603260045260246000fd5b60200260200101516040518263ffffffff1660e01b81526004016133dd91906145b3565b60206040518083038186803b1580156133f557600080fd5b505afa158015613409573d6000803e3d6000fd5b505050506040513d601f19601f8201168201806040525081019061342d9190614511565b90508061343a57506134de565b8261344587836149c0565b61344f91906149ac565b60cf600086858151811061347357634e487b7160e01b600052603260045260246000fd5b60200260200101516001600160a01b03166001600160a01b031681526020019081526020016000206002016001815481106134be57634e487b7160e01b600052603260045260246000fd5b9060005260206000200160008282546134d79190614994565b9091555050505b806134e881614a22565b9150506132a2565b5050505050565b600080846001600160a01b031663a9059cbb858560405160240161351c9291906145c7565b6040516020818303038152906040529060e01b6020820180516001600160e01b0383818316178352505050506040516135559190614597565b6000604051808303816000865af19150503d8060008114613592576040519150601f19603f3d011682016040523d82523d6000602084013e613597565b606091505b50915091508180156135c15750805115806135c15750808060200190518101906135c191906144f1565b6134f05760405162461bcd60e51b815260206004820152601f60248201527f5472616e7366657248656c7065723a205452414e534645525f4641494c4544006044820152606401610743565b600080516020614ac9833981519152546001600160a01b031690565b33613632611e39565b6001600160a01b031614610ed75760405162461bcd60e51b815260040161074390614788565b7f4910fdfa16fed3260ed0e7147f7cc6da11a60208b5b9406d12a635614ffd91435460ff161561368b5761169583613e35565b826001600160a01b03166352d1902d6040518163ffffffff1660e01b815260040160206040518083038186803b1580156136c457600080fd5b505afa9250505080156136f4575060408051601f3d908101601f191682019092526136f191810190614511565b60015b6137575760405162461bcd60e51b815260206004820152602e60248201527f45524331393637557067726164653a206e657720696d706c656d656e7461746960448201526d6f6e206973206e6f74205555505360901b6064820152608401610743565b600080516020614ac983398151915281146137c65760405162461bcd60e51b815260206004820152602960248201527f45524331393637557067726164653a20756e737570706f727465642070726f786044820152681a58589b195555525160ba1b6064820152608401610743565b50611695838383613ecf565b60ca546137f15760405162461bcd60e51b815260040161074390614751565b600061385760ca80548060200260200160405190810160405280929190818152602001828054801561384c57602002820191906000526020600020905b81546001600160a01b0316815260019091019060200180831161382e575b50505050508361204a565b905061175081613ef4565b609780546001600160a01b038381166001600160a01b0319831681179093556040519116919082907f8be0079c531659141344cd1fd0a4f28419497f9722a3daafe3b4186f6b6457e090600090a35050565b6000816138c3575060006120a3565b814244416138d2436001614994565b6040805160208101959095528401929092526001600160a01b0316606083015240608082015260a081018590524360c082015260e0016040516020818303038152906040528051906020012060001c6120a09190614a3d565b600082815260ce60205260409020546139565760405162461bcd60e51b815260040161074390614751565b600082815260ce6020526040902054613971906001906149df565b811015613a0a57600082815260ce60205260409020613991826001614994565b815481106139af57634e487b7160e01b600052603260045260246000fd5b906000526020600020015460ce600084815260200190815260200160002082815481106139ec57634e487b7160e01b600052603260045260246000fd5b60009182526020909120015580613a0281614a22565b915050613956565b600082815260ce60205260409020805480613a3557634e487b7160e01b600052603160045260246000fd5b600190038181906000526020600020016000905590555050565b6000613a5a3061400d565b15905090565b600054610100900460ff16613a875760405162461bcd60e51b8152600401610743906147e9565b611e3761401c565b600054610100900460ff16613aaa5760005460ff1615613ab2565b613ab2613a4f565b613ace5760405162461bcd60e51b815260040161074390614703565b600054610100900460ff16158015613af0576000805461ffff19166101011790555b8160c960006101000a8154816001600160a01b0302191690836001600160a01b03160217905550604051806040016040528060405180610120016040528069021e19e0c9bab24000008152602001683635c9adc5dea00000815260200168056bc75e2d631000008152602001678ac7230489e800008152602001670de0b6b3a7640000815260200167016345785d8a00008152602001662386f26fc10000815260200166038d7ea4c680008152602001655af3107a40008152508152602001604051806101200160405280683635c9adc5dea00000815260200168056bc75e2d631000008152602001678ac7230489e800008152602001670de0b6b3a7640000815260200167016345785d8a00008152602001662386f26fc10000815260200166038d7ea4c680008152602001655af3107a400081526020016509184e72a00081525081525060cb906002613c46929190614209565b506040518060400160405280604051806101200160405280600a8152602001606481526020016103e881526020016127108152602001620186a08152602001620f424081526020016298968081526020016305f5e1008152602001633b9aca008152508152602001604051806101200160405280600a8152602001606481526020016103e881526020016127108152602001620186a08152602001620f424081526020016298968081526020016305f5e1008152602001633b9aca0081525081525060cc906002613d18929190614209565b506040805161012081018252600080825260016020808401919091526002938301939093526003606083015260046080830152600560a0830152600660c0830152600760e08301526008610100830152805260ce909152613d9c907fd3f5862f6f80175da7514904f3a889cc3cc8c4f3af5129e28cdeaee2baa6efc49060096141be565b5060408051610120810182526000808252600160208084018290526002948401949094526003606084015260046080840152600560a0840152600660c0840152600760e08401526008610100840152905260ce909152613e1f907f2c64b4c28102eb31817db0aae9385bd83769912689d15cb6b0f59dd7eff206139060096141be565b508015611750576000805461ff00191690555050565b613e3e8161400d565b613ea05760405162461bcd60e51b815260206004820152602d60248201527f455243313936373a206e657720696d706c656d656e746174696f6e206973206e60448201526c1bdd08184818dbdb9d1c9858dd609a1b6064820152608401610743565b600080516020614ac983398151915280546001600160a01b0319166001600160a01b0392909216919091179055565b613ed88361404c565b600082511180613ee55750805b15611695576128e0838361408c565b60ca54613f135760405162461bcd60e51b815260040161074390614751565b60ca54613f22906001906149df565b811015613fc95760ca613f36826001614994565b81548110613f5457634e487b7160e01b600052603260045260246000fd5b60009182526020909120015460ca80546001600160a01b039092169183908110613f8e57634e487b7160e01b600052603260045260246000fd5b600091825260209091200180546001600160a01b0319166001600160a01b039290921691909117905580613fc181614a22565b915050613f13565b60ca805480613fe857634e487b7160e01b600052603160045260246000fd5b600082815260209020810160001990810180546001600160a01b031916905501905550565b6001600160a01b03163b151590565b600054610100900460ff166140435760405162461bcd60e51b8152600401610743906147e9565b611e3733613862565b61405581613e35565b6040516001600160a01b038216907fbc7cd75a20ee27fd9adebab32041f755214dbc6bffa90cc0225b39da2e5c2d3b90600090a250565b60606140978361400d565b6140f25760405162461bcd60e51b815260206004820152602660248201527f416464726573733a2064656c65676174652063616c6c20746f206e6f6e2d636f6044820152651b9d1c9858dd60d21b6064820152608401610743565b600080846001600160a01b03168460405161410d9190614597565b600060405180830381855af49150503d8060008114614148576040519150601f19603f3d011682016040523d82523d6000602084013e61414d565b606091505b50915091506141758282604051806060016040528060278152602001614ae96027913961417e565b95945050505050565b6060831561418d5750816141b7565b82511561419d5782518084602001fd5b8160405162461bcd60e51b815260040161074391906145e0565b9392505050565b8280548282559060005260206000209081019282156141f9579160200282015b828111156141f95782518255916020019190600101906141de565b5061420592915061425c565b5090565b828054828255906000526020600020908101928215614250579160200282015b8281111561425057825161424090839060096141be565b5091602001919060010190614229565b50614205929150614271565b5b80821115614205576000815560010161425d565b80821115614205576000614285828261428e565b50600101614271565b5080546000825590600052602060002090810190610ed7919061425c565b80356142b781614a93565b919050565b6000602082840312156142cd578081fd5b81356120a081614a93565b600080604083850312156142ea578081fd5b82356142f581614a93565b91506020838101356001600160401b0380821115614311578384fd5b818601915086601f830112614324578384fd5b81358181111561433657614336614a7d565b614348601f8201601f19168501614941565b9150808252878482850101111561435d578485fd5b8084840185840137810190920192909252919491935090915050565b6000806040838503121561438b578182fd5b823561439681614a93565b946020939093013593505050565b600060208083850312156143b6578182fd5b82516001600160401b038111156143cb578283fd5b8301601f810185136143db578283fd5b80516143ee6143e982614971565b614941565b80828252848201915084840188868560051b870101111561440d578687fd5b8694505b8385101561443857805161442481614a93565b835260019490940193918501918501614411565b50979650505050505050565b60008060408385031215614456578182fd5b82356001600160401b0381111561446b578283fd5b8301601f8101851361447b578283fd5b8035602061448b6143e983614971565b80838252828201915082850189848660051b88010111156144aa578788fd5b8795505b848610156144d55780356144c181614a93565b8352600195909501949183019183016144ae565b5095506144e590508682016142ac565b93505050509250929050565b600060208284031215614502578081fd5b815180151581146120a0578182fd5b600060208284031215614522578081fd5b5051919050565b60006020828403121561453a578081fd5b81516120a081614a93565b600060208284031215614556578081fd5b5035919050565b6000815180845260208085019450808401835b8381101561458c57815187529582019590820190600101614570565b509495945050505050565b600082516145a98184602087016149f6565b9190910192915050565b6001600160a01b0391909116815260200190565b6001600160a01b03929092168252602082015260400190565b60208152600082518060208401526145ff8160408501602087016149f6565b601f01601f19169190910160400192915050565b6020808252602c90820152600080516020614aa983398151915260408201526b19195b1959d85d1958d85b1b60a21b606082015260800190565b60208082526027908201527f54686520616d6f756e7420746f20636c61696d2065786365656473207468652060408201526662616c616e636560c81b606082015260800190565b6020808252602c90820152600080516020614aa983398151915260408201526b6163746976652070726f787960a01b606082015260800190565b6020808252818101527f6e6f62696c69747920706f6f6c27732062616c616e6365206f766572666c6f77604082015260600190565b6020808252602e908201527f496e697469616c697a61626c653a20636f6e747261637420697320616c72656160408201526d191e481a5b9a5d1a585b1a5e995960921b606082015260800190565b6020808252601d908201527f546865206172726179206c656e677468206973207a65726f206e6f772e000000604082015260600190565b6020808252818101527f4f776e61626c653a2063616c6c6572206973206e6f7420746865206f776e6572604082015260600190565b6020808252601290820152716f6e6c7920736d617274206d656d6265727360701b604082015260600190565b6020808252602b908201527f496e697469616c697a61626c653a20636f6e7472616374206973206e6f74206960408201526a6e697469616c697a696e6760a81b606082015260800190565b60208082526025908201527f6163636f756e7420616464726573732063616e2774206265207a65726f206164604082015264647265737360d81b606082015260800190565b602081526000825160606020840152614895608084018261455d565b90506020840151601f19808584030160408601526148b3838361455d565b9250604086015191508085840301606086015250614175828261455d565b600060a082018783526020878185015260a0604085015281875180845260c0860191508289019350845b818110156149205784516001600160a01b0316835293830193918301916001016148fb565b50506001600160a01b03969096166060850152505050608001529392505050565b604051601f8201601f191681016001600160401b038111828210171561496957614969614a7d565b604052919050565b60006001600160401b0382111561498a5761498a614a7d565b5060051b60200190565b600082198211156149a7576149a7614a51565b500190565b6000826149bb576149bb614a67565b500490565b60008160001904831182151516156149da576149da614a51565b500290565b6000828210156149f1576149f1614a51565b500390565b60005b83811015614a115781810151838201526020016149f9565b838111156128e05750506000910152565b6000600019821415614a3657614a36614a51565b5060010190565b600082614a4c57614a4c614a67565b500690565b634e487b7160e01b600052601160045260246000fd5b634e487b7160e01b600052601260045260246000fd5b634e487b7160e01b600052604160045260246000fd5b6001600160a01b0381168114610ed757600080fdfe46756e6374696f6e206d7573742062652063616c6c6564207468726f75676820360894a13ba1a3210667c828492db98dca3e2076cc3735a920a3ca505d382bbc416464726573733a206c6f772d6c6576656c2064656c65676174652063616c6c206661696c6564a26469706673582212208f06c03e350959e6631f6476f6f82fcf1ad5cbabeb634fe985cd0869c2b4734e64736f6c63430008040033",
  "linkReferences": {},
  "deployedLinkReferences": {}
}