{
  "_format": "hh-sol-artifact-1",
  "contractName": "SHARKBABYOKEN",
  "sourceName": "contracts/libs/sharkbaby.sol",
  "abi": [
    {
      "inputs": [
        {
          "internalType": "address",
          "name": "_RouterAddress",
          "type": "address"
        }
      ],
      "stateMutability": "nonpayable",
      "type": "constructor"
    },
    {
      "anonymous": false,
      "inputs": [
        {
          "indexed": true,
          "internalType": "address",
          "name": "owner",
          "type": "address"
        },
        {
          "indexed": true,
          "internalType": "address",
          "name": "spender",
          "type": "address"
        },
        {
          "indexed": false,
          "internalType": "uint256",
          "name": "value",
          "type": "uint256"
        }
      ],
      "name": "Approval",
      "type": "event"
    },
    {
      "anonymous": false,
      "inputs": [
        {
          "indexed": false,
          "internalType": "address",
          "name": "user",
          "type": "address"
        },
        {
          "indexed": false,
          "internalType": "bool",
          "name": "isExlcude",
          "type": "bool"
        }
      ],
      "name": "ExcludeFromFee",
      "type": "event"
    },
    {
      "anonymous": false,
      "inputs": [
        {
          "indexed": true,
          "internalType": "address",
          "name": "previousOwner",
          "type": "address"
        },
        {
          "indexed": true,
          "internalType": "address",
          "name": "newOwner",
          "type": "address"
        }
      ],
      "name": "OwnershipTransferred",
      "type": "event"
    },
    {
      "anonymous": false,
      "inputs": [
        {
          "components": [
            {
              "internalType": "uint256",
              "name": "marketing",
              "type": "uint256"
            },
            {
              "internalType": "uint256",
              "name": "gameWallet",
              "type": "uint256"
            },
            {
              "internalType": "uint256",
              "name": "liquidity",
              "type": "uint256"
            },
            {
              "internalType": "uint256",
              "name": "poolfee",
              "type": "uint256"
            }
          ],
          "indexed": false,
          "internalType": "struct SHARKBABYOKEN.Fees",
          "name": "buyFees",
          "type": "tuple"
        }
      ],
      "name": "SetBuyFee",
      "type": "event"
    },
    {
      "anonymous": false,
      "inputs": [
        {
          "components": [
            {
              "internalType": "uint256",
              "name": "marketing",
              "type": "uint256"
            },
            {
              "internalType": "uint256",
              "name": "gameWallet",
              "type": "uint256"
            },
            {
              "internalType": "uint256",
              "name": "liquidity",
              "type": "uint256"
            },
            {
              "internalType": "uint256",
              "name": "poolfee",
              "type": "uint256"
            }
          ],
          "indexed": false,
          "internalType": "struct SHARKBABYOKEN.Fees",
          "name": "sellFees",
          "type": "tuple"
        }
      ],
      "name": "SetSellFee",
      "type": "event"
    },
    {
      "anonymous": false,
      "inputs": [
        {
          "indexed": false,
          "internalType": "uint256",
          "name": "tokensSwapped",
          "type": "uint256"
        },
        {
          "indexed": false,
          "internalType": "uint256",
          "name": "ethReceived",
          "type": "uint256"
        },
        {
          "indexed": false,
          "internalType": "uint256",
          "name": "tokensIntoLiqudity",
          "type": "uint256"
        }
      ],
      "name": "SwapAndLiquify",
      "type": "event"
    },
    {
      "anonymous": false,
      "inputs": [
        {
          "indexed": true,
          "internalType": "address",
          "name": "from",
          "type": "address"
        },
        {
          "indexed": true,
          "internalType": "address",
          "name": "to",
          "type": "address"
        },
        {
          "indexed": false,
          "internalType": "uint256",
          "name": "value",
          "type": "uint256"
        }
      ],
      "name": "Transfer",
      "type": "event"
    },
    {
      "inputs": [],
      "name": "PancakeSwapRouter",
      "outputs": [
        {
          "internalType": "contract IPancakeSwapRouter",
          "name": "",
          "type": "address"
        }
      ],
      "stateMutability": "view",
      "type": "function"
    },
    {
      "inputs": [],
      "name": "PancakeSwapV2Pair",
      "outputs": [
        {
          "internalType": "address",
          "name": "",
          "type": "address"
        }
      ],
      "stateMutability": "view",
      "type": "function"
    },
    {
      "inputs": [],
      "name": "_maxTxAmount",
      "outputs": [
        {
          "internalType": "uint256",
          "name": "",
          "type": "uint256"
        }
      ],
      "stateMutability": "view",
      "type": "function"
    },
    {
      "inputs": [
        {
          "internalType": "address",
          "name": "owner",
          "type": "address"
        },
        {
          "internalType": "address",
          "name": "spender",
          "type": "address"
        }
      ],
      "name": "allowance",
      "outputs": [
        {
          "internalType": "uint256",
          "name": "",
          "type": "uint256"
        }
      ],
      "stateMutability": "view",
      "type": "function"
    },
    {
      "inputs": [
        {
          "internalType": "address",
          "name": "spender",
          "type": "address"
        },
        {
          "internalType": "uint256",
          "name": "amount",
          "type": "uint256"
        }
      ],
      "name": "approve",
      "outputs": [
        {
          "internalType": "bool",
          "name": "",
          "type": "bool"
        }
      ],
      "stateMutability": "nonpayable",
      "type": "function"
    },
    {
      "inputs": [],
      "name": "babyPoolAddress",
      "outputs": [
        {
          "internalType": "address",
          "name": "",
          "type": "address"
        }
      ],
      "stateMutability": "view",
      "type": "function"
    },
    {
      "inputs": [
        {
          "internalType": "address",
          "name": "account",
          "type": "address"
        }
      ],
      "name": "balanceOf",
      "outputs": [
        {
          "internalType": "uint256",
          "name": "",
          "type": "uint256"
        }
      ],
      "stateMutability": "view",
      "type": "function"
    },
    {
      "inputs": [
        {
          "internalType": "uint256",
          "name": "amount",
          "type": "uint256"
        }
      ],
      "name": "burn",
      "outputs": [],
      "stateMutability": "nonpayable",
      "type": "function"
    },
    {
      "inputs": [],
      "name": "buyFees",
      "outputs": [
        {
          "internalType": "uint256",
          "name": "marketing",
          "type": "uint256"
        },
        {
          "internalType": "uint256",
          "name": "gameWallet",
          "type": "uint256"
        },
        {
          "internalType": "uint256",
          "name": "liquidity",
          "type": "uint256"
        },
        {
          "internalType": "uint256",
          "name": "poolfee",
          "type": "uint256"
        }
      ],
      "stateMutability": "view",
      "type": "function"
    },
    {
      "inputs": [],
      "name": "decimals",
      "outputs": [
        {
          "internalType": "uint8",
          "name": "",
          "type": "uint8"
        }
      ],
      "stateMutability": "view",
      "type": "function"
    },
    {
      "inputs": [
        {
          "internalType": "address",
          "name": "spender",
          "type": "address"
        },
        {
          "internalType": "uint256",
          "name": "subtractedValue",
          "type": "uint256"
        }
      ],
      "name": "decreaseAllowance",
      "outputs": [
        {
          "internalType": "bool",
          "name": "",
          "type": "bool"
        }
      ],
      "stateMutability": "nonpayable",
      "type": "function"
    },
    {
      "inputs": [
        {
          "internalType": "address",
          "name": "user",
          "type": "address"
        },
        {
          "internalType": "bool",
          "name": "_isExclude",
          "type": "bool"
        }
      ],
      "name": "excludeAddressFromFee",
      "outputs": [],
      "stateMutability": "nonpayable",
      "type": "function"
    },
    {
      "inputs": [],
      "name": "gameAddress",
      "outputs": [
        {
          "internalType": "address",
          "name": "",
          "type": "address"
        }
      ],
      "stateMutability": "view",
      "type": "function"
    },
    {
      "inputs": [],
      "name": "getOwner",
      "outputs": [
        {
          "internalType": "address",
          "name": "",
          "type": "address"
        }
      ],
      "stateMutability": "view",
      "type": "function"
    },
    {
      "inputs": [],
      "name": "getTotalBuyFee",
      "outputs": [
        {
          "internalType": "uint256",
          "name": "",
          "type": "uint256"
        }
      ],
      "stateMutability": "view",
      "type": "function"
    },
    {
      "inputs": [],
      "name": "getTotalSellFee",
      "outputs": [
        {
          "internalType": "uint256",
          "name": "",
          "type": "uint256"
        }
      ],
      "stateMutability": "view",
      "type": "function"
    },
    {
      "inputs": [
        {
          "internalType": "address",
          "name": "spender",
          "type": "address"
        },
        {
          "internalType": "uint256",
          "name": "addedValue",
          "type": "uint256"
        }
      ],
      "name": "increaseAllowance",
      "outputs": [
        {
          "internalType": "bool",
          "name": "",
          "type": "bool"
        }
      ],
      "stateMutability": "nonpayable",
      "type": "function"
    },
    {
      "inputs": [],
      "name": "marketingAddress",
      "outputs": [
        {
          "internalType": "address",
          "name": "",
          "type": "address"
        }
      ],
      "stateMutability": "view",
      "type": "function"
    },
    {
      "inputs": [],
      "name": "name",
      "outputs": [
        {
          "internalType": "string",
          "name": "",
          "type": "string"
        }
      ],
      "stateMutability": "view",
      "type": "function"
    },
    {
      "inputs": [],
      "name": "numTokensSellToAddToLiquidity",
      "outputs": [
        {
          "internalType": "uint256",
          "name": "",
          "type": "uint256"
        }
      ],
      "stateMutability": "view",
      "type": "function"
    },
    {
      "inputs": [],
      "name": "owner",
      "outputs": [
        {
          "internalType": "address",
          "name": "",
          "type": "address"
        }
      ],
      "stateMutability": "view",
      "type": "function"
    },
    {
      "inputs": [],
      "name": "poolAddress",
      "outputs": [
        {
          "internalType": "address",
          "name": "",
          "type": "address"
        }
      ],
      "stateMutability": "view",
      "type": "function"
    },
    {
      "inputs": [],
      "name": "renounceOwnership",
      "outputs": [],
      "stateMutability": "nonpayable",
      "type": "function"
    },
    {
      "inputs": [],
      "name": "sellFees",
      "outputs": [
        {
          "internalType": "uint256",
          "name": "marketing",
          "type": "uint256"
        },
        {
          "internalType": "uint256",
          "name": "gameWallet",
          "type": "uint256"
        },
        {
          "internalType": "uint256",
          "name": "liquidity",
          "type": "uint256"
        },
        {
          "internalType": "uint256",
          "name": "poolfee",
          "type": "uint256"
        }
      ],
      "stateMutability": "view",
      "type": "function"
    },
    {
      "inputs": [
        {
          "internalType": "address",
          "name": "_marketingAddress",
          "type": "address"
        },
        {
          "internalType": "address",
          "name": "_gameAddress",
          "type": "address"
        },
        {
          "internalType": "address",
          "name": "_poolAddress",
          "type": "address"
        }
      ],
      "name": "setFeeAddresses",
      "outputs": [],
      "stateMutability": "nonpayable",
      "type": "function"
    },
    {
      "inputs": [
        {
          "internalType": "address",
          "name": "_RouterAddress",
          "type": "address"
        }
      ],
      "name": "setInitialAddresses",
      "outputs": [],
      "stateMutability": "nonpayable",
      "type": "function"
    },
    {
      "inputs": [
        {
          "internalType": "uint256",
          "name": "maxTxAmount",
          "type": "uint256"
        }
      ],
      "name": "setMaxTxAmount",
      "outputs": [],
      "stateMutability": "nonpayable",
      "type": "function"
    },
    {
      "inputs": [
        {
          "internalType": "uint256",
          "name": "_marketingFee",
          "type": "uint256"
        },
        {
          "internalType": "uint256",
          "name": "_gameWalletFee",
          "type": "uint256"
        },
        {
          "internalType": "uint256",
          "name": "_liquidityFee",
          "type": "uint256"
        },
        {
          "internalType": "uint256",
          "name": "_poolfee",
          "type": "uint256"
        }
      ],
      "name": "setbuyFee",
      "outputs": [],
      "stateMutability": "nonpayable",
      "type": "function"
    },
    {
      "inputs": [
        {
          "internalType": "uint256",
          "name": "_marketingFee",
          "type": "uint256"
        },
        {
          "internalType": "uint256",
          "name": "_gameWalletFee",
          "type": "uint256"
        },
        {
          "internalType": "uint256",
          "name": "_liquidityFee",
          "type": "uint256"
        },
        {
          "internalType": "uint256",
          "name": "_poolfee",
          "type": "uint256"
        }
      ],
      "name": "setsellFee",
      "outputs": [],
      "stateMutability": "nonpayable",
      "type": "function"
    },
    {
      "inputs": [],
      "name": "swapAndLiquifyEnabled",
      "outputs": [
        {
          "internalType": "bool",
          "name": "",
          "type": "bool"
        }
      ],
      "stateMutability": "view",
      "type": "function"
    },
    {
      "inputs": [],
      "name": "symbol",
      "outputs": [
        {
          "internalType": "string",
          "name": "",
          "type": "string"
        }
      ],
      "stateMutability": "view",
      "type": "function"
    },
    {
      "inputs": [],
      "name": "totalSupply",
      "outputs": [
        {
          "internalType": "uint256",
          "name": "",
          "type": "uint256"
        }
      ],
      "stateMutability": "view",
      "type": "function"
    },
    {
      "inputs": [
        {
          "internalType": "address",
          "name": "recipient",
          "type": "address"
        },
        {
          "internalType": "uint256",
          "name": "amount",
          "type": "uint256"
        }
      ],
      "name": "transfer",
      "outputs": [
        {
          "internalType": "bool",
          "name": "",
          "type": "bool"
        }
      ],
      "stateMutability": "nonpayable",
      "type": "function"
    },
    {
      "inputs": [
        {
          "internalType": "address",
          "name": "sender",
          "type": "address"
        },
        {
          "internalType": "address",
          "name": "recipient",
          "type": "address"
        },
        {
          "internalType": "uint256",
          "name": "amount",
          "type": "uint256"
        }
      ],
      "name": "transferFrom",
      "outputs": [
        {
          "internalType": "bool",
          "name": "",
          "type": "bool"
        }
      ],
      "stateMutability": "nonpayable",
      "type": "function"
    },
    {
      "inputs": [
        {
          "internalType": "address",
          "name": "newOwner",
          "type": "address"
        }
      ],
      "name": "transferOwnership",
      "outputs": [],
      "stateMutability": "nonpayable",
      "type": "function"
    },
    {
      "stateMutability": "payable",
      "type": "receive"
    }
  ],
  "bytecode": "0x6080604052600c805460ff60a81b1916600160a81b1790556c7e37be2022c0914b268000000060165568056bc75e2d631000006017553480156200004257600080fd5b50604051620026d7380380620026d783398101604081905262000065916200047c565b600062000071620003dc565b600080546001600160a01b0319166001600160a01b0383169081178255604051929350917f8be0079c531659141344cd1fd0a4f28419497f9722a3daafe3b4186f6b6457e0908290a35060408051808201909152600980825268736861726b6261627960b81b6020909201918252620000ed91600691620003e0565b50604080518082019091526004808252635348425960e01b60209092019182526200011b91600591620003e0565b506004805460ff1916601290811782556b033b2e3c9fd0803ce800000060038190553360009081526001602090815260408083209390935560146011819055938490556013829055600d849055600e91909155600a600f556050909255600b80546001600160a01b0386166001600160a01b03199091168117909155815163c45a015560e01b815291518594919363c45a0155938084019391929190829003018186803b158015620001cc57600080fd5b505afa158015620001e1573d6000803e3d6000fd5b505050506040513d601f19601f820116820180604052508101906200020791906200047c565b6001600160a01b031663c9c6539630836001600160a01b031663ad5c46486040518163ffffffff1660e01b815260040160206040518083038186803b1580156200025057600080fd5b505afa15801562000265573d6000803e3d6000fd5b505050506040513d601f19601f820116820180604052508101906200028b91906200047c565b6040518363ffffffff1660e01b8152600401620002aa929190620004ac565b602060405180830381600087803b158015620002c557600080fd5b505af1158015620002da573d6000803e3d6000fd5b505050506040513d601f19601f820116820180604052508101906200030091906200047c565b600c80546001600160a01b0319166001600160a01b039290921691909117905560035460405133916000917fddf252ad1be2c89b69c2b068fc378daa952ba7f163c4a11628f55a4df523b3ef916200035891620004ef565b60405180910390a37f4033c61b7a7bda78889373d049a0bb6dd3500d8bff8ace1617cb78413102e8076011604051620003929190620004c6565b60405180910390a17f59b16bf8c94a0fd94bd5c030ec293d45b519b7dc85a474b840ddd20e347ff43b600d604051620003cc9190620004c6565b60405180910390a15050620004f8565b3390565b828054600181600116156101000203166002900490600052602060002090601f016020900481019282601f106200042357805160ff191683800117855562000453565b8280016001018555821562000453579182015b828111156200045357825182559160200191906001019062000436565b506200046192915062000465565b5090565b5b8082111562000461576000815560010162000466565b6000602082840312156200048e578081fd5b81516001600160a01b0381168114620004a5578182fd5b9392505050565b6001600160a01b0392831681529116602082015260400190565b815481526001820154602082015260028201546040820152600390910154606082015260800190565b90815260200190565b6121cf80620005086000396000f3fe6080604052600436106101985760003560e01c806306fdde03146101a4578063095ea7b3146101cf5780631755ff21146101fc57806318160ddd1461021e5780631ebe8be81461024057806323b872dd1461025557806328ec13ee14610275578063313ce5671461029757806339509351146102b95780633e341212146102d9578063421ea58b146102f957806342966c681461030e57806347cb8c041461032e5780634a74bb021461034357806370a0823114610358578063715018a614610378578063799bec121461038d5780637d1db4a5146103ad578063893d20e8146103c25780638da5cb5b146103d757806395d89b41146103ec578063a168d87314610401578063a457c2d714610416578063a5ece94114610436578063a9059cbb1461044b578063aa1ef5981461046b578063c1258a401461048b578063c5820ad0146104a0578063d12a7688146104c0578063dd62ed3e146104d5578063e0f3ccf5146104f5578063e4748b9e1461051a578063ec28438a1461052f578063f2fde38b1461054f578063f5034b0a1461056f5761019f565b3661019f57005b600080fd5b3480156101b057600080fd5b506101b9610584565b6040516101c69190611ce9565b60405180910390f35b3480156101db57600080fd5b506101ef6101ea366004611bb9565b61061a565b6040516101c69190611cde565b34801561020857600080fd5b50610211610638565b6040516101c69190611c5a565b34801561022a57600080fd5b50610233610647565b6040516101c69190611ff7565b34801561024c57600080fd5b5061023361064d565b34801561026157600080fd5b506101ef610270366004611b48565b61065f565b34801561028157600080fd5b50610295610290366004611a8e565b6106e6565b005b3480156102a357600080fd5b506102ac6108c5565b6040516101c691906120a1565b3480156102c557600080fd5b506101ef6102d4366004611bb9565b6108ce565b3480156102e557600080fd5b506102956102f4366004611c29565b61091c565b34801561030557600080fd5b506102116109a1565b34801561031a57600080fd5b50610295610329366004611be4565b6109b0565b34801561033a57600080fd5b506102336109bd565b34801561034f57600080fd5b506101ef6109cf565b34801561036457600080fd5b50610233610373366004611a8e565b6109df565b34801561038457600080fd5b506102956109fa565b34801561039957600080fd5b506102956103a8366004611b88565b610a67565b3480156103b957600080fd5b50610233610afe565b3480156103ce57600080fd5b50610211610b04565b3480156103e357600080fd5b50610211610b13565b3480156103f857600080fd5b506101b9610b22565b34801561040d57600080fd5b50610211610b83565b34801561042257600080fd5b506101ef610431366004611bb9565b610b92565b34801561044257600080fd5b50610211610bfa565b34801561045757600080fd5b506101ef610466366004611bb9565b610c09565b34801561047757600080fd5b50610295610486366004611afe565b610c1d565b34801561049757600080fd5b50610211610c91565b3480156104ac57600080fd5b506102956104bb366004611c29565b610ca0565b3480156104cc57600080fd5b50610233610d17565b3480156104e157600080fd5b506102336104f0366004611ac6565b610d1d565b34801561050157600080fd5b5061050a610d48565b6040516101c69493929190612086565b34801561052657600080fd5b5061050a610d57565b34801561053b57600080fd5b5061029561054a366004611be4565b610d66565b34801561055b57600080fd5b5061029561056a366004611a8e565b610da0565b34801561057b57600080fd5b50610211610dde565b60068054604080516020601f60026000196101006001881615020190951694909404938401819004810282018101909252828152606093909290918301828280156106105780601f106105e557610100808354040283529160200191610610565b820191906000526020600020905b8154815290600101906020018083116105f357829003601f168201915b5050505050905090565b600061062e610627610ded565b8484610df1565b5060015b92915050565b6009546001600160a01b031681565b60035490565b60145460135460125460115401010190565b600061066c848484610ea5565b6106dc84610678610ded565b6106d7856040518060600160405280602881526020016120c5602891396001600160a01b038a166000908152600260205260408120906106b6610ded565b6001600160a01b031681526020810191909152604001600020549190611562565b610df1565b5060019392505050565b6106ee610ded565b6000546001600160a01b039081169116146107245760405162461bcd60e51b815260040161071b90611e81565b60405180910390fd5b600b80546001600160a01b0319166001600160a01b0383169081179091556040805163c45a015560e01b8152905183929163c45a0155916004808301926020929190829003018186803b15801561077a57600080fd5b505afa15801561078e573d6000803e3d6000fd5b505050506040513d601f19601f820116820180604052508101906107b29190611aaa565b6001600160a01b031663c9c6539630836001600160a01b031663ad5c46486040518163ffffffff1660e01b815260040160206040518083038186803b1580156107fa57600080fd5b505afa15801561080e573d6000803e3d6000fd5b505050506040513d601f19601f820116820180604052508101906108329190611aaa565b6040518363ffffffff1660e01b815260040161084f929190611c6e565b602060405180830381600087803b15801561086957600080fd5b505af115801561087d573d6000803e3d6000fd5b505050506040513d601f19601f820116820180604052508101906108a19190611aaa565b600c80546001600160a01b0319166001600160a01b03929092169190911790555050565b60045460ff1690565b600061062e6108db610ded565b846106d785600260006108ec610ded565b6001600160a01b03908116825260208083019390935260409182016000908120918c16815292529020549061158e565b610924610ded565b6000546001600160a01b039081169116146109515760405162461bcd60e51b815260040161071b90611e81565b60118481556012849055601383905560148290556040517f4033c61b7a7bda78889373d049a0bb6dd3500d8bff8ace1617cb78413102e8079161099391611fce565b60405180910390a150505050565b600b546001600160a01b031681565b6109ba33826115ba565b50565b601054600f54600e54600d5401010190565b600c54600160a81b900460ff1681565b6001600160a01b031660009081526001602052604090205490565b610a02610ded565b6000546001600160a01b03908116911614610a2f5760405162461bcd60e51b815260040161071b90611e81565b600080546040516001600160a01b03909116906000805160206120ed833981519152908390a3600080546001600160a01b0319169055565b610a6f610ded565b6000546001600160a01b03908116911614610a9c5760405162461bcd60e51b815260040161071b90611e81565b6001600160a01b03821660009081526015602052604090819020805460ff1916831515179055517fd5144d2a6c8ff9b87b7a40852df5102cab2ce561c06b56cc6fe7ccf1fa7f8c2d90610af29084908490611cc3565b60405180910390a15050565b60165481565b6000610b0e610b13565b905090565b6000546001600160a01b031690565b60058054604080516020601f60026000196101006001881615020190951694909404938401819004810282018101909252828152606093909290918301828280156106105780601f106105e557610100808354040283529160200191610610565b6008546001600160a01b031681565b600061062e610b9f610ded565b846106d7856040518060600160405280602581526020016121536025913960026000610bc9610ded565b6001600160a01b03908116825260208083019390935260409182016000908120918d16815292529020549190611562565b6007546001600160a01b031681565b600061062e610c16610ded565b8484610ea5565b610c25610ded565b6000546001600160a01b03908116911614610c525760405162461bcd60e51b815260040161071b90611e81565b600780546001600160a01b039485166001600160a01b031991821617909155600880549385169382169390931790925560098054919093169116179055565b600c546001600160a01b031681565b610ca8610ded565b6000546001600160a01b03908116911614610cd55760405162461bcd60e51b815260040161071b90611e81565b600d848155600e849055600f83905560108290556040517f59b16bf8c94a0fd94bd5c030ec293d45b519b7dc85a474b840ddd20e347ff43b9161099391611fce565b60175481565b6001600160a01b03918216600090815260026020908152604080832093909416825291909152205490565b600d54600e54600f5460105484565b60115460125460135460145484565b610d6e610ded565b6000546001600160a01b03908116911614610d9b5760405162461bcd60e51b815260040161071b90611e81565b601655565b610da8610ded565b6000546001600160a01b03908116911614610dd55760405162461bcd60e51b815260040161071b90611e81565b6109ba8161167e565b600a546001600160a01b031681565b3390565b6001600160a01b038316610e175760405162461bcd60e51b815260040161071b90611d81565b6001600160a01b038216610e3d5760405162461bcd60e51b815260040161071b90611f8c565b6001600160a01b0380841660008181526002602090815260408083209487168084529490915290819020849055517f8c5be1e5ebec7d5bd14f71427d1e84f3dd0314c0f7b2291e5b200ac8c7c3b92590610e98908590611ff7565b60405180910390a3505050565b6001600160a01b038316610ecb5760405162461bcd60e51b815260040161071b90611d3c565b6001600160a01b038216610ef15760405162461bcd60e51b815260040161071b90611eb6565b600c546001600160a01b0384811691161480610f1a5750600c546001600160a01b038381169116145b8015610f3f57506001600160a01b03831660009081526015602052604090205460ff16155b15610f6657806016541015610f665760405162461bcd60e51b815260040161071b90611f3a565b610fa38160405180606001604052806026815260200161210d602691396001600160a01b0386166000908152600160205260409020549190611562565b6001600160a01b0384166000908152600160205260408120919091558190610fca306109df565b90506016548110610fda57506016545b60175481108015908190610ff85750600c54600160a01b900460ff16155b80156110125750600c546001600160a01b03878116911614155b80156110275750600c54600160a81b900460ff165b1561103a57601754915061103a826116ed565b6001600160a01b03861660009081526015602052604090205460ff166114ef57600c546001600160a01b03878116911614156112af576110926103e861108c61108161064d565b86906103e80361178e565b906117c8565b92506110b26103e861108c6011600001548761178e90919063ffffffff16565b6007546001600160a01b03166000908152600160205260409020805490910190556012546110e9906103e89061108c90879061178e565b6008546001600160a01b0316600090815260016020526040902080549091019055601454611120906103e89061108c90879061178e565b6009546001600160a01b0316600090815260016020526040902080549091019055601354611157906103e89061108c90879061178e565b306000908152600160205260409020805490910190556007546011546001600160a01b0391821691881690600080516020612133833981519152906111a5906103e89061108c908a9061178e565b6040516111b29190611ff7565b60405180910390a36008546012546001600160a01b0391821691881690600080516020612133833981519152906111f2906103e89061108c908a9061178e565b6040516111ff9190611ff7565b60405180910390a36009546014546001600160a01b03918216918816906000805160206121338339815191529061123f906103e89061108c908a9061178e565b60405161124c9190611ff7565b60405180910390a3306001600160a01b0316866001600160a01b03166000805160206121338339815191526112956103e861108c6011600201548a61178e90919063ffffffff16565b6040516112a29190611ff7565b60405180910390a36114ef565b600c546001600160a01b03868116911614156114ef576112d66103e861108c6110816109bd565b92506112f66103e861108c600d600001548761178e90919063ffffffff16565b6007546001600160a01b0316600090815260016020526040902080549091019055600e5461132d906103e89061108c90879061178e565b6008546001600160a01b0316600090815260016020526040902080549091019055601054611364906103e89061108c90879061178e565b6009546001600160a01b0316600090815260016020526040902080549091019055600f5461139b906103e89061108c90879061178e565b30600090815260016020526040902080549091019055600754600d546001600160a01b0391821691881690600080516020612133833981519152906113e9906103e89061108c908a9061178e565b6040516113f69190611ff7565b60405180910390a3600854600e546001600160a01b039182169188169060008051602061213383398151915290611436906103e89061108c908a9061178e565b6040516114439190611ff7565b60405180910390a36009546010546001600160a01b039182169188169060008051602061213383398151915290611483906103e89061108c908a9061178e565b6040516114909190611ff7565b60405180910390a3306001600160a01b0316866001600160a01b03166000805160206121338339815191526114d96103e861108c600d600201548a61178e90919063ffffffff16565b6040516114e69190611ff7565b60405180910390a35b6001600160a01b038516600090815260016020526040902054611512908461158e565b6001600160a01b03808716600081815260016020526040908190209390935591519088169060008051602061213383398151915290611552908790611ff7565b60405180910390a3505050505050565b600081848411156115865760405162461bcd60e51b815260040161071b9190611ce9565b505050900390565b6000828201838110156115b35760405162461bcd60e51b815260040161071b90611e0b565b9392505050565b6001600160a01b0382166115e05760405162461bcd60e51b815260040161071b90611ef9565b61161d81604051806060016040528060228152602001612178602291396001600160a01b0385166000908152600160205260409020549190611562565b6001600160a01b0383166000908152600160205260409020556003546116439082611807565b6003556040516000906001600160a01b0384169060008051602061213383398151915290611672908590611ff7565b60405180910390a35050565b6001600160a01b0381166116a45760405162461bcd60e51b815260040161071b90611dc5565b600080546040516001600160a01b03808516939216916000805160206120ed83398151915291a3600080546001600160a01b0319166001600160a01b0392909216919091179055565b600c805460ff60a01b1916600160a01b179055600061170d8260026117c8565b9050600061171b8383611807565b90504761172783611849565b60006117334783611807565b905061173f83826119a5565b7f17bbfb9a6069321b6ded73bd96327c9e6b7212a5cd51ff219cd61370acafb56184828560405161177293929190612070565b60405180910390a15050600c805460ff60a01b19169055505050565b60008261179d57506000610632565b828202828482816117aa57fe5b04146115b35760405162461bcd60e51b815260040161071b90611e40565b60006115b383836040518060400160405280601a815260200179536166654d6174683a206469766973696f6e206279207a65726f60301b815250611a57565b60006115b383836040518060400160405280601e81526020017f536166654d6174683a207375627472616374696f6e206f766572666c6f770000815250611562565b6040805160028082526060808301845292602083019080368337019050509050308160008151811061187757fe5b6001600160a01b03928316602091820292909201810191909152600b54604080516315ab88c960e31b81529051919093169263ad5c4648926004808301939192829003018186803b1580156118cb57600080fd5b505afa1580156118df573d6000803e3d6000fd5b505050506040513d601f19601f820116820180604052508101906119039190611aaa565b8160018151811061191057fe5b6001600160a01b039283166020918202929092010152600b546119369130911684610df1565b600b5460405163791ac94760e01b81526001600160a01b039091169063791ac9479061196f908590600090869030904290600401612000565b600060405180830381600087803b15801561198957600080fd5b505af115801561199d573d6000803e3d6000fd5b505050505050565b600b546119bd9030906001600160a01b031684610df1565b600b546001600160a01b031663f305d7198230856000806119dc610b13565b426040518863ffffffff1660e01b81526004016119fe96959493929190611c88565b6060604051808303818588803b158015611a1757600080fd5b505af1158015611a2b573d6000803e3d6000fd5b50505050506040513d601f19601f82011682018060405250810190611a509190611bfc565b5050505050565b60008183611a785760405162461bcd60e51b815260040161071b9190611ce9565b506000838581611a8457fe5b0495945050505050565b600060208284031215611a9f578081fd5b81356115b3816120af565b600060208284031215611abb578081fd5b81516115b3816120af565b60008060408385031215611ad8578081fd5b8235611ae3816120af565b91506020830135611af3816120af565b809150509250929050565b600080600060608486031215611b12578081fd5b8335611b1d816120af565b92506020840135611b2d816120af565b91506040840135611b3d816120af565b809150509250925092565b600080600060608486031215611b5c578283fd5b8335611b67816120af565b92506020840135611b77816120af565b929592945050506040919091013590565b60008060408385031215611b9a578182fd5b8235611ba5816120af565b915060208301358015158114611af3578182fd5b60008060408385031215611bcb578182fd5b8235611bd6816120af565b946020939093013593505050565b600060208284031215611bf5578081fd5b5035919050565b600080600060608486031215611c10578283fd5b8351925060208401519150604084015190509250925092565b60008060008060808587031215611c3e578081fd5b5050823594602084013594506040840135936060013592509050565b6001600160a01b0391909116815260200190565b6001600160a01b0392831681529116602082015260400190565b6001600160a01b039687168152602081019590955260408501939093526060840191909152909216608082015260a081019190915260c00190565b6001600160a01b039290921682521515602082015260400190565b901515815260200190565b6000602080835283518082850152825b81811015611d1557858101830151858201604001528201611cf9565b81811115611d265783604083870101525b50601f01601f1916929092016040019392505050565b60208082526025908201527f42455032303a207472616e736665722066726f6d20746865207a65726f206164604082015264647265737360d81b606082015260800190565b60208082526024908201527f42455032303a20617070726f76652066726f6d20746865207a65726f206164646040820152637265737360e01b606082015260800190565b60208082526026908201527f4f776e61626c653a206e6577206f776e657220697320746865207a65726f206160408201526564647265737360d01b606082015260800190565b6020808252601b908201527a536166654d6174683a206164646974696f6e206f766572666c6f7760281b604082015260600190565b60208082526021908201527f536166654d6174683a206d756c7469706c69636174696f6e206f766572666c6f6040820152607760f81b606082015260800190565b6020808252818101527f4f776e61626c653a2063616c6c6572206973206e6f7420746865206f776e6572604082015260600190565b60208082526023908201527f42455032303a207472616e7366657220746f20746865207a65726f206164647260408201526265737360e81b606082015260800190565b60208082526021908201527f42455032303a206275726e2066726f6d20746865207a65726f206164647265736040820152607360f81b606082015260800190565b60208082526032908201527f42455032303a207472616e7366657220616d6f756e742065786365656473206d604082015271185e081d1c985b9cd9995c88185b5bdd5b9d60721b606082015260800190565b60208082526022908201527f42455032303a20617070726f766520746f20746865207a65726f206164647265604082015261737360f01b606082015260800190565b815481526001820154602082015260028201546040820152600390910154606082015260800190565b90815260200190565b600060a082018783526020878185015260a0604085015281875180845260c0860191508289019350845b8181101561204f5784516001600160a01b03168352938301939183019160010161202a565b50506001600160a01b03969096166060850152505050608001529392505050565b9283526020830191909152604082015260600190565b93845260208401929092526040830152606082015260800190565b60ff91909116815260200190565b6001600160a01b03811681146109ba57600080fdfe42455032303a207472616e7366657220616d6f756e74206578636565647320616c6c6f77616e63658be0079c531659141344cd1fd0a4f28419497f9722a3daafe3b4186f6b6457e042455032303a207472616e7366657220616d6f756e7420657863656564732062616c616e6365ddf252ad1be2c89b69c2b068fc378daa952ba7f163c4a11628f55a4df523b3ef42455032303a2064656372656173656420616c6c6f77616e63652062656c6f77207a65726f42455032303a206275726e20616d6f756e7420657863656564732062616c616e6365a2646970667358221220f35aced79e3cb488989c0b015022e96ebe8540a6e3cf6b3294fb9a339d21ddbb64736f6c634300060c0033",
  "linkReferences": {},
  "deployedLinkReferences": {}
}