{
  "_format": "hh-sol-artifact-1",
  "contractName": "Staking",
  "sourceName": "contracts/libs/staking.sol",
  "abi": [
    {
      "inputs": [
        {
          "internalType": "address",
          "name": "_stakeTokenAddress",
          "type": "address"
        },
        {
          "internalType": "address",
          "name": "_rewardTokenAddress_1",
          "type": "address"
        },
        {
          "internalType": "address",
          "name": "_rewardTokenAddress_2",
          "type": "address"
        }
      ],
      "stateMutability": "nonpayable",
      "type": "constructor"
    },
    {
      "anonymous": false,
      "inputs": [
        {
          "indexed": true,
          "internalType": "address",
          "name": "previousOwner",
          "type": "address"
        },
        {
          "indexed": true,
          "internalType": "address",
          "name": "newOwner",
          "type": "address"
        }
      ],
      "name": "OwnershipTransferred",
      "type": "event"
    },
    {
      "anonymous": false,
      "inputs": [
        {
          "indexed": false,
          "internalType": "address",
          "name": "staker",
          "type": "address"
        },
        {
          "indexed": false,
          "internalType": "uint256",
          "name": "amount_1",
          "type": "uint256"
        },
        {
          "indexed": false,
          "internalType": "uint256",
          "name": "amount_2",
          "type": "uint256"
        }
      ],
      "name": "Reward",
      "type": "event"
    },
    {
      "anonymous": false,
      "inputs": [
        {
          "indexed": false,
          "internalType": "address",
          "name": "staker",
          "type": "address"
        },
        {
          "indexed": false,
          "internalType": "uint256",
          "name": "amount",
          "type": "uint256"
        }
      ],
      "name": "Stake",
      "type": "event"
    },
    {
      "anonymous": false,
      "inputs": [
        {
          "indexed": false,
          "internalType": "address",
          "name": "staker",
          "type": "address"
        },
        {
          "indexed": false,
          "internalType": "uint256",
          "name": "amount",
          "type": "uint256"
        }
      ],
      "name": "Withdraw",
      "type": "event"
    },
    {
      "inputs": [],
      "name": "APY",
      "outputs": [
        {
          "internalType": "uint256",
          "name": "",
          "type": "uint256"
        }
      ],
      "stateMutability": "view",
      "type": "function"
    },
    {
      "inputs": [],
      "name": "PancakeSwapRouter",
      "outputs": [
        {
          "internalType": "contract IPancakeSwapRouter",
          "name": "",
          "type": "address"
        }
      ],
      "stateMutability": "view",
      "type": "function"
    },
    {
      "inputs": [
        {
          "internalType": "address",
          "name": "stakerAddress",
          "type": "address"
        }
      ],
      "name": "checkReward",
      "outputs": [
        {
          "internalType": "uint256",
          "name": "_reward_1",
          "type": "uint256"
        },
        {
          "internalType": "uint256",
          "name": "_reward_2",
          "type": "uint256"
        }
      ],
      "stateMutability": "view",
      "type": "function"
    },
    {
      "inputs": [],
      "name": "claimRewards",
      "outputs": [],
      "stateMutability": "nonpayable",
      "type": "function"
    },
    {
      "inputs": [
        {
          "internalType": "address",
          "name": "stakerAddress",
          "type": "address"
        }
      ],
      "name": "countFee",
      "outputs": [
        {
          "internalType": "uint256",
          "name": "_fee",
          "type": "uint256"
        }
      ],
      "stateMutability": "view",
      "type": "function"
    },
    {
      "inputs": [
        {
          "internalType": "address",
          "name": "stakerAddress",
          "type": "address"
        }
      ],
      "name": "countReward",
      "outputs": [
        {
          "internalType": "uint256",
          "name": "_reward_1",
          "type": "uint256"
        },
        {
          "internalType": "uint256",
          "name": "_reward_2",
          "type": "uint256"
        }
      ],
      "stateMutability": "view",
      "type": "function"
    },
    {
      "inputs": [
        {
          "internalType": "address",
          "name": "stakerAddress",
          "type": "address"
        }
      ],
      "name": "countStake",
      "outputs": [
        {
          "internalType": "uint256",
          "name": "_stake",
          "type": "uint256"
        }
      ],
      "stateMutability": "view",
      "type": "function"
    },
    {
      "inputs": [],
      "name": "countTotalReward",
      "outputs": [
        {
          "internalType": "uint256",
          "name": "_totalReward_1",
          "type": "uint256"
        },
        {
          "internalType": "uint256",
          "name": "_totalReward_2",
          "type": "uint256"
        }
      ],
      "stateMutability": "view",
      "type": "function"
    },
    {
      "inputs": [],
      "name": "countTotalStake",
      "outputs": [
        {
          "internalType": "uint256",
          "name": "_totalStake",
          "type": "uint256"
        }
      ],
      "stateMutability": "view",
      "type": "function"
    },
    {
      "inputs": [],
      "name": "getRewardableAmount",
      "outputs": [
        {
          "internalType": "uint256",
          "name": "_rewardableAmount_1",
          "type": "uint256"
        },
        {
          "internalType": "uint256",
          "name": "_rewardableAmount_2",
          "type": "uint256"
        }
      ],
      "stateMutability": "view",
      "type": "function"
    },
    {
      "inputs": [
        {
          "internalType": "address",
          "name": "stakerAddress",
          "type": "address"
        }
      ],
      "name": "getStakeInfo",
      "outputs": [
        {
          "internalType": "uint256",
          "name": "_total",
          "type": "uint256"
        },
        {
          "internalType": "uint256",
          "name": "_staking",
          "type": "uint256"
        },
        {
          "internalType": "uint256",
          "name": "_rewardable_1",
          "type": "uint256"
        },
        {
          "internalType": "uint256",
          "name": "_rewardable_2",
          "type": "uint256"
        },
        {
          "internalType": "uint256",
          "name": "_rewards_1",
          "type": "uint256"
        },
        {
          "internalType": "uint256",
          "name": "_rewards_2",
          "type": "uint256"
        }
      ],
      "stateMutability": "view",
      "type": "function"
    },
    {
      "inputs": [],
      "name": "lastUpdateTime",
      "outputs": [
        {
          "internalType": "uint256",
          "name": "",
          "type": "uint256"
        }
      ],
      "stateMutability": "view",
      "type": "function"
    },
    {
      "inputs": [],
      "name": "marketingAddress",
      "outputs": [
        {
          "internalType": "address",
          "name": "",
          "type": "address"
        }
      ],
      "stateMutability": "view",
      "type": "function"
    },
    {
      "inputs": [],
      "name": "owner",
      "outputs": [
        {
          "internalType": "address",
          "name": "",
          "type": "address"
        }
      ],
      "stateMutability": "view",
      "type": "function"
    },
    {
      "inputs": [],
      "name": "renounceOwnership",
      "outputs": [],
      "stateMutability": "nonpayable",
      "type": "function"
    },
    {
      "inputs": [],
      "name": "rewardTokenAddress_1",
      "outputs": [
        {
          "internalType": "address",
          "name": "",
          "type": "address"
        }
      ],
      "stateMutability": "view",
      "type": "function"
    },
    {
      "inputs": [],
      "name": "rewardTokenAddress_2",
      "outputs": [
        {
          "internalType": "address",
          "name": "",
          "type": "address"
        }
      ],
      "stateMutability": "view",
      "type": "function"
    },
    {
      "inputs": [
        {
          "internalType": "address",
          "name": "_RouterAddress",
          "type": "address"
        },
        {
          "internalType": "address",
          "name": "_marketingAddress",
          "type": "address"
        }
      ],
      "name": "setInitialAddresses",
      "outputs": [],
      "stateMutability": "nonpayable",
      "type": "function"
    },
    {
      "inputs": [
        {
          "internalType": "uint256",
          "name": "amount",
          "type": "uint256"
        },
        {
          "internalType": "address",
          "name": "referrar",
          "type": "address"
        }
      ],
      "name": "stake",
      "outputs": [],
      "stateMutability": "nonpayable",
      "type": "function"
    },
    {
      "inputs": [],
      "name": "stakeTokenAddress",
      "outputs": [
        {
          "internalType": "address",
          "name": "",
          "type": "address"
        }
      ],
      "stateMutability": "view",
      "type": "function"
    },
    {
      "inputs": [],
      "name": "stakerNum",
      "outputs": [
        {
          "internalType": "uint256",
          "name": "",
          "type": "uint256"
        }
      ],
      "stateMutability": "view",
      "type": "function"
    },
    {
      "inputs": [
        {
          "internalType": "address",
          "name": "",
          "type": "address"
        }
      ],
      "name": "stakers",
      "outputs": [
        {
          "internalType": "uint256",
          "name": "referal",
          "type": "uint256"
        },
        {
          "internalType": "uint256",
          "name": "stakingAmount",
          "type": "uint256"
        },
        {
          "internalType": "uint256",
          "name": "lastUpdateTime",
          "type": "uint256"
        },
        {
          "internalType": "uint256",
          "name": "lastStakeUpdateTime",
          "type": "uint256"
        },
        {
          "internalType": "uint256",
          "name": "stake",
          "type": "uint256"
        },
        {
          "internalType": "uint256",
          "name": "rewards_1",
          "type": "uint256"
        },
        {
          "internalType": "uint256",
          "name": "rewards_2",
          "type": "uint256"
        }
      ],
      "stateMutability": "view",
      "type": "function"
    },
    {
      "inputs": [],
      "name": "swapTokenForReward",
      "outputs": [],
      "stateMutability": "nonpayable",
      "type": "function"
    },
    {
      "inputs": [],
      "name": "totalStake",
      "outputs": [
        {
          "internalType": "uint256",
          "name": "",
          "type": "uint256"
        }
      ],
      "stateMutability": "view",
      "type": "function"
    },
    {
      "inputs": [],
      "name": "totalStakingAmount",
      "outputs": [
        {
          "internalType": "uint256",
          "name": "",
          "type": "uint256"
        }
      ],
      "stateMutability": "view",
      "type": "function"
    },
    {
      "inputs": [
        {
          "internalType": "address",
          "name": "newOwner",
          "type": "address"
        }
      ],
      "name": "transferOwnership",
      "outputs": [],
      "stateMutability": "nonpayable",
      "type": "function"
    },
    {
      "inputs": [],
      "name": "unstaking",
      "outputs": [],
      "stateMutability": "nonpayable",
      "type": "function"
    }
  ],
  "bytecode": "0x608060405234801561001057600080fd5b506040516121053803806121058339818101604052606081101561003357600080fd5b5080516020820151604090920151909190600061004e6100e1565b600080546001600160a01b0319166001600160a01b0383169081178255604051929350917f8be0079c531659141344cd1fd0a4f28419497f9722a3daafe3b4186f6b6457e0908290a350600180546001600160a01b039384166001600160a01b031991821617909155600280549284169282169290921790915560038054939092169216919091179055426006556100e5565b3390565b612011806100f46000396000f3fe608060405234801561001057600080fd5b50600436106101495760003560e01c80630106395f1461014e57806301c15475146101725780630a84bf3e1461017a5780632461da5514610182578063372500ab1461019c578063421ea58b146101a657806356714be3146101ae5780635f920bba146101ed578063630b1146146101f557806363c138b3146101fd578063715018a6146102055780637acb77571461020d5780638b0e9f3f146102395780638da5cb5b146102415780639168ae7214610249578063a5ece941146102a7578063a9686e3c146102af578063b083692d146102dd578063b87089d914610303578063c345315314610329578063c3c90e6414610382578063c8f33c91146103a8578063d201114a146103b0578063e7caa8c4146103b8578063ef8bd305146103c0578063f2fde38b146103c8578063f4eb4a59146103ee575b600080fd5b6101566103f6565b604080516001600160a01b039092168252519081900360200190f35b610156610405565b610156610414565b61018a610423565b60408051918252519081900360200190f35b6101a461044f565b005b61015661067a565b6101d4600480360360208110156101c457600080fd5b50356001600160a01b0316610689565b6040805192835260208301919091528051918290030190f35b6101a46106ff565b6101a461071c565b61018a610981565b6101a4610987565b6101a46004803603604081101561022357600080fd5b50803590602001356001600160a01b0316610a17565b61018a610cbf565b610156610cc5565b61026f6004803603602081101561025f57600080fd5b50356001600160a01b0316610cd5565b604080519788526020880196909652868601949094526060860192909252608085015260a084015260c0830152519081900360e00190f35b610156610d12565b6101a4600480360360408110156102c557600080fd5b506001600160a01b0381358116916020013516610d21565b61018a600480360360208110156102f357600080fd5b50356001600160a01b0316610daa565b61018a6004803603602081101561031957600080fd5b50356001600160a01b0316610ded565b61034f6004803603602081101561033f57600080fd5b50356001600160a01b0316610e9f565b604080519687526020870195909552858501939093526060850191909152608084015260a0830152519081900360c00190f35b6101d46004803603602081101561039857600080fd5b50356001600160a01b0316610f02565b61018a611394565b61018a61139a565b6101d46113a0565b61018a61149c565b6101a4600480360360208110156103de57600080fd5b50356001600160a01b031661195e565b6101d46119c2565b6003546001600160a01b031681565b6001546001600160a01b031681565b6002546001600160a01b031681565b600061044661043d60065442611a5390919063ffffffff16565b60055490611aa9565b60075401905090565b33610458611b0c565b6001600160a01b0381166000908152600a602052604081205461047a83610ded565b01905060008061048984610689565b91509150600082116104e1576040805162461bcd60e51b815260206004820152601c60248201527b07374616b696e67203a2072657761726420616d6f756e7420697320360241b604482015290519081900360640190fd5b6001546002546040805163a9059cbb60e01b81526001600160a01b038881166004830152602482018790529151938216939290911691839163a9059cbb9160448083019260209291908290030181600087803b15801561054057600080fd5b505af1158015610554573d6000803e3d6000fd5b505050506040513d602081101561056a57600080fd5b50506040805163a9059cbb60e01b81526001600160a01b0388811660048301526024820186905291519183169163a9059cbb916044808201926020929091908290030181600087803b1580156105bf57600080fd5b505af11580156105d3573d6000803e3d6000fd5b505050506040513d60208110156105e957600080fd5b50506001600160a01b0386166000818152600a602090815260408083206005810180548a01905560068101805489019055600780548b90039055600481018490559283554260029093019290925581519283528201869052818101859052517f02a6a2be713fedf52f113c0a759f1c1a23a113476d9b1b1a2a453c910660de4e9181900360600190a1505050505050565b6009546001600160a01b031681565b6000806000610696610423565b90506000806106a36113a0565b9150915060006106b287610ded565b905083156106d3576106ce846106c88584611aa9565b90611b43565b6106d6565b60005b955083156106f1576106ec846106c88484611aa9565b6106f4565b60005b945050505050915091565b60008061070a6119c2565b915091506107188282611ba1565b5050565b336000818152600a6020526040902060010154600061073a83610daa565b905061074583610ded565b6001600160a01b0384166000908152600a60205260409020600481019190915560018101805484900390554260028201819055600390910155610786611b0c565b60058054839003905580156108a2576003546001600160a01b03166342966c686107b76103e86106c8866004611aa9565b6040518263ffffffff1660e01b815260040180828152602001915050600060405180830381600087803b1580156107ed57600080fd5b505af1158015610801573d6000803e3d6000fd5b50506003546004546001600160a01b03918216935063a9059cbb92501661082f6103e86106c8876005611aa9565b6040518363ffffffff1660e01b815260040180836001600160a01b0316815260200182815260200192505050602060405180830381600087803b15801561087557600080fd5b505af1158015610889573d6000803e3d6000fd5b505050506040513d602081101561089f57600080fd5b50505b6003546001600160a01b031663a9059cbb846108c66103e86106c887878303611aa9565b6040518363ffffffff1660e01b815260040180836001600160a01b0316815260200182815260200192505050602060405180830381600087803b15801561090c57600080fd5b505af1158015610920573d6000803e3d6000fd5b505050506040513d602081101561093657600080fd5b5050604080516001600160a01b03851681526020810184905281517f884edad9ce6fa2440d8a54cc123490eb96d2768479d49ff9c7366125a9424364929181900390910190a1505050565b60085481565b61098f611ea6565b6000546001600160a01b039081169116146109df576040805162461bcd60e51b81526020600482018190526024820152600080516020611f9c833981519152604482015290519081900360640190fd5b600080546040516001600160a01b0390911690600080516020611fbc833981519152908390a3600080546001600160a01b0319169055565b336000818152600a6020526040902060020154610a38576008805460010190555b610a4181610ded565b6001600160a01b0382166000908152600a6020526040902060040155610a6f6103e86106c8856103de611aa9565b6001600160a01b038083166000908152600a602052604090206001810180549093019092554260028301819055600390920191909155821615801590610ac75750806001600160a01b0316826001600160a01b031614155b15610afc576001600160a01b0382166000908152600a6020526040902080546201518085029081019091556007805490910190555b610b04611b0c565b6003546001600160a01b03166323b872dd8230610b296103e86106c8896103e3611aa9565b6040518463ffffffff1660e01b815260040180846001600160a01b03168152602001836001600160a01b031681526020018281526020019350505050602060405180830381600087803b158015610b7f57600080fd5b505af1158015610b93573d6000803e3d6000fd5b505050506040513d6020811015610ba957600080fd5b50506003546004546001600160a01b03918216916323b872dd91849116610bd76103e86106c8896005611aa9565b6040518463ffffffff1660e01b815260040180846001600160a01b03168152602001836001600160a01b031681526020018281526020019350505050602060405180830381600087803b158015610c2d57600080fd5b505af1158015610c41573d6000803e3d6000fd5b505050506040513d6020811015610c5757600080fd5b50610c6c90506103e86106c8856103e3611aa9565b60058054919091019055604080516001600160a01b03831681526020810185905281517febedb8b3c678666e7f36970bc8f57abf6d8fa2e828c0da91ea5b75bf68ed101a929181900390910190a1505050565b60075481565b6000546001600160a01b03165b90565b600a602052600090815260409020805460018201546002830154600384015460048501546005860154600690960154949593949293919290919087565b6004546001600160a01b031681565b610d29611ea6565b6000546001600160a01b03908116911614610d79576040805162461bcd60e51b81526020600482018190526024820152600080516020611f9c833981519152604482015290519081900360640190fd5b600480546001600160a01b039283166001600160a01b03199182161790915560098054939092169216919091179055565b6001600160a01b0381166000908152600a602052604081206003015462375f0090610dd6904290611a53565b1015610de4575060fa610de8565b5060005b919050565b6000610df7611f38565b506001600160a01b0382166000908152600a6020908152604091829020825160e0810184528154815260018201549281019290925260028101549282018390526003810154606083015260048101546080830152600581015460a08301526006015460c082015290610e6d576000915050610de8565b610e928160200151610e8c836040015142611a5390919063ffffffff16565b90611aa9565b6080909101510192915050565b6005546001600160a01b0382166000908152600a602052604081206001015490808080610ecb87610689565b6001600160a01b039098166000908152600a6020526040902060058101546006909101549799969891979196909550909350915050565b6000806000610f0f610423565b9050600080610f1c6113a0565b91509150600080610f2b6119c2565b9150915067016345785d8a000082118015610f4d575067016345785d8a000081115b1561132857604080516002808252606080830184529260208301908036833750506040805160028082526060808301845294955090925090602083019080368337505060035484519293506001600160a01b031691849150600090610fae57fe5b6001600160a01b0392831660209182029290920101526001805484519216918491908110610fd857fe5b6001600160a01b0392831660209182029290920101526003548251911690829060009061100157fe5b6001600160a01b03928316602091820292909201015260025482519116908290600190811061102c57fe5b6001600160a01b039283166020918202929092018101919091526009546040805163d06ca61f60e01b81526004810189815260248201928352875160448301528751606096949094169463d06ca61f948b948a949092606490910191858201910280838360005b838110156110ab578181015183820152602001611093565b50505050905001935050505060006040518083038186803b1580156110cf57600080fd5b505afa1580156110e3573d6000803e3d6000fd5b505050506040513d6000823e601f3d908101601f19168201604052602081101561110c57600080fd5b8101908080516040519392919084600160201b82111561112b57600080fd5b90830190602082018581111561114057600080fd5b82518660208202830111600160201b8211171561115c57600080fd5b82525081516020918201928201910280838360005b83811015611189578181015183820152602001611171565b5050505091909101604081815260095463d06ca61f60e01b8352600483018c8152602484019283528a5160448501528a519899506060986001600160a01b03909216975063d06ca61f96508c95508a945092606401906020808601910280838360005b838110156112045781810151838201526020016111ec565b50505050905001935050505060006040518083038186803b15801561122857600080fd5b505afa15801561123c573d6000803e3d6000fd5b505050506040513d6000823e601f3d908101601f19168201604052602081101561126557600080fd5b8101908080516040519392919084600160201b82111561128457600080fd5b90830190602082018581111561129957600080fd5b82518660208202830111600160201b821117156112b557600080fd5b82525081516020918201928201910280838360005b838110156112e25781810151838201526020016112ca565b505050509050016040525050509050816000815181106112fe57fe5b6020026020010151880197508060008151811061131757fe5b602002602001015187019650505050505b6001600160a01b0388166000908152600a602052604081205461134a8a610ded565b019050851561136657611361866106c88784611aa9565b611369565b60005b975085156113845761137f866106c88684611aa9565b611387565b60005b9650505050505050915091565b60065481565b60055481565b600154604080516370a0823160e01b8152306004820152905160009283926001600160a01b03909116916370a0823191602480820192602092909190829003018186803b1580156113f057600080fd5b505afa158015611404573d6000803e3d6000fd5b505050506040513d602081101561141a57600080fd5b5051600254604080516370a0823160e01b815230600482015290519294506001600160a01b03909116916370a0823191602480820192602092909190829003018186803b15801561146a57600080fd5b505afa15801561147e573d6000803e3d6000fd5b505050506040513d602081101561149457600080fd5b505191929050565b6000806114a7610423565b9050806114b8576000915050610cd2565b6000806114c36113a0565b9150915060008067016345785d8a0000841180156114e8575067016345785d8a000083115b156118bf57604080516002808252606080830184529260208301908036833750506040805160028082526060808301845294955090925090602083019080368337505060035484519293506001600160a01b03169184915060009061154957fe5b6001600160a01b039283166020918202929092010152600180548451921691849190811061157357fe5b6001600160a01b0392831660209182029290920101526003548251911690829060009061159c57fe5b6001600160a01b0392831660209182029290920101526002548251911690829060019081106115c757fe5b6001600160a01b03928316602091820292909201810191909152600954604080516307c0329d60e21b8152600481018b8152602482019283528751604483015287516060969490941694631f00ca74948d948a949092606490910191858201910280838360005b8381101561164657818101518382015260200161162e565b50505050905001935050505060006040518083038186803b15801561166a57600080fd5b505afa15801561167e573d6000803e3d6000fd5b505050506040513d6000823e601f3d908101601f1916820160405260208110156116a757600080fd5b8101908080516040519392919084600160201b8211156116c657600080fd5b9083019060208201858111156116db57600080fd5b82518660208202830111600160201b821117156116f757600080fd5b82525081516020918201928201910280838360005b8381101561172457818101518382015260200161170c565b505050509190910160408181526009546307c0329d60e21b8352600483018e8152602484019283528a5160448501528a519899506060986001600160a01b039092169750631f00ca7496508e95508a945092606401906020808601910280838360005b8381101561179f578181015183820152602001611787565b50505050905001935050505060006040518083038186803b1580156117c357600080fd5b505afa1580156117d7573d6000803e3d6000fd5b505050506040513d6000823e601f3d908101601f19168201604052602081101561180057600080fd5b8101908080516040519392919084600160201b82111561181f57600080fd5b90830190602082018581111561183457600080fd5b82518660208202830111600160201b8211171561185057600080fd5b82525081516020918201928201910280838360005b8381101561187d578181015183820152602001611865565b5050505090500160405250505090508160008151811061189957fe5b60200260200101519550806001815181106118b057fe5b60200260200101519450505050505b600554600354604080516370a0823160e01b81523060048201529051600093926001600160a01b0316916370a08231916024808301926020929190829003018186803b15801561190e57600080fd5b505afa158015611922573d6000803e3d6000fd5b505050506040513d602081101561193857600080fd5b50518484010103905085651cae8c13e00082028161195257fe5b04965050505050505090565b611966611ea6565b6000546001600160a01b039081169116146119b6576040805162461bcd60e51b81526020600482018190526024820152600080516020611f9c833981519152604482015290519081900360640190fd5b6119bf81611eaa565b50565b600554600354604080516370a0823160e01b815230600482015290516000938493849391926001600160a01b03909116916370a08231916024808301926020929190829003018186803b158015611a1857600080fd5b505afa158015611a2c573d6000803e3d6000fd5b505050506040513d6020811015611a4257600080fd5b505160029190030493849350915050565b80820382811115611aa3576040805162461bcd60e51b815260206004820152601560248201527464732d6d6174682d7375622d756e646572666c6f7760581b604482015290519081900360640190fd5b92915050565b6000811580611ac457505080820282828281611ac157fe5b04145b611aa3576040805162461bcd60e51b815260206004820152601460248201527364732d6d6174682d6d756c2d6f766572666c6f7760601b604482015290519081900360640190fd5b6000611b166119c2565b509050678ac7230489e80000811115611b3157611b316106ff565b611b39610423565b6007555042600655565b6000808211611b90576040805162461bcd60e51b815260206004820152601460248201527364732d6d6174682d6d756c2d6f766572666c6f7760601b604482015290519081900360640190fd5b818381611b9957fe5b049392505050565b604080516002808252606080830184529260208301908036833750506040805160028082526060808301845294955090925090602083019080368337505060035484519293506001600160a01b031691849150600090611bfd57fe5b6001600160a01b0392831660209182029290920101526001805484519216918491908110611c2757fe5b6001600160a01b03928316602091820292909201015260035482519116908290600090611c5057fe5b6001600160a01b039283166020918202929092010152600254825191169082906001908110611c7b57fe5b6001600160a01b039283166020918202929092018101919091526003546009546040805163095ea7b360e01b81529185166004830152888801602483015251919093169263095ea7b39260448083019391928290030181600087803b158015611ce357600080fd5b505af1158015611cf7573d6000803e3d6000fd5b505050506040513d6020811015611d0d57600080fd5b5050600954604051635c11d79560e01b8152600481018681526000602483018190523060648401819052426084850181905260a060448601908152885160a487015288516001600160a01b0390971696635c11d795968c968b9594939092909160c40190602087810191028083838b5b83811015611d95578181015183820152602001611d7d565b505050509050019650505050505050600060405180830381600087803b158015611dbe57600080fd5b505af1158015611dd2573d6000803e3d6000fd5b5050600954604051635c11d79560e01b8152600481018781526000602483018190523060648401819052426084850181905260a060448601908152895160a487015289516001600160a01b039097169850635c11d79597508b9693958a95939492939260c490910190602080880191028083838b5b83811015611e5f578181015183820152602001611e47565b505050509050019650505050505050600060405180830381600087803b158015611e8857600080fd5b505af1158015611e9c573d6000803e3d6000fd5b5050505050505050565b3390565b6001600160a01b038116611eef5760405162461bcd60e51b8152600401808060200182810382526026815260200180611f766026913960400191505060405180910390fd5b600080546040516001600160a01b0380851693921691600080516020611fbc83398151915291a3600080546001600160a01b0319166001600160a01b0392909216919091179055565b6040518060e0016040528060008152602001600081526020016000815260200160008152602001600081526020016000815260200160008152509056fe4f776e61626c653a206e6577206f776e657220697320746865207a65726f20616464726573734f776e61626c653a2063616c6c6572206973206e6f7420746865206f776e65728be0079c531659141344cd1fd0a4f28419497f9722a3daafe3b4186f6b6457e0a264697066735822122036c337b0441147134af06f9a4a2255528b7dc148c00f82d0edb90f644f7c7ba664736f6c634300060c0033",
  "linkReferences": {},
  "deployedLinkReferences": {}
}