{
  "_format": "hh-sol-artifact-1",
  "contractName": "BEP20Token",
  "sourceName": "contracts/libs/BUSD.sol",
  "abi": [
    {
      "inputs": [],
      "payable": false,
      "stateMutability": "nonpayable",
      "type": "constructor"
    },
    {
      "anonymous": false,
      "inputs": [
        {
          "indexed": true,
          "internalType": "address",
          "name": "owner",
          "type": "address"
        },
        {
          "indexed": true,
          "internalType": "address",
          "name": "spender",
          "type": "address"
        },
        {
          "indexed": false,
          "internalType": "uint256",
          "name": "value",
          "type": "uint256"
        }
      ],
      "name": "Approval",
      "type": "event"
    },
    {
      "anonymous": false,
      "inputs": [
        {
          "indexed": true,
          "internalType": "address",
          "name": "previousOwner",
          "type": "address"
        },
        {
          "indexed": true,
          "internalType": "address",
          "name": "newOwner",
          "type": "address"
        }
      ],
      "name": "OwnershipTransferred",
      "type": "event"
    },
    {
      "anonymous": false,
      "inputs": [
        {
          "indexed": true,
          "internalType": "address",
          "name": "from",
          "type": "address"
        },
        {
          "indexed": true,
          "internalType": "address",
          "name": "to",
          "type": "address"
        },
        {
          "indexed": false,
          "internalType": "uint256",
          "name": "value",
          "type": "uint256"
        }
      ],
      "name": "Transfer",
      "type": "event"
    },
    {
      "constant": true,
      "inputs": [],
      "name": "_decimals",
      "outputs": [
        {
          "internalType": "uint8",
          "name": "",
          "type": "uint8"
        }
      ],
      "payable": false,
      "stateMutability": "view",
      "type": "function"
    },
    {
      "constant": true,
      "inputs": [],
      "name": "_name",
      "outputs": [
        {
          "internalType": "string",
          "name": "",
          "type": "string"
        }
      ],
      "payable": false,
      "stateMutability": "view",
      "type": "function"
    },
    {
      "constant": true,
      "inputs": [],
      "name": "_symbol",
      "outputs": [
        {
          "internalType": "string",
          "name": "",
          "type": "string"
        }
      ],
      "payable": false,
      "stateMutability": "view",
      "type": "function"
    },
    {
      "constant": true,
      "inputs": [
        {
          "internalType": "address",
          "name": "owner",
          "type": "address"
        },
        {
          "internalType": "address",
          "name": "spender",
          "type": "address"
        }
      ],
      "name": "allowance",
      "outputs": [
        {
          "internalType": "uint256",
          "name": "",
          "type": "uint256"
        }
      ],
      "payable": false,
      "stateMutability": "view",
      "type": "function"
    },
    {
      "constant": false,
      "inputs": [
        {
          "internalType": "address",
          "name": "spender",
          "type": "address"
        },
        {
          "internalType": "uint256",
          "name": "amount",
          "type": "uint256"
        }
      ],
      "name": "approve",
      "outputs": [
        {
          "internalType": "bool",
          "name": "",
          "type": "bool"
        }
      ],
      "payable": false,
      "stateMutability": "nonpayable",
      "type": "function"
    },
    {
      "constant": true,
      "inputs": [
        {
          "internalType": "address",
          "name": "account",
          "type": "address"
        }
      ],
      "name": "balanceOf",
      "outputs": [
        {
          "internalType": "uint256",
          "name": "",
          "type": "uint256"
        }
      ],
      "payable": false,
      "stateMutability": "view",
      "type": "function"
    },
    {
      "constant": false,
      "inputs": [
        {
          "internalType": "uint256",
          "name": "amount",
          "type": "uint256"
        }
      ],
      "name": "burn",
      "outputs": [
        {
          "internalType": "bool",
          "name": "",
          "type": "bool"
        }
      ],
      "payable": false,
      "stateMutability": "nonpayable",
      "type": "function"
    },
    {
      "constant": true,
      "inputs": [],
      "name": "decimals",
      "outputs": [
        {
          "internalType": "uint8",
          "name": "",
          "type": "uint8"
        }
      ],
      "payable": false,
      "stateMutability": "view",
      "type": "function"
    },
    {
      "constant": false,
      "inputs": [
        {
          "internalType": "address",
          "name": "spender",
          "type": "address"
        },
        {
          "internalType": "uint256",
          "name": "subtractedValue",
          "type": "uint256"
        }
      ],
      "name": "decreaseAllowance",
      "outputs": [
        {
          "internalType": "bool",
          "name": "",
          "type": "bool"
        }
      ],
      "payable": false,
      "stateMutability": "nonpayable",
      "type": "function"
    },
    {
      "constant": true,
      "inputs": [],
      "name": "getOwner",
      "outputs": [
        {
          "internalType": "address",
          "name": "",
          "type": "address"
        }
      ],
      "payable": false,
      "stateMutability": "view",
      "type": "function"
    },
    {
      "constant": false,
      "inputs": [
        {
          "internalType": "address",
          "name": "spender",
          "type": "address"
        },
        {
          "internalType": "uint256",
          "name": "addedValue",
          "type": "uint256"
        }
      ],
      "name": "increaseAllowance",
      "outputs": [
        {
          "internalType": "bool",
          "name": "",
          "type": "bool"
        }
      ],
      "payable": false,
      "stateMutability": "nonpayable",
      "type": "function"
    },
    {
      "constant": false,
      "inputs": [
        {
          "internalType": "uint256",
          "name": "amount",
          "type": "uint256"
        }
      ],
      "name": "mint",
      "outputs": [
        {
          "internalType": "bool",
          "name": "",
          "type": "bool"
        }
      ],
      "payable": false,
      "stateMutability": "nonpayable",
      "type": "function"
    },
    {
      "constant": true,
      "inputs": [],
      "name": "name",
      "outputs": [
        {
          "internalType": "string",
          "name": "",
          "type": "string"
        }
      ],
      "payable": false,
      "stateMutability": "view",
      "type": "function"
    },
    {
      "constant": true,
      "inputs": [],
      "name": "owner",
      "outputs": [
        {
          "internalType": "address",
          "name": "",
          "type": "address"
        }
      ],
      "payable": false,
      "stateMutability": "view",
      "type": "function"
    },
    {
      "constant": false,
      "inputs": [],
      "name": "renounceOwnership",
      "outputs": [],
      "payable": false,
      "stateMutability": "nonpayable",
      "type": "function"
    },
    {
      "constant": true,
      "inputs": [],
      "name": "symbol",
      "outputs": [
        {
          "internalType": "string",
          "name": "",
          "type": "string"
        }
      ],
      "payable": false,
      "stateMutability": "view",
      "type": "function"
    },
    {
      "constant": true,
      "inputs": [],
      "name": "totalSupply",
      "outputs": [
        {
          "internalType": "uint256",
          "name": "",
          "type": "uint256"
        }
      ],
      "payable": false,
      "stateMutability": "view",
      "type": "function"
    },
    {
      "constant": false,
      "inputs": [
        {
          "internalType": "address",
          "name": "recipient",
          "type": "address"
        },
        {
          "internalType": "uint256",
          "name": "amount",
          "type": "uint256"
        }
      ],
      "name": "transfer",
      "outputs": [
        {
          "internalType": "bool",
          "name": "",
          "type": "bool"
        }
      ],
      "payable": false,
      "stateMutability": "nonpayable",
      "type": "function"
    },
    {
      "constant": false,
      "inputs": [
        {
          "internalType": "address",
          "name": "sender",
          "type": "address"
        },
        {
          "internalType": "address",
          "name": "recipient",
          "type": "address"
        },
        {
          "internalType": "uint256",
          "name": "amount",
          "type": "uint256"
        }
      ],
      "name": "transferFrom",
      "outputs": [
        {
          "internalType": "bool",
          "name": "",
          "type": "bool"
        }
      ],
      "payable": false,
      "stateMutability": "nonpayable",
      "type": "function"
    },
    {
      "constant": false,
      "inputs": [
        {
          "internalType": "address",
          "name": "newOwner",
          "type": "address"
        }
      ],
      "name": "transferOwnership",
      "outputs": [],
      "payable": false,
      "stateMutability": "nonpayable",
      "type": "function"
    }
  ],
  "bytecode": "0x60806040523480156200001157600080fd5b506000620000276001600160e01b036200014116565b600080546001600160a01b0319166001600160a01b0383169081178255604051929350917f8be0079c531659141344cd1fd0a4f28419497f9722a3daafe3b4186f6b6457e0908290a35060408051808201909152600a80825269212aa9a2102a37b5b2b760b11b6020909201918252620000a49160069162000146565b5060408051808201909152600480825263109554d160e21b6020909201918252620000d29160059162000146565b506004805460ff191660121790556b0295be96e6406697200000006003819055336000818152600160209081526040808320859055805194855251929391927fddf252ad1be2c89b69c2b068fc378daa952ba7f163c4a11628f55a4df523b3ef9281900390910190a3620001e8565b335b90565b828054600181600116156101000203166002900490600052602060002090601f016020900481019282601f106200018957805160ff1916838001178555620001b9565b82800160010185558215620001b9579182015b82811115620001b95782518255916020019190600101906200019c565b50620001c7929150620001cb565b5090565b6200014391905b80821115620001c75760008155600101620001d2565b6110db80620001f86000396000f3fe608060405234801561001057600080fd5b50600436106100fc5760003560e01c806306fdde0314610101578063095ea7b31461017e57806318160ddd146101be57806323b872dd146101d8578063313ce5671461020e57806332424aa31461022c578063395093511461023457806342966c681461026057806370a082311461027d578063715018a6146102a3578063893d20e8146102ad5780638da5cb5b146102d157806395d89b41146102d9578063a0712d68146102e1578063a457c2d7146102fe578063a9059cbb1461032a578063b09f126614610356578063d28d88521461035e578063dd62ed3e14610366578063f2fde38b14610394575b600080fd5b6101096103ba565b6040805160208082528351818301528351919283929083019185019080838360005b8381101561014357818101518382015260200161012b565b50505050905090810190601f1680156101705780820380516001836020036101000a031916815260200191505b509250505060405180910390f35b6101aa6004803603604081101561019457600080fd5b506001600160a01b038135169060200135610450565b604080519115158252519081900360200190f35b6101c661046d565b60408051918252519081900360200190f35b6101aa600480360360608110156101ee57600080fd5b506001600160a01b03813581169160208101359091169060400135610473565b610216610500565b6040805160ff9092168252519081900360200190f35b610216610509565b6101aa6004803603604081101561024a57600080fd5b506001600160a01b038135169060200135610512565b6101aa6004803603602081101561027657600080fd5b5035610566565b6101c66004803603602081101561029357600080fd5b50356001600160a01b0316610581565b6102ab61059c565b005b6102b561062c565b604080516001600160a01b039092168252519081900360200190f35b6102b561063b565b61010961064a565b6101aa600480360360208110156102f757600080fd5b50356106ab565b6101aa6004803603604081101561031457600080fd5b506001600160a01b038135169060200135610716565b6101aa6004803603604081101561034057600080fd5b506001600160a01b038135169060200135610784565b610109610798565b610109610826565b6101c66004803603604081101561037c57600080fd5b506001600160a01b0381358116916020013516610881565b6102ab600480360360208110156103aa57600080fd5b50356001600160a01b03166108ac565b60068054604080516020601f60026000196101006001881615020190951694909404938401819004810282018101909252828152606093909290918301828280156104465780601f1061041b57610100808354040283529160200191610446565b820191906000526020600020905b81548152906001019060200180831161042957829003601f168201915b5050505050905090565b600061046461045d610910565b8484610914565b50600192915050565b60035490565b6000610480848484610a00565b6104f68461048c610910565b6104f185604051806060016040528060288152602001610f4c602891396001600160a01b038a166000908152600260205260408120906104ca610910565b6001600160a01b03168152602081019190915260400160002054919063ffffffff610b4c16565b610914565b5060019392505050565b60045460ff1690565b60045460ff1681565b600061046461051f610910565b846104f18560026000610530610910565b6001600160a01b03908116825260208083019390935260409182016000908120918c16815292529020549063ffffffff610be316565b6000610579610573610910565b83610c42565b506001919050565b6001600160a01b031660009081526001602052604090205490565b6105a4610910565b6000546001600160a01b039081169116146105f4576040805162461bcd60e51b81526020600482018190526024820152600080516020610f74833981519152604482015290519081900360640190fd5b600080546040516001600160a01b0390911690600080516020610f94833981519152908390a3600080546001600160a01b0319169055565b600061063661063b565b905090565b6000546001600160a01b031690565b60058054604080516020601f60026000196101006001881615020190951694909404938401819004810282018101909252828152606093909290918301828280156104465780601f1061041b57610100808354040283529160200191610446565b60006106b5610910565b6000546001600160a01b03908116911614610705576040805162461bcd60e51b81526020600482018190526024820152600080516020610f74833981519152604482015290519081900360640190fd5b610579610710610910565b83610d2c565b6000610464610723610910565b846104f18560405180606001604052806025815260200161101d602591396002600061074d610910565b6001600160a01b03908116825260208083019390935260409182016000908120918d1681529252902054919063ffffffff610b4c16565b6000610464610791610910565b8484610a00565b6005805460408051602060026001851615610100026000190190941693909304601f8101849004840282018401909252818152929183018282801561081e5780601f106107f35761010080835404028352916020019161081e565b820191906000526020600020905b81548152906001019060200180831161080157829003601f168201915b505050505081565b6006805460408051602060026001851615610100026000190190941693909304601f8101849004840282018401909252818152929183018282801561081e5780601f106107f35761010080835404028352916020019161081e565b6001600160a01b03918216600090815260026020908152604080832093909416825291909152205490565b6108b4610910565b6000546001600160a01b03908116911614610904576040805162461bcd60e51b81526020600482018190526024820152600080516020610f74833981519152604482015290519081900360640190fd5b61090d81610e0c565b50565b3390565b6001600160a01b0383166109595760405162461bcd60e51b8152600401808060200182810382526024815260200180610f026024913960400191505060405180910390fd5b6001600160a01b03821661099e5760405162461bcd60e51b81526004018080602001828103825260228152602001806110856022913960400191505060405180910390fd5b6001600160a01b03808416600081815260026020908152604080832094871680845294825291829020859055815185815291517f8c5be1e5ebec7d5bd14f71427d1e84f3dd0314c0f7b2291e5b200ac8c7c3b9259281900390910190a3505050565b6001600160a01b038316610a455760405162461bcd60e51b8152600401808060200182810382526025815260200180610edd6025913960400191505060405180910390fd5b6001600160a01b038216610a8a5760405162461bcd60e51b8152600401808060200182810382526023815260200180610ffa6023913960400191505060405180910390fd5b610acd81604051806060016040528060268152602001610fb4602691396001600160a01b038616600090815260016020526040902054919063ffffffff610b4c16565b6001600160a01b038085166000908152600160205260408082209390935590841681522054610b02908263ffffffff610be316565b6001600160a01b038084166000818152600160209081526040918290209490945580518581529051919392871692600080516020610fda83398151915292918290030190a3505050565b60008184841115610bdb5760405162461bcd60e51b81526004018080602001828103825283818151815260200191508051906020019080838360005b83811015610ba0578181015183820152602001610b88565b50505050905090810190601f168015610bcd5780820380516001836020036101000a031916815260200191505b509250505060405180910390fd5b505050900390565b600082820183811015610c3b576040805162461bcd60e51b815260206004820152601b60248201527a536166654d6174683a206164646974696f6e206f766572666c6f7760281b604482015290519081900360640190fd5b9392505050565b6001600160a01b038216610c875760405162461bcd60e51b81526004018080602001828103825260218152602001806110426021913960400191505060405180910390fd5b610cca81604051806060016040528060228152602001611063602291396001600160a01b038516600090815260016020526040902054919063ffffffff610b4c16565b6001600160a01b038316600090815260016020526040902055600354610cf6908263ffffffff610e9a16565b6003556040805182815290516000916001600160a01b03851691600080516020610fda8339815191529181900360200190a35050565b6001600160a01b038216610d87576040805162461bcd60e51b815260206004820152601f60248201527f42455032303a206d696e7420746f20746865207a65726f206164647265737300604482015290519081900360640190fd5b600354610d9a908263ffffffff610be316565b6003556001600160a01b038216600090815260016020526040902054610dc6908263ffffffff610be316565b6001600160a01b0383166000818152600160209081526040808320949094558351858152935192939192600080516020610fda8339815191529281900390910190a35050565b6001600160a01b038116610e515760405162461bcd60e51b8152600401808060200182810382526026815260200180610f266026913960400191505060405180910390fd5b600080546040516001600160a01b0380851693921691600080516020610f9483398151915291a3600080546001600160a01b0319166001600160a01b0392909216919091179055565b6000610c3b83836040518060400160405280601e81526020017f536166654d6174683a207375627472616374696f6e206f766572666c6f770000815250610b4c56fe42455032303a207472616e736665722066726f6d20746865207a65726f206164647265737342455032303a20617070726f76652066726f6d20746865207a65726f20616464726573734f776e61626c653a206e6577206f776e657220697320746865207a65726f206164647265737342455032303a207472616e7366657220616d6f756e74206578636565647320616c6c6f77616e63654f776e61626c653a2063616c6c6572206973206e6f7420746865206f776e65728be0079c531659141344cd1fd0a4f28419497f9722a3daafe3b4186f6b6457e042455032303a207472616e7366657220616d6f756e7420657863656564732062616c616e6365ddf252ad1be2c89b69c2b068fc378daa952ba7f163c4a11628f55a4df523b3ef42455032303a207472616e7366657220746f20746865207a65726f206164647265737342455032303a2064656372656173656420616c6c6f77616e63652062656c6f77207a65726f42455032303a206275726e2066726f6d20746865207a65726f206164647265737342455032303a206275726e20616d6f756e7420657863656564732062616c616e636542455032303a20617070726f766520746f20746865207a65726f2061646472657373a265627a7a72315820ec2a559f199fdd9b880149343cac59b94fc9e864be2e18dc22f33621250e039a64736f6c63430005100032",
  "linkReferences": {},
  "deployedLinkReferences": {}
}